{
	"CasaDeCambio.sol": {
		"CasaDeCambio": {
			"abi": [
				{
					"inputs": [
						{
							"internalType": "address",
							"name": "tokenAdress",
							"type": "address"
						}
					],
					"stateMutability": "nonpayable",
					"type": "constructor"
				},
				{
					"anonymous": false,
					"inputs": [
						{
							"indexed": false,
							"internalType": "uint256",
							"name": "ultimaOfertaAdicionada",
							"type": "uint256"
						},
						{
							"indexed": false,
							"internalType": "uint256",
							"name": "quantidade",
							"type": "uint256"
						},
						{
							"indexed": false,
							"internalType": "uint256",
							"name": "preco",
							"type": "uint256"
						}
					],
					"name": "ofertaRealizada",
					"type": "event"
				},
				{
					"inputs": [
						{
							"internalType": "uint256",
							"name": "id",
							"type": "uint256"
						}
					],
					"name": "compra",
					"outputs": [],
					"stateMutability": "payable",
					"type": "function"
				},
				{
					"inputs": [],
					"name": "consultaOfertas",
					"outputs": [
						{
							"internalType": "uint256",
							"name": "",
							"type": "uint256"
						},
						{
							"internalType": "uint256",
							"name": "",
							"type": "uint256"
						}
					],
					"stateMutability": "view",
					"type": "function"
				},
				{
					"inputs": [
						{
							"internalType": "uint256",
							"name": "",
							"type": "uint256"
						}
					],
					"name": "ofertas",
					"outputs": [
						{
							"internalType": "uint256",
							"name": "id",
							"type": "uint256"
						},
						{
							"internalType": "uint256",
							"name": "quantidadeTokens",
							"type": "uint256"
						},
						{
							"internalType": "uint256",
							"name": "precoLote",
							"type": "uint256"
						},
						{
							"internalType": "address",
							"name": "dono",
							"type": "address"
						},
						{
							"internalType": "bool",
							"name": "ehAtivo",
							"type": "bool"
						}
					],
					"stateMutability": "view",
					"type": "function"
				},
				{
					"inputs": [
						{
							"internalType": "uint256",
							"name": "",
							"type": "uint256"
						}
					],
					"name": "ofertasAtivas",
					"outputs": [
						{
							"internalType": "uint256",
							"name": "id",
							"type": "uint256"
						},
						{
							"internalType": "uint256",
							"name": "quantidadeTokens",
							"type": "uint256"
						},
						{
							"internalType": "uint256",
							"name": "precoLote",
							"type": "uint256"
						},
						{
							"internalType": "address",
							"name": "dono",
							"type": "address"
						},
						{
							"internalType": "bool",
							"name": "ehAtivo",
							"type": "bool"
						}
					],
					"stateMutability": "view",
					"type": "function"
				},
				{
					"inputs": [],
					"name": "owner",
					"outputs": [
						{
							"internalType": "address",
							"name": "",
							"type": "address"
						}
					],
					"stateMutability": "view",
					"type": "function"
				},
				{
					"inputs": [
						{
							"internalType": "uint256",
							"name": "quantidadeTokens",
							"type": "uint256"
						},
						{
							"internalType": "uint256",
							"name": "precoLote",
							"type": "uint256"
						}
					],
					"name": "realizaOferta",
					"outputs": [],
					"stateMutability": "nonpayable",
					"type": "function"
				},
				{
					"inputs": [],
					"name": "sacarFundos",
					"outputs": [],
					"stateMutability": "nonpayable",
					"type": "function"
				},
				{
					"inputs": [],
					"name": "token",
					"outputs": [
						{
							"internalType": "contract ERC20",
							"name": "",
							"type": "address"
						}
					],
					"stateMutability": "view",
					"type": "function"
				}
			],
			"devdoc": {
				"kind": "dev",
				"methods": {},
				"version": 1
			},
			"evm": {
				"assembly": "    /* \"CasaDeCambio.sol\":438:4340  contract CasaDeCambio is CasaDeCambioAbstract{... */\n  mstore(0x40, 0xa0)\n    /* \"CasaDeCambio.sol\":707:708  0 */\n  0x00\n    /* \"CasaDeCambio.sol\":685:708  uint256 qtddOfertas = 0 */\n  0x01\n  sstore\n    /* \"CasaDeCambio.sol\":743:744  0 */\n  0x00\n    /* \"CasaDeCambio.sol\":715:744  uint256 qtddOfertasAtivas = 0 */\n  0x02\n  sstore\n    /* \"CasaDeCambio.sol\":885:962  constructor(address tokenAdress){... */\n  callvalue\n  dup1\n  iszero\n  tag_1\n  jumpi\n  0x00\n  dup1\n  revert\ntag_1:\n  pop\n  mload(0x40)\n  sub(codesize, bytecodeSize)\n  dup1\n  bytecodeSize\n  dup4\n  codecopy\n  dup2\n  dup2\n  add\n  0x40\n  mstore\n  dup2\n  add\n  swap1\n  tag_2\n  swap2\n  swap1\n  tag_3\n  jump\t// in\ntag_2:\n    /* \"ControleAcessoDono.sol\":368:378  msg.sender */\n  caller\n    /* \"ControleAcessoDono.sol\":360:365  owner */\n  0x00\n  dup1\n    /* \"ControleAcessoDono.sol\":360:378  owner = msg.sender */\n  0x0100\n  exp\n  dup2\n  sload\n  dup2\n  0xffffffffffffffffffffffffffffffffffffffff\n  mul\n  not\n  and\n  swap1\n  dup4\n  0xffffffffffffffffffffffffffffffffffffffff\n  and\n  mul\n  or\n  swap1\n  sstore\n  pop\n    /* \"CasaDeCambio.sol\":942:953  tokenAdress */\n  dup1\n    /* \"CasaDeCambio.sol\":928:954  token = ERC20(tokenAdress) */\n  0xffffffffffffffffffffffffffffffffffffffff\n  and\n  0x80\n  dup2\n  0xffffffffffffffffffffffffffffffffffffffff\n  and\n  dup2\n  mstore\n  pop\n  pop\n    /* \"CasaDeCambio.sol\":885:962  constructor(address tokenAdress){... */\n  pop\n    /* \"CasaDeCambio.sol\":438:4340  contract CasaDeCambio is CasaDeCambioAbstract{... */\n  jump(tag_8)\n    /* \"#utility.yul\":88:205   */\ntag_10:\n    /* \"#utility.yul\":197:198   */\n  0x00\n    /* \"#utility.yul\":194:195   */\n  dup1\n    /* \"#utility.yul\":187:199   */\n  revert\n    /* \"#utility.yul\":334:460   */\ntag_12:\n    /* \"#utility.yul\":371:378   */\n  0x00\n    /* \"#utility.yul\":411:453   */\n  0xffffffffffffffffffffffffffffffffffffffff\n    /* \"#utility.yul\":404:409   */\n  dup3\n    /* \"#utility.yul\":400:454   */\n  and\n    /* \"#utility.yul\":389:454   */\n  swap1\n  pop\n    /* \"#utility.yul\":334:460   */\n  swap2\n  swap1\n  pop\n  jump\t// out\n    /* \"#utility.yul\":466:562   */\ntag_13:\n    /* \"#utility.yul\":503:510   */\n  0x00\n    /* \"#utility.yul\":532:556   */\n  tag_22\n    /* \"#utility.yul\":550:555   */\n  dup3\n    /* \"#utility.yul\":532:556   */\n  tag_12\n  jump\t// in\ntag_22:\n    /* \"#utility.yul\":521:556   */\n  swap1\n  pop\n    /* \"#utility.yul\":466:562   */\n  swap2\n  swap1\n  pop\n  jump\t// out\n    /* \"#utility.yul\":568:690   */\ntag_14:\n    /* \"#utility.yul\":641:665   */\n  tag_24\n    /* \"#utility.yul\":659:664   */\n  dup2\n    /* \"#utility.yul\":641:665   */\n  tag_13\n  jump\t// in\ntag_24:\n    /* \"#utility.yul\":634:639   */\n  dup2\n    /* \"#utility.yul\":631:666   */\n  eq\n    /* \"#utility.yul\":621:684   */\n  tag_25\n  jumpi\n    /* \"#utility.yul\":680:681   */\n  0x00\n    /* \"#utility.yul\":677:678   */\n  dup1\n    /* \"#utility.yul\":670:682   */\n  revert\n    /* \"#utility.yul\":621:684   */\ntag_25:\n    /* \"#utility.yul\":568:690   */\n  pop\n  jump\t// out\n    /* \"#utility.yul\":696:839   */\ntag_15:\n    /* \"#utility.yul\":753:758   */\n  0x00\n    /* \"#utility.yul\":784:790   */\n  dup2\n    /* \"#utility.yul\":778:791   */\n  mload\n    /* \"#utility.yul\":769:791   */\n  swap1\n  pop\n    /* \"#utility.yul\":800:833   */\n  tag_27\n    /* \"#utility.yul\":827:832   */\n  dup2\n    /* \"#utility.yul\":800:833   */\n  tag_14\n  jump\t// in\ntag_27:\n    /* \"#utility.yul\":696:839   */\n  swap3\n  swap2\n  pop\n  pop\n  jump\t// out\n    /* \"#utility.yul\":845:1196   */\ntag_3:\n    /* \"#utility.yul\":915:921   */\n  0x00\n    /* \"#utility.yul\":964:966   */\n  0x20\n    /* \"#utility.yul\":952:961   */\n  dup3\n    /* \"#utility.yul\":943:950   */\n  dup5\n    /* \"#utility.yul\":939:962   */\n  sub\n    /* \"#utility.yul\":935:967   */\n  slt\n    /* \"#utility.yul\":932:1051   */\n  iszero\n  tag_29\n  jumpi\n    /* \"#utility.yul\":970:1049   */\n  tag_30\n  tag_10\n  jump\t// in\ntag_30:\n    /* \"#utility.yul\":932:1051   */\ntag_29:\n    /* \"#utility.yul\":1090:1091   */\n  0x00\n    /* \"#utility.yul\":1115:1179   */\n  tag_31\n    /* \"#utility.yul\":1171:1178   */\n  dup5\n    /* \"#utility.yul\":1162:1168   */\n  dup3\n    /* \"#utility.yul\":1151:1160   */\n  dup6\n    /* \"#utility.yul\":1147:1169   */\n  add\n    /* \"#utility.yul\":1115:1179   */\n  tag_15\n  jump\t// in\ntag_31:\n    /* \"#utility.yul\":1105:1179   */\n  swap2\n  pop\n    /* \"#utility.yul\":1061:1189   */\n  pop\n    /* \"#utility.yul\":845:1196   */\n  swap3\n  swap2\n  pop\n  pop\n  jump\t// out\n    /* \"CasaDeCambio.sol\":438:4340  contract CasaDeCambio is CasaDeCambioAbstract{... */\ntag_8:\n  mload(0x80)\n  codecopy(0x00, dataOffset(sub_0), dataSize(sub_0))\n  0x00\n  assignImmutable(\"0x3fd68d21223d6fc23edec694e1b0dd90d283ae600f00f762095afcbb0d71f155\")\n  return(0x00, dataSize(sub_0))\nstop\n\nsub_0: assembly {\n        /* \"CasaDeCambio.sol\":438:4340  contract CasaDeCambio is CasaDeCambioAbstract{... */\n      mstore(0x40, 0x80)\n      jumpi(tag_1, lt(calldatasize, 0x04))\n      shr(0xe0, calldataload(0x00))\n      dup1\n      0x7cb02950\n      gt\n      tag_10\n      jumpi\n      dup1\n      0x7cb02950\n      eq\n      tag_6\n      jumpi\n      dup1\n      0x8da5cb5b\n      eq\n      tag_7\n      jumpi\n      dup1\n      0x90041a40\n      eq\n      tag_8\n      jumpi\n      dup1\n      0xfc0c546a\n      eq\n      tag_9\n      jumpi\n      jump(tag_1)\n    tag_10:\n      dup1\n      0x2c562a44\n      eq\n      tag_2\n      jumpi\n      dup1\n      0x506e1d52\n      eq\n      tag_3\n      jumpi\n      dup1\n      0x56afff7c\n      eq\n      tag_4\n      jumpi\n      dup1\n      0x5f6df038\n      eq\n      tag_5\n      jumpi\n    tag_1:\n      0x00\n      dup1\n      revert\n        /* \"CasaDeCambio.sol\":1290:2288  function realizaOferta(uint256 quantidadeTokens, uint256 precoLote) external apenasDono override {... */\n    tag_2:\n      callvalue\n      dup1\n      iszero\n      tag_11\n      jumpi\n      0x00\n      dup1\n      revert\n    tag_11:\n      pop\n      tag_12\n      0x04\n      dup1\n      calldatasize\n      sub\n      dup2\n      add\n      swap1\n      tag_13\n      swap2\n      swap1\n      tag_14\n      jump\t// in\n    tag_13:\n      tag_15\n      jump\t// in\n    tag_12:\n      stop\n        /* \"CasaDeCambio.sol\":3445:3577  function consultaOfertas() external view override returns (uint, uint){... */\n    tag_3:\n      callvalue\n      dup1\n      iszero\n      tag_16\n      jumpi\n      0x00\n      dup1\n      revert\n    tag_16:\n      pop\n      tag_17\n      tag_18\n      jump\t// in\n    tag_17:\n      mload(0x40)\n      tag_19\n      swap3\n      swap2\n      swap1\n      tag_20\n      jump\t// in\n    tag_19:\n      mload(0x40)\n      dup1\n      swap2\n      sub\n      swap1\n      return\n        /* \"CasaDeCambio.sol\":779:820  mapping(uint256 => Oferta) public ofertas */\n    tag_4:\n      callvalue\n      dup1\n      iszero\n      tag_21\n      jumpi\n      0x00\n      dup1\n      revert\n    tag_21:\n      pop\n      tag_22\n      0x04\n      dup1\n      calldatasize\n      sub\n      dup2\n      add\n      swap1\n      tag_23\n      swap2\n      swap1\n      tag_24\n      jump\t// in\n    tag_23:\n      tag_25\n      jump\t// in\n    tag_22:\n      mload(0x40)\n      tag_26\n      swap6\n      swap5\n      swap4\n      swap3\n      swap2\n      swap1\n      tag_27\n      jump\t// in\n    tag_26:\n      mload(0x40)\n      dup1\n      swap2\n      sub\n      swap1\n      return\n        /* \"CasaDeCambio.sol\":3670:3837  function sacarFundos() public apenasDono override{... */\n    tag_5:\n      callvalue\n      dup1\n      iszero\n      tag_28\n      jumpi\n      0x00\n      dup1\n      revert\n    tag_28:\n      pop\n      tag_29\n      tag_30\n      jump\t// in\n    tag_29:\n      stop\n        /* \"CasaDeCambio.sol\":2557:3332  function compra(uint256 id) external payable override{... */\n    tag_6:\n      tag_31\n      0x04\n      dup1\n      calldatasize\n      sub\n      dup2\n      add\n      swap1\n      tag_32\n      swap2\n      swap1\n      tag_24\n      jump\t// in\n    tag_32:\n      tag_33\n      jump\t// in\n    tag_31:\n      stop\n        /* \"ControleAcessoDono.sol\":167:187  address public owner */\n    tag_7:\n      callvalue\n      dup1\n      iszero\n      tag_34\n      jumpi\n      0x00\n      dup1\n      revert\n    tag_34:\n      pop\n      tag_35\n      tag_36\n      jump\t// in\n    tag_35:\n      mload(0x40)\n      tag_37\n      swap2\n      swap1\n      tag_38\n      jump\t// in\n    tag_37:\n      mload(0x40)\n      dup1\n      swap2\n      sub\n      swap1\n      return\n        /* \"CasaDeCambio.sol\":827:874  mapping(uint256 => Oferta) public ofertasAtivas */\n    tag_8:\n      callvalue\n      dup1\n      iszero\n      tag_39\n      jumpi\n      0x00\n      dup1\n      revert\n    tag_39:\n      pop\n      tag_40\n      0x04\n      dup1\n      calldatasize\n      sub\n      dup2\n      add\n      swap1\n      tag_41\n      swap2\n      swap1\n      tag_24\n      jump\t// in\n    tag_41:\n      tag_42\n      jump\t// in\n    tag_40:\n      mload(0x40)\n      tag_43\n      swap6\n      swap5\n      swap4\n      swap3\n      swap2\n      swap1\n      tag_27\n      jump\t// in\n    tag_43:\n      mload(0x40)\n      dup1\n      swap2\n      sub\n      swap1\n      return\n        /* \"CasaDeCambio.sol\":492:520  ERC20 public immutable token */\n    tag_9:\n      callvalue\n      dup1\n      iszero\n      tag_44\n      jumpi\n      0x00\n      dup1\n      revert\n    tag_44:\n      pop\n      tag_45\n      tag_46\n      jump\t// in\n    tag_45:\n      mload(0x40)\n      tag_47\n      swap2\n      swap1\n      tag_48\n      jump\t// in\n    tag_47:\n      mload(0x40)\n      dup1\n      swap2\n      sub\n      swap1\n      return\n        /* \"CasaDeCambio.sol\":1290:2288  function realizaOferta(uint256 quantidadeTokens, uint256 precoLote) external apenasDono override {... */\n    tag_15:\n        /* \"ControleAcessoDono.sol\":251:256  owner */\n      0x00\n      dup1\n      sload\n      swap1\n      0x0100\n      exp\n      swap1\n      div\n      0xffffffffffffffffffffffffffffffffffffffff\n      and\n        /* \"ControleAcessoDono.sol\":237:256  msg.sender == owner */\n      0xffffffffffffffffffffffffffffffffffffffff\n      and\n        /* \"ControleAcessoDono.sol\":237:247  msg.sender */\n      caller\n        /* \"ControleAcessoDono.sol\":237:256  msg.sender == owner */\n      0xffffffffffffffffffffffffffffffffffffffff\n      and\n      eq\n        /* \"ControleAcessoDono.sol\":229:307  require(msg.sender == owner, unicode\"Deve ser dono para chamar essa função\") */\n      tag_50\n      jumpi\n      mload(0x40)\n      0x08c379a000000000000000000000000000000000000000000000000000000000\n      dup2\n      mstore\n      0x04\n      add\n      tag_51\n      swap1\n      tag_52\n      jump\t// in\n    tag_51:\n      mload(0x40)\n      dup1\n      swap2\n      sub\n      swap1\n      revert\n    tag_50:\n        /* \"CasaDeCambio.sol\":1425:1426  0 */\n      0x00\n        /* \"CasaDeCambio.sol\":1406:1422  quantidadeTokens */\n      dup3\n        /* \"CasaDeCambio.sol\":1406:1426  quantidadeTokens !=0 */\n      sub\n        /* \"CasaDeCambio.sol\":1398:1456  require(quantidadeTokens !=0, unicode\"Não pode ser zero\") */\n      tag_54\n      jumpi\n      mload(0x40)\n      0x08c379a000000000000000000000000000000000000000000000000000000000\n      dup2\n      mstore\n      0x04\n      add\n      tag_55\n      swap1\n      tag_56\n      jump\t// in\n    tag_55:\n      mload(0x40)\n      dup1\n      swap2\n      sub\n      swap1\n      revert\n    tag_54:\n        /* \"CasaDeCambio.sol\":1514:1520  100000 */\n      0x0186a0\n        /* \"CasaDeCambio.sol\":1475:1480  token */\n      immutable(\"0x3fd68d21223d6fc23edec694e1b0dd90d283ae600f00f762095afcbb0d71f155\")\n        /* \"CasaDeCambio.sol\":1475:1490  token.balanceOf */\n      0xffffffffffffffffffffffffffffffffffffffff\n      and\n      0x70a08231\n        /* \"CasaDeCambio.sol\":1499:1509  msg.sender */\n      caller\n        /* \"CasaDeCambio.sol\":1475:1511  token.balanceOf(address(msg.sender)) */\n      mload(0x40)\n      dup3\n      0xffffffff\n      and\n      0xe0\n      shl\n      dup2\n      mstore\n      0x04\n      add\n      tag_57\n      swap2\n      swap1\n      tag_38\n      jump\t// in\n    tag_57:\n      0x20\n      mload(0x40)\n      dup1\n      dup4\n      sub\n      dup2\n      dup7\n      gas\n      staticcall\n      iszero\n      dup1\n      iszero\n      tag_59\n      jumpi\n      returndatasize\n      0x00\n      dup1\n      returndatacopy\n      revert(0x00, returndatasize)\n    tag_59:\n      pop\n      pop\n      pop\n      pop\n      mload(0x40)\n      returndatasize\n      not(0x1f)\n      0x1f\n      dup3\n      add\n      and\n      dup3\n      add\n      dup1\n      0x40\n      mstore\n      pop\n      dup2\n      add\n      swap1\n      tag_60\n      swap2\n      swap1\n      tag_61\n      jump\t// in\n    tag_60:\n        /* \"CasaDeCambio.sol\":1475:1520  token.balanceOf(address(msg.sender)) > 100000 */\n      gt\n        /* \"CasaDeCambio.sol\":1467:1531  require(token.balanceOf(address(msg.sender)) > 100000, \"sdasd \") */\n      tag_62\n      jumpi\n      mload(0x40)\n      0x08c379a000000000000000000000000000000000000000000000000000000000\n      dup2\n      mstore\n      0x04\n      add\n      tag_63\n      swap1\n      tag_64\n      jump\t// in\n    tag_63:\n      mload(0x40)\n      dup1\n      swap2\n      sub\n      swap1\n      revert\n    tag_62:\n        /* \"CasaDeCambio.sol\":1562:1563  0 */\n      0x00\n        /* \"CasaDeCambio.sol\":1550:1559  precoLote */\n      dup2\n        /* \"CasaDeCambio.sol\":1550:1563  precoLote !=0 */\n      sub\n        /* \"CasaDeCambio.sol\":1542:1585  require(precoLote !=0, \"Nao pode ser zero\") */\n      tag_65\n      jumpi\n      mload(0x40)\n      0x08c379a000000000000000000000000000000000000000000000000000000000\n      dup2\n      mstore\n      0x04\n      add\n      tag_66\n      swap1\n      tag_67\n      jump\t// in\n    tag_66:\n      mload(0x40)\n      dup1\n      swap2\n      sub\n      swap1\n      revert\n    tag_65:\n        /* \"CasaDeCambio.sol\":1598:1603  token */\n      immutable(\"0x3fd68d21223d6fc23edec694e1b0dd90d283ae600f00f762095afcbb0d71f155\")\n        /* \"CasaDeCambio.sol\":1598:1616  token.transferFrom */\n      0xffffffffffffffffffffffffffffffffffffffff\n      and\n      0x23b872dd\n        /* \"CasaDeCambio.sol\":1617:1627  msg.sender */\n      caller\n        /* \"CasaDeCambio.sol\":1637:1641  this */\n      address\n        /* \"CasaDeCambio.sol\":1644:1660  quantidadeTokens */\n      dup6\n        /* \"CasaDeCambio.sol\":1598:1661  token.transferFrom(msg.sender, address(this), quantidadeTokens) */\n      mload(0x40)\n      dup5\n      0xffffffff\n      and\n      0xe0\n      shl\n      dup2\n      mstore\n      0x04\n      add\n      tag_68\n      swap4\n      swap3\n      swap2\n      swap1\n      tag_69\n      jump\t// in\n    tag_68:\n      0x20\n      mload(0x40)\n      dup1\n      dup4\n      sub\n      dup2\n      0x00\n      dup8\n      gas\n      call\n      iszero\n      dup1\n      iszero\n      tag_71\n      jumpi\n      returndatasize\n      0x00\n      dup1\n      returndatacopy\n      revert(0x00, returndatasize)\n    tag_71:\n      pop\n      pop\n      pop\n      pop\n      mload(0x40)\n      returndatasize\n      not(0x1f)\n      0x1f\n      dup3\n      add\n      and\n      dup3\n      add\n      dup1\n      0x40\n      mstore\n      pop\n      dup2\n      add\n      swap1\n      tag_72\n      swap2\n      swap1\n      tag_73\n      jump\t// in\n    tag_72:\n      pop\n        /* \"CasaDeCambio.sol\":1682:1706  Oferta memory novaOferta */\n      tag_74\n      tag_75\n      jump\t// in\n    tag_74:\n        /* \"CasaDeCambio.sol\":1747:1763  quantidadeTokens */\n      dup3\n        /* \"CasaDeCambio.sol\":1717:1727  novaOferta */\n      dup2\n        /* \"CasaDeCambio.sol\":1717:1744  novaOferta.quantidadeTokens */\n      0x20\n      add\n        /* \"CasaDeCambio.sol\":1717:1763  novaOferta.quantidadeTokens = quantidadeTokens */\n      dup2\n      dup2\n      mstore\n      pop\n      pop\n        /* \"CasaDeCambio.sol\":1797:1806  precoLote */\n      dup2\n        /* \"CasaDeCambio.sol\":1774:1784  novaOferta */\n      dup2\n        /* \"CasaDeCambio.sol\":1774:1794  novaOferta.precoLote */\n      0x40\n      add\n        /* \"CasaDeCambio.sol\":1774:1806  novaOferta.precoLote = precoLote */\n      dup2\n      dup2\n      mstore\n      pop\n      pop\n        /* \"CasaDeCambio.sol\":1843:1853  msg.sender */\n      caller\n        /* \"CasaDeCambio.sol\":1817:1827  novaOferta */\n      dup2\n        /* \"CasaDeCambio.sol\":1817:1832  novaOferta.dono */\n      0x60\n      add\n        /* \"CasaDeCambio.sol\":1817:1854  novaOferta.dono = address(msg.sender) */\n      swap1\n      0xffffffffffffffffffffffffffffffffffffffff\n      and\n      swap1\n      dup2\n      0xffffffffffffffffffffffffffffffffffffffff\n      and\n      dup2\n      mstore\n      pop\n      pop\n        /* \"CasaDeCambio.sol\":1886:1890  true */\n      0x01\n        /* \"CasaDeCambio.sol\":1865:1875  novaOferta */\n      dup2\n        /* \"CasaDeCambio.sol\":1865:1883  novaOferta.ehAtivo */\n      0x80\n      add\n        /* \"CasaDeCambio.sol\":1865:1890  novaOferta.ehAtivo = true */\n      swap1\n      iszero\n      iszero\n      swap1\n      dup2\n      iszero\n      iszero\n      dup2\n      mstore\n      pop\n      pop\n        /* \"CasaDeCambio.sol\":1927:1928  1 */\n      0x01\n        /* \"CasaDeCambio.sol\":1915:1926  qtddOfertas */\n      dup1\n      sload\n        /* \"CasaDeCambio.sol\":1915:1928  qtddOfertas+1 */\n      tag_76\n      swap2\n      swap1\n      tag_77\n      jump\t// in\n    tag_76:\n        /* \"CasaDeCambio.sol\":1901:1912  qtddOfertas */\n      0x01\n        /* \"CasaDeCambio.sol\":1901:1928  qtddOfertas = qtddOfertas+1 */\n      dup2\n      swap1\n      sstore\n      pop\n        /* \"CasaDeCambio.sol\":1955:1966  qtddOfertas */\n      sload(0x01)\n        /* \"CasaDeCambio.sol\":1939:1949  novaOferta */\n      dup2\n        /* \"CasaDeCambio.sol\":1939:1952  novaOferta.id */\n      0x00\n      add\n        /* \"CasaDeCambio.sol\":1939:1966  novaOferta.id = qtddOfertas */\n      dup2\n      dup2\n      mstore\n      pop\n      pop\n        /* \"CasaDeCambio.sol\":2002:2012  novaOferta */\n      dup1\n        /* \"CasaDeCambio.sol\":1977:1984  ofertas */\n      0x07\n        /* \"CasaDeCambio.sol\":1977:1999  ofertas[novaOferta.id] */\n      0x00\n        /* \"CasaDeCambio.sol\":1985:1995  novaOferta */\n      dup4\n        /* \"CasaDeCambio.sol\":1985:1998  novaOferta.id */\n      0x00\n      add\n      mload\n        /* \"CasaDeCambio.sol\":1977:1999  ofertas[novaOferta.id] */\n      dup2\n      mstore\n      0x20\n      add\n      swap1\n      dup2\n      mstore\n      0x20\n      add\n      0x00\n      keccak256\n        /* \"CasaDeCambio.sol\":1977:2012  ofertas[novaOferta.id] = novaOferta */\n      0x00\n      dup3\n      add\n      mload\n      dup2\n      0x00\n      add\n      sstore\n      0x20\n      dup3\n      add\n      mload\n      dup2\n      0x01\n      add\n      sstore\n      0x40\n      dup3\n      add\n      mload\n      dup2\n      0x02\n      add\n      sstore\n      0x60\n      dup3\n      add\n      mload\n      dup2\n      0x03\n      add\n      exp(0x0100, 0x00)\n      dup2\n      sload\n      dup2\n      0xffffffffffffffffffffffffffffffffffffffff\n      mul\n      not\n      and\n      swap1\n      dup4\n      0xffffffffffffffffffffffffffffffffffffffff\n      and\n      mul\n      or\n      swap1\n      sstore\n      pop\n      0x80\n      dup3\n      add\n      mload\n      dup2\n      0x03\n      add\n      exp(0x0100, 0x14)\n      dup2\n      sload\n      dup2\n      0xff\n      mul\n      not\n      and\n      swap1\n      dup4\n      iszero\n      iszero\n      mul\n      or\n      swap1\n      sstore\n      pop\n      swap1\n      pop\n      pop\n        /* \"CasaDeCambio.sol\":2054:2064  novaOferta */\n      dup1\n        /* \"CasaDeCambio.sol\":2023:2036  ofertasAtivas */\n      0x08\n        /* \"CasaDeCambio.sol\":2023:2051  ofertasAtivas[novaOferta.id] */\n      0x00\n        /* \"CasaDeCambio.sol\":2037:2047  novaOferta */\n      dup4\n        /* \"CasaDeCambio.sol\":2037:2050  novaOferta.id */\n      0x00\n      add\n      mload\n        /* \"CasaDeCambio.sol\":2023:2051  ofertasAtivas[novaOferta.id] */\n      dup2\n      mstore\n      0x20\n      add\n      swap1\n      dup2\n      mstore\n      0x20\n      add\n      0x00\n      keccak256\n        /* \"CasaDeCambio.sol\":2023:2064  ofertasAtivas[novaOferta.id] = novaOferta */\n      0x00\n      dup3\n      add\n      mload\n      dup2\n      0x00\n      add\n      sstore\n      0x20\n      dup3\n      add\n      mload\n      dup2\n      0x01\n      add\n      sstore\n      0x40\n      dup3\n      add\n      mload\n      dup2\n      0x02\n      add\n      sstore\n      0x60\n      dup3\n      add\n      mload\n      dup2\n      0x03\n      add\n      exp(0x0100, 0x00)\n      dup2\n      sload\n      dup2\n      0xffffffffffffffffffffffffffffffffffffffff\n      mul\n      not\n      and\n      swap1\n      dup4\n      0xffffffffffffffffffffffffffffffffffffffff\n      and\n      mul\n      or\n      swap1\n      sstore\n      pop\n      0x80\n      dup3\n      add\n      mload\n      dup2\n      0x03\n      add\n      exp(0x0100, 0x14)\n      dup2\n      sload\n      dup2\n      0xff\n      mul\n      not\n      and\n      swap1\n      dup4\n      iszero\n      iszero\n      mul\n      or\n      swap1\n      sstore\n      pop\n      swap1\n      pop\n      pop\n        /* \"CasaDeCambio.sol\":2116:2117  1 */\n      0x01\n        /* \"CasaDeCambio.sol\":2097:2114  qtddOfertasAtivas */\n      sload(0x02)\n        /* \"CasaDeCambio.sol\":2097:2117  qtddOfertasAtivas +1 */\n      tag_78\n      swap2\n      swap1\n      tag_77\n      jump\t// in\n    tag_78:\n        /* \"CasaDeCambio.sol\":2077:2094  qtddOfertasAtivas */\n      0x02\n        /* \"CasaDeCambio.sol\":2077:2117  qtddOfertasAtivas = qtddOfertasAtivas +1 */\n      dup2\n      swap1\n      sstore\n      pop\n        /* \"CasaDeCambio.sol\":2152:2153  1 */\n      0x01\n        /* \"CasaDeCambio.sol\":2131:2148  qtddOfertasAtivas */\n      sload(0x02)\n        /* \"CasaDeCambio.sol\":2131:2153  qtddOfertasAtivas == 1 */\n      sub\n        /* \"CasaDeCambio.sol\":2128:2206  if(qtddOfertasAtivas == 1){... */\n      tag_79\n      jumpi\n        /* \"CasaDeCambio.sol\":2184:2194  novaOferta */\n      dup1\n        /* \"CasaDeCambio.sol\":2169:2181  pOfertaAtiva */\n      0x03\n        /* \"CasaDeCambio.sol\":2169:2194  pOfertaAtiva = novaOferta */\n      0x00\n      dup3\n      add\n      mload\n      dup2\n      0x00\n      add\n      sstore\n      0x20\n      dup3\n      add\n      mload\n      dup2\n      0x01\n      add\n      sstore\n      0x40\n      dup3\n      add\n      mload\n      dup2\n      0x02\n      add\n      sstore\n      0x60\n      dup3\n      add\n      mload\n      dup2\n      0x03\n      add\n      exp(0x0100, 0x00)\n      dup2\n      sload\n      dup2\n      0xffffffffffffffffffffffffffffffffffffffff\n      mul\n      not\n      and\n      swap1\n      dup4\n      0xffffffffffffffffffffffffffffffffffffffff\n      and\n      mul\n      or\n      swap1\n      sstore\n      pop\n      0x80\n      dup3\n      add\n      mload\n      dup2\n      0x03\n      add\n      exp(0x0100, 0x14)\n      dup2\n      sload\n      dup2\n      0xff\n      mul\n      not\n      and\n      swap1\n      dup4\n      iszero\n      iszero\n      mul\n      or\n      swap1\n      sstore\n      pop\n      swap1\n      pop\n      pop\n        /* \"CasaDeCambio.sol\":2128:2206  if(qtddOfertasAtivas == 1){... */\n    tag_79:\n        /* \"CasaDeCambio.sol\":2221:2280  ofertaRealizada(novaOferta.id, quantidadeTokens, precoLote) */\n      0x65fed65ff7cd6b2d79d64e55d0439fba77cb42a9adabf9fa002ea4c20a1f81e1\n        /* \"CasaDeCambio.sol\":2237:2247  novaOferta */\n      dup2\n        /* \"CasaDeCambio.sol\":2237:2250  novaOferta.id */\n      0x00\n      add\n      mload\n        /* \"CasaDeCambio.sol\":2252:2268  quantidadeTokens */\n      dup5\n        /* \"CasaDeCambio.sol\":2270:2279  precoLote */\n      dup5\n        /* \"CasaDeCambio.sol\":2221:2280  ofertaRealizada(novaOferta.id, quantidadeTokens, precoLote) */\n      mload(0x40)\n      tag_80\n      swap4\n      swap3\n      swap2\n      swap1\n      tag_81\n      jump\t// in\n    tag_80:\n      mload(0x40)\n      dup1\n      swap2\n      sub\n      swap1\n      log1\n        /* \"CasaDeCambio.sol\":1387:2288  {... */\n      pop\n        /* \"CasaDeCambio.sol\":1290:2288  function realizaOferta(uint256 quantidadeTokens, uint256 precoLote) external apenasDono override {... */\n      pop\n      pop\n      jump\t// out\n        /* \"CasaDeCambio.sol\":3445:3577  function consultaOfertas() external view override returns (uint, uint){... */\n    tag_18:\n        /* \"CasaDeCambio.sol\":3504:3508  uint */\n      0x00\n        /* \"CasaDeCambio.sol\":3510:3514  uint */\n      dup1\n        /* \"CasaDeCambio.sol\":3534:3551  qtddOfertasAtivas */\n      sload(0x02)\n        /* \"CasaDeCambio.sol\":3553:3565  pOfertaAtiva */\n      0x03\n        /* \"CasaDeCambio.sol\":3553:3568  pOfertaAtiva.id */\n      0x00\n      add\n      sload\n        /* \"CasaDeCambio.sol\":3526:3569  return (qtddOfertasAtivas, pOfertaAtiva.id) */\n      swap2\n      pop\n      swap2\n      pop\n        /* \"CasaDeCambio.sol\":3445:3577  function consultaOfertas() external view override returns (uint, uint){... */\n      swap1\n      swap2\n      jump\t// out\n        /* \"CasaDeCambio.sol\":779:820  mapping(uint256 => Oferta) public ofertas */\n    tag_25:\n      mstore(0x20, 0x07)\n      dup1\n      0x00\n      mstore\n      keccak256(0x00, 0x40)\n      0x00\n      swap2\n      pop\n      swap1\n      pop\n      dup1\n      0x00\n      add\n      sload\n      swap1\n      dup1\n      0x01\n      add\n      sload\n      swap1\n      dup1\n      0x02\n      add\n      sload\n      swap1\n      dup1\n      0x03\n      add\n      0x00\n      swap1\n      sload\n      swap1\n      0x0100\n      exp\n      swap1\n      div\n      0xffffffffffffffffffffffffffffffffffffffff\n      and\n      swap1\n      dup1\n      0x03\n      add\n      0x14\n      swap1\n      sload\n      swap1\n      0x0100\n      exp\n      swap1\n      div\n      0xff\n      and\n      swap1\n      pop\n      dup6\n      jump\t// out\n        /* \"CasaDeCambio.sol\":3670:3837  function sacarFundos() public apenasDono override{... */\n    tag_30:\n        /* \"ControleAcessoDono.sol\":251:256  owner */\n      0x00\n      dup1\n      sload\n      swap1\n      0x0100\n      exp\n      swap1\n      div\n      0xffffffffffffffffffffffffffffffffffffffff\n      and\n        /* \"ControleAcessoDono.sol\":237:256  msg.sender == owner */\n      0xffffffffffffffffffffffffffffffffffffffff\n      and\n        /* \"ControleAcessoDono.sol\":237:247  msg.sender */\n      caller\n        /* \"ControleAcessoDono.sol\":237:256  msg.sender == owner */\n      0xffffffffffffffffffffffffffffffffffffffff\n      and\n      eq\n        /* \"ControleAcessoDono.sol\":229:307  require(msg.sender == owner, unicode\"Deve ser dono para chamar essa função\") */\n      tag_84\n      jumpi\n      mload(0x40)\n      0x08c379a000000000000000000000000000000000000000000000000000000000\n      dup2\n      mstore\n      0x04\n      add\n      tag_85\n      swap1\n      tag_52\n      jump\t// in\n    tag_85:\n      mload(0x40)\n      dup1\n      swap2\n      sub\n      swap1\n      revert\n    tag_84:\n        /* \"CasaDeCambio.sol\":3730:3755  address payable recebedor */\n      0x00\n        /* \"CasaDeCambio.sol\":3766:3776  msg.sender */\n      caller\n        /* \"CasaDeCambio.sol\":3730:3777  address payable recebedor = payable(msg.sender) */\n      swap1\n      pop\n        /* \"CasaDeCambio.sol\":3788:3797  recebedor */\n      dup1\n        /* \"CasaDeCambio.sol\":3788:3806  recebedor.transfer */\n      0xffffffffffffffffffffffffffffffffffffffff\n      and\n        /* \"CasaDeCambio.sol\":3788:3829  recebedor.transfer(address(this).balance) */\n      0x08fc\n        /* \"CasaDeCambio.sol\":3807:3828  address(this).balance */\n      selfbalance\n        /* \"CasaDeCambio.sol\":3788:3829  recebedor.transfer(address(this).balance) */\n      swap1\n      dup2\n      iszero\n      mul\n      swap1\n      mload(0x40)\n      0x00\n      mload(0x40)\n      dup1\n      dup4\n      sub\n      dup2\n      dup6\n      dup9\n      dup9\n      call\n      swap4\n      pop\n      pop\n      pop\n      pop\n      iszero\n      dup1\n      iszero\n      tag_88\n      jumpi\n      returndatasize\n      0x00\n      dup1\n      returndatacopy\n      revert(0x00, returndatasize)\n    tag_88:\n      pop\n        /* \"CasaDeCambio.sol\":3719:3837  {... */\n      pop\n        /* \"CasaDeCambio.sol\":3670:3837  function sacarFundos() public apenasDono override{... */\n      jump\t// out\n        /* \"CasaDeCambio.sol\":2557:3332  function compra(uint256 id) external payable override{... */\n    tag_33:\n        /* \"CasaDeCambio.sol\":2635:2646  qtddOfertas */\n      sload(0x01)\n        /* \"CasaDeCambio.sol\":2629:2631  id */\n      dup2\n        /* \"CasaDeCambio.sol\":2629:2646  id <= qtddOfertas */\n      gt\n      iszero\n        /* \"CasaDeCambio.sol\":2621:2662  require(id <= qtddOfertas, \"id invalido\") */\n      tag_90\n      jumpi\n      mload(0x40)\n      0x08c379a000000000000000000000000000000000000000000000000000000000\n      dup2\n      mstore\n      0x04\n      add\n      tag_91\n      swap1\n      tag_92\n      jump\t// in\n    tag_91:\n      mload(0x40)\n      dup1\n      swap2\n      sub\n      swap1\n      revert\n    tag_90:\n        /* \"CasaDeCambio.sol\":2673:2693  Oferta memory oferta */\n      0x00\n        /* \"CasaDeCambio.sol\":2696:2703  ofertas */\n      0x07\n        /* \"CasaDeCambio.sol\":2696:2707  ofertas[id] */\n      0x00\n        /* \"CasaDeCambio.sol\":2704:2706  id */\n      dup4\n        /* \"CasaDeCambio.sol\":2696:2707  ofertas[id] */\n      dup2\n      mstore\n      0x20\n      add\n      swap1\n      dup2\n      mstore\n      0x20\n      add\n      0x00\n      keccak256\n        /* \"CasaDeCambio.sol\":2673:2707  Oferta memory oferta = ofertas[id] */\n      mload(0x40)\n      dup1\n      0xa0\n      add\n      0x40\n      mstore\n      swap1\n      dup2\n      0x00\n      dup3\n      add\n      sload\n      dup2\n      mstore\n      0x20\n      add\n      0x01\n      dup3\n      add\n      sload\n      dup2\n      mstore\n      0x20\n      add\n      0x02\n      dup3\n      add\n      sload\n      dup2\n      mstore\n      0x20\n      add\n      0x03\n      dup3\n      add\n      0x00\n      swap1\n      sload\n      swap1\n      0x0100\n      exp\n      swap1\n      div\n      0xffffffffffffffffffffffffffffffffffffffff\n      and\n      0xffffffffffffffffffffffffffffffffffffffff\n      and\n      0xffffffffffffffffffffffffffffffffffffffff\n      and\n      dup2\n      mstore\n      0x20\n      add\n      0x03\n      dup3\n      add\n      0x14\n      swap1\n      sload\n      swap1\n      0x0100\n      exp\n      swap1\n      div\n      0xff\n      and\n      iszero\n      iszero\n      iszero\n      iszero\n      dup2\n      mstore\n      pop\n      pop\n      swap1\n      pop\n        /* \"CasaDeCambio.sol\":2744:2748  true */\n      0x01\n        /* \"CasaDeCambio.sol\":2726:2748  oferta.ehAtivo == true */\n      iszero\n      iszero\n        /* \"CasaDeCambio.sol\":2726:2732  oferta */\n      dup2\n        /* \"CasaDeCambio.sol\":2726:2740  oferta.ehAtivo */\n      0x80\n      add\n      mload\n        /* \"CasaDeCambio.sol\":2726:2748  oferta.ehAtivo == true */\n      iszero\n      iszero\n      eq\n        /* \"CasaDeCambio.sol\":2718:2767  require(oferta.ehAtivo == true, \"deve ser ativo\") */\n      tag_93\n      jumpi\n      mload(0x40)\n      0x08c379a000000000000000000000000000000000000000000000000000000000\n      dup2\n      mstore\n      0x04\n      add\n      tag_94\n      swap1\n      tag_95\n      jump\t// in\n    tag_94:\n      mload(0x40)\n      dup1\n      swap2\n      sub\n      swap1\n      revert\n    tag_93:\n        /* \"CasaDeCambio.sol\":2780:2785  token */\n      immutable(\"0x3fd68d21223d6fc23edec694e1b0dd90d283ae600f00f762095afcbb0d71f155\")\n        /* \"CasaDeCambio.sol\":2780:2798  token.transferFrom */\n      0xffffffffffffffffffffffffffffffffffffffff\n      and\n      0x23b872dd\n        /* \"CasaDeCambio.sol\":2807:2811  this */\n      address\n        /* \"CasaDeCambio.sol\":2822:2832  msg.sender */\n      caller\n        /* \"CasaDeCambio.sol\":2835:2841  oferta */\n      dup5\n        /* \"CasaDeCambio.sol\":2835:2858  oferta.quantidadeTokens */\n      0x20\n      add\n      mload\n        /* \"CasaDeCambio.sol\":2780:2859  token.transferFrom(address(this), address(msg.sender), oferta.quantidadeTokens) */\n      mload(0x40)\n      dup5\n      0xffffffff\n      and\n      0xe0\n      shl\n      dup2\n      mstore\n      0x04\n      add\n      tag_96\n      swap4\n      swap3\n      swap2\n      swap1\n      tag_69\n      jump\t// in\n    tag_96:\n      0x20\n      mload(0x40)\n      dup1\n      dup4\n      sub\n      dup2\n      0x00\n      dup8\n      gas\n      call\n      iszero\n      dup1\n      iszero\n      tag_98\n      jumpi\n      returndatasize\n      0x00\n      dup1\n      returndatacopy\n      revert(0x00, returndatasize)\n    tag_98:\n      pop\n      pop\n      pop\n      pop\n      mload(0x40)\n      returndatasize\n      not(0x1f)\n      0x1f\n      dup3\n      add\n      and\n      dup3\n      add\n      dup1\n      0x40\n      mstore\n      pop\n      dup2\n      add\n      swap1\n      tag_99\n      swap2\n      swap1\n      tag_73\n      jump\t// in\n    tag_99:\n      pop\n        /* \"CasaDeCambio.sol\":2887:2892  false */\n      0x00\n        /* \"CasaDeCambio.sol\":2870:2876  oferta */\n      dup2\n        /* \"CasaDeCambio.sol\":2870:2884  oferta.ehAtivo */\n      0x80\n      add\n        /* \"CasaDeCambio.sol\":2870:2892  oferta.ehAtivo = false */\n      swap1\n      iszero\n      iszero\n      swap1\n      dup2\n      iszero\n      iszero\n      dup2\n      mstore\n      pop\n      pop\n        /* \"CasaDeCambio.sol\":2917:2923  oferta */\n      dup1\n        /* \"CasaDeCambio.sol\":2903:2910  ofertas */\n      0x07\n        /* \"CasaDeCambio.sol\":2903:2914  ofertas[id] */\n      0x00\n        /* \"CasaDeCambio.sol\":2911:2913  id */\n      dup5\n        /* \"CasaDeCambio.sol\":2903:2914  ofertas[id] */\n      dup2\n      mstore\n      0x20\n      add\n      swap1\n      dup2\n      mstore\n      0x20\n      add\n      0x00\n      keccak256\n        /* \"CasaDeCambio.sol\":2903:2923  ofertas[id] = oferta */\n      0x00\n      dup3\n      add\n      mload\n      dup2\n      0x00\n      add\n      sstore\n      0x20\n      dup3\n      add\n      mload\n      dup2\n      0x01\n      add\n      sstore\n      0x40\n      dup3\n      add\n      mload\n      dup2\n      0x02\n      add\n      sstore\n      0x60\n      dup3\n      add\n      mload\n      dup2\n      0x03\n      add\n      exp(0x0100, 0x00)\n      dup2\n      sload\n      dup2\n      0xffffffffffffffffffffffffffffffffffffffff\n      mul\n      not\n      and\n      swap1\n      dup4\n      0xffffffffffffffffffffffffffffffffffffffff\n      and\n      mul\n      or\n      swap1\n      sstore\n      pop\n      0x80\n      dup3\n      add\n      mload\n      dup2\n      0x03\n      add\n      exp(0x0100, 0x14)\n      dup2\n      sload\n      dup2\n      0xff\n      mul\n      not\n      and\n      swap1\n      dup4\n      iszero\n      iszero\n      mul\n      or\n      swap1\n      sstore\n      pop\n      swap1\n      pop\n      pop\n        /* \"CasaDeCambio.sol\":2975:2976  1 */\n      0x01\n        /* \"CasaDeCambio.sol\":2956:2973  qtddOfertasAtivas */\n      sload(0x02)\n        /* \"CasaDeCambio.sol\":2956:2976  qtddOfertasAtivas -1 */\n      tag_100\n      swap2\n      swap1\n      tag_101\n      jump\t// in\n    tag_100:\n        /* \"CasaDeCambio.sol\":2936:2953  qtddOfertasAtivas */\n      0x02\n        /* \"CasaDeCambio.sol\":2936:2976  qtddOfertasAtivas = qtddOfertasAtivas -1 */\n      dup2\n      swap1\n      sstore\n      pop\n        /* \"CasaDeCambio.sol\":2994:3000  uint i */\n      0x00\n        /* \"CasaDeCambio.sol\":2989:3325  for (uint i; i< qtddOfertas; i++) {... */\n    tag_102:\n        /* \"CasaDeCambio.sol\":3005:3016  qtddOfertas */\n      sload(0x01)\n        /* \"CasaDeCambio.sol\":3002:3003  i */\n      dup2\n        /* \"CasaDeCambio.sol\":3002:3016  i< qtddOfertas */\n      lt\n        /* \"CasaDeCambio.sol\":2989:3325  for (uint i; i< qtddOfertas; i++) {... */\n      iszero\n      tag_103\n      jumpi\n        /* \"CasaDeCambio.sol\":3038:3062  Oferta memory ofertaTest */\n      0x00\n        /* \"CasaDeCambio.sol\":3065:3072  ofertas */\n      0x07\n        /* \"CasaDeCambio.sol\":3065:3075  ofertas[i] */\n      0x00\n        /* \"CasaDeCambio.sol\":3073:3074  i */\n      dup4\n        /* \"CasaDeCambio.sol\":3065:3075  ofertas[i] */\n      dup2\n      mstore\n      0x20\n      add\n      swap1\n      dup2\n      mstore\n      0x20\n      add\n      0x00\n      keccak256\n        /* \"CasaDeCambio.sol\":3038:3075  Oferta memory ofertaTest = ofertas[i] */\n      mload(0x40)\n      dup1\n      0xa0\n      add\n      0x40\n      mstore\n      swap1\n      dup2\n      0x00\n      dup3\n      add\n      sload\n      dup2\n      mstore\n      0x20\n      add\n      0x01\n      dup3\n      add\n      sload\n      dup2\n      mstore\n      0x20\n      add\n      0x02\n      dup3\n      add\n      sload\n      dup2\n      mstore\n      0x20\n      add\n      0x03\n      dup3\n      add\n      0x00\n      swap1\n      sload\n      swap1\n      0x0100\n      exp\n      swap1\n      div\n      0xffffffffffffffffffffffffffffffffffffffff\n      and\n      0xffffffffffffffffffffffffffffffffffffffff\n      and\n      0xffffffffffffffffffffffffffffffffffffffff\n      and\n      dup2\n      mstore\n      0x20\n      add\n      0x03\n      dup3\n      add\n      0x14\n      swap1\n      sload\n      swap1\n      0x0100\n      exp\n      swap1\n      div\n      0xff\n      and\n      iszero\n      iszero\n      iszero\n      iszero\n      dup2\n      mstore\n      pop\n      pop\n      swap1\n      pop\n        /* \"CasaDeCambio.sol\":3093:3103  ofertaTest */\n      dup1\n        /* \"CasaDeCambio.sol\":3093:3111  ofertaTest.ehAtivo */\n      0x80\n      add\n      mload\n        /* \"CasaDeCambio.sol\":3090:3299  if(ofertaTest.ehAtivo){... */\n      iszero\n      tag_105\n      jumpi\n        /* \"CasaDeCambio.sol\":3170:3171  1 */\n      0x01\n        /* \"CasaDeCambio.sol\":3151:3168  qtddOfertasAtivas */\n      sload(0x02)\n        /* \"CasaDeCambio.sol\":3151:3171  qtddOfertasAtivas +1 */\n      tag_106\n      swap2\n      swap1\n      tag_77\n      jump\t// in\n    tag_106:\n        /* \"CasaDeCambio.sol\":3131:3148  qtddOfertasAtivas */\n      0x02\n        /* \"CasaDeCambio.sol\":3131:3171  qtddOfertasAtivas = qtddOfertasAtivas +1 */\n      dup2\n      swap1\n      sstore\n      pop\n        /* \"CasaDeCambio.sol\":3214:3215  1 */\n      0x01\n        /* \"CasaDeCambio.sol\":3193:3210  qtddOfertasAtivas */\n      sload(0x02)\n        /* \"CasaDeCambio.sol\":3193:3215  qtddOfertasAtivas == 1 */\n      sub\n        /* \"CasaDeCambio.sol\":3190:3284  if(qtddOfertasAtivas == 1){... */\n      tag_107\n      jumpi\n        /* \"CasaDeCambio.sol\":3254:3264  ofertaTest */\n      dup1\n        /* \"CasaDeCambio.sol\":3239:3251  pOfertaAtiva */\n      0x03\n        /* \"CasaDeCambio.sol\":3239:3264  pOfertaAtiva = ofertaTest */\n      0x00\n      dup3\n      add\n      mload\n      dup2\n      0x00\n      add\n      sstore\n      0x20\n      dup3\n      add\n      mload\n      dup2\n      0x01\n      add\n      sstore\n      0x40\n      dup3\n      add\n      mload\n      dup2\n      0x02\n      add\n      sstore\n      0x60\n      dup3\n      add\n      mload\n      dup2\n      0x03\n      add\n      exp(0x0100, 0x00)\n      dup2\n      sload\n      dup2\n      0xffffffffffffffffffffffffffffffffffffffff\n      mul\n      not\n      and\n      swap1\n      dup4\n      0xffffffffffffffffffffffffffffffffffffffff\n      and\n      mul\n      or\n      swap1\n      sstore\n      pop\n      0x80\n      dup3\n      add\n      mload\n      dup2\n      0x03\n      add\n      exp(0x0100, 0x14)\n      dup2\n      sload\n      dup2\n      0xff\n      mul\n      not\n      and\n      swap1\n      dup4\n      iszero\n      iszero\n      mul\n      or\n      swap1\n      sstore\n      pop\n      swap1\n      pop\n      pop\n        /* \"CasaDeCambio.sol\":3190:3284  if(qtddOfertasAtivas == 1){... */\n    tag_107:\n        /* \"CasaDeCambio.sol\":3090:3299  if(ofertaTest.ehAtivo){... */\n    tag_105:\n        /* \"CasaDeCambio.sol\":3023:3325  {... */\n      pop\n        /* \"CasaDeCambio.sol\":3018:3021  i++ */\n      dup1\n      dup1\n      0x01\n      add\n      swap2\n      pop\n      pop\n        /* \"CasaDeCambio.sol\":2989:3325  for (uint i; i< qtddOfertas; i++) {... */\n      jump(tag_102)\n    tag_103:\n      pop\n        /* \"CasaDeCambio.sol\":2610:3332  {... */\n      pop\n        /* \"CasaDeCambio.sol\":2557:3332  function compra(uint256 id) external payable override{... */\n      pop\n      jump\t// out\n        /* \"ControleAcessoDono.sol\":167:187  address public owner */\n    tag_36:\n      0x00\n      dup1\n      sload\n      swap1\n      0x0100\n      exp\n      swap1\n      div\n      0xffffffffffffffffffffffffffffffffffffffff\n      and\n      dup2\n      jump\t// out\n        /* \"CasaDeCambio.sol\":827:874  mapping(uint256 => Oferta) public ofertasAtivas */\n    tag_42:\n      mstore(0x20, 0x08)\n      dup1\n      0x00\n      mstore\n      keccak256(0x00, 0x40)\n      0x00\n      swap2\n      pop\n      swap1\n      pop\n      dup1\n      0x00\n      add\n      sload\n      swap1\n      dup1\n      0x01\n      add\n      sload\n      swap1\n      dup1\n      0x02\n      add\n      sload\n      swap1\n      dup1\n      0x03\n      add\n      0x00\n      swap1\n      sload\n      swap1\n      0x0100\n      exp\n      swap1\n      div\n      0xffffffffffffffffffffffffffffffffffffffff\n      and\n      swap1\n      dup1\n      0x03\n      add\n      0x14\n      swap1\n      sload\n      swap1\n      0x0100\n      exp\n      swap1\n      div\n      0xff\n      and\n      swap1\n      pop\n      dup6\n      jump\t// out\n        /* \"CasaDeCambio.sol\":492:520  ERC20 public immutable token */\n    tag_46:\n      immutable(\"0x3fd68d21223d6fc23edec694e1b0dd90d283ae600f00f762095afcbb0d71f155\")\n      dup2\n      jump\t// out\n    tag_75:\n      mload(0x40)\n      dup1\n      0xa0\n      add\n      0x40\n      mstore\n      dup1\n      0x00\n      dup2\n      mstore\n      0x20\n      add\n      0x00\n      dup2\n      mstore\n      0x20\n      add\n      0x00\n      dup2\n      mstore\n      0x20\n      add\n      and(0xffffffffffffffffffffffffffffffffffffffff, 0x00)\n      dup2\n      mstore\n      0x20\n      add\n      iszero(iszero(0x00))\n      dup2\n      mstore\n      pop\n      swap1\n      jump\t// out\n        /* \"#utility.yul\":88:205   */\n    tag_109:\n        /* \"#utility.yul\":197:198   */\n      0x00\n        /* \"#utility.yul\":194:195   */\n      dup1\n        /* \"#utility.yul\":187:199   */\n      revert\n        /* \"#utility.yul\":334:411   */\n    tag_111:\n        /* \"#utility.yul\":371:378   */\n      0x00\n        /* \"#utility.yul\":400:405   */\n      dup2\n        /* \"#utility.yul\":389:405   */\n      swap1\n      pop\n        /* \"#utility.yul\":334:411   */\n      swap2\n      swap1\n      pop\n      jump\t// out\n        /* \"#utility.yul\":417:539   */\n    tag_112:\n        /* \"#utility.yul\":490:514   */\n      tag_148\n        /* \"#utility.yul\":508:513   */\n      dup2\n        /* \"#utility.yul\":490:514   */\n      tag_111\n      jump\t// in\n    tag_148:\n        /* \"#utility.yul\":483:488   */\n      dup2\n        /* \"#utility.yul\":480:515   */\n      eq\n        /* \"#utility.yul\":470:533   */\n      tag_149\n      jumpi\n        /* \"#utility.yul\":529:530   */\n      0x00\n        /* \"#utility.yul\":526:527   */\n      dup1\n        /* \"#utility.yul\":519:531   */\n      revert\n        /* \"#utility.yul\":470:533   */\n    tag_149:\n        /* \"#utility.yul\":417:539   */\n      pop\n      jump\t// out\n        /* \"#utility.yul\":545:684   */\n    tag_113:\n        /* \"#utility.yul\":591:596   */\n      0x00\n        /* \"#utility.yul\":629:635   */\n      dup2\n        /* \"#utility.yul\":616:636   */\n      calldataload\n        /* \"#utility.yul\":607:636   */\n      swap1\n      pop\n        /* \"#utility.yul\":645:678   */\n      tag_151\n        /* \"#utility.yul\":672:677   */\n      dup2\n        /* \"#utility.yul\":645:678   */\n      tag_112\n      jump\t// in\n    tag_151:\n        /* \"#utility.yul\":545:684   */\n      swap3\n      swap2\n      pop\n      pop\n      jump\t// out\n        /* \"#utility.yul\":690:1164   */\n    tag_14:\n        /* \"#utility.yul\":758:764   */\n      0x00\n        /* \"#utility.yul\":766:772   */\n      dup1\n        /* \"#utility.yul\":815:817   */\n      0x40\n        /* \"#utility.yul\":803:812   */\n      dup4\n        /* \"#utility.yul\":794:801   */\n      dup6\n        /* \"#utility.yul\":790:813   */\n      sub\n        /* \"#utility.yul\":786:818   */\n      slt\n        /* \"#utility.yul\":783:902   */\n      iszero\n      tag_153\n      jumpi\n        /* \"#utility.yul\":821:900   */\n      tag_154\n      tag_109\n      jump\t// in\n    tag_154:\n        /* \"#utility.yul\":783:902   */\n    tag_153:\n        /* \"#utility.yul\":941:942   */\n      0x00\n        /* \"#utility.yul\":966:1019   */\n      tag_155\n        /* \"#utility.yul\":1011:1018   */\n      dup6\n        /* \"#utility.yul\":1002:1008   */\n      dup3\n        /* \"#utility.yul\":991:1000   */\n      dup7\n        /* \"#utility.yul\":987:1009   */\n      add\n        /* \"#utility.yul\":966:1019   */\n      tag_113\n      jump\t// in\n    tag_155:\n        /* \"#utility.yul\":956:1019   */\n      swap3\n      pop\n        /* \"#utility.yul\":912:1029   */\n      pop\n        /* \"#utility.yul\":1068:1070   */\n      0x20\n        /* \"#utility.yul\":1094:1147   */\n      tag_156\n        /* \"#utility.yul\":1139:1146   */\n      dup6\n        /* \"#utility.yul\":1130:1136   */\n      dup3\n        /* \"#utility.yul\":1119:1128   */\n      dup7\n        /* \"#utility.yul\":1115:1137   */\n      add\n        /* \"#utility.yul\":1094:1147   */\n      tag_113\n      jump\t// in\n    tag_156:\n        /* \"#utility.yul\":1084:1147   */\n      swap2\n      pop\n        /* \"#utility.yul\":1039:1157   */\n      pop\n        /* \"#utility.yul\":690:1164   */\n      swap3\n      pop\n      swap3\n      swap1\n      pop\n      jump\t// out\n        /* \"#utility.yul\":1170:1288   */\n    tag_114:\n        /* \"#utility.yul\":1257:1281   */\n      tag_158\n        /* \"#utility.yul\":1275:1280   */\n      dup2\n        /* \"#utility.yul\":1257:1281   */\n      tag_111\n      jump\t// in\n    tag_158:\n        /* \"#utility.yul\":1252:1255   */\n      dup3\n        /* \"#utility.yul\":1245:1282   */\n      mstore\n        /* \"#utility.yul\":1170:1288   */\n      pop\n      pop\n      jump\t// out\n        /* \"#utility.yul\":1294:1626   */\n    tag_20:\n        /* \"#utility.yul\":1415:1419   */\n      0x00\n        /* \"#utility.yul\":1453:1455   */\n      0x40\n        /* \"#utility.yul\":1442:1451   */\n      dup3\n        /* \"#utility.yul\":1438:1456   */\n      add\n        /* \"#utility.yul\":1430:1456   */\n      swap1\n      pop\n        /* \"#utility.yul\":1466:1537   */\n      tag_160\n        /* \"#utility.yul\":1534:1535   */\n      0x00\n        /* \"#utility.yul\":1523:1532   */\n      dup4\n        /* \"#utility.yul\":1519:1536   */\n      add\n        /* \"#utility.yul\":1510:1516   */\n      dup6\n        /* \"#utility.yul\":1466:1537   */\n      tag_114\n      jump\t// in\n    tag_160:\n        /* \"#utility.yul\":1547:1619   */\n      tag_161\n        /* \"#utility.yul\":1615:1617   */\n      0x20\n        /* \"#utility.yul\":1604:1613   */\n      dup4\n        /* \"#utility.yul\":1600:1618   */\n      add\n        /* \"#utility.yul\":1591:1597   */\n      dup5\n        /* \"#utility.yul\":1547:1619   */\n      tag_114\n      jump\t// in\n    tag_161:\n        /* \"#utility.yul\":1294:1626   */\n      swap4\n      swap3\n      pop\n      pop\n      pop\n      jump\t// out\n        /* \"#utility.yul\":1632:1961   */\n    tag_24:\n        /* \"#utility.yul\":1691:1697   */\n      0x00\n        /* \"#utility.yul\":1740:1742   */\n      0x20\n        /* \"#utility.yul\":1728:1737   */\n      dup3\n        /* \"#utility.yul\":1719:1726   */\n      dup5\n        /* \"#utility.yul\":1715:1738   */\n      sub\n        /* \"#utility.yul\":1711:1743   */\n      slt\n        /* \"#utility.yul\":1708:1827   */\n      iszero\n      tag_163\n      jumpi\n        /* \"#utility.yul\":1746:1825   */\n      tag_164\n      tag_109\n      jump\t// in\n    tag_164:\n        /* \"#utility.yul\":1708:1827   */\n    tag_163:\n        /* \"#utility.yul\":1866:1867   */\n      0x00\n        /* \"#utility.yul\":1891:1944   */\n      tag_165\n        /* \"#utility.yul\":1936:1943   */\n      dup5\n        /* \"#utility.yul\":1927:1933   */\n      dup3\n        /* \"#utility.yul\":1916:1925   */\n      dup6\n        /* \"#utility.yul\":1912:1934   */\n      add\n        /* \"#utility.yul\":1891:1944   */\n      tag_113\n      jump\t// in\n    tag_165:\n        /* \"#utility.yul\":1881:1944   */\n      swap2\n      pop\n        /* \"#utility.yul\":1837:1954   */\n      pop\n        /* \"#utility.yul\":1632:1961   */\n      swap3\n      swap2\n      pop\n      pop\n      jump\t// out\n        /* \"#utility.yul\":1967:2093   */\n    tag_115:\n        /* \"#utility.yul\":2004:2011   */\n      0x00\n        /* \"#utility.yul\":2044:2086   */\n      0xffffffffffffffffffffffffffffffffffffffff\n        /* \"#utility.yul\":2037:2042   */\n      dup3\n        /* \"#utility.yul\":2033:2087   */\n      and\n        /* \"#utility.yul\":2022:2087   */\n      swap1\n      pop\n        /* \"#utility.yul\":1967:2093   */\n      swap2\n      swap1\n      pop\n      jump\t// out\n        /* \"#utility.yul\":2099:2195   */\n    tag_116:\n        /* \"#utility.yul\":2136:2143   */\n      0x00\n        /* \"#utility.yul\":2165:2189   */\n      tag_168\n        /* \"#utility.yul\":2183:2188   */\n      dup3\n        /* \"#utility.yul\":2165:2189   */\n      tag_115\n      jump\t// in\n    tag_168:\n        /* \"#utility.yul\":2154:2189   */\n      swap1\n      pop\n        /* \"#utility.yul\":2099:2195   */\n      swap2\n      swap1\n      pop\n      jump\t// out\n        /* \"#utility.yul\":2201:2319   */\n    tag_117:\n        /* \"#utility.yul\":2288:2312   */\n      tag_170\n        /* \"#utility.yul\":2306:2311   */\n      dup2\n        /* \"#utility.yul\":2288:2312   */\n      tag_116\n      jump\t// in\n    tag_170:\n        /* \"#utility.yul\":2283:2286   */\n      dup3\n        /* \"#utility.yul\":2276:2313   */\n      mstore\n        /* \"#utility.yul\":2201:2319   */\n      pop\n      pop\n      jump\t// out\n        /* \"#utility.yul\":2325:2415   */\n    tag_118:\n        /* \"#utility.yul\":2359:2366   */\n      0x00\n        /* \"#utility.yul\":2402:2407   */\n      dup2\n        /* \"#utility.yul\":2395:2408   */\n      iszero\n        /* \"#utility.yul\":2388:2409   */\n      iszero\n        /* \"#utility.yul\":2377:2409   */\n      swap1\n      pop\n        /* \"#utility.yul\":2325:2415   */\n      swap2\n      swap1\n      pop\n      jump\t// out\n        /* \"#utility.yul\":2421:2530   */\n    tag_119:\n        /* \"#utility.yul\":2502:2523   */\n      tag_173\n        /* \"#utility.yul\":2517:2522   */\n      dup2\n        /* \"#utility.yul\":2502:2523   */\n      tag_118\n      jump\t// in\n    tag_173:\n        /* \"#utility.yul\":2497:2500   */\n      dup3\n        /* \"#utility.yul\":2490:2524   */\n      mstore\n        /* \"#utility.yul\":2421:2530   */\n      pop\n      pop\n      jump\t// out\n        /* \"#utility.yul\":2536:3188   */\n    tag_27:\n        /* \"#utility.yul\":2735:2739   */\n      0x00\n        /* \"#utility.yul\":2773:2776   */\n      0xa0\n        /* \"#utility.yul\":2762:2771   */\n      dup3\n        /* \"#utility.yul\":2758:2777   */\n      add\n        /* \"#utility.yul\":2750:2777   */\n      swap1\n      pop\n        /* \"#utility.yul\":2787:2858   */\n      tag_175\n        /* \"#utility.yul\":2855:2856   */\n      0x00\n        /* \"#utility.yul\":2844:2853   */\n      dup4\n        /* \"#utility.yul\":2840:2857   */\n      add\n        /* \"#utility.yul\":2831:2837   */\n      dup9\n        /* \"#utility.yul\":2787:2858   */\n      tag_114\n      jump\t// in\n    tag_175:\n        /* \"#utility.yul\":2868:2940   */\n      tag_176\n        /* \"#utility.yul\":2936:2938   */\n      0x20\n        /* \"#utility.yul\":2925:2934   */\n      dup4\n        /* \"#utility.yul\":2921:2939   */\n      add\n        /* \"#utility.yul\":2912:2918   */\n      dup8\n        /* \"#utility.yul\":2868:2940   */\n      tag_114\n      jump\t// in\n    tag_176:\n        /* \"#utility.yul\":2950:3022   */\n      tag_177\n        /* \"#utility.yul\":3018:3020   */\n      0x40\n        /* \"#utility.yul\":3007:3016   */\n      dup4\n        /* \"#utility.yul\":3003:3021   */\n      add\n        /* \"#utility.yul\":2994:3000   */\n      dup7\n        /* \"#utility.yul\":2950:3022   */\n      tag_114\n      jump\t// in\n    tag_177:\n        /* \"#utility.yul\":3032:3104   */\n      tag_178\n        /* \"#utility.yul\":3100:3102   */\n      0x60\n        /* \"#utility.yul\":3089:3098   */\n      dup4\n        /* \"#utility.yul\":3085:3103   */\n      add\n        /* \"#utility.yul\":3076:3082   */\n      dup6\n        /* \"#utility.yul\":3032:3104   */\n      tag_117\n      jump\t// in\n    tag_178:\n        /* \"#utility.yul\":3114:3181   */\n      tag_179\n        /* \"#utility.yul\":3176:3179   */\n      0x80\n        /* \"#utility.yul\":3165:3174   */\n      dup4\n        /* \"#utility.yul\":3161:3180   */\n      add\n        /* \"#utility.yul\":3152:3158   */\n      dup5\n        /* \"#utility.yul\":3114:3181   */\n      tag_119\n      jump\t// in\n    tag_179:\n        /* \"#utility.yul\":2536:3188   */\n      swap7\n      swap6\n      pop\n      pop\n      pop\n      pop\n      pop\n      pop\n      jump\t// out\n        /* \"#utility.yul\":3194:3416   */\n    tag_38:\n        /* \"#utility.yul\":3287:3291   */\n      0x00\n        /* \"#utility.yul\":3325:3327   */\n      0x20\n        /* \"#utility.yul\":3314:3323   */\n      dup3\n        /* \"#utility.yul\":3310:3328   */\n      add\n        /* \"#utility.yul\":3302:3328   */\n      swap1\n      pop\n        /* \"#utility.yul\":3338:3409   */\n      tag_181\n        /* \"#utility.yul\":3406:3407   */\n      0x00\n        /* \"#utility.yul\":3395:3404   */\n      dup4\n        /* \"#utility.yul\":3391:3408   */\n      add\n        /* \"#utility.yul\":3382:3388   */\n      dup5\n        /* \"#utility.yul\":3338:3409   */\n      tag_117\n      jump\t// in\n    tag_181:\n        /* \"#utility.yul\":3194:3416   */\n      swap3\n      swap2\n      pop\n      pop\n      jump\t// out\n        /* \"#utility.yul\":3422:3482   */\n    tag_120:\n        /* \"#utility.yul\":3450:3453   */\n      0x00\n        /* \"#utility.yul\":3471:3476   */\n      dup2\n        /* \"#utility.yul\":3464:3476   */\n      swap1\n      pop\n        /* \"#utility.yul\":3422:3482   */\n      swap2\n      swap1\n      pop\n      jump\t// out\n        /* \"#utility.yul\":3488:3630   */\n    tag_121:\n        /* \"#utility.yul\":3538:3547   */\n      0x00\n        /* \"#utility.yul\":3571:3624   */\n      tag_184\n        /* \"#utility.yul\":3589:3623   */\n      tag_185\n        /* \"#utility.yul\":3598:3622   */\n      tag_186\n        /* \"#utility.yul\":3616:3621   */\n      dup5\n        /* \"#utility.yul\":3598:3622   */\n      tag_115\n      jump\t// in\n    tag_186:\n        /* \"#utility.yul\":3589:3623   */\n      tag_120\n      jump\t// in\n    tag_185:\n        /* \"#utility.yul\":3571:3624   */\n      tag_115\n      jump\t// in\n    tag_184:\n        /* \"#utility.yul\":3558:3624   */\n      swap1\n      pop\n        /* \"#utility.yul\":3488:3630   */\n      swap2\n      swap1\n      pop\n      jump\t// out\n        /* \"#utility.yul\":3636:3762   */\n    tag_122:\n        /* \"#utility.yul\":3686:3695   */\n      0x00\n        /* \"#utility.yul\":3719:3756   */\n      tag_188\n        /* \"#utility.yul\":3750:3755   */\n      dup3\n        /* \"#utility.yul\":3719:3756   */\n      tag_121\n      jump\t// in\n    tag_188:\n        /* \"#utility.yul\":3706:3756   */\n      swap1\n      pop\n        /* \"#utility.yul\":3636:3762   */\n      swap2\n      swap1\n      pop\n      jump\t// out\n        /* \"#utility.yul\":3768:3908   */\n    tag_123:\n        /* \"#utility.yul\":3832:3841   */\n      0x00\n        /* \"#utility.yul\":3865:3902   */\n      tag_190\n        /* \"#utility.yul\":3896:3901   */\n      dup3\n        /* \"#utility.yul\":3865:3902   */\n      tag_122\n      jump\t// in\n    tag_190:\n        /* \"#utility.yul\":3852:3902   */\n      swap1\n      pop\n        /* \"#utility.yul\":3768:3908   */\n      swap2\n      swap1\n      pop\n      jump\t// out\n        /* \"#utility.yul\":3914:4073   */\n    tag_124:\n        /* \"#utility.yul\":4015:4066   */\n      tag_192\n        /* \"#utility.yul\":4060:4065   */\n      dup2\n        /* \"#utility.yul\":4015:4066   */\n      tag_123\n      jump\t// in\n    tag_192:\n        /* \"#utility.yul\":4010:4013   */\n      dup3\n        /* \"#utility.yul\":4003:4067   */\n      mstore\n        /* \"#utility.yul\":3914:4073   */\n      pop\n      pop\n      jump\t// out\n        /* \"#utility.yul\":4079:4329   */\n    tag_48:\n        /* \"#utility.yul\":4186:4190   */\n      0x00\n        /* \"#utility.yul\":4224:4226   */\n      0x20\n        /* \"#utility.yul\":4213:4222   */\n      dup3\n        /* \"#utility.yul\":4209:4227   */\n      add\n        /* \"#utility.yul\":4201:4227   */\n      swap1\n      pop\n        /* \"#utility.yul\":4237:4322   */\n      tag_194\n        /* \"#utility.yul\":4319:4320   */\n      0x00\n        /* \"#utility.yul\":4308:4317   */\n      dup4\n        /* \"#utility.yul\":4304:4321   */\n      add\n        /* \"#utility.yul\":4295:4301   */\n      dup5\n        /* \"#utility.yul\":4237:4322   */\n      tag_124\n      jump\t// in\n    tag_194:\n        /* \"#utility.yul\":4079:4329   */\n      swap3\n      swap2\n      pop\n      pop\n      jump\t// out\n        /* \"#utility.yul\":4335:4504   */\n    tag_125:\n        /* \"#utility.yul\":4419:4430   */\n      0x00\n        /* \"#utility.yul\":4453:4459   */\n      dup3\n        /* \"#utility.yul\":4448:4451   */\n      dup3\n        /* \"#utility.yul\":4441:4460   */\n      mstore\n        /* \"#utility.yul\":4493:4497   */\n      0x20\n        /* \"#utility.yul\":4488:4491   */\n      dup3\n        /* \"#utility.yul\":4484:4498   */\n      add\n        /* \"#utility.yul\":4469:4498   */\n      swap1\n      pop\n        /* \"#utility.yul\":4335:4504   */\n      swap3\n      swap2\n      pop\n      pop\n      jump\t// out\n        /* \"#utility.yul\":4510:4793   */\n    tag_126:\n        /* \"#utility.yul\":4650:4684   */\n      0x446576652073657220646f6e6f2070617261206368616d617220657373612066\n        /* \"#utility.yul\":4646:4647   */\n      0x00\n        /* \"#utility.yul\":4638:4644   */\n      dup3\n        /* \"#utility.yul\":4634:4648   */\n      add\n        /* \"#utility.yul\":4627:4685   */\n      mstore\n        /* \"#utility.yul\":4719:4785   */\n      0x756ec3a7c3a36f00000000000000000000000000000000000000000000000000\n        /* \"#utility.yul\":4714:4716   */\n      0x20\n        /* \"#utility.yul\":4706:4712   */\n      dup3\n        /* \"#utility.yul\":4702:4717   */\n      add\n        /* \"#utility.yul\":4695:4786   */\n      mstore\n        /* \"#utility.yul\":4510:4793   */\n      pop\n      jump\t// out\n        /* \"#utility.yul\":4799:5165   */\n    tag_127:\n        /* \"#utility.yul\":4941:4944   */\n      0x00\n        /* \"#utility.yul\":4962:5029   */\n      tag_198\n        /* \"#utility.yul\":5026:5028   */\n      0x27\n        /* \"#utility.yul\":5021:5024   */\n      dup4\n        /* \"#utility.yul\":4962:5029   */\n      tag_125\n      jump\t// in\n    tag_198:\n        /* \"#utility.yul\":4955:5029   */\n      swap2\n      pop\n        /* \"#utility.yul\":5038:5131   */\n      tag_199\n        /* \"#utility.yul\":5127:5130   */\n      dup3\n        /* \"#utility.yul\":5038:5131   */\n      tag_126\n      jump\t// in\n    tag_199:\n        /* \"#utility.yul\":5156:5158   */\n      0x40\n        /* \"#utility.yul\":5151:5154   */\n      dup3\n        /* \"#utility.yul\":5147:5159   */\n      add\n        /* \"#utility.yul\":5140:5159   */\n      swap1\n      pop\n        /* \"#utility.yul\":4799:5165   */\n      swap2\n      swap1\n      pop\n      jump\t// out\n        /* \"#utility.yul\":5171:5590   */\n    tag_52:\n        /* \"#utility.yul\":5337:5341   */\n      0x00\n        /* \"#utility.yul\":5375:5377   */\n      0x20\n        /* \"#utility.yul\":5364:5373   */\n      dup3\n        /* \"#utility.yul\":5360:5378   */\n      add\n        /* \"#utility.yul\":5352:5378   */\n      swap1\n      pop\n        /* \"#utility.yul\":5424:5433   */\n      dup2\n        /* \"#utility.yul\":5418:5422   */\n      dup2\n        /* \"#utility.yul\":5414:5434   */\n      sub\n        /* \"#utility.yul\":5410:5411   */\n      0x00\n        /* \"#utility.yul\":5399:5408   */\n      dup4\n        /* \"#utility.yul\":5395:5412   */\n      add\n        /* \"#utility.yul\":5388:5435   */\n      mstore\n        /* \"#utility.yul\":5452:5583   */\n      tag_201\n        /* \"#utility.yul\":5578:5582   */\n      dup2\n        /* \"#utility.yul\":5452:5583   */\n      tag_127\n      jump\t// in\n    tag_201:\n        /* \"#utility.yul\":5444:5583   */\n      swap1\n      pop\n        /* \"#utility.yul\":5171:5590   */\n      swap2\n      swap1\n      pop\n      jump\t// out\n        /* \"#utility.yul\":5596:5810   */\n    tag_128:\n        /* \"#utility.yul\":5736:5802   */\n      0x4ec3a36f20706f646520736572207a65726f0000000000000000000000000000\n        /* \"#utility.yul\":5732:5733   */\n      0x00\n        /* \"#utility.yul\":5724:5730   */\n      dup3\n        /* \"#utility.yul\":5720:5734   */\n      add\n        /* \"#utility.yul\":5713:5803   */\n      mstore\n        /* \"#utility.yul\":5596:5810   */\n      pop\n      jump\t// out\n        /* \"#utility.yul\":5816:6182   */\n    tag_129:\n        /* \"#utility.yul\":5958:5961   */\n      0x00\n        /* \"#utility.yul\":5979:6046   */\n      tag_204\n        /* \"#utility.yul\":6043:6045   */\n      0x12\n        /* \"#utility.yul\":6038:6041   */\n      dup4\n        /* \"#utility.yul\":5979:6046   */\n      tag_125\n      jump\t// in\n    tag_204:\n        /* \"#utility.yul\":5972:6046   */\n      swap2\n      pop\n        /* \"#utility.yul\":6055:6148   */\n      tag_205\n        /* \"#utility.yul\":6144:6147   */\n      dup3\n        /* \"#utility.yul\":6055:6148   */\n      tag_128\n      jump\t// in\n    tag_205:\n        /* \"#utility.yul\":6173:6175   */\n      0x20\n        /* \"#utility.yul\":6168:6171   */\n      dup3\n        /* \"#utility.yul\":6164:6176   */\n      add\n        /* \"#utility.yul\":6157:6176   */\n      swap1\n      pop\n        /* \"#utility.yul\":5816:6182   */\n      swap2\n      swap1\n      pop\n      jump\t// out\n        /* \"#utility.yul\":6188:6607   */\n    tag_56:\n        /* \"#utility.yul\":6354:6358   */\n      0x00\n        /* \"#utility.yul\":6392:6394   */\n      0x20\n        /* \"#utility.yul\":6381:6390   */\n      dup3\n        /* \"#utility.yul\":6377:6395   */\n      add\n        /* \"#utility.yul\":6369:6395   */\n      swap1\n      pop\n        /* \"#utility.yul\":6441:6450   */\n      dup2\n        /* \"#utility.yul\":6435:6439   */\n      dup2\n        /* \"#utility.yul\":6431:6451   */\n      sub\n        /* \"#utility.yul\":6427:6428   */\n      0x00\n        /* \"#utility.yul\":6416:6425   */\n      dup4\n        /* \"#utility.yul\":6412:6429   */\n      add\n        /* \"#utility.yul\":6405:6452   */\n      mstore\n        /* \"#utility.yul\":6469:6600   */\n      tag_207\n        /* \"#utility.yul\":6595:6599   */\n      dup2\n        /* \"#utility.yul\":6469:6600   */\n      tag_129\n      jump\t// in\n    tag_207:\n        /* \"#utility.yul\":6461:6600   */\n      swap1\n      pop\n        /* \"#utility.yul\":6188:6607   */\n      swap2\n      swap1\n      pop\n      jump\t// out\n        /* \"#utility.yul\":6613:6756   */\n    tag_130:\n        /* \"#utility.yul\":6670:6675   */\n      0x00\n        /* \"#utility.yul\":6701:6707   */\n      dup2\n        /* \"#utility.yul\":6695:6708   */\n      mload\n        /* \"#utility.yul\":6686:6708   */\n      swap1\n      pop\n        /* \"#utility.yul\":6717:6750   */\n      tag_209\n        /* \"#utility.yul\":6744:6749   */\n      dup2\n        /* \"#utility.yul\":6717:6750   */\n      tag_112\n      jump\t// in\n    tag_209:\n        /* \"#utility.yul\":6613:6756   */\n      swap3\n      swap2\n      pop\n      pop\n      jump\t// out\n        /* \"#utility.yul\":6762:7113   */\n    tag_61:\n        /* \"#utility.yul\":6832:6838   */\n      0x00\n        /* \"#utility.yul\":6881:6883   */\n      0x20\n        /* \"#utility.yul\":6869:6878   */\n      dup3\n        /* \"#utility.yul\":6860:6867   */\n      dup5\n        /* \"#utility.yul\":6856:6879   */\n      sub\n        /* \"#utility.yul\":6852:6884   */\n      slt\n        /* \"#utility.yul\":6849:6968   */\n      iszero\n      tag_211\n      jumpi\n        /* \"#utility.yul\":6887:6966   */\n      tag_212\n      tag_109\n      jump\t// in\n    tag_212:\n        /* \"#utility.yul\":6849:6968   */\n    tag_211:\n        /* \"#utility.yul\":7007:7008   */\n      0x00\n        /* \"#utility.yul\":7032:7096   */\n      tag_213\n        /* \"#utility.yul\":7088:7095   */\n      dup5\n        /* \"#utility.yul\":7079:7085   */\n      dup3\n        /* \"#utility.yul\":7068:7077   */\n      dup6\n        /* \"#utility.yul\":7064:7086   */\n      add\n        /* \"#utility.yul\":7032:7096   */\n      tag_130\n      jump\t// in\n    tag_213:\n        /* \"#utility.yul\":7022:7096   */\n      swap2\n      pop\n        /* \"#utility.yul\":6978:7106   */\n      pop\n        /* \"#utility.yul\":6762:7113   */\n      swap3\n      swap2\n      pop\n      pop\n      jump\t// out\n        /* \"#utility.yul\":7119:7275   */\n    tag_131:\n        /* \"#utility.yul\":7259:7267   */\n      0x7364617364200000000000000000000000000000000000000000000000000000\n        /* \"#utility.yul\":7255:7256   */\n      0x00\n        /* \"#utility.yul\":7247:7253   */\n      dup3\n        /* \"#utility.yul\":7243:7257   */\n      add\n        /* \"#utility.yul\":7236:7268   */\n      mstore\n        /* \"#utility.yul\":7119:7275   */\n      pop\n      jump\t// out\n        /* \"#utility.yul\":7281:7646   */\n    tag_132:\n        /* \"#utility.yul\":7423:7426   */\n      0x00\n        /* \"#utility.yul\":7444:7510   */\n      tag_216\n        /* \"#utility.yul\":7508:7509   */\n      0x06\n        /* \"#utility.yul\":7503:7506   */\n      dup4\n        /* \"#utility.yul\":7444:7510   */\n      tag_125\n      jump\t// in\n    tag_216:\n        /* \"#utility.yul\":7437:7510   */\n      swap2\n      pop\n        /* \"#utility.yul\":7519:7612   */\n      tag_217\n        /* \"#utility.yul\":7608:7611   */\n      dup3\n        /* \"#utility.yul\":7519:7612   */\n      tag_131\n      jump\t// in\n    tag_217:\n        /* \"#utility.yul\":7637:7639   */\n      0x20\n        /* \"#utility.yul\":7632:7635   */\n      dup3\n        /* \"#utility.yul\":7628:7640   */\n      add\n        /* \"#utility.yul\":7621:7640   */\n      swap1\n      pop\n        /* \"#utility.yul\":7281:7646   */\n      swap2\n      swap1\n      pop\n      jump\t// out\n        /* \"#utility.yul\":7652:8071   */\n    tag_64:\n        /* \"#utility.yul\":7818:7822   */\n      0x00\n        /* \"#utility.yul\":7856:7858   */\n      0x20\n        /* \"#utility.yul\":7845:7854   */\n      dup3\n        /* \"#utility.yul\":7841:7859   */\n      add\n        /* \"#utility.yul\":7833:7859   */\n      swap1\n      pop\n        /* \"#utility.yul\":7905:7914   */\n      dup2\n        /* \"#utility.yul\":7899:7903   */\n      dup2\n        /* \"#utility.yul\":7895:7915   */\n      sub\n        /* \"#utility.yul\":7891:7892   */\n      0x00\n        /* \"#utility.yul\":7880:7889   */\n      dup4\n        /* \"#utility.yul\":7876:7893   */\n      add\n        /* \"#utility.yul\":7869:7916   */\n      mstore\n        /* \"#utility.yul\":7933:8064   */\n      tag_219\n        /* \"#utility.yul\":8059:8063   */\n      dup2\n        /* \"#utility.yul\":7933:8064   */\n      tag_132\n      jump\t// in\n    tag_219:\n        /* \"#utility.yul\":7925:8064   */\n      swap1\n      pop\n        /* \"#utility.yul\":7652:8071   */\n      swap2\n      swap1\n      pop\n      jump\t// out\n        /* \"#utility.yul\":8077:8244   */\n    tag_133:\n        /* \"#utility.yul\":8217:8236   */\n      0x4e616f20706f646520736572207a65726f000000000000000000000000000000\n        /* \"#utility.yul\":8213:8214   */\n      0x00\n        /* \"#utility.yul\":8205:8211   */\n      dup3\n        /* \"#utility.yul\":8201:8215   */\n      add\n        /* \"#utility.yul\":8194:8237   */\n      mstore\n        /* \"#utility.yul\":8077:8244   */\n      pop\n      jump\t// out\n        /* \"#utility.yul\":8250:8616   */\n    tag_134:\n        /* \"#utility.yul\":8392:8395   */\n      0x00\n        /* \"#utility.yul\":8413:8480   */\n      tag_222\n        /* \"#utility.yul\":8477:8479   */\n      0x11\n        /* \"#utility.yul\":8472:8475   */\n      dup4\n        /* \"#utility.yul\":8413:8480   */\n      tag_125\n      jump\t// in\n    tag_222:\n        /* \"#utility.yul\":8406:8480   */\n      swap2\n      pop\n        /* \"#utility.yul\":8489:8582   */\n      tag_223\n        /* \"#utility.yul\":8578:8581   */\n      dup3\n        /* \"#utility.yul\":8489:8582   */\n      tag_133\n      jump\t// in\n    tag_223:\n        /* \"#utility.yul\":8607:8609   */\n      0x20\n        /* \"#utility.yul\":8602:8605   */\n      dup3\n        /* \"#utility.yul\":8598:8610   */\n      add\n        /* \"#utility.yul\":8591:8610   */\n      swap1\n      pop\n        /* \"#utility.yul\":8250:8616   */\n      swap2\n      swap1\n      pop\n      jump\t// out\n        /* \"#utility.yul\":8622:9041   */\n    tag_67:\n        /* \"#utility.yul\":8788:8792   */\n      0x00\n        /* \"#utility.yul\":8826:8828   */\n      0x20\n        /* \"#utility.yul\":8815:8824   */\n      dup3\n        /* \"#utility.yul\":8811:8829   */\n      add\n        /* \"#utility.yul\":8803:8829   */\n      swap1\n      pop\n        /* \"#utility.yul\":8875:8884   */\n      dup2\n        /* \"#utility.yul\":8869:8873   */\n      dup2\n        /* \"#utility.yul\":8865:8885   */\n      sub\n        /* \"#utility.yul\":8861:8862   */\n      0x00\n        /* \"#utility.yul\":8850:8859   */\n      dup4\n        /* \"#utility.yul\":8846:8863   */\n      add\n        /* \"#utility.yul\":8839:8886   */\n      mstore\n        /* \"#utility.yul\":8903:9034   */\n      tag_225\n        /* \"#utility.yul\":9029:9033   */\n      dup2\n        /* \"#utility.yul\":8903:9034   */\n      tag_134\n      jump\t// in\n    tag_225:\n        /* \"#utility.yul\":8895:9034   */\n      swap1\n      pop\n        /* \"#utility.yul\":8622:9041   */\n      swap2\n      swap1\n      pop\n      jump\t// out\n        /* \"#utility.yul\":9047:9489   */\n    tag_69:\n        /* \"#utility.yul\":9196:9200   */\n      0x00\n        /* \"#utility.yul\":9234:9236   */\n      0x60\n        /* \"#utility.yul\":9223:9232   */\n      dup3\n        /* \"#utility.yul\":9219:9237   */\n      add\n        /* \"#utility.yul\":9211:9237   */\n      swap1\n      pop\n        /* \"#utility.yul\":9247:9318   */\n      tag_227\n        /* \"#utility.yul\":9315:9316   */\n      0x00\n        /* \"#utility.yul\":9304:9313   */\n      dup4\n        /* \"#utility.yul\":9300:9317   */\n      add\n        /* \"#utility.yul\":9291:9297   */\n      dup7\n        /* \"#utility.yul\":9247:9318   */\n      tag_117\n      jump\t// in\n    tag_227:\n        /* \"#utility.yul\":9328:9400   */\n      tag_228\n        /* \"#utility.yul\":9396:9398   */\n      0x20\n        /* \"#utility.yul\":9385:9394   */\n      dup4\n        /* \"#utility.yul\":9381:9399   */\n      add\n        /* \"#utility.yul\":9372:9378   */\n      dup6\n        /* \"#utility.yul\":9328:9400   */\n      tag_117\n      jump\t// in\n    tag_228:\n        /* \"#utility.yul\":9410:9482   */\n      tag_229\n        /* \"#utility.yul\":9478:9480   */\n      0x40\n        /* \"#utility.yul\":9467:9476   */\n      dup4\n        /* \"#utility.yul\":9463:9481   */\n      add\n        /* \"#utility.yul\":9454:9460   */\n      dup5\n        /* \"#utility.yul\":9410:9482   */\n      tag_114\n      jump\t// in\n    tag_229:\n        /* \"#utility.yul\":9047:9489   */\n      swap5\n      swap4\n      pop\n      pop\n      pop\n      pop\n      jump\t// out\n        /* \"#utility.yul\":9495:9611   */\n    tag_135:\n        /* \"#utility.yul\":9565:9586   */\n      tag_231\n        /* \"#utility.yul\":9580:9585   */\n      dup2\n        /* \"#utility.yul\":9565:9586   */\n      tag_118\n      jump\t// in\n    tag_231:\n        /* \"#utility.yul\":9558:9563   */\n      dup2\n        /* \"#utility.yul\":9555:9587   */\n      eq\n        /* \"#utility.yul\":9545:9605   */\n      tag_232\n      jumpi\n        /* \"#utility.yul\":9601:9602   */\n      0x00\n        /* \"#utility.yul\":9598:9599   */\n      dup1\n        /* \"#utility.yul\":9591:9603   */\n      revert\n        /* \"#utility.yul\":9545:9605   */\n    tag_232:\n        /* \"#utility.yul\":9495:9611   */\n      pop\n      jump\t// out\n        /* \"#utility.yul\":9617:9754   */\n    tag_136:\n        /* \"#utility.yul\":9671:9676   */\n      0x00\n        /* \"#utility.yul\":9702:9708   */\n      dup2\n        /* \"#utility.yul\":9696:9709   */\n      mload\n        /* \"#utility.yul\":9687:9709   */\n      swap1\n      pop\n        /* \"#utility.yul\":9718:9748   */\n      tag_234\n        /* \"#utility.yul\":9742:9747   */\n      dup2\n        /* \"#utility.yul\":9718:9748   */\n      tag_135\n      jump\t// in\n    tag_234:\n        /* \"#utility.yul\":9617:9754   */\n      swap3\n      swap2\n      pop\n      pop\n      jump\t// out\n        /* \"#utility.yul\":9760:10105   */\n    tag_73:\n        /* \"#utility.yul\":9827:9833   */\n      0x00\n        /* \"#utility.yul\":9876:9878   */\n      0x20\n        /* \"#utility.yul\":9864:9873   */\n      dup3\n        /* \"#utility.yul\":9855:9862   */\n      dup5\n        /* \"#utility.yul\":9851:9874   */\n      sub\n        /* \"#utility.yul\":9847:9879   */\n      slt\n        /* \"#utility.yul\":9844:9963   */\n      iszero\n      tag_236\n      jumpi\n        /* \"#utility.yul\":9882:9961   */\n      tag_237\n      tag_109\n      jump\t// in\n    tag_237:\n        /* \"#utility.yul\":9844:9963   */\n    tag_236:\n        /* \"#utility.yul\":10002:10003   */\n      0x00\n        /* \"#utility.yul\":10027:10088   */\n      tag_238\n        /* \"#utility.yul\":10080:10087   */\n      dup5\n        /* \"#utility.yul\":10071:10077   */\n      dup3\n        /* \"#utility.yul\":10060:10069   */\n      dup6\n        /* \"#utility.yul\":10056:10078   */\n      add\n        /* \"#utility.yul\":10027:10088   */\n      tag_136\n      jump\t// in\n    tag_238:\n        /* \"#utility.yul\":10017:10088   */\n      swap2\n      pop\n        /* \"#utility.yul\":9973:10098   */\n      pop\n        /* \"#utility.yul\":9760:10105   */\n      swap3\n      swap2\n      pop\n      pop\n      jump\t// out\n        /* \"#utility.yul\":10111:10291   */\n    tag_137:\n        /* \"#utility.yul\":10159:10236   */\n      0x4e487b7100000000000000000000000000000000000000000000000000000000\n        /* \"#utility.yul\":10156:10157   */\n      0x00\n        /* \"#utility.yul\":10149:10237   */\n      mstore\n        /* \"#utility.yul\":10256:10260   */\n      0x11\n        /* \"#utility.yul\":10253:10254   */\n      0x04\n        /* \"#utility.yul\":10246:10261   */\n      mstore\n        /* \"#utility.yul\":10280:10284   */\n      0x24\n        /* \"#utility.yul\":10277:10278   */\n      0x00\n        /* \"#utility.yul\":10270:10285   */\n      revert\n        /* \"#utility.yul\":10297:10488   */\n    tag_77:\n        /* \"#utility.yul\":10337:10340   */\n      0x00\n        /* \"#utility.yul\":10356:10376   */\n      tag_241\n        /* \"#utility.yul\":10374:10375   */\n      dup3\n        /* \"#utility.yul\":10356:10376   */\n      tag_111\n      jump\t// in\n    tag_241:\n        /* \"#utility.yul\":10351:10376   */\n      swap2\n      pop\n        /* \"#utility.yul\":10390:10410   */\n      tag_242\n        /* \"#utility.yul\":10408:10409   */\n      dup4\n        /* \"#utility.yul\":10390:10410   */\n      tag_111\n      jump\t// in\n    tag_242:\n        /* \"#utility.yul\":10385:10410   */\n      swap3\n      pop\n        /* \"#utility.yul\":10433:10434   */\n      dup3\n        /* \"#utility.yul\":10430:10431   */\n      dup3\n        /* \"#utility.yul\":10426:10435   */\n      add\n        /* \"#utility.yul\":10419:10435   */\n      swap1\n      pop\n        /* \"#utility.yul\":10454:10457   */\n      dup1\n        /* \"#utility.yul\":10451:10452   */\n      dup3\n        /* \"#utility.yul\":10448:10458   */\n      gt\n        /* \"#utility.yul\":10445:10481   */\n      iszero\n      tag_243\n      jumpi\n        /* \"#utility.yul\":10461:10479   */\n      tag_244\n      tag_137\n      jump\t// in\n    tag_244:\n        /* \"#utility.yul\":10445:10481   */\n    tag_243:\n        /* \"#utility.yul\":10297:10488   */\n      swap3\n      swap2\n      pop\n      pop\n      jump\t// out\n        /* \"#utility.yul\":10494:10936   */\n    tag_81:\n        /* \"#utility.yul\":10643:10647   */\n      0x00\n        /* \"#utility.yul\":10681:10683   */\n      0x60\n        /* \"#utility.yul\":10670:10679   */\n      dup3\n        /* \"#utility.yul\":10666:10684   */\n      add\n        /* \"#utility.yul\":10658:10684   */\n      swap1\n      pop\n        /* \"#utility.yul\":10694:10765   */\n      tag_246\n        /* \"#utility.yul\":10762:10763   */\n      0x00\n        /* \"#utility.yul\":10751:10760   */\n      dup4\n        /* \"#utility.yul\":10747:10764   */\n      add\n        /* \"#utility.yul\":10738:10744   */\n      dup7\n        /* \"#utility.yul\":10694:10765   */\n      tag_114\n      jump\t// in\n    tag_246:\n        /* \"#utility.yul\":10775:10847   */\n      tag_247\n        /* \"#utility.yul\":10843:10845   */\n      0x20\n        /* \"#utility.yul\":10832:10841   */\n      dup4\n        /* \"#utility.yul\":10828:10846   */\n      add\n        /* \"#utility.yul\":10819:10825   */\n      dup6\n        /* \"#utility.yul\":10775:10847   */\n      tag_114\n      jump\t// in\n    tag_247:\n        /* \"#utility.yul\":10857:10929   */\n      tag_248\n        /* \"#utility.yul\":10925:10927   */\n      0x40\n        /* \"#utility.yul\":10914:10923   */\n      dup4\n        /* \"#utility.yul\":10910:10928   */\n      add\n        /* \"#utility.yul\":10901:10907   */\n      dup5\n        /* \"#utility.yul\":10857:10929   */\n      tag_114\n      jump\t// in\n    tag_248:\n        /* \"#utility.yul\":10494:10936   */\n      swap5\n      swap4\n      pop\n      pop\n      pop\n      pop\n      jump\t// out\n        /* \"#utility.yul\":10942:11103   */\n    tag_138:\n        /* \"#utility.yul\":11082:11095   */\n      0x696420696e76616c69646f000000000000000000000000000000000000000000\n        /* \"#utility.yul\":11078:11079   */\n      0x00\n        /* \"#utility.yul\":11070:11076   */\n      dup3\n        /* \"#utility.yul\":11066:11080   */\n      add\n        /* \"#utility.yul\":11059:11096   */\n      mstore\n        /* \"#utility.yul\":10942:11103   */\n      pop\n      jump\t// out\n        /* \"#utility.yul\":11109:11475   */\n    tag_139:\n        /* \"#utility.yul\":11251:11254   */\n      0x00\n        /* \"#utility.yul\":11272:11339   */\n      tag_251\n        /* \"#utility.yul\":11336:11338   */\n      0x0b\n        /* \"#utility.yul\":11331:11334   */\n      dup4\n        /* \"#utility.yul\":11272:11339   */\n      tag_125\n      jump\t// in\n    tag_251:\n        /* \"#utility.yul\":11265:11339   */\n      swap2\n      pop\n        /* \"#utility.yul\":11348:11441   */\n      tag_252\n        /* \"#utility.yul\":11437:11440   */\n      dup3\n        /* \"#utility.yul\":11348:11441   */\n      tag_138\n      jump\t// in\n    tag_252:\n        /* \"#utility.yul\":11466:11468   */\n      0x20\n        /* \"#utility.yul\":11461:11464   */\n      dup3\n        /* \"#utility.yul\":11457:11469   */\n      add\n        /* \"#utility.yul\":11450:11469   */\n      swap1\n      pop\n        /* \"#utility.yul\":11109:11475   */\n      swap2\n      swap1\n      pop\n      jump\t// out\n        /* \"#utility.yul\":11481:11900   */\n    tag_92:\n        /* \"#utility.yul\":11647:11651   */\n      0x00\n        /* \"#utility.yul\":11685:11687   */\n      0x20\n        /* \"#utility.yul\":11674:11683   */\n      dup3\n        /* \"#utility.yul\":11670:11688   */\n      add\n        /* \"#utility.yul\":11662:11688   */\n      swap1\n      pop\n        /* \"#utility.yul\":11734:11743   */\n      dup2\n        /* \"#utility.yul\":11728:11732   */\n      dup2\n        /* \"#utility.yul\":11724:11744   */\n      sub\n        /* \"#utility.yul\":11720:11721   */\n      0x00\n        /* \"#utility.yul\":11709:11718   */\n      dup4\n        /* \"#utility.yul\":11705:11722   */\n      add\n        /* \"#utility.yul\":11698:11745   */\n      mstore\n        /* \"#utility.yul\":11762:11893   */\n      tag_254\n        /* \"#utility.yul\":11888:11892   */\n      dup2\n        /* \"#utility.yul\":11762:11893   */\n      tag_139\n      jump\t// in\n    tag_254:\n        /* \"#utility.yul\":11754:11893   */\n      swap1\n      pop\n        /* \"#utility.yul\":11481:11900   */\n      swap2\n      swap1\n      pop\n      jump\t// out\n        /* \"#utility.yul\":11906:12070   */\n    tag_140:\n        /* \"#utility.yul\":12046:12062   */\n      0x646576652073657220617469766f000000000000000000000000000000000000\n        /* \"#utility.yul\":12042:12043   */\n      0x00\n        /* \"#utility.yul\":12034:12040   */\n      dup3\n        /* \"#utility.yul\":12030:12044   */\n      add\n        /* \"#utility.yul\":12023:12063   */\n      mstore\n        /* \"#utility.yul\":11906:12070   */\n      pop\n      jump\t// out\n        /* \"#utility.yul\":12076:12442   */\n    tag_141:\n        /* \"#utility.yul\":12218:12221   */\n      0x00\n        /* \"#utility.yul\":12239:12306   */\n      tag_257\n        /* \"#utility.yul\":12303:12305   */\n      0x0e\n        /* \"#utility.yul\":12298:12301   */\n      dup4\n        /* \"#utility.yul\":12239:12306   */\n      tag_125\n      jump\t// in\n    tag_257:\n        /* \"#utility.yul\":12232:12306   */\n      swap2\n      pop\n        /* \"#utility.yul\":12315:12408   */\n      tag_258\n        /* \"#utility.yul\":12404:12407   */\n      dup3\n        /* \"#utility.yul\":12315:12408   */\n      tag_140\n      jump\t// in\n    tag_258:\n        /* \"#utility.yul\":12433:12435   */\n      0x20\n        /* \"#utility.yul\":12428:12431   */\n      dup3\n        /* \"#utility.yul\":12424:12436   */\n      add\n        /* \"#utility.yul\":12417:12436   */\n      swap1\n      pop\n        /* \"#utility.yul\":12076:12442   */\n      swap2\n      swap1\n      pop\n      jump\t// out\n        /* \"#utility.yul\":12448:12867   */\n    tag_95:\n        /* \"#utility.yul\":12614:12618   */\n      0x00\n        /* \"#utility.yul\":12652:12654   */\n      0x20\n        /* \"#utility.yul\":12641:12650   */\n      dup3\n        /* \"#utility.yul\":12637:12655   */\n      add\n        /* \"#utility.yul\":12629:12655   */\n      swap1\n      pop\n        /* \"#utility.yul\":12701:12710   */\n      dup2\n        /* \"#utility.yul\":12695:12699   */\n      dup2\n        /* \"#utility.yul\":12691:12711   */\n      sub\n        /* \"#utility.yul\":12687:12688   */\n      0x00\n        /* \"#utility.yul\":12676:12685   */\n      dup4\n        /* \"#utility.yul\":12672:12689   */\n      add\n        /* \"#utility.yul\":12665:12712   */\n      mstore\n        /* \"#utility.yul\":12729:12860   */\n      tag_260\n        /* \"#utility.yul\":12855:12859   */\n      dup2\n        /* \"#utility.yul\":12729:12860   */\n      tag_141\n      jump\t// in\n    tag_260:\n        /* \"#utility.yul\":12721:12860   */\n      swap1\n      pop\n        /* \"#utility.yul\":12448:12867   */\n      swap2\n      swap1\n      pop\n      jump\t// out\n        /* \"#utility.yul\":12873:13067   */\n    tag_101:\n        /* \"#utility.yul\":12913:12917   */\n      0x00\n        /* \"#utility.yul\":12933:12953   */\n      tag_262\n        /* \"#utility.yul\":12951:12952   */\n      dup3\n        /* \"#utility.yul\":12933:12953   */\n      tag_111\n      jump\t// in\n    tag_262:\n        /* \"#utility.yul\":12928:12953   */\n      swap2\n      pop\n        /* \"#utility.yul\":12967:12987   */\n      tag_263\n        /* \"#utility.yul\":12985:12986   */\n      dup4\n        /* \"#utility.yul\":12967:12987   */\n      tag_111\n      jump\t// in\n    tag_263:\n        /* \"#utility.yul\":12962:12987   */\n      swap3\n      pop\n        /* \"#utility.yul\":13011:13012   */\n      dup3\n        /* \"#utility.yul\":13008:13009   */\n      dup3\n        /* \"#utility.yul\":13004:13013   */\n      sub\n        /* \"#utility.yul\":12996:13013   */\n      swap1\n      pop\n        /* \"#utility.yul\":13035:13036   */\n      dup2\n        /* \"#utility.yul\":13029:13033   */\n      dup2\n        /* \"#utility.yul\":13026:13037   */\n      gt\n        /* \"#utility.yul\":13023:13060   */\n      iszero\n      tag_264\n      jumpi\n        /* \"#utility.yul\":13040:13058   */\n      tag_265\n      tag_137\n      jump\t// in\n    tag_265:\n        /* \"#utility.yul\":13023:13060   */\n    tag_264:\n        /* \"#utility.yul\":12873:13067   */\n      swap3\n      swap2\n      pop\n      pop\n      jump\t// out\n\n    auxdata: 0xa2646970667358221220546af5fd619ef36ef7a94244063e481a6a50c0c7b890f9bf78ec38d8e7d339fe64736f6c63430008160033\n}\n",
				"bytecode": {
					"linkReferences": {},
					"object": "60a06040525f6001555f60025534801562000018575f80fd5b50604051620015413803806200154183398181016040528101906200003e91906200011d565b335f806101000a81548173ffffffffffffffffffffffffffffffffffffffff021916908373ffffffffffffffffffffffffffffffffffffffff1602179055508073ffffffffffffffffffffffffffffffffffffffff1660808173ffffffffffffffffffffffffffffffffffffffff1681525050506200014d565b5f80fd5b5f73ffffffffffffffffffffffffffffffffffffffff82169050919050565b5f620000e782620000bc565b9050919050565b620000f981620000db565b811462000104575f80fd5b50565b5f815190506200011781620000ee565b92915050565b5f60208284031215620001355762000134620000b8565b5b5f620001448482850162000107565b91505092915050565b6080516113c66200017b5f395f81816102ac015281816103c60152818161098b0152610ce801526113c65ff3fe60806040526004361061007a575f3560e01c80637cb029501161004d5780637cb02950146101275780638da5cb5b1461014357806390041a401461016d578063fc0c546a146101ad5761007a565b80632c562a441461007e578063506e1d52146100a657806356afff7c146100d15780635f6df03814610111575b5f80fd5b348015610089575f80fd5b506100a4600480360381019061009f9190610d83565b6101d7565b005b3480156100b1575f80fd5b506100ba610705565b6040516100c8929190610dd0565b60405180910390f35b3480156100dc575f80fd5b506100f760048036038101906100f29190610df7565b610717565b604051610108959493929190610e7b565b60405180910390f35b34801561011c575f80fd5b50610125610775565b005b610141600480360381019061013c9190610df7565b61084d565b005b34801561014e575f80fd5b50610157610c65565b6040516101649190610ecc565b60405180910390f35b348015610178575f80fd5b50610193600480360381019061018e9190610df7565b610c88565b6040516101a4959493929190610e7b565b60405180910390f35b3480156101b8575f80fd5b506101c1610ce6565b6040516101ce9190610f40565b60405180910390f35b5f8054906101000a900473ffffffffffffffffffffffffffffffffffffffff1673ffffffffffffffffffffffffffffffffffffffff163373ffffffffffffffffffffffffffffffffffffffff1614610264576040517f08c379a000000000000000000000000000000000000000000000000000000000815260040161025b90610fd9565b60405180910390fd5b5f82036102a6576040517f08c379a000000000000000000000000000000000000000000000000000000000815260040161029d90611041565b60405180910390fd5b620186a07f000000000000000000000000000000000000000000000000000000000000000073ffffffffffffffffffffffffffffffffffffffff166370a08231336040518263ffffffff1660e01b81526004016103039190610ecc565b602060405180830381865afa15801561031e573d5f803e3d5ffd5b505050506040513d601f19601f820116820180604052508101906103429190611073565b11610382576040517f08c379a0000000000000000000000000000000000000000000000000000000008152600401610379906110e8565b60405180910390fd5b5f81036103c4576040517f08c379a00000000000000000000000000000000000000000000000000000000081526004016103bb90611150565b60405180910390fd5b7f000000000000000000000000000000000000000000000000000000000000000073ffffffffffffffffffffffffffffffffffffffff166323b872dd3330856040518463ffffffff1660e01b81526004016104219392919061116e565b6020604051808303815f875af115801561043d573d5f803e3d5ffd5b505050506040513d601f19601f8201168201806040525081019061046191906111cd565b5061046a610d0a565b828160200181815250508181604001818152505033816060019073ffffffffffffffffffffffffffffffffffffffff16908173ffffffffffffffffffffffffffffffffffffffff16815250506001816080019015159081151581525050600180546104d59190611225565b600181905550600154815f0181815250508060075f835f015181526020019081526020015f205f820151815f015560208201518160010155604082015181600201556060820151816003015f6101000a81548173ffffffffffffffffffffffffffffffffffffffff021916908373ffffffffffffffffffffffffffffffffffffffff16021790555060808201518160030160146101000a81548160ff0219169083151502179055509050508060085f835f015181526020019081526020015f205f820151815f015560208201518160010155604082015181600201556060820151816003015f6101000a81548173ffffffffffffffffffffffffffffffffffffffff021916908373ffffffffffffffffffffffffffffffffffffffff16021790555060808201518160030160146101000a81548160ff02191690831515021790555090505060016002546106299190611225565b6002819055506001600254036106c2578060035f820151815f015560208201518160010155604082015181600201556060820151816003015f6101000a81548173ffffffffffffffffffffffffffffffffffffffff021916908373ffffffffffffffffffffffffffffffffffffffff16021790555060808201518160030160146101000a81548160ff0219169083151502179055509050505b7f65fed65ff7cd6b2d79d64e55d0439fba77cb42a9adabf9fa002ea4c20a1f81e1815f015184846040516106f893929190611258565b60405180910390a1505050565b5f8060025460035f0154915091509091565b6007602052805f5260405f205f91509050805f015490806001015490806002015490806003015f9054906101000a900473ffffffffffffffffffffffffffffffffffffffff16908060030160149054906101000a900460ff16905085565b5f8054906101000a900473ffffffffffffffffffffffffffffffffffffffff1673ffffffffffffffffffffffffffffffffffffffff163373ffffffffffffffffffffffffffffffffffffffff1614610802576040517f08c379a00000000000000000000000000000000000000000000000000000000081526004016107f990610fd9565b60405180910390fd5b5f3390508073ffffffffffffffffffffffffffffffffffffffff166108fc4790811502906040515f60405180830381858888f19350505050158015610849573d5f803e3d5ffd5b5050565b600154811115610892576040517f08c379a0000000000000000000000000000000000000000000000000000000008152600401610889906112d7565b60405180910390fd5b5f60075f8381526020019081526020015f206040518060a00160405290815f82015481526020016001820154815260200160028201548152602001600382015f9054906101000a900473ffffffffffffffffffffffffffffffffffffffff1673ffffffffffffffffffffffffffffffffffffffff1673ffffffffffffffffffffffffffffffffffffffff1681526020016003820160149054906101000a900460ff1615151515815250509050600115158160800151151514610989576040517f08c379a00000000000000000000000000000000000000000000000000000000081526004016109809061133f565b60405180910390fd5b7f000000000000000000000000000000000000000000000000000000000000000073ffffffffffffffffffffffffffffffffffffffff166323b872dd303384602001516040518463ffffffff1660e01b81526004016109ea9392919061116e565b6020604051808303815f875af1158015610a06573d5f803e3d5ffd5b505050506040513d601f19601f82011682018060405250810190610a2a91906111cd565b505f8160800190151590811515815250508060075f8481526020019081526020015f205f820151815f015560208201518160010155604082015181600201556060820151816003015f6101000a81548173ffffffffffffffffffffffffffffffffffffffff021916908373ffffffffffffffffffffffffffffffffffffffff16021790555060808201518160030160146101000a81548160ff0219169083151502179055509050506001600254610ae1919061135d565b6002819055505f5b600154811015610c60575f60075f8381526020019081526020015f206040518060a00160405290815f82015481526020016001820154815260200160028201548152602001600382015f9054906101000a900473ffffffffffffffffffffffffffffffffffffffff1673ffffffffffffffffffffffffffffffffffffffff1673ffffffffffffffffffffffffffffffffffffffff1681526020016003820160149054906101000a900460ff1615151515815250509050806080015115610c52576001600254610bb89190611225565b600281905550600160025403610c51578060035f820151815f015560208201518160010155604082015181600201556060820151816003015f6101000a81548173ffffffffffffffffffffffffffffffffffffffff021916908373ffffffffffffffffffffffffffffffffffffffff16021790555060808201518160030160146101000a81548160ff0219169083151502179055509050505b5b508080600101915050610ae9565b505050565b5f8054906101000a900473ffffffffffffffffffffffffffffffffffffffff1681565b6008602052805f5260405f205f91509050805f015490806001015490806002015490806003015f9054906101000a900473ffffffffffffffffffffffffffffffffffffffff16908060030160149054906101000a900460ff16905085565b7f000000000000000000000000000000000000000000000000000000000000000081565b6040518060a001604052805f81526020015f81526020015f81526020015f73ffffffffffffffffffffffffffffffffffffffff1681526020015f151581525090565b5f80fd5b5f819050919050565b610d6281610d50565b8114610d6c575f80fd5b50565b5f81359050610d7d81610d59565b92915050565b5f8060408385031215610d9957610d98610d4c565b5b5f610da685828601610d6f565b9250506020610db785828601610d6f565b9150509250929050565b610dca81610d50565b82525050565b5f604082019050610de35f830185610dc1565b610df06020830184610dc1565b9392505050565b5f60208284031215610e0c57610e0b610d4c565b5b5f610e1984828501610d6f565b91505092915050565b5f73ffffffffffffffffffffffffffffffffffffffff82169050919050565b5f610e4b82610e22565b9050919050565b610e5b81610e41565b82525050565b5f8115159050919050565b610e7581610e61565b82525050565b5f60a082019050610e8e5f830188610dc1565b610e9b6020830187610dc1565b610ea86040830186610dc1565b610eb56060830185610e52565b610ec26080830184610e6c565b9695505050505050565b5f602082019050610edf5f830184610e52565b92915050565b5f819050919050565b5f610f08610f03610efe84610e22565b610ee5565b610e22565b9050919050565b5f610f1982610eee565b9050919050565b5f610f2a82610f0f565b9050919050565b610f3a81610f20565b82525050565b5f602082019050610f535f830184610f31565b92915050565b5f82825260208201905092915050565b7f446576652073657220646f6e6f2070617261206368616d6172206573736120665f8201527f756ec3a7c3a36f00000000000000000000000000000000000000000000000000602082015250565b5f610fc3602783610f59565b9150610fce82610f69565b604082019050919050565b5f6020820190508181035f830152610ff081610fb7565b9050919050565b7f4ec3a36f20706f646520736572207a65726f00000000000000000000000000005f82015250565b5f61102b601283610f59565b915061103682610ff7565b602082019050919050565b5f6020820190508181035f8301526110588161101f565b9050919050565b5f8151905061106d81610d59565b92915050565b5f6020828403121561108857611087610d4c565b5b5f6110958482850161105f565b91505092915050565b7f73646173642000000000000000000000000000000000000000000000000000005f82015250565b5f6110d2600683610f59565b91506110dd8261109e565b602082019050919050565b5f6020820190508181035f8301526110ff816110c6565b9050919050565b7f4e616f20706f646520736572207a65726f0000000000000000000000000000005f82015250565b5f61113a601183610f59565b915061114582611106565b602082019050919050565b5f6020820190508181035f8301526111678161112e565b9050919050565b5f6060820190506111815f830186610e52565b61118e6020830185610e52565b61119b6040830184610dc1565b949350505050565b6111ac81610e61565b81146111b6575f80fd5b50565b5f815190506111c7816111a3565b92915050565b5f602082840312156111e2576111e1610d4c565b5b5f6111ef848285016111b9565b91505092915050565b7f4e487b71000000000000000000000000000000000000000000000000000000005f52601160045260245ffd5b5f61122f82610d50565b915061123a83610d50565b9250828201905080821115611252576112516111f8565b5b92915050565b5f60608201905061126b5f830186610dc1565b6112786020830185610dc1565b6112856040830184610dc1565b949350505050565b7f696420696e76616c69646f0000000000000000000000000000000000000000005f82015250565b5f6112c1600b83610f59565b91506112cc8261128d565b602082019050919050565b5f6020820190508181035f8301526112ee816112b5565b9050919050565b7f646576652073657220617469766f0000000000000000000000000000000000005f82015250565b5f611329600e83610f59565b9150611334826112f5565b602082019050919050565b5f6020820190508181035f8301526113568161131d565b9050919050565b5f61136782610d50565b915061137283610d50565b925082820390508181111561138a576113896111f8565b5b9291505056fea2646970667358221220546af5fd619ef36ef7a94244063e481a6a50c0c7b890f9bf78ec38d8e7d339fe64736f6c63430008160033",
					"opcodes": "PUSH1 0xA0 PUSH1 0x40 MSTORE PUSH0 PUSH1 0x1 SSTORE PUSH0 PUSH1 0x2 SSTORE CALLVALUE DUP1 ISZERO PUSH3 0x18 JUMPI PUSH0 DUP1 REVERT JUMPDEST POP PUSH1 0x40 MLOAD PUSH3 0x1541 CODESIZE SUB DUP1 PUSH3 0x1541 DUP4 CODECOPY DUP2 DUP2 ADD PUSH1 0x40 MSTORE DUP2 ADD SWAP1 PUSH3 0x3E SWAP2 SWAP1 PUSH3 0x11D JUMP JUMPDEST CALLER PUSH0 DUP1 PUSH2 0x100 EXP DUP2 SLOAD DUP2 PUSH20 0xFFFFFFFFFFFFFFFFFFFFFFFFFFFFFFFFFFFFFFFF MUL NOT AND SWAP1 DUP4 PUSH20 0xFFFFFFFFFFFFFFFFFFFFFFFFFFFFFFFFFFFFFFFF AND MUL OR SWAP1 SSTORE POP DUP1 PUSH20 0xFFFFFFFFFFFFFFFFFFFFFFFFFFFFFFFFFFFFFFFF AND PUSH1 0x80 DUP2 PUSH20 0xFFFFFFFFFFFFFFFFFFFFFFFFFFFFFFFFFFFFFFFF AND DUP2 MSTORE POP POP POP PUSH3 0x14D JUMP JUMPDEST PUSH0 DUP1 REVERT JUMPDEST PUSH0 PUSH20 0xFFFFFFFFFFFFFFFFFFFFFFFFFFFFFFFFFFFFFFFF DUP3 AND SWAP1 POP SWAP2 SWAP1 POP JUMP JUMPDEST PUSH0 PUSH3 0xE7 DUP3 PUSH3 0xBC JUMP JUMPDEST SWAP1 POP SWAP2 SWAP1 POP JUMP JUMPDEST PUSH3 0xF9 DUP2 PUSH3 0xDB JUMP JUMPDEST DUP2 EQ PUSH3 0x104 JUMPI PUSH0 DUP1 REVERT JUMPDEST POP JUMP JUMPDEST PUSH0 DUP2 MLOAD SWAP1 POP PUSH3 0x117 DUP2 PUSH3 0xEE JUMP JUMPDEST SWAP3 SWAP2 POP POP JUMP JUMPDEST PUSH0 PUSH1 0x20 DUP3 DUP5 SUB SLT ISZERO PUSH3 0x135 JUMPI PUSH3 0x134 PUSH3 0xB8 JUMP JUMPDEST JUMPDEST PUSH0 PUSH3 0x144 DUP5 DUP3 DUP6 ADD PUSH3 0x107 JUMP JUMPDEST SWAP2 POP POP SWAP3 SWAP2 POP POP JUMP JUMPDEST PUSH1 0x80 MLOAD PUSH2 0x13C6 PUSH3 0x17B PUSH0 CODECOPY PUSH0 DUP2 DUP2 PUSH2 0x2AC ADD MSTORE DUP2 DUP2 PUSH2 0x3C6 ADD MSTORE DUP2 DUP2 PUSH2 0x98B ADD MSTORE PUSH2 0xCE8 ADD MSTORE PUSH2 0x13C6 PUSH0 RETURN INVALID PUSH1 0x80 PUSH1 0x40 MSTORE PUSH1 0x4 CALLDATASIZE LT PUSH2 0x7A JUMPI PUSH0 CALLDATALOAD PUSH1 0xE0 SHR DUP1 PUSH4 0x7CB02950 GT PUSH2 0x4D JUMPI DUP1 PUSH4 0x7CB02950 EQ PUSH2 0x127 JUMPI DUP1 PUSH4 0x8DA5CB5B EQ PUSH2 0x143 JUMPI DUP1 PUSH4 0x90041A40 EQ PUSH2 0x16D JUMPI DUP1 PUSH4 0xFC0C546A EQ PUSH2 0x1AD JUMPI PUSH2 0x7A JUMP JUMPDEST DUP1 PUSH4 0x2C562A44 EQ PUSH2 0x7E JUMPI DUP1 PUSH4 0x506E1D52 EQ PUSH2 0xA6 JUMPI DUP1 PUSH4 0x56AFFF7C EQ PUSH2 0xD1 JUMPI DUP1 PUSH4 0x5F6DF038 EQ PUSH2 0x111 JUMPI JUMPDEST PUSH0 DUP1 REVERT JUMPDEST CALLVALUE DUP1 ISZERO PUSH2 0x89 JUMPI PUSH0 DUP1 REVERT JUMPDEST POP PUSH2 0xA4 PUSH1 0x4 DUP1 CALLDATASIZE SUB DUP2 ADD SWAP1 PUSH2 0x9F SWAP2 SWAP1 PUSH2 0xD83 JUMP JUMPDEST PUSH2 0x1D7 JUMP JUMPDEST STOP JUMPDEST CALLVALUE DUP1 ISZERO PUSH2 0xB1 JUMPI PUSH0 DUP1 REVERT JUMPDEST POP PUSH2 0xBA PUSH2 0x705 JUMP JUMPDEST PUSH1 0x40 MLOAD PUSH2 0xC8 SWAP3 SWAP2 SWAP1 PUSH2 0xDD0 JUMP JUMPDEST PUSH1 0x40 MLOAD DUP1 SWAP2 SUB SWAP1 RETURN JUMPDEST CALLVALUE DUP1 ISZERO PUSH2 0xDC JUMPI PUSH0 DUP1 REVERT JUMPDEST POP PUSH2 0xF7 PUSH1 0x4 DUP1 CALLDATASIZE SUB DUP2 ADD SWAP1 PUSH2 0xF2 SWAP2 SWAP1 PUSH2 0xDF7 JUMP JUMPDEST PUSH2 0x717 JUMP JUMPDEST PUSH1 0x40 MLOAD PUSH2 0x108 SWAP6 SWAP5 SWAP4 SWAP3 SWAP2 SWAP1 PUSH2 0xE7B JUMP JUMPDEST PUSH1 0x40 MLOAD DUP1 SWAP2 SUB SWAP1 RETURN JUMPDEST CALLVALUE DUP1 ISZERO PUSH2 0x11C JUMPI PUSH0 DUP1 REVERT JUMPDEST POP PUSH2 0x125 PUSH2 0x775 JUMP JUMPDEST STOP JUMPDEST PUSH2 0x141 PUSH1 0x4 DUP1 CALLDATASIZE SUB DUP2 ADD SWAP1 PUSH2 0x13C SWAP2 SWAP1 PUSH2 0xDF7 JUMP JUMPDEST PUSH2 0x84D JUMP JUMPDEST STOP JUMPDEST CALLVALUE DUP1 ISZERO PUSH2 0x14E JUMPI PUSH0 DUP1 REVERT JUMPDEST POP PUSH2 0x157 PUSH2 0xC65 JUMP JUMPDEST PUSH1 0x40 MLOAD PUSH2 0x164 SWAP2 SWAP1 PUSH2 0xECC JUMP JUMPDEST PUSH1 0x40 MLOAD DUP1 SWAP2 SUB SWAP1 RETURN JUMPDEST CALLVALUE DUP1 ISZERO PUSH2 0x178 JUMPI PUSH0 DUP1 REVERT JUMPDEST POP PUSH2 0x193 PUSH1 0x4 DUP1 CALLDATASIZE SUB DUP2 ADD SWAP1 PUSH2 0x18E SWAP2 SWAP1 PUSH2 0xDF7 JUMP JUMPDEST PUSH2 0xC88 JUMP JUMPDEST PUSH1 0x40 MLOAD PUSH2 0x1A4 SWAP6 SWAP5 SWAP4 SWAP3 SWAP2 SWAP1 PUSH2 0xE7B JUMP JUMPDEST PUSH1 0x40 MLOAD DUP1 SWAP2 SUB SWAP1 RETURN JUMPDEST CALLVALUE DUP1 ISZERO PUSH2 0x1B8 JUMPI PUSH0 DUP1 REVERT JUMPDEST POP PUSH2 0x1C1 PUSH2 0xCE6 JUMP JUMPDEST PUSH1 0x40 MLOAD PUSH2 0x1CE SWAP2 SWAP1 PUSH2 0xF40 JUMP JUMPDEST PUSH1 0x40 MLOAD DUP1 SWAP2 SUB SWAP1 RETURN JUMPDEST PUSH0 DUP1 SLOAD SWAP1 PUSH2 0x100 EXP SWAP1 DIV PUSH20 0xFFFFFFFFFFFFFFFFFFFFFFFFFFFFFFFFFFFFFFFF AND PUSH20 0xFFFFFFFFFFFFFFFFFFFFFFFFFFFFFFFFFFFFFFFF AND CALLER PUSH20 0xFFFFFFFFFFFFFFFFFFFFFFFFFFFFFFFFFFFFFFFF AND EQ PUSH2 0x264 JUMPI PUSH1 0x40 MLOAD PUSH32 0x8C379A000000000000000000000000000000000000000000000000000000000 DUP2 MSTORE PUSH1 0x4 ADD PUSH2 0x25B SWAP1 PUSH2 0xFD9 JUMP JUMPDEST PUSH1 0x40 MLOAD DUP1 SWAP2 SUB SWAP1 REVERT JUMPDEST PUSH0 DUP3 SUB PUSH2 0x2A6 JUMPI PUSH1 0x40 MLOAD PUSH32 0x8C379A000000000000000000000000000000000000000000000000000000000 DUP2 MSTORE PUSH1 0x4 ADD PUSH2 0x29D SWAP1 PUSH2 0x1041 JUMP JUMPDEST PUSH1 0x40 MLOAD DUP1 SWAP2 SUB SWAP1 REVERT JUMPDEST PUSH3 0x186A0 PUSH32 0x0 PUSH20 0xFFFFFFFFFFFFFFFFFFFFFFFFFFFFFFFFFFFFFFFF AND PUSH4 0x70A08231 CALLER PUSH1 0x40 MLOAD DUP3 PUSH4 0xFFFFFFFF AND PUSH1 0xE0 SHL DUP2 MSTORE PUSH1 0x4 ADD PUSH2 0x303 SWAP2 SWAP1 PUSH2 0xECC JUMP JUMPDEST PUSH1 0x20 PUSH1 0x40 MLOAD DUP1 DUP4 SUB DUP2 DUP7 GAS STATICCALL ISZERO DUP1 ISZERO PUSH2 0x31E JUMPI RETURNDATASIZE PUSH0 DUP1 RETURNDATACOPY RETURNDATASIZE PUSH0 REVERT JUMPDEST POP POP POP POP PUSH1 0x40 MLOAD RETURNDATASIZE PUSH1 0x1F NOT PUSH1 0x1F DUP3 ADD AND DUP3 ADD DUP1 PUSH1 0x40 MSTORE POP DUP2 ADD SWAP1 PUSH2 0x342 SWAP2 SWAP1 PUSH2 0x1073 JUMP JUMPDEST GT PUSH2 0x382 JUMPI PUSH1 0x40 MLOAD PUSH32 0x8C379A000000000000000000000000000000000000000000000000000000000 DUP2 MSTORE PUSH1 0x4 ADD PUSH2 0x379 SWAP1 PUSH2 0x10E8 JUMP JUMPDEST PUSH1 0x40 MLOAD DUP1 SWAP2 SUB SWAP1 REVERT JUMPDEST PUSH0 DUP2 SUB PUSH2 0x3C4 JUMPI PUSH1 0x40 MLOAD PUSH32 0x8C379A000000000000000000000000000000000000000000000000000000000 DUP2 MSTORE PUSH1 0x4 ADD PUSH2 0x3BB SWAP1 PUSH2 0x1150 JUMP JUMPDEST PUSH1 0x40 MLOAD DUP1 SWAP2 SUB SWAP1 REVERT JUMPDEST PUSH32 0x0 PUSH20 0xFFFFFFFFFFFFFFFFFFFFFFFFFFFFFFFFFFFFFFFF AND PUSH4 0x23B872DD CALLER ADDRESS DUP6 PUSH1 0x40 MLOAD DUP5 PUSH4 0xFFFFFFFF AND PUSH1 0xE0 SHL DUP2 MSTORE PUSH1 0x4 ADD PUSH2 0x421 SWAP4 SWAP3 SWAP2 SWAP1 PUSH2 0x116E JUMP JUMPDEST PUSH1 0x20 PUSH1 0x40 MLOAD DUP1 DUP4 SUB DUP2 PUSH0 DUP8 GAS CALL ISZERO DUP1 ISZERO PUSH2 0x43D JUMPI RETURNDATASIZE PUSH0 DUP1 RETURNDATACOPY RETURNDATASIZE PUSH0 REVERT JUMPDEST POP POP POP POP PUSH1 0x40 MLOAD RETURNDATASIZE PUSH1 0x1F NOT PUSH1 0x1F DUP3 ADD AND DUP3 ADD DUP1 PUSH1 0x40 MSTORE POP DUP2 ADD SWAP1 PUSH2 0x461 SWAP2 SWAP1 PUSH2 0x11CD JUMP JUMPDEST POP PUSH2 0x46A PUSH2 0xD0A JUMP JUMPDEST DUP3 DUP2 PUSH1 0x20 ADD DUP2 DUP2 MSTORE POP POP DUP2 DUP2 PUSH1 0x40 ADD DUP2 DUP2 MSTORE POP POP CALLER DUP2 PUSH1 0x60 ADD SWAP1 PUSH20 0xFFFFFFFFFFFFFFFFFFFFFFFFFFFFFFFFFFFFFFFF AND SWAP1 DUP2 PUSH20 0xFFFFFFFFFFFFFFFFFFFFFFFFFFFFFFFFFFFFFFFF AND DUP2 MSTORE POP POP PUSH1 0x1 DUP2 PUSH1 0x80 ADD SWAP1 ISZERO ISZERO SWAP1 DUP2 ISZERO ISZERO DUP2 MSTORE POP POP PUSH1 0x1 DUP1 SLOAD PUSH2 0x4D5 SWAP2 SWAP1 PUSH2 0x1225 JUMP JUMPDEST PUSH1 0x1 DUP2 SWAP1 SSTORE POP PUSH1 0x1 SLOAD DUP2 PUSH0 ADD DUP2 DUP2 MSTORE POP POP DUP1 PUSH1 0x7 PUSH0 DUP4 PUSH0 ADD MLOAD DUP2 MSTORE PUSH1 0x20 ADD SWAP1 DUP2 MSTORE PUSH1 0x20 ADD PUSH0 KECCAK256 PUSH0 DUP3 ADD MLOAD DUP2 PUSH0 ADD SSTORE PUSH1 0x20 DUP3 ADD MLOAD DUP2 PUSH1 0x1 ADD SSTORE PUSH1 0x40 DUP3 ADD MLOAD DUP2 PUSH1 0x2 ADD SSTORE PUSH1 0x60 DUP3 ADD MLOAD DUP2 PUSH1 0x3 ADD PUSH0 PUSH2 0x100 EXP DUP2 SLOAD DUP2 PUSH20 0xFFFFFFFFFFFFFFFFFFFFFFFFFFFFFFFFFFFFFFFF MUL NOT AND SWAP1 DUP4 PUSH20 0xFFFFFFFFFFFFFFFFFFFFFFFFFFFFFFFFFFFFFFFF AND MUL OR SWAP1 SSTORE POP PUSH1 0x80 DUP3 ADD MLOAD DUP2 PUSH1 0x3 ADD PUSH1 0x14 PUSH2 0x100 EXP DUP2 SLOAD DUP2 PUSH1 0xFF MUL NOT AND SWAP1 DUP4 ISZERO ISZERO MUL OR SWAP1 SSTORE POP SWAP1 POP POP DUP1 PUSH1 0x8 PUSH0 DUP4 PUSH0 ADD MLOAD DUP2 MSTORE PUSH1 0x20 ADD SWAP1 DUP2 MSTORE PUSH1 0x20 ADD PUSH0 KECCAK256 PUSH0 DUP3 ADD MLOAD DUP2 PUSH0 ADD SSTORE PUSH1 0x20 DUP3 ADD MLOAD DUP2 PUSH1 0x1 ADD SSTORE PUSH1 0x40 DUP3 ADD MLOAD DUP2 PUSH1 0x2 ADD SSTORE PUSH1 0x60 DUP3 ADD MLOAD DUP2 PUSH1 0x3 ADD PUSH0 PUSH2 0x100 EXP DUP2 SLOAD DUP2 PUSH20 0xFFFFFFFFFFFFFFFFFFFFFFFFFFFFFFFFFFFFFFFF MUL NOT AND SWAP1 DUP4 PUSH20 0xFFFFFFFFFFFFFFFFFFFFFFFFFFFFFFFFFFFFFFFF AND MUL OR SWAP1 SSTORE POP PUSH1 0x80 DUP3 ADD MLOAD DUP2 PUSH1 0x3 ADD PUSH1 0x14 PUSH2 0x100 EXP DUP2 SLOAD DUP2 PUSH1 0xFF MUL NOT AND SWAP1 DUP4 ISZERO ISZERO MUL OR SWAP1 SSTORE POP SWAP1 POP POP PUSH1 0x1 PUSH1 0x2 SLOAD PUSH2 0x629 SWAP2 SWAP1 PUSH2 0x1225 JUMP JUMPDEST PUSH1 0x2 DUP2 SWAP1 SSTORE POP PUSH1 0x1 PUSH1 0x2 SLOAD SUB PUSH2 0x6C2 JUMPI DUP1 PUSH1 0x3 PUSH0 DUP3 ADD MLOAD DUP2 PUSH0 ADD SSTORE PUSH1 0x20 DUP3 ADD MLOAD DUP2 PUSH1 0x1 ADD SSTORE PUSH1 0x40 DUP3 ADD MLOAD DUP2 PUSH1 0x2 ADD SSTORE PUSH1 0x60 DUP3 ADD MLOAD DUP2 PUSH1 0x3 ADD PUSH0 PUSH2 0x100 EXP DUP2 SLOAD DUP2 PUSH20 0xFFFFFFFFFFFFFFFFFFFFFFFFFFFFFFFFFFFFFFFF MUL NOT AND SWAP1 DUP4 PUSH20 0xFFFFFFFFFFFFFFFFFFFFFFFFFFFFFFFFFFFFFFFF AND MUL OR SWAP1 SSTORE POP PUSH1 0x80 DUP3 ADD MLOAD DUP2 PUSH1 0x3 ADD PUSH1 0x14 PUSH2 0x100 EXP DUP2 SLOAD DUP2 PUSH1 0xFF MUL NOT AND SWAP1 DUP4 ISZERO ISZERO MUL OR SWAP1 SSTORE POP SWAP1 POP POP JUMPDEST PUSH32 0x65FED65FF7CD6B2D79D64E55D0439FBA77CB42A9ADABF9FA002EA4C20A1F81E1 DUP2 PUSH0 ADD MLOAD DUP5 DUP5 PUSH1 0x40 MLOAD PUSH2 0x6F8 SWAP4 SWAP3 SWAP2 SWAP1 PUSH2 0x1258 JUMP JUMPDEST PUSH1 0x40 MLOAD DUP1 SWAP2 SUB SWAP1 LOG1 POP POP POP JUMP JUMPDEST PUSH0 DUP1 PUSH1 0x2 SLOAD PUSH1 0x3 PUSH0 ADD SLOAD SWAP2 POP SWAP2 POP SWAP1 SWAP2 JUMP JUMPDEST PUSH1 0x7 PUSH1 0x20 MSTORE DUP1 PUSH0 MSTORE PUSH1 0x40 PUSH0 KECCAK256 PUSH0 SWAP2 POP SWAP1 POP DUP1 PUSH0 ADD SLOAD SWAP1 DUP1 PUSH1 0x1 ADD SLOAD SWAP1 DUP1 PUSH1 0x2 ADD SLOAD SWAP1 DUP1 PUSH1 0x3 ADD PUSH0 SWAP1 SLOAD SWAP1 PUSH2 0x100 EXP SWAP1 DIV PUSH20 0xFFFFFFFFFFFFFFFFFFFFFFFFFFFFFFFFFFFFFFFF AND SWAP1 DUP1 PUSH1 0x3 ADD PUSH1 0x14 SWAP1 SLOAD SWAP1 PUSH2 0x100 EXP SWAP1 DIV PUSH1 0xFF AND SWAP1 POP DUP6 JUMP JUMPDEST PUSH0 DUP1 SLOAD SWAP1 PUSH2 0x100 EXP SWAP1 DIV PUSH20 0xFFFFFFFFFFFFFFFFFFFFFFFFFFFFFFFFFFFFFFFF AND PUSH20 0xFFFFFFFFFFFFFFFFFFFFFFFFFFFFFFFFFFFFFFFF AND CALLER PUSH20 0xFFFFFFFFFFFFFFFFFFFFFFFFFFFFFFFFFFFFFFFF AND EQ PUSH2 0x802 JUMPI PUSH1 0x40 MLOAD PUSH32 0x8C379A000000000000000000000000000000000000000000000000000000000 DUP2 MSTORE PUSH1 0x4 ADD PUSH2 0x7F9 SWAP1 PUSH2 0xFD9 JUMP JUMPDEST PUSH1 0x40 MLOAD DUP1 SWAP2 SUB SWAP1 REVERT JUMPDEST PUSH0 CALLER SWAP1 POP DUP1 PUSH20 0xFFFFFFFFFFFFFFFFFFFFFFFFFFFFFFFFFFFFFFFF AND PUSH2 0x8FC SELFBALANCE SWAP1 DUP2 ISZERO MUL SWAP1 PUSH1 0x40 MLOAD PUSH0 PUSH1 0x40 MLOAD DUP1 DUP4 SUB DUP2 DUP6 DUP9 DUP9 CALL SWAP4 POP POP POP POP ISZERO DUP1 ISZERO PUSH2 0x849 JUMPI RETURNDATASIZE PUSH0 DUP1 RETURNDATACOPY RETURNDATASIZE PUSH0 REVERT JUMPDEST POP POP JUMP JUMPDEST PUSH1 0x1 SLOAD DUP2 GT ISZERO PUSH2 0x892 JUMPI PUSH1 0x40 MLOAD PUSH32 0x8C379A000000000000000000000000000000000000000000000000000000000 DUP2 MSTORE PUSH1 0x4 ADD PUSH2 0x889 SWAP1 PUSH2 0x12D7 JUMP JUMPDEST PUSH1 0x40 MLOAD DUP1 SWAP2 SUB SWAP1 REVERT JUMPDEST PUSH0 PUSH1 0x7 PUSH0 DUP4 DUP2 MSTORE PUSH1 0x20 ADD SWAP1 DUP2 MSTORE PUSH1 0x20 ADD PUSH0 KECCAK256 PUSH1 0x40 MLOAD DUP1 PUSH1 0xA0 ADD PUSH1 0x40 MSTORE SWAP1 DUP2 PUSH0 DUP3 ADD SLOAD DUP2 MSTORE PUSH1 0x20 ADD PUSH1 0x1 DUP3 ADD SLOAD DUP2 MSTORE PUSH1 0x20 ADD PUSH1 0x2 DUP3 ADD SLOAD DUP2 MSTORE PUSH1 0x20 ADD PUSH1 0x3 DUP3 ADD PUSH0 SWAP1 SLOAD SWAP1 PUSH2 0x100 EXP SWAP1 DIV PUSH20 0xFFFFFFFFFFFFFFFFFFFFFFFFFFFFFFFFFFFFFFFF AND PUSH20 0xFFFFFFFFFFFFFFFFFFFFFFFFFFFFFFFFFFFFFFFF AND PUSH20 0xFFFFFFFFFFFFFFFFFFFFFFFFFFFFFFFFFFFFFFFF AND DUP2 MSTORE PUSH1 0x20 ADD PUSH1 0x3 DUP3 ADD PUSH1 0x14 SWAP1 SLOAD SWAP1 PUSH2 0x100 EXP SWAP1 DIV PUSH1 0xFF AND ISZERO ISZERO ISZERO ISZERO DUP2 MSTORE POP POP SWAP1 POP PUSH1 0x1 ISZERO ISZERO DUP2 PUSH1 0x80 ADD MLOAD ISZERO ISZERO EQ PUSH2 0x989 JUMPI PUSH1 0x40 MLOAD PUSH32 0x8C379A000000000000000000000000000000000000000000000000000000000 DUP2 MSTORE PUSH1 0x4 ADD PUSH2 0x980 SWAP1 PUSH2 0x133F JUMP JUMPDEST PUSH1 0x40 MLOAD DUP1 SWAP2 SUB SWAP1 REVERT JUMPDEST PUSH32 0x0 PUSH20 0xFFFFFFFFFFFFFFFFFFFFFFFFFFFFFFFFFFFFFFFF AND PUSH4 0x23B872DD ADDRESS CALLER DUP5 PUSH1 0x20 ADD MLOAD PUSH1 0x40 MLOAD DUP5 PUSH4 0xFFFFFFFF AND PUSH1 0xE0 SHL DUP2 MSTORE PUSH1 0x4 ADD PUSH2 0x9EA SWAP4 SWAP3 SWAP2 SWAP1 PUSH2 0x116E JUMP JUMPDEST PUSH1 0x20 PUSH1 0x40 MLOAD DUP1 DUP4 SUB DUP2 PUSH0 DUP8 GAS CALL ISZERO DUP1 ISZERO PUSH2 0xA06 JUMPI RETURNDATASIZE PUSH0 DUP1 RETURNDATACOPY RETURNDATASIZE PUSH0 REVERT JUMPDEST POP POP POP POP PUSH1 0x40 MLOAD RETURNDATASIZE PUSH1 0x1F NOT PUSH1 0x1F DUP3 ADD AND DUP3 ADD DUP1 PUSH1 0x40 MSTORE POP DUP2 ADD SWAP1 PUSH2 0xA2A SWAP2 SWAP1 PUSH2 0x11CD JUMP JUMPDEST POP PUSH0 DUP2 PUSH1 0x80 ADD SWAP1 ISZERO ISZERO SWAP1 DUP2 ISZERO ISZERO DUP2 MSTORE POP POP DUP1 PUSH1 0x7 PUSH0 DUP5 DUP2 MSTORE PUSH1 0x20 ADD SWAP1 DUP2 MSTORE PUSH1 0x20 ADD PUSH0 KECCAK256 PUSH0 DUP3 ADD MLOAD DUP2 PUSH0 ADD SSTORE PUSH1 0x20 DUP3 ADD MLOAD DUP2 PUSH1 0x1 ADD SSTORE PUSH1 0x40 DUP3 ADD MLOAD DUP2 PUSH1 0x2 ADD SSTORE PUSH1 0x60 DUP3 ADD MLOAD DUP2 PUSH1 0x3 ADD PUSH0 PUSH2 0x100 EXP DUP2 SLOAD DUP2 PUSH20 0xFFFFFFFFFFFFFFFFFFFFFFFFFFFFFFFFFFFFFFFF MUL NOT AND SWAP1 DUP4 PUSH20 0xFFFFFFFFFFFFFFFFFFFFFFFFFFFFFFFFFFFFFFFF AND MUL OR SWAP1 SSTORE POP PUSH1 0x80 DUP3 ADD MLOAD DUP2 PUSH1 0x3 ADD PUSH1 0x14 PUSH2 0x100 EXP DUP2 SLOAD DUP2 PUSH1 0xFF MUL NOT AND SWAP1 DUP4 ISZERO ISZERO MUL OR SWAP1 SSTORE POP SWAP1 POP POP PUSH1 0x1 PUSH1 0x2 SLOAD PUSH2 0xAE1 SWAP2 SWAP1 PUSH2 0x135D JUMP JUMPDEST PUSH1 0x2 DUP2 SWAP1 SSTORE POP PUSH0 JUMPDEST PUSH1 0x1 SLOAD DUP2 LT ISZERO PUSH2 0xC60 JUMPI PUSH0 PUSH1 0x7 PUSH0 DUP4 DUP2 MSTORE PUSH1 0x20 ADD SWAP1 DUP2 MSTORE PUSH1 0x20 ADD PUSH0 KECCAK256 PUSH1 0x40 MLOAD DUP1 PUSH1 0xA0 ADD PUSH1 0x40 MSTORE SWAP1 DUP2 PUSH0 DUP3 ADD SLOAD DUP2 MSTORE PUSH1 0x20 ADD PUSH1 0x1 DUP3 ADD SLOAD DUP2 MSTORE PUSH1 0x20 ADD PUSH1 0x2 DUP3 ADD SLOAD DUP2 MSTORE PUSH1 0x20 ADD PUSH1 0x3 DUP3 ADD PUSH0 SWAP1 SLOAD SWAP1 PUSH2 0x100 EXP SWAP1 DIV PUSH20 0xFFFFFFFFFFFFFFFFFFFFFFFFFFFFFFFFFFFFFFFF AND PUSH20 0xFFFFFFFFFFFFFFFFFFFFFFFFFFFFFFFFFFFFFFFF AND PUSH20 0xFFFFFFFFFFFFFFFFFFFFFFFFFFFFFFFFFFFFFFFF AND DUP2 MSTORE PUSH1 0x20 ADD PUSH1 0x3 DUP3 ADD PUSH1 0x14 SWAP1 SLOAD SWAP1 PUSH2 0x100 EXP SWAP1 DIV PUSH1 0xFF AND ISZERO ISZERO ISZERO ISZERO DUP2 MSTORE POP POP SWAP1 POP DUP1 PUSH1 0x80 ADD MLOAD ISZERO PUSH2 0xC52 JUMPI PUSH1 0x1 PUSH1 0x2 SLOAD PUSH2 0xBB8 SWAP2 SWAP1 PUSH2 0x1225 JUMP JUMPDEST PUSH1 0x2 DUP2 SWAP1 SSTORE POP PUSH1 0x1 PUSH1 0x2 SLOAD SUB PUSH2 0xC51 JUMPI DUP1 PUSH1 0x3 PUSH0 DUP3 ADD MLOAD DUP2 PUSH0 ADD SSTORE PUSH1 0x20 DUP3 ADD MLOAD DUP2 PUSH1 0x1 ADD SSTORE PUSH1 0x40 DUP3 ADD MLOAD DUP2 PUSH1 0x2 ADD SSTORE PUSH1 0x60 DUP3 ADD MLOAD DUP2 PUSH1 0x3 ADD PUSH0 PUSH2 0x100 EXP DUP2 SLOAD DUP2 PUSH20 0xFFFFFFFFFFFFFFFFFFFFFFFFFFFFFFFFFFFFFFFF MUL NOT AND SWAP1 DUP4 PUSH20 0xFFFFFFFFFFFFFFFFFFFFFFFFFFFFFFFFFFFFFFFF AND MUL OR SWAP1 SSTORE POP PUSH1 0x80 DUP3 ADD MLOAD DUP2 PUSH1 0x3 ADD PUSH1 0x14 PUSH2 0x100 EXP DUP2 SLOAD DUP2 PUSH1 0xFF MUL NOT AND SWAP1 DUP4 ISZERO ISZERO MUL OR SWAP1 SSTORE POP SWAP1 POP POP JUMPDEST JUMPDEST POP DUP1 DUP1 PUSH1 0x1 ADD SWAP2 POP POP PUSH2 0xAE9 JUMP JUMPDEST POP POP POP JUMP JUMPDEST PUSH0 DUP1 SLOAD SWAP1 PUSH2 0x100 EXP SWAP1 DIV PUSH20 0xFFFFFFFFFFFFFFFFFFFFFFFFFFFFFFFFFFFFFFFF AND DUP2 JUMP JUMPDEST PUSH1 0x8 PUSH1 0x20 MSTORE DUP1 PUSH0 MSTORE PUSH1 0x40 PUSH0 KECCAK256 PUSH0 SWAP2 POP SWAP1 POP DUP1 PUSH0 ADD SLOAD SWAP1 DUP1 PUSH1 0x1 ADD SLOAD SWAP1 DUP1 PUSH1 0x2 ADD SLOAD SWAP1 DUP1 PUSH1 0x3 ADD PUSH0 SWAP1 SLOAD SWAP1 PUSH2 0x100 EXP SWAP1 DIV PUSH20 0xFFFFFFFFFFFFFFFFFFFFFFFFFFFFFFFFFFFFFFFF AND SWAP1 DUP1 PUSH1 0x3 ADD PUSH1 0x14 SWAP1 SLOAD SWAP1 PUSH2 0x100 EXP SWAP1 DIV PUSH1 0xFF AND SWAP1 POP DUP6 JUMP JUMPDEST PUSH32 0x0 DUP2 JUMP JUMPDEST PUSH1 0x40 MLOAD DUP1 PUSH1 0xA0 ADD PUSH1 0x40 MSTORE DUP1 PUSH0 DUP2 MSTORE PUSH1 0x20 ADD PUSH0 DUP2 MSTORE PUSH1 0x20 ADD PUSH0 DUP2 MSTORE PUSH1 0x20 ADD PUSH0 PUSH20 0xFFFFFFFFFFFFFFFFFFFFFFFFFFFFFFFFFFFFFFFF AND DUP2 MSTORE PUSH1 0x20 ADD PUSH0 ISZERO ISZERO DUP2 MSTORE POP SWAP1 JUMP JUMPDEST PUSH0 DUP1 REVERT JUMPDEST PUSH0 DUP2 SWAP1 POP SWAP2 SWAP1 POP JUMP JUMPDEST PUSH2 0xD62 DUP2 PUSH2 0xD50 JUMP JUMPDEST DUP2 EQ PUSH2 0xD6C JUMPI PUSH0 DUP1 REVERT JUMPDEST POP JUMP JUMPDEST PUSH0 DUP2 CALLDATALOAD SWAP1 POP PUSH2 0xD7D DUP2 PUSH2 0xD59 JUMP JUMPDEST SWAP3 SWAP2 POP POP JUMP JUMPDEST PUSH0 DUP1 PUSH1 0x40 DUP4 DUP6 SUB SLT ISZERO PUSH2 0xD99 JUMPI PUSH2 0xD98 PUSH2 0xD4C JUMP JUMPDEST JUMPDEST PUSH0 PUSH2 0xDA6 DUP6 DUP3 DUP7 ADD PUSH2 0xD6F JUMP JUMPDEST SWAP3 POP POP PUSH1 0x20 PUSH2 0xDB7 DUP6 DUP3 DUP7 ADD PUSH2 0xD6F JUMP JUMPDEST SWAP2 POP POP SWAP3 POP SWAP3 SWAP1 POP JUMP JUMPDEST PUSH2 0xDCA DUP2 PUSH2 0xD50 JUMP JUMPDEST DUP3 MSTORE POP POP JUMP JUMPDEST PUSH0 PUSH1 0x40 DUP3 ADD SWAP1 POP PUSH2 0xDE3 PUSH0 DUP4 ADD DUP6 PUSH2 0xDC1 JUMP JUMPDEST PUSH2 0xDF0 PUSH1 0x20 DUP4 ADD DUP5 PUSH2 0xDC1 JUMP JUMPDEST SWAP4 SWAP3 POP POP POP JUMP JUMPDEST PUSH0 PUSH1 0x20 DUP3 DUP5 SUB SLT ISZERO PUSH2 0xE0C JUMPI PUSH2 0xE0B PUSH2 0xD4C JUMP JUMPDEST JUMPDEST PUSH0 PUSH2 0xE19 DUP5 DUP3 DUP6 ADD PUSH2 0xD6F JUMP JUMPDEST SWAP2 POP POP SWAP3 SWAP2 POP POP JUMP JUMPDEST PUSH0 PUSH20 0xFFFFFFFFFFFFFFFFFFFFFFFFFFFFFFFFFFFFFFFF DUP3 AND SWAP1 POP SWAP2 SWAP1 POP JUMP JUMPDEST PUSH0 PUSH2 0xE4B DUP3 PUSH2 0xE22 JUMP JUMPDEST SWAP1 POP SWAP2 SWAP1 POP JUMP JUMPDEST PUSH2 0xE5B DUP2 PUSH2 0xE41 JUMP JUMPDEST DUP3 MSTORE POP POP JUMP JUMPDEST PUSH0 DUP2 ISZERO ISZERO SWAP1 POP SWAP2 SWAP1 POP JUMP JUMPDEST PUSH2 0xE75 DUP2 PUSH2 0xE61 JUMP JUMPDEST DUP3 MSTORE POP POP JUMP JUMPDEST PUSH0 PUSH1 0xA0 DUP3 ADD SWAP1 POP PUSH2 0xE8E PUSH0 DUP4 ADD DUP9 PUSH2 0xDC1 JUMP JUMPDEST PUSH2 0xE9B PUSH1 0x20 DUP4 ADD DUP8 PUSH2 0xDC1 JUMP JUMPDEST PUSH2 0xEA8 PUSH1 0x40 DUP4 ADD DUP7 PUSH2 0xDC1 JUMP JUMPDEST PUSH2 0xEB5 PUSH1 0x60 DUP4 ADD DUP6 PUSH2 0xE52 JUMP JUMPDEST PUSH2 0xEC2 PUSH1 0x80 DUP4 ADD DUP5 PUSH2 0xE6C JUMP JUMPDEST SWAP7 SWAP6 POP POP POP POP POP POP JUMP JUMPDEST PUSH0 PUSH1 0x20 DUP3 ADD SWAP1 POP PUSH2 0xEDF PUSH0 DUP4 ADD DUP5 PUSH2 0xE52 JUMP JUMPDEST SWAP3 SWAP2 POP POP JUMP JUMPDEST PUSH0 DUP2 SWAP1 POP SWAP2 SWAP1 POP JUMP JUMPDEST PUSH0 PUSH2 0xF08 PUSH2 0xF03 PUSH2 0xEFE DUP5 PUSH2 0xE22 JUMP JUMPDEST PUSH2 0xEE5 JUMP JUMPDEST PUSH2 0xE22 JUMP JUMPDEST SWAP1 POP SWAP2 SWAP1 POP JUMP JUMPDEST PUSH0 PUSH2 0xF19 DUP3 PUSH2 0xEEE JUMP JUMPDEST SWAP1 POP SWAP2 SWAP1 POP JUMP JUMPDEST PUSH0 PUSH2 0xF2A DUP3 PUSH2 0xF0F JUMP JUMPDEST SWAP1 POP SWAP2 SWAP1 POP JUMP JUMPDEST PUSH2 0xF3A DUP2 PUSH2 0xF20 JUMP JUMPDEST DUP3 MSTORE POP POP JUMP JUMPDEST PUSH0 PUSH1 0x20 DUP3 ADD SWAP1 POP PUSH2 0xF53 PUSH0 DUP4 ADD DUP5 PUSH2 0xF31 JUMP JUMPDEST SWAP3 SWAP2 POP POP JUMP JUMPDEST PUSH0 DUP3 DUP3 MSTORE PUSH1 0x20 DUP3 ADD SWAP1 POP SWAP3 SWAP2 POP POP JUMP JUMPDEST PUSH32 0x446576652073657220646F6E6F2070617261206368616D617220657373612066 PUSH0 DUP3 ADD MSTORE PUSH32 0x756EC3A7C3A36F00000000000000000000000000000000000000000000000000 PUSH1 0x20 DUP3 ADD MSTORE POP JUMP JUMPDEST PUSH0 PUSH2 0xFC3 PUSH1 0x27 DUP4 PUSH2 0xF59 JUMP JUMPDEST SWAP2 POP PUSH2 0xFCE DUP3 PUSH2 0xF69 JUMP JUMPDEST PUSH1 0x40 DUP3 ADD SWAP1 POP SWAP2 SWAP1 POP JUMP JUMPDEST PUSH0 PUSH1 0x20 DUP3 ADD SWAP1 POP DUP2 DUP2 SUB PUSH0 DUP4 ADD MSTORE PUSH2 0xFF0 DUP2 PUSH2 0xFB7 JUMP JUMPDEST SWAP1 POP SWAP2 SWAP1 POP JUMP JUMPDEST PUSH32 0x4EC3A36F20706F646520736572207A65726F0000000000000000000000000000 PUSH0 DUP3 ADD MSTORE POP JUMP JUMPDEST PUSH0 PUSH2 0x102B PUSH1 0x12 DUP4 PUSH2 0xF59 JUMP JUMPDEST SWAP2 POP PUSH2 0x1036 DUP3 PUSH2 0xFF7 JUMP JUMPDEST PUSH1 0x20 DUP3 ADD SWAP1 POP SWAP2 SWAP1 POP JUMP JUMPDEST PUSH0 PUSH1 0x20 DUP3 ADD SWAP1 POP DUP2 DUP2 SUB PUSH0 DUP4 ADD MSTORE PUSH2 0x1058 DUP2 PUSH2 0x101F JUMP JUMPDEST SWAP1 POP SWAP2 SWAP1 POP JUMP JUMPDEST PUSH0 DUP2 MLOAD SWAP1 POP PUSH2 0x106D DUP2 PUSH2 0xD59 JUMP JUMPDEST SWAP3 SWAP2 POP POP JUMP JUMPDEST PUSH0 PUSH1 0x20 DUP3 DUP5 SUB SLT ISZERO PUSH2 0x1088 JUMPI PUSH2 0x1087 PUSH2 0xD4C JUMP JUMPDEST JUMPDEST PUSH0 PUSH2 0x1095 DUP5 DUP3 DUP6 ADD PUSH2 0x105F JUMP JUMPDEST SWAP2 POP POP SWAP3 SWAP2 POP POP JUMP JUMPDEST PUSH32 0x7364617364200000000000000000000000000000000000000000000000000000 PUSH0 DUP3 ADD MSTORE POP JUMP JUMPDEST PUSH0 PUSH2 0x10D2 PUSH1 0x6 DUP4 PUSH2 0xF59 JUMP JUMPDEST SWAP2 POP PUSH2 0x10DD DUP3 PUSH2 0x109E JUMP JUMPDEST PUSH1 0x20 DUP3 ADD SWAP1 POP SWAP2 SWAP1 POP JUMP JUMPDEST PUSH0 PUSH1 0x20 DUP3 ADD SWAP1 POP DUP2 DUP2 SUB PUSH0 DUP4 ADD MSTORE PUSH2 0x10FF DUP2 PUSH2 0x10C6 JUMP JUMPDEST SWAP1 POP SWAP2 SWAP1 POP JUMP JUMPDEST PUSH32 0x4E616F20706F646520736572207A65726F000000000000000000000000000000 PUSH0 DUP3 ADD MSTORE POP JUMP JUMPDEST PUSH0 PUSH2 0x113A PUSH1 0x11 DUP4 PUSH2 0xF59 JUMP JUMPDEST SWAP2 POP PUSH2 0x1145 DUP3 PUSH2 0x1106 JUMP JUMPDEST PUSH1 0x20 DUP3 ADD SWAP1 POP SWAP2 SWAP1 POP JUMP JUMPDEST PUSH0 PUSH1 0x20 DUP3 ADD SWAP1 POP DUP2 DUP2 SUB PUSH0 DUP4 ADD MSTORE PUSH2 0x1167 DUP2 PUSH2 0x112E JUMP JUMPDEST SWAP1 POP SWAP2 SWAP1 POP JUMP JUMPDEST PUSH0 PUSH1 0x60 DUP3 ADD SWAP1 POP PUSH2 0x1181 PUSH0 DUP4 ADD DUP7 PUSH2 0xE52 JUMP JUMPDEST PUSH2 0x118E PUSH1 0x20 DUP4 ADD DUP6 PUSH2 0xE52 JUMP JUMPDEST PUSH2 0x119B PUSH1 0x40 DUP4 ADD DUP5 PUSH2 0xDC1 JUMP JUMPDEST SWAP5 SWAP4 POP POP POP POP JUMP JUMPDEST PUSH2 0x11AC DUP2 PUSH2 0xE61 JUMP JUMPDEST DUP2 EQ PUSH2 0x11B6 JUMPI PUSH0 DUP1 REVERT JUMPDEST POP JUMP JUMPDEST PUSH0 DUP2 MLOAD SWAP1 POP PUSH2 0x11C7 DUP2 PUSH2 0x11A3 JUMP JUMPDEST SWAP3 SWAP2 POP POP JUMP JUMPDEST PUSH0 PUSH1 0x20 DUP3 DUP5 SUB SLT ISZERO PUSH2 0x11E2 JUMPI PUSH2 0x11E1 PUSH2 0xD4C JUMP JUMPDEST JUMPDEST PUSH0 PUSH2 0x11EF DUP5 DUP3 DUP6 ADD PUSH2 0x11B9 JUMP JUMPDEST SWAP2 POP POP SWAP3 SWAP2 POP POP JUMP JUMPDEST PUSH32 0x4E487B7100000000000000000000000000000000000000000000000000000000 PUSH0 MSTORE PUSH1 0x11 PUSH1 0x4 MSTORE PUSH1 0x24 PUSH0 REVERT JUMPDEST PUSH0 PUSH2 0x122F DUP3 PUSH2 0xD50 JUMP JUMPDEST SWAP2 POP PUSH2 0x123A DUP4 PUSH2 0xD50 JUMP JUMPDEST SWAP3 POP DUP3 DUP3 ADD SWAP1 POP DUP1 DUP3 GT ISZERO PUSH2 0x1252 JUMPI PUSH2 0x1251 PUSH2 0x11F8 JUMP JUMPDEST JUMPDEST SWAP3 SWAP2 POP POP JUMP JUMPDEST PUSH0 PUSH1 0x60 DUP3 ADD SWAP1 POP PUSH2 0x126B PUSH0 DUP4 ADD DUP7 PUSH2 0xDC1 JUMP JUMPDEST PUSH2 0x1278 PUSH1 0x20 DUP4 ADD DUP6 PUSH2 0xDC1 JUMP JUMPDEST PUSH2 0x1285 PUSH1 0x40 DUP4 ADD DUP5 PUSH2 0xDC1 JUMP JUMPDEST SWAP5 SWAP4 POP POP POP POP JUMP JUMPDEST PUSH32 0x696420696E76616C69646F000000000000000000000000000000000000000000 PUSH0 DUP3 ADD MSTORE POP JUMP JUMPDEST PUSH0 PUSH2 0x12C1 PUSH1 0xB DUP4 PUSH2 0xF59 JUMP JUMPDEST SWAP2 POP PUSH2 0x12CC DUP3 PUSH2 0x128D JUMP JUMPDEST PUSH1 0x20 DUP3 ADD SWAP1 POP SWAP2 SWAP1 POP JUMP JUMPDEST PUSH0 PUSH1 0x20 DUP3 ADD SWAP1 POP DUP2 DUP2 SUB PUSH0 DUP4 ADD MSTORE PUSH2 0x12EE DUP2 PUSH2 0x12B5 JUMP JUMPDEST SWAP1 POP SWAP2 SWAP1 POP JUMP JUMPDEST PUSH32 0x646576652073657220617469766F000000000000000000000000000000000000 PUSH0 DUP3 ADD MSTORE POP JUMP JUMPDEST PUSH0 PUSH2 0x1329 PUSH1 0xE DUP4 PUSH2 0xF59 JUMP JUMPDEST SWAP2 POP PUSH2 0x1334 DUP3 PUSH2 0x12F5 JUMP JUMPDEST PUSH1 0x20 DUP3 ADD SWAP1 POP SWAP2 SWAP1 POP JUMP JUMPDEST PUSH0 PUSH1 0x20 DUP3 ADD SWAP1 POP DUP2 DUP2 SUB PUSH0 DUP4 ADD MSTORE PUSH2 0x1356 DUP2 PUSH2 0x131D JUMP JUMPDEST SWAP1 POP SWAP2 SWAP1 POP JUMP JUMPDEST PUSH0 PUSH2 0x1367 DUP3 PUSH2 0xD50 JUMP JUMPDEST SWAP2 POP PUSH2 0x1372 DUP4 PUSH2 0xD50 JUMP JUMPDEST SWAP3 POP DUP3 DUP3 SUB SWAP1 POP DUP2 DUP2 GT ISZERO PUSH2 0x138A JUMPI PUSH2 0x1389 PUSH2 0x11F8 JUMP JUMPDEST JUMPDEST SWAP3 SWAP2 POP POP JUMP INVALID LOG2 PUSH5 0x6970667358 0x22 SLT KECCAK256 SLOAD PUSH11 0xF5FD619EF36EF7A9424406 RETURNDATACOPY BASEFEE BYTE PUSH11 0x50C0C7B890F9BF78EC38D8 0xE7 0xD3 CODECOPY INVALID PUSH5 0x736F6C6343 STOP ADDMOD AND STOP CALLER "
				},
				"gasEstimates": {
					"creation": {
						"codeDepositCost": "1012400",
						"executionCost": "infinite",
						"totalCost": "infinite"
					},
					"external": {
						"compra(uint256)": "infinite",
						"consultaOfertas()": "infinite",
						"ofertas(uint256)": "infinite",
						"ofertasAtivas(uint256)": "infinite",
						"owner()": "2527",
						"realizaOferta(uint256,uint256)": "infinite",
						"sacarFundos()": "infinite",
						"token()": "infinite"
					}
				},
				"methodIdentifiers": {
					"compra(uint256)": "7cb02950",
					"consultaOfertas()": "506e1d52",
					"ofertas(uint256)": "56afff7c",
					"ofertasAtivas(uint256)": "90041a40",
					"owner()": "8da5cb5b",
					"realizaOferta(uint256,uint256)": "2c562a44",
					"sacarFundos()": "5f6df038",
					"token()": "fc0c546a"
				}
			},
			"storageLayout": {
				"storage": [
					{
						"astId": 1600,
						"contract": "CasaDeCambio.sol:CasaDeCambio",
						"label": "owner",
						"offset": 0,
						"slot": "0",
						"type": "t_address"
					},
					{
						"astId": 1232,
						"contract": "CasaDeCambio.sol:CasaDeCambio",
						"label": "qtddOfertas",
						"offset": 0,
						"slot": "1",
						"type": "t_uint256"
					},
					{
						"astId": 1235,
						"contract": "CasaDeCambio.sol:CasaDeCambio",
						"label": "qtddOfertasAtivas",
						"offset": 0,
						"slot": "2",
						"type": "t_uint256"
					},
					{
						"astId": 1238,
						"contract": "CasaDeCambio.sol:CasaDeCambio",
						"label": "pOfertaAtiva",
						"offset": 0,
						"slot": "3",
						"type": "t_struct(Oferta)1229_storage"
					},
					{
						"astId": 1243,
						"contract": "CasaDeCambio.sol:CasaDeCambio",
						"label": "ofertas",
						"offset": 0,
						"slot": "7",
						"type": "t_mapping(t_uint256,t_struct(Oferta)1229_storage)"
					},
					{
						"astId": 1248,
						"contract": "CasaDeCambio.sol:CasaDeCambio",
						"label": "ofertasAtivas",
						"offset": 0,
						"slot": "8",
						"type": "t_mapping(t_uint256,t_struct(Oferta)1229_storage)"
					}
				],
				"types": {
					"t_address": {
						"encoding": "inplace",
						"label": "address",
						"numberOfBytes": "20"
					},
					"t_bool": {
						"encoding": "inplace",
						"label": "bool",
						"numberOfBytes": "1"
					},
					"t_mapping(t_uint256,t_struct(Oferta)1229_storage)": {
						"encoding": "mapping",
						"key": "t_uint256",
						"label": "mapping(uint256 => struct CasaDeCambio.Oferta)",
						"numberOfBytes": "32",
						"value": "t_struct(Oferta)1229_storage"
					},
					"t_struct(Oferta)1229_storage": {
						"encoding": "inplace",
						"label": "struct CasaDeCambio.Oferta",
						"members": [
							{
								"astId": 1220,
								"contract": "CasaDeCambio.sol:CasaDeCambio",
								"label": "id",
								"offset": 0,
								"slot": "0",
								"type": "t_uint256"
							},
							{
								"astId": 1222,
								"contract": "CasaDeCambio.sol:CasaDeCambio",
								"label": "quantidadeTokens",
								"offset": 0,
								"slot": "1",
								"type": "t_uint256"
							},
							{
								"astId": 1224,
								"contract": "CasaDeCambio.sol:CasaDeCambio",
								"label": "precoLote",
								"offset": 0,
								"slot": "2",
								"type": "t_uint256"
							},
							{
								"astId": 1226,
								"contract": "CasaDeCambio.sol:CasaDeCambio",
								"label": "dono",
								"offset": 0,
								"slot": "3",
								"type": "t_address"
							},
							{
								"astId": 1228,
								"contract": "CasaDeCambio.sol:CasaDeCambio",
								"label": "ehAtivo",
								"offset": 20,
								"slot": "3",
								"type": "t_bool"
							}
						],
						"numberOfBytes": "128"
					},
					"t_uint256": {
						"encoding": "inplace",
						"label": "uint256",
						"numberOfBytes": "32"
					}
				}
			},
			"userdoc": {
				"kind": "user",
				"methods": {
					"compra(uint256)": {
						"notice": "1.Checar se o id é valido 2.Checar se a oferta está ativa 3.Checar se o valor repassado bate com o precoLote 4.Recuperar a oferta 5.Transferir a quantidade de tokens para a carteira de quem chama*"
					},
					"consultaOfertas()": {
						"notice": "Retornar a quantidade de ofertas ativas e o id da primeira oferta disponível*"
					},
					"realizaOferta(uint256,uint256)": {
						"notice": "1.Apenas o dono pode chamar 2.Validar a quantidadeTokens e precoLote 3.Transferir tokens do dono para o contrato 4.Salvar a oferta 5.Emitir o evento ofertaRealizada Importante precoLote é em Wei, para conversão: https://eth-converter.com/*"
					}
				},
				"version": 1
			}
		}
	}
}