{
	"SimpleExchangeImpl_flattened.sol": {
		"ImplementSimpleExchange": {
			"abi": [
				{
					"inputs": [],
					"stateMutability": "nonpayable",
					"type": "constructor"
				},
				{
					"inputs": [
						{
							"internalType": "uint256",
							"name": "index",
							"type": "uint256"
						}
					],
					"name": "acceptOffer",
					"outputs": [],
					"stateMutability": "payable",
					"type": "function"
				},
				{
					"inputs": [
						{
							"internalType": "uint256",
							"name": "index",
							"type": "uint256"
						}
					],
					"name": "balanceOffTokenToBuy",
					"outputs": [
						{
							"internalType": "uint256",
							"name": "",
							"type": "uint256"
						}
					],
					"stateMutability": "view",
					"type": "function"
				},
				{
					"inputs": [
						{
							"internalType": "uint256",
							"name": "index",
							"type": "uint256"
						}
					],
					"name": "balanceOffTokenToSell",
					"outputs": [
						{
							"internalType": "uint256",
							"name": "",
							"type": "uint256"
						}
					],
					"stateMutability": "view",
					"type": "function"
				},
				{
					"inputs": [
						{
							"internalType": "uint256",
							"name": "index",
							"type": "uint256"
						}
					],
					"name": "cancelOffer",
					"outputs": [],
					"stateMutability": "nonpayable",
					"type": "function"
				},
				{
					"inputs": [],
					"name": "getOffersLength",
					"outputs": [
						{
							"internalType": "uint256",
							"name": "",
							"type": "uint256"
						}
					],
					"stateMutability": "view",
					"type": "function"
				},
				{
					"inputs": [
						{
							"internalType": "uint256",
							"name": "",
							"type": "uint256"
						}
					],
					"name": "offers",
					"outputs": [
						{
							"internalType": "uint256",
							"name": "amountToSell",
							"type": "uint256"
						},
						{
							"internalType": "contract IERC20",
							"name": "tokenToSell",
							"type": "address"
						},
						{
							"internalType": "address",
							"name": "seller",
							"type": "address"
						},
						{
							"internalType": "uint256",
							"name": "amountToBuy",
							"type": "uint256"
						},
						{
							"internalType": "contract IERC20",
							"name": "tokenToBuy",
							"type": "address"
						},
						{
							"internalType": "string",
							"name": "status",
							"type": "string"
						}
					],
					"stateMutability": "view",
					"type": "function"
				},
				{
					"inputs": [
						{
							"internalType": "uint256",
							"name": "amountToSell",
							"type": "uint256"
						},
						{
							"internalType": "contract IERC20",
							"name": "tokenToSell",
							"type": "address"
						},
						{
							"internalType": "uint256",
							"name": "amountToBuy",
							"type": "uint256"
						},
						{
							"internalType": "contract IERC20",
							"name": "tokenToBuy",
							"type": "address"
						}
					],
					"name": "putOffer",
					"outputs": [],
					"stateMutability": "nonpayable",
					"type": "function"
				}
			],
			"devdoc": {
				"kind": "dev",
				"methods": {},
				"version": 1
			},
			"evm": {
				"assembly": "    /* \"SimpleExchangeImpl_flattened.sol\":22619:25046  contract ImplementSimpleExchange is ISimpleExchange {... */\n  mstore(0x40, 0x80)\n    /* \"SimpleExchangeImpl_flattened.sol\":22706:22727  constructor() {... */\n  callvalue\n  dup1\n  iszero\n  tag_1\n  jumpi\n  0x00\n  dup1\n  revert\ntag_1:\n  pop\n    /* \"SimpleExchangeImpl_flattened.sol\":22619:25046  contract ImplementSimpleExchange is ISimpleExchange {... */\n  dataSize(sub_0)\n  dup1\n  dataOffset(sub_0)\n  0x00\n  codecopy\n  0x00\n  return\nstop\n\nsub_0: assembly {\n        /* \"SimpleExchangeImpl_flattened.sol\":22619:25046  contract ImplementSimpleExchange is ISimpleExchange {... */\n      mstore(0x40, 0x80)\n      jumpi(tag_1, lt(calldatasize, 0x04))\n      shr(0xe0, calldataload(0x00))\n      dup1\n      0x8a72ea6a\n      gt\n      tag_9\n      jumpi\n      dup1\n      0x8a72ea6a\n      eq\n      tag_5\n      jumpi\n      dup1\n      0xc815729d\n      eq\n      tag_6\n      jumpi\n      dup1\n      0xe324869b\n      eq\n      tag_7\n      jumpi\n      dup1\n      0xef706adf\n      eq\n      tag_8\n      jumpi\n      jump(tag_1)\n    tag_9:\n      dup1\n      0x19b8f993\n      eq\n      tag_2\n      jumpi\n      dup1\n      0x1f6bb8e0\n      eq\n      tag_3\n      jumpi\n      dup1\n      0x73c2dc12\n      eq\n      tag_4\n      jumpi\n    tag_1:\n      0x00\n      dup1\n      revert\n        /* \"SimpleExchangeImpl_flattened.sol\":22841:23407  function putOffer(uint amountToSell, IERC20 tokenToSell, uint amountToBuy, IERC20 tokenToBuy) external override {... */\n    tag_2:\n      callvalue\n      dup1\n      iszero\n      tag_10\n      jumpi\n      0x00\n      dup1\n      revert\n    tag_10:\n      pop\n      tag_11\n      0x04\n      dup1\n      calldatasize\n      sub\n      dup2\n      add\n      swap1\n      tag_12\n      swap2\n      swap1\n      tag_13\n      jump\t// in\n    tag_12:\n      tag_14\n      jump\t// in\n    tag_11:\n      stop\n        /* \"SimpleExchangeImpl_flattened.sol\":24569:24744  function balanceOffTokenToBuy(uint index) view public returns (uint) {... */\n    tag_3:\n      callvalue\n      dup1\n      iszero\n      tag_15\n      jumpi\n      0x00\n      dup1\n      revert\n    tag_15:\n      pop\n      tag_16\n      0x04\n      dup1\n      calldatasize\n      sub\n      dup2\n      add\n      swap1\n      tag_17\n      swap2\n      swap1\n      tag_18\n      jump\t// in\n    tag_17:\n      tag_19\n      jump\t// in\n    tag_16:\n      mload(0x40)\n      tag_20\n      swap2\n      swap1\n      tag_21\n      jump\t// in\n    tag_20:\n      mload(0x40)\n      dup1\n      swap2\n      sub\n      swap1\n      return\n        /* \"SimpleExchangeImpl_flattened.sol\":22733:22835  function getOffersLength() view external override returns (uint) {... */\n    tag_4:\n      callvalue\n      dup1\n      iszero\n      tag_22\n      jumpi\n      0x00\n      dup1\n      revert\n    tag_22:\n      pop\n      tag_23\n      tag_24\n      jump\t// in\n    tag_23:\n      mload(0x40)\n      tag_25\n      swap2\n      swap1\n      tag_21\n      jump\t// in\n    tag_25:\n      mload(0x40)\n      dup1\n      swap2\n      sub\n      swap1\n      return\n        /* \"SimpleExchangeImpl_flattened.sol\":22678:22699  Offer[] public offers */\n    tag_5:\n      callvalue\n      dup1\n      iszero\n      tag_26\n      jumpi\n      0x00\n      dup1\n      revert\n    tag_26:\n      pop\n      tag_27\n      0x04\n      dup1\n      calldatasize\n      sub\n      dup2\n      add\n      swap1\n      tag_28\n      swap2\n      swap1\n      tag_18\n      jump\t// in\n    tag_28:\n      tag_29\n      jump\t// in\n    tag_27:\n      mload(0x40)\n      tag_30\n      swap7\n      swap6\n      swap5\n      swap4\n      swap3\n      swap2\n      swap1\n      tag_31\n      jump\t// in\n    tag_30:\n      mload(0x40)\n      dup1\n      swap2\n      sub\n      swap1\n      return\n        /* \"SimpleExchangeImpl_flattened.sol\":23413:24126  function acceptOffer(uint index) payable external override {... */\n    tag_6:\n      tag_32\n      0x04\n      dup1\n      calldatasize\n      sub\n      dup2\n      add\n      swap1\n      tag_33\n      swap2\n      swap1\n      tag_18\n      jump\t// in\n    tag_33:\n      tag_34\n      jump\t// in\n    tag_32:\n      stop\n        /* \"SimpleExchangeImpl_flattened.sol\":24386:24563  function balanceOffTokenToSell(uint index) view public returns (uint) {... */\n    tag_7:\n      callvalue\n      dup1\n      iszero\n      tag_35\n      jumpi\n      0x00\n      dup1\n      revert\n    tag_35:\n      pop\n      tag_36\n      0x04\n      dup1\n      calldatasize\n      sub\n      dup2\n      add\n      swap1\n      tag_37\n      swap2\n      swap1\n      tag_18\n      jump\t// in\n    tag_37:\n      tag_38\n      jump\t// in\n    tag_36:\n      mload(0x40)\n      tag_39\n      swap2\n      swap1\n      tag_21\n      jump\t// in\n    tag_39:\n      mload(0x40)\n      dup1\n      swap2\n      sub\n      swap1\n      return\n        /* \"SimpleExchangeImpl_flattened.sol\":24132:24380  function cancelOffer(uint index) public override {... */\n    tag_8:\n      callvalue\n      dup1\n      iszero\n      tag_40\n      jumpi\n      0x00\n      dup1\n      revert\n    tag_40:\n      pop\n      tag_41\n      0x04\n      dup1\n      calldatasize\n      sub\n      dup2\n      add\n      swap1\n      tag_42\n      swap2\n      swap1\n      tag_18\n      jump\t// in\n    tag_42:\n      tag_43\n      jump\t// in\n    tag_41:\n      stop\n        /* \"SimpleExchangeImpl_flattened.sol\":22841:23407  function putOffer(uint amountToSell, IERC20 tokenToSell, uint amountToBuy, IERC20 tokenToBuy) external override {... */\n    tag_14:\n        /* \"SimpleExchangeImpl_flattened.sol\":22986:22987  0 */\n      0x00\n        /* \"SimpleExchangeImpl_flattened.sol\":22971:22983  amountToSell */\n      dup5\n        /* \"SimpleExchangeImpl_flattened.sol\":22971:22987  amountToSell !=0 */\n      sub\n        /* \"SimpleExchangeImpl_flattened.sol\":22963:23017  require(amountToSell !=0, unicode\"Não pode ser zero\") */\n      tag_45\n      jumpi\n      mload(0x40)\n      0x08c379a000000000000000000000000000000000000000000000000000000000\n      dup2\n      mstore\n      0x04\n      add\n      tag_46\n      swap1\n      tag_47\n      jump\t// in\n    tag_46:\n      mload(0x40)\n      dup1\n      swap2\n      sub\n      swap1\n      revert\n    tag_45:\n        /* \"SimpleExchangeImpl_flattened.sol\":23028:23034  offers */\n      0x00\n        /* \"SimpleExchangeImpl_flattened.sol\":23040:23275  Offer({... */\n      mload(0x40)\n      dup1\n      0xc0\n      add\n      0x40\n      mstore\n      dup1\n        /* \"SimpleExchangeImpl_flattened.sol\":23074:23086  amountToSell */\n      dup7\n        /* \"SimpleExchangeImpl_flattened.sol\":23040:23275  Offer({... */\n      dup2\n      mstore\n      0x20\n      add\n        /* \"SimpleExchangeImpl_flattened.sol\":23114:23125  tokenToSell */\n      dup6\n        /* \"SimpleExchangeImpl_flattened.sol\":23040:23275  Offer({... */\n      0xffffffffffffffffffffffffffffffffffffffff\n      and\n      dup2\n      mstore\n      0x20\n      add\n        /* \"SimpleExchangeImpl_flattened.sol\":23148:23158  msg.sender */\n      caller\n        /* \"SimpleExchangeImpl_flattened.sol\":23040:23275  Offer({... */\n      0xffffffffffffffffffffffffffffffffffffffff\n      and\n      dup2\n      mstore\n      0x20\n      add\n        /* \"SimpleExchangeImpl_flattened.sol\":23185:23196  amountToBuy */\n      dup5\n        /* \"SimpleExchangeImpl_flattened.sol\":23040:23275  Offer({... */\n      dup2\n      mstore\n      0x20\n      add\n        /* \"SimpleExchangeImpl_flattened.sol\":23223:23233  tokenToBuy */\n      dup4\n        /* \"SimpleExchangeImpl_flattened.sol\":23040:23275  Offer({... */\n      0xffffffffffffffffffffffffffffffffffffffff\n      and\n      dup2\n      mstore\n      0x20\n      add\n      mload(0x40)\n      dup1\n      0x40\n      add\n      0x40\n      mstore\n      dup1\n      0x07\n      dup2\n      mstore\n      0x20\n      add\n      0x50454e44494e4700000000000000000000000000000000000000000000000000\n      dup2\n      mstore\n      pop\n      dup2\n      mstore\n      pop\n        /* \"SimpleExchangeImpl_flattened.sol\":23028:23276  offers.push(Offer({... */\n      swap1\n      dup1\n      0x01\n      dup2\n      sload\n      add\n      dup1\n      dup3\n      sstore\n      dup1\n      swap2\n      pop\n      pop\n      0x01\n      swap1\n      sub\n      swap1\n      0x00\n      mstore\n      keccak256(0x00, 0x20)\n      swap1\n      0x06\n      mul\n      add\n      0x00\n      swap1\n      swap2\n      swap1\n      swap2\n      swap1\n      swap2\n      pop\n      0x00\n      dup3\n      add\n      mload\n      dup2\n      0x00\n      add\n      sstore\n      0x20\n      dup3\n      add\n      mload\n      dup2\n      0x01\n      add\n      exp(0x0100, 0x00)\n      dup2\n      sload\n      dup2\n      0xffffffffffffffffffffffffffffffffffffffff\n      mul\n      not\n      and\n      swap1\n      dup4\n      0xffffffffffffffffffffffffffffffffffffffff\n      and\n      mul\n      or\n      swap1\n      sstore\n      pop\n      0x40\n      dup3\n      add\n      mload\n      dup2\n      0x02\n      add\n      exp(0x0100, 0x00)\n      dup2\n      sload\n      dup2\n      0xffffffffffffffffffffffffffffffffffffffff\n      mul\n      not\n      and\n      swap1\n      dup4\n      0xffffffffffffffffffffffffffffffffffffffff\n      and\n      mul\n      or\n      swap1\n      sstore\n      pop\n      0x60\n      dup3\n      add\n      mload\n      dup2\n      0x03\n      add\n      sstore\n      0x80\n      dup3\n      add\n      mload\n      dup2\n      0x04\n      add\n      exp(0x0100, 0x00)\n      dup2\n      sload\n      dup2\n      0xffffffffffffffffffffffffffffffffffffffff\n      mul\n      not\n      and\n      swap1\n      dup4\n      0xffffffffffffffffffffffffffffffffffffffff\n      and\n      mul\n      or\n      swap1\n      sstore\n      pop\n      0xa0\n      dup3\n      add\n      mload\n      dup2\n      0x05\n      add\n      swap1\n      dup2\n      tag_49\n      swap2\n      swap1\n      tag_50\n      jump\t// in\n    tag_49:\n      pop\n      pop\n      pop\n        /* \"SimpleExchangeImpl_flattened.sol\":23335:23346  tokenToSell */\n      dup3\n        /* \"SimpleExchangeImpl_flattened.sol\":23335:23359  tokenToSell.transferFrom */\n      0xffffffffffffffffffffffffffffffffffffffff\n      and\n      0x23b872dd\n        /* \"SimpleExchangeImpl_flattened.sol\":23360:23370  msg.sender */\n      caller\n        /* \"SimpleExchangeImpl_flattened.sol\":23380:23384  this */\n      address\n        /* \"SimpleExchangeImpl_flattened.sol\":23387:23399  amountToSell */\n      dup8\n        /* \"SimpleExchangeImpl_flattened.sol\":23335:23400  tokenToSell.transferFrom(msg.sender, address(this), amountToSell) */\n      mload(0x40)\n      dup5\n      0xffffffff\n      and\n      0xe0\n      shl\n      dup2\n      mstore\n      0x04\n      add\n      tag_51\n      swap4\n      swap3\n      swap2\n      swap1\n      tag_52\n      jump\t// in\n    tag_51:\n      0x20\n      mload(0x40)\n      dup1\n      dup4\n      sub\n      dup2\n      0x00\n      dup8\n      gas\n      call\n      iszero\n      dup1\n      iszero\n      tag_54\n      jumpi\n      returndatasize\n      0x00\n      dup1\n      returndatacopy\n      revert(0x00, returndatasize)\n    tag_54:\n      pop\n      pop\n      pop\n      pop\n      mload(0x40)\n      returndatasize\n      not(0x1f)\n      0x1f\n      dup3\n      add\n      and\n      dup3\n      add\n      dup1\n      0x40\n      mstore\n      pop\n      dup2\n      add\n      swap1\n      tag_55\n      swap2\n      swap1\n      tag_56\n      jump\t// in\n    tag_55:\n      pop\n        /* \"SimpleExchangeImpl_flattened.sol\":22841:23407  function putOffer(uint amountToSell, IERC20 tokenToSell, uint amountToBuy, IERC20 tokenToBuy) external override {... */\n      pop\n      pop\n      pop\n      pop\n      jump\t// out\n        /* \"SimpleExchangeImpl_flattened.sol\":24569:24744  function balanceOffTokenToBuy(uint index) view public returns (uint) {... */\n    tag_19:\n        /* \"SimpleExchangeImpl_flattened.sol\":24632:24636  uint */\n      0x00\n        /* \"SimpleExchangeImpl_flattened.sol\":24648:24666  Offer memory offer */\n      dup1\n        /* \"SimpleExchangeImpl_flattened.sol\":24669:24675  offers */\n      0x00\n        /* \"SimpleExchangeImpl_flattened.sol\":24676:24681  index */\n      dup4\n        /* \"SimpleExchangeImpl_flattened.sol\":24669:24682  offers[index] */\n      dup2\n      sload\n      dup2\n      lt\n      tag_58\n      jumpi\n      tag_59\n      tag_60\n      jump\t// in\n    tag_59:\n    tag_58:\n      swap1\n      0x00\n      mstore\n      keccak256(0x00, 0x20)\n      swap1\n      0x06\n      mul\n      add\n        /* \"SimpleExchangeImpl_flattened.sol\":24648:24682  Offer memory offer = offers[index] */\n      mload(0x40)\n      dup1\n      0xc0\n      add\n      0x40\n      mstore\n      swap1\n      dup2\n      0x00\n      dup3\n      add\n      sload\n      dup2\n      mstore\n      0x20\n      add\n      0x01\n      dup3\n      add\n      0x00\n      swap1\n      sload\n      swap1\n      0x0100\n      exp\n      swap1\n      div\n      0xffffffffffffffffffffffffffffffffffffffff\n      and\n      0xffffffffffffffffffffffffffffffffffffffff\n      and\n      0xffffffffffffffffffffffffffffffffffffffff\n      and\n      dup2\n      mstore\n      0x20\n      add\n      0x02\n      dup3\n      add\n      0x00\n      swap1\n      sload\n      swap1\n      0x0100\n      exp\n      swap1\n      div\n      0xffffffffffffffffffffffffffffffffffffffff\n      and\n      0xffffffffffffffffffffffffffffffffffffffff\n      and\n      0xffffffffffffffffffffffffffffffffffffffff\n      and\n      dup2\n      mstore\n      0x20\n      add\n      0x03\n      dup3\n      add\n      sload\n      dup2\n      mstore\n      0x20\n      add\n      0x04\n      dup3\n      add\n      0x00\n      swap1\n      sload\n      swap1\n      0x0100\n      exp\n      swap1\n      div\n      0xffffffffffffffffffffffffffffffffffffffff\n      and\n      0xffffffffffffffffffffffffffffffffffffffff\n      and\n      0xffffffffffffffffffffffffffffffffffffffff\n      and\n      dup2\n      mstore\n      0x20\n      add\n      0x05\n      dup3\n      add\n      dup1\n      sload\n      tag_62\n      swap1\n      tag_63\n      jump\t// in\n    tag_62:\n      dup1\n      0x1f\n      add\n      0x20\n      dup1\n      swap2\n      div\n      mul\n      0x20\n      add\n      mload(0x40)\n      swap1\n      dup2\n      add\n      0x40\n      mstore\n      dup1\n      swap3\n      swap2\n      swap1\n      dup2\n      dup2\n      mstore\n      0x20\n      add\n      dup3\n      dup1\n      sload\n      tag_64\n      swap1\n      tag_63\n      jump\t// in\n    tag_64:\n      dup1\n      iszero\n      tag_65\n      jumpi\n      dup1\n      0x1f\n      lt\n      tag_66\n      jumpi\n      0x0100\n      dup1\n      dup4\n      sload\n      div\n      mul\n      dup4\n      mstore\n      swap2\n      0x20\n      add\n      swap2\n      jump(tag_65)\n    tag_66:\n      dup3\n      add\n      swap2\n      swap1\n      0x00\n      mstore\n      keccak256(0x00, 0x20)\n      swap1\n    tag_67:\n      dup2\n      sload\n      dup2\n      mstore\n      swap1\n      0x01\n      add\n      swap1\n      0x20\n      add\n      dup1\n      dup4\n      gt\n      tag_67\n      jumpi\n      dup3\n      swap1\n      sub\n      0x1f\n      and\n      dup3\n      add\n      swap2\n    tag_65:\n      pop\n      pop\n      pop\n      pop\n      pop\n      dup2\n      mstore\n      pop\n      pop\n      swap1\n      pop\n        /* \"SimpleExchangeImpl_flattened.sol\":24699:24704  offer */\n      dup1\n        /* \"SimpleExchangeImpl_flattened.sol\":24699:24715  offer.tokenToBuy */\n      0x80\n      add\n      mload\n        /* \"SimpleExchangeImpl_flattened.sol\":24699:24725  offer.tokenToBuy.balanceOf */\n      0xffffffffffffffffffffffffffffffffffffffff\n      and\n      0x70a08231\n        /* \"SimpleExchangeImpl_flattened.sol\":24726:24736  msg.sender */\n      caller\n        /* \"SimpleExchangeImpl_flattened.sol\":24699:24737  offer.tokenToBuy.balanceOf(msg.sender) */\n      mload(0x40)\n      dup3\n      0xffffffff\n      and\n      0xe0\n      shl\n      dup2\n      mstore\n      0x04\n      add\n      tag_68\n      swap2\n      swap1\n      tag_69\n      jump\t// in\n    tag_68:\n      0x20\n      mload(0x40)\n      dup1\n      dup4\n      sub\n      dup2\n      dup7\n      gas\n      staticcall\n      iszero\n      dup1\n      iszero\n      tag_71\n      jumpi\n      returndatasize\n      0x00\n      dup1\n      returndatacopy\n      revert(0x00, returndatasize)\n    tag_71:\n      pop\n      pop\n      pop\n      pop\n      mload(0x40)\n      returndatasize\n      not(0x1f)\n      0x1f\n      dup3\n      add\n      and\n      dup3\n      add\n      dup1\n      0x40\n      mstore\n      pop\n      dup2\n      add\n      swap1\n      tag_72\n      swap2\n      swap1\n      tag_73\n      jump\t// in\n    tag_72:\n        /* \"SimpleExchangeImpl_flattened.sol\":24692:24737  return offer.tokenToBuy.balanceOf(msg.sender) */\n      swap2\n      pop\n      pop\n        /* \"SimpleExchangeImpl_flattened.sol\":24569:24744  function balanceOffTokenToBuy(uint index) view public returns (uint) {... */\n      swap2\n      swap1\n      pop\n      jump\t// out\n        /* \"SimpleExchangeImpl_flattened.sol\":22733:22835  function getOffersLength() view external override returns (uint) {... */\n    tag_24:\n        /* \"SimpleExchangeImpl_flattened.sol\":22792:22796  uint */\n      0x00\n        /* \"SimpleExchangeImpl_flattened.sol\":22815:22821  offers */\n      dup1\n        /* \"SimpleExchangeImpl_flattened.sol\":22815:22828  offers.length */\n      dup1\n      sload\n      swap1\n      pop\n        /* \"SimpleExchangeImpl_flattened.sol\":22808:22828  return offers.length */\n      swap1\n      pop\n        /* \"SimpleExchangeImpl_flattened.sol\":22733:22835  function getOffersLength() view external override returns (uint) {... */\n      swap1\n      jump\t// out\n        /* \"SimpleExchangeImpl_flattened.sol\":22678:22699  Offer[] public offers */\n    tag_29:\n      0x00\n      dup2\n      dup2\n      sload\n      dup2\n      lt\n      tag_75\n      jumpi\n      0x00\n      dup1\n      revert\n    tag_75:\n      swap1\n      0x00\n      mstore\n      keccak256(0x00, 0x20)\n      swap1\n      0x06\n      mul\n      add\n      0x00\n      swap2\n      pop\n      swap1\n      pop\n      dup1\n      0x00\n      add\n      sload\n      swap1\n      dup1\n      0x01\n      add\n      0x00\n      swap1\n      sload\n      swap1\n      0x0100\n      exp\n      swap1\n      div\n      0xffffffffffffffffffffffffffffffffffffffff\n      and\n      swap1\n      dup1\n      0x02\n      add\n      0x00\n      swap1\n      sload\n      swap1\n      0x0100\n      exp\n      swap1\n      div\n      0xffffffffffffffffffffffffffffffffffffffff\n      and\n      swap1\n      dup1\n      0x03\n      add\n      sload\n      swap1\n      dup1\n      0x04\n      add\n      0x00\n      swap1\n      sload\n      swap1\n      0x0100\n      exp\n      swap1\n      div\n      0xffffffffffffffffffffffffffffffffffffffff\n      and\n      swap1\n      dup1\n      0x05\n      add\n      dup1\n      sload\n      tag_77\n      swap1\n      tag_63\n      jump\t// in\n    tag_77:\n      dup1\n      0x1f\n      add\n      0x20\n      dup1\n      swap2\n      div\n      mul\n      0x20\n      add\n      mload(0x40)\n      swap1\n      dup2\n      add\n      0x40\n      mstore\n      dup1\n      swap3\n      swap2\n      swap1\n      dup2\n      dup2\n      mstore\n      0x20\n      add\n      dup3\n      dup1\n      sload\n      tag_78\n      swap1\n      tag_63\n      jump\t// in\n    tag_78:\n      dup1\n      iszero\n      tag_79\n      jumpi\n      dup1\n      0x1f\n      lt\n      tag_80\n      jumpi\n      0x0100\n      dup1\n      dup4\n      sload\n      div\n      mul\n      dup4\n      mstore\n      swap2\n      0x20\n      add\n      swap2\n      jump(tag_79)\n    tag_80:\n      dup3\n      add\n      swap2\n      swap1\n      0x00\n      mstore\n      keccak256(0x00, 0x20)\n      swap1\n    tag_81:\n      dup2\n      sload\n      dup2\n      mstore\n      swap1\n      0x01\n      add\n      swap1\n      0x20\n      add\n      dup1\n      dup4\n      gt\n      tag_81\n      jumpi\n      dup3\n      swap1\n      sub\n      0x1f\n      and\n      dup3\n      add\n      swap2\n    tag_79:\n      pop\n      pop\n      pop\n      pop\n      pop\n      swap1\n      pop\n      dup7\n      jump\t// out\n        /* \"SimpleExchangeImpl_flattened.sol\":23413:24126  function acceptOffer(uint index) payable external override {... */\n    tag_34:\n        /* \"SimpleExchangeImpl_flattened.sol\":23482:23500  Offer memory offer */\n      0x00\n        /* \"SimpleExchangeImpl_flattened.sol\":23503:23509  offers */\n      dup1\n        /* \"SimpleExchangeImpl_flattened.sol\":23510:23515  index */\n      dup3\n        /* \"SimpleExchangeImpl_flattened.sol\":23503:23516  offers[index] */\n      dup2\n      sload\n      dup2\n      lt\n      tag_83\n      jumpi\n      tag_84\n      tag_60\n      jump\t// in\n    tag_84:\n    tag_83:\n      swap1\n      0x00\n      mstore\n      keccak256(0x00, 0x20)\n      swap1\n      0x06\n      mul\n      add\n        /* \"SimpleExchangeImpl_flattened.sol\":23482:23516  Offer memory offer = offers[index] */\n      mload(0x40)\n      dup1\n      0xc0\n      add\n      0x40\n      mstore\n      swap1\n      dup2\n      0x00\n      dup3\n      add\n      sload\n      dup2\n      mstore\n      0x20\n      add\n      0x01\n      dup3\n      add\n      0x00\n      swap1\n      sload\n      swap1\n      0x0100\n      exp\n      swap1\n      div\n      0xffffffffffffffffffffffffffffffffffffffff\n      and\n      0xffffffffffffffffffffffffffffffffffffffff\n      and\n      0xffffffffffffffffffffffffffffffffffffffff\n      and\n      dup2\n      mstore\n      0x20\n      add\n      0x02\n      dup3\n      add\n      0x00\n      swap1\n      sload\n      swap1\n      0x0100\n      exp\n      swap1\n      div\n      0xffffffffffffffffffffffffffffffffffffffff\n      and\n      0xffffffffffffffffffffffffffffffffffffffff\n      and\n      0xffffffffffffffffffffffffffffffffffffffff\n      and\n      dup2\n      mstore\n      0x20\n      add\n      0x03\n      dup3\n      add\n      sload\n      dup2\n      mstore\n      0x20\n      add\n      0x04\n      dup3\n      add\n      0x00\n      swap1\n      sload\n      swap1\n      0x0100\n      exp\n      swap1\n      div\n      0xffffffffffffffffffffffffffffffffffffffff\n      and\n      0xffffffffffffffffffffffffffffffffffffffff\n      and\n      0xffffffffffffffffffffffffffffffffffffffff\n      and\n      dup2\n      mstore\n      0x20\n      add\n      0x05\n      dup3\n      add\n      dup1\n      sload\n      tag_86\n      swap1\n      tag_63\n      jump\t// in\n    tag_86:\n      dup1\n      0x1f\n      add\n      0x20\n      dup1\n      swap2\n      div\n      mul\n      0x20\n      add\n      mload(0x40)\n      swap1\n      dup2\n      add\n      0x40\n      mstore\n      dup1\n      swap3\n      swap2\n      swap1\n      dup2\n      dup2\n      mstore\n      0x20\n      add\n      dup3\n      dup1\n      sload\n      tag_87\n      swap1\n      tag_63\n      jump\t// in\n    tag_87:\n      dup1\n      iszero\n      tag_88\n      jumpi\n      dup1\n      0x1f\n      lt\n      tag_89\n      jumpi\n      0x0100\n      dup1\n      dup4\n      sload\n      div\n      mul\n      dup4\n      mstore\n      swap2\n      0x20\n      add\n      swap2\n      jump(tag_88)\n    tag_89:\n      dup3\n      add\n      swap2\n      swap1\n      0x00\n      mstore\n      keccak256(0x00, 0x20)\n      swap1\n    tag_90:\n      dup2\n      sload\n      dup2\n      mstore\n      swap1\n      0x01\n      add\n      swap1\n      0x20\n      add\n      dup1\n      dup4\n      gt\n      tag_90\n      jumpi\n      dup3\n      swap1\n      sub\n      0x1f\n      and\n      dup3\n      add\n      swap2\n    tag_88:\n      pop\n      pop\n      pop\n      pop\n      pop\n      dup2\n      mstore\n      pop\n      pop\n      swap1\n      pop\n        /* \"SimpleExchangeImpl_flattened.sol\":23534:23566  compare(offer.status, \"PENDING\") */\n      tag_91\n        /* \"SimpleExchangeImpl_flattened.sol\":23542:23547  offer */\n      dup2\n        /* \"SimpleExchangeImpl_flattened.sol\":23542:23554  offer.status */\n      0xa0\n      add\n      mload\n        /* \"SimpleExchangeImpl_flattened.sol\":23534:23566  compare(offer.status, \"PENDING\") */\n      mload(0x40)\n      dup1\n      0x40\n      add\n      0x40\n      mstore\n      dup1\n      0x07\n      dup2\n      mstore\n      0x20\n      add\n      0x50454e44494e4700000000000000000000000000000000000000000000000000\n      dup2\n      mstore\n      pop\n        /* \"SimpleExchangeImpl_flattened.sol\":23534:23541  compare */\n      tag_92\n        /* \"SimpleExchangeImpl_flattened.sol\":23534:23566  compare(offer.status, \"PENDING\") */\n      jump\t// in\n    tag_91:\n        /* \"SimpleExchangeImpl_flattened.sol\":23526:23598  require(compare(offer.status, \"PENDING\"), \"Oferta deve estar pendente.\") */\n      tag_93\n      jumpi\n      mload(0x40)\n      0x08c379a000000000000000000000000000000000000000000000000000000000\n      dup2\n      mstore\n      0x04\n      add\n      tag_94\n      swap1\n      tag_95\n      jump\t// in\n    tag_94:\n      mload(0x40)\n      dup1\n      swap2\n      sub\n      swap1\n      revert\n    tag_93:\n        /* \"SimpleExchangeImpl_flattened.sol\":23617:23642  offer.status = \"ACCEPTED\" */\n      mload(0x40)\n      dup1\n      0x40\n      add\n      0x40\n      mstore\n      dup1\n      0x08\n      dup2\n      mstore\n      0x20\n      add\n      0x4143434550544544000000000000000000000000000000000000000000000000\n      dup2\n      mstore\n      pop\n        /* \"SimpleExchangeImpl_flattened.sol\":23617:23622  offer */\n      dup2\n        /* \"SimpleExchangeImpl_flattened.sol\":23617:23629  offer.status */\n      0xa0\n      add\n        /* \"SimpleExchangeImpl_flattened.sol\":23617:23642  offer.status = \"ACCEPTED\" */\n      dup2\n      swap1\n      mstore\n      pop\n        /* \"SimpleExchangeImpl_flattened.sol\":23661:23677  IERC20 TokenSell */\n      0x00\n        /* \"SimpleExchangeImpl_flattened.sol\":23680:23685  offer */\n      dup2\n        /* \"SimpleExchangeImpl_flattened.sol\":23680:23697  offer.tokenToSell */\n      0x20\n      add\n      mload\n        /* \"SimpleExchangeImpl_flattened.sol\":23661:23697  IERC20 TokenSell = offer.tokenToSell */\n      swap1\n      pop\n        /* \"SimpleExchangeImpl_flattened.sol\":23707:23722  IERC20 TokenBuy */\n      0x00\n        /* \"SimpleExchangeImpl_flattened.sol\":23725:23730  offer */\n      dup3\n        /* \"SimpleExchangeImpl_flattened.sol\":23725:23741  offer.tokenToBuy */\n      0x80\n      add\n      mload\n        /* \"SimpleExchangeImpl_flattened.sol\":23707:23741  IERC20 TokenBuy = offer.tokenToBuy */\n      swap1\n      pop\n        /* \"SimpleExchangeImpl_flattened.sol\":23801:23809  TokenBuy */\n      dup1\n        /* \"SimpleExchangeImpl_flattened.sol\":23801:23822  TokenBuy.transferFrom */\n      0xffffffffffffffffffffffffffffffffffffffff\n      and\n      0x23b872dd\n        /* \"SimpleExchangeImpl_flattened.sol\":23823:23833  msg.sender */\n      caller\n        /* \"SimpleExchangeImpl_flattened.sol\":23843:23847  this */\n      address\n        /* \"SimpleExchangeImpl_flattened.sol\":23850:23855  offer */\n      dup7\n        /* \"SimpleExchangeImpl_flattened.sol\":23850:23867  offer.amountToBuy */\n      0x60\n      add\n      mload\n        /* \"SimpleExchangeImpl_flattened.sol\":23801:23868  TokenBuy.transferFrom(msg.sender, address(this), offer.amountToBuy) */\n      mload(0x40)\n      dup5\n      0xffffffff\n      and\n      0xe0\n      shl\n      dup2\n      mstore\n      0x04\n      add\n      tag_96\n      swap4\n      swap3\n      swap2\n      swap1\n      tag_52\n      jump\t// in\n    tag_96:\n      0x20\n      mload(0x40)\n      dup1\n      dup4\n      sub\n      dup2\n      0x00\n      dup8\n      gas\n      call\n      iszero\n      dup1\n      iszero\n      tag_98\n      jumpi\n      returndatasize\n      0x00\n      dup1\n      returndatacopy\n      revert(0x00, returndatasize)\n    tag_98:\n      pop\n      pop\n      pop\n      pop\n      mload(0x40)\n      returndatasize\n      not(0x1f)\n      0x1f\n      dup3\n      add\n      and\n      dup3\n      add\n      dup1\n      0x40\n      mstore\n      pop\n      dup2\n      add\n      swap1\n      tag_99\n      swap2\n      swap1\n      tag_56\n      jump\t// in\n    tag_99:\n      pop\n        /* \"SimpleExchangeImpl_flattened.sol\":23928:23937  TokenSell */\n      dup2\n        /* \"SimpleExchangeImpl_flattened.sol\":23928:23946  TokenSell.transfer */\n      0xffffffffffffffffffffffffffffffffffffffff\n      and\n      0xa9059cbb\n        /* \"SimpleExchangeImpl_flattened.sol\":23947:23957  msg.sender */\n      caller\n        /* \"SimpleExchangeImpl_flattened.sol\":23959:23964  offer */\n      dup6\n        /* \"SimpleExchangeImpl_flattened.sol\":23959:23977  offer.amountToSell */\n      0x00\n      add\n      mload\n        /* \"SimpleExchangeImpl_flattened.sol\":23928:23978  TokenSell.transfer(msg.sender, offer.amountToSell) */\n      mload(0x40)\n      dup4\n      0xffffffff\n      and\n      0xe0\n      shl\n      dup2\n      mstore\n      0x04\n      add\n      tag_100\n      swap3\n      swap2\n      swap1\n      tag_101\n      jump\t// in\n    tag_100:\n      0x20\n      mload(0x40)\n      dup1\n      dup4\n      sub\n      dup2\n      0x00\n      dup8\n      gas\n      call\n      iszero\n      dup1\n      iszero\n      tag_103\n      jumpi\n      returndatasize\n      0x00\n      dup1\n      returndatacopy\n      revert(0x00, returndatasize)\n    tag_103:\n      pop\n      pop\n      pop\n      pop\n      mload(0x40)\n      returndatasize\n      not(0x1f)\n      0x1f\n      dup3\n      add\n      and\n      dup3\n      add\n      dup1\n      0x40\n      mstore\n      pop\n      dup2\n      add\n      swap1\n      tag_104\n      swap2\n      swap1\n      tag_56\n      jump\t// in\n    tag_104:\n      pop\n        /* \"SimpleExchangeImpl_flattened.sol\":24037:24045  TokenBuy */\n      dup1\n        /* \"SimpleExchangeImpl_flattened.sol\":24037:24054  TokenBuy.transfer */\n      0xffffffffffffffffffffffffffffffffffffffff\n      and\n      0xa9059cbb\n        /* \"SimpleExchangeImpl_flattened.sol\":24055:24060  offer */\n      dup5\n        /* \"SimpleExchangeImpl_flattened.sol\":24055:24067  offer.seller */\n      0x40\n      add\n      mload\n        /* \"SimpleExchangeImpl_flattened.sol\":24069:24074  offer */\n      dup6\n        /* \"SimpleExchangeImpl_flattened.sol\":24069:24086  offer.amountToBuy */\n      0x60\n      add\n      mload\n        /* \"SimpleExchangeImpl_flattened.sol\":24037:24087  TokenBuy.transfer(offer.seller, offer.amountToBuy) */\n      mload(0x40)\n      dup4\n      0xffffffff\n      and\n      0xe0\n      shl\n      dup2\n      mstore\n      0x04\n      add\n      tag_105\n      swap3\n      swap2\n      swap1\n      tag_101\n      jump\t// in\n    tag_105:\n      0x20\n      mload(0x40)\n      dup1\n      dup4\n      sub\n      dup2\n      0x00\n      dup8\n      gas\n      call\n      iszero\n      dup1\n      iszero\n      tag_107\n      jumpi\n      returndatasize\n      0x00\n      dup1\n      returndatacopy\n      revert(0x00, returndatasize)\n    tag_107:\n      pop\n      pop\n      pop\n      pop\n      mload(0x40)\n      returndatasize\n      not(0x1f)\n      0x1f\n      dup3\n      add\n      and\n      dup3\n      add\n      dup1\n      0x40\n      mstore\n      pop\n      dup2\n      add\n      swap1\n      tag_108\n      swap2\n      swap1\n      tag_56\n      jump\t// in\n    tag_108:\n      pop\n        /* \"SimpleExchangeImpl_flattened.sol\":24114:24119  offer */\n      dup3\n        /* \"SimpleExchangeImpl_flattened.sol\":24098:24104  offers */\n      0x00\n        /* \"SimpleExchangeImpl_flattened.sol\":24105:24110  index */\n      dup6\n        /* \"SimpleExchangeImpl_flattened.sol\":24098:24111  offers[index] */\n      dup2\n      sload\n      dup2\n      lt\n      tag_109\n      jumpi\n      tag_110\n      tag_60\n      jump\t// in\n    tag_110:\n    tag_109:\n      swap1\n      0x00\n      mstore\n      keccak256(0x00, 0x20)\n      swap1\n      0x06\n      mul\n      add\n        /* \"SimpleExchangeImpl_flattened.sol\":24098:24119  offers[index] = offer */\n      0x00\n      dup3\n      add\n      mload\n      dup2\n      0x00\n      add\n      sstore\n      0x20\n      dup3\n      add\n      mload\n      dup2\n      0x01\n      add\n      exp(0x0100, 0x00)\n      dup2\n      sload\n      dup2\n      0xffffffffffffffffffffffffffffffffffffffff\n      mul\n      not\n      and\n      swap1\n      dup4\n      0xffffffffffffffffffffffffffffffffffffffff\n      and\n      mul\n      or\n      swap1\n      sstore\n      pop\n      0x40\n      dup3\n      add\n      mload\n      dup2\n      0x02\n      add\n      exp(0x0100, 0x00)\n      dup2\n      sload\n      dup2\n      0xffffffffffffffffffffffffffffffffffffffff\n      mul\n      not\n      and\n      swap1\n      dup4\n      0xffffffffffffffffffffffffffffffffffffffff\n      and\n      mul\n      or\n      swap1\n      sstore\n      pop\n      0x60\n      dup3\n      add\n      mload\n      dup2\n      0x03\n      add\n      sstore\n      0x80\n      dup3\n      add\n      mload\n      dup2\n      0x04\n      add\n      exp(0x0100, 0x00)\n      dup2\n      sload\n      dup2\n      0xffffffffffffffffffffffffffffffffffffffff\n      mul\n      not\n      and\n      swap1\n      dup4\n      0xffffffffffffffffffffffffffffffffffffffff\n      and\n      mul\n      or\n      swap1\n      sstore\n      pop\n      0xa0\n      dup3\n      add\n      mload\n      dup2\n      0x05\n      add\n      swap1\n      dup2\n      tag_112\n      swap2\n      swap1\n      tag_50\n      jump\t// in\n    tag_112:\n      pop\n      swap1\n      pop\n      pop\n        /* \"SimpleExchangeImpl_flattened.sol\":23472:24126  {... */\n      pop\n      pop\n      pop\n        /* \"SimpleExchangeImpl_flattened.sol\":23413:24126  function acceptOffer(uint index) payable external override {... */\n      pop\n      jump\t// out\n        /* \"SimpleExchangeImpl_flattened.sol\":24386:24563  function balanceOffTokenToSell(uint index) view public returns (uint) {... */\n    tag_38:\n        /* \"SimpleExchangeImpl_flattened.sol\":24450:24454  uint */\n      0x00\n        /* \"SimpleExchangeImpl_flattened.sol\":24466:24484  Offer memory offer */\n      dup1\n        /* \"SimpleExchangeImpl_flattened.sol\":24487:24493  offers */\n      0x00\n        /* \"SimpleExchangeImpl_flattened.sol\":24494:24499  index */\n      dup4\n        /* \"SimpleExchangeImpl_flattened.sol\":24487:24500  offers[index] */\n      dup2\n      sload\n      dup2\n      lt\n      tag_114\n      jumpi\n      tag_115\n      tag_60\n      jump\t// in\n    tag_115:\n    tag_114:\n      swap1\n      0x00\n      mstore\n      keccak256(0x00, 0x20)\n      swap1\n      0x06\n      mul\n      add\n        /* \"SimpleExchangeImpl_flattened.sol\":24466:24500  Offer memory offer = offers[index] */\n      mload(0x40)\n      dup1\n      0xc0\n      add\n      0x40\n      mstore\n      swap1\n      dup2\n      0x00\n      dup3\n      add\n      sload\n      dup2\n      mstore\n      0x20\n      add\n      0x01\n      dup3\n      add\n      0x00\n      swap1\n      sload\n      swap1\n      0x0100\n      exp\n      swap1\n      div\n      0xffffffffffffffffffffffffffffffffffffffff\n      and\n      0xffffffffffffffffffffffffffffffffffffffff\n      and\n      0xffffffffffffffffffffffffffffffffffffffff\n      and\n      dup2\n      mstore\n      0x20\n      add\n      0x02\n      dup3\n      add\n      0x00\n      swap1\n      sload\n      swap1\n      0x0100\n      exp\n      swap1\n      div\n      0xffffffffffffffffffffffffffffffffffffffff\n      and\n      0xffffffffffffffffffffffffffffffffffffffff\n      and\n      0xffffffffffffffffffffffffffffffffffffffff\n      and\n      dup2\n      mstore\n      0x20\n      add\n      0x03\n      dup3\n      add\n      sload\n      dup2\n      mstore\n      0x20\n      add\n      0x04\n      dup3\n      add\n      0x00\n      swap1\n      sload\n      swap1\n      0x0100\n      exp\n      swap1\n      div\n      0xffffffffffffffffffffffffffffffffffffffff\n      and\n      0xffffffffffffffffffffffffffffffffffffffff\n      and\n      0xffffffffffffffffffffffffffffffffffffffff\n      and\n      dup2\n      mstore\n      0x20\n      add\n      0x05\n      dup3\n      add\n      dup1\n      sload\n      tag_117\n      swap1\n      tag_63\n      jump\t// in\n    tag_117:\n      dup1\n      0x1f\n      add\n      0x20\n      dup1\n      swap2\n      div\n      mul\n      0x20\n      add\n      mload(0x40)\n      swap1\n      dup2\n      add\n      0x40\n      mstore\n      dup1\n      swap3\n      swap2\n      swap1\n      dup2\n      dup2\n      mstore\n      0x20\n      add\n      dup3\n      dup1\n      sload\n      tag_118\n      swap1\n      tag_63\n      jump\t// in\n    tag_118:\n      dup1\n      iszero\n      tag_119\n      jumpi\n      dup1\n      0x1f\n      lt\n      tag_120\n      jumpi\n      0x0100\n      dup1\n      dup4\n      sload\n      div\n      mul\n      dup4\n      mstore\n      swap2\n      0x20\n      add\n      swap2\n      jump(tag_119)\n    tag_120:\n      dup3\n      add\n      swap2\n      swap1\n      0x00\n      mstore\n      keccak256(0x00, 0x20)\n      swap1\n    tag_121:\n      dup2\n      sload\n      dup2\n      mstore\n      swap1\n      0x01\n      add\n      swap1\n      0x20\n      add\n      dup1\n      dup4\n      gt\n      tag_121\n      jumpi\n      dup3\n      swap1\n      sub\n      0x1f\n      and\n      dup3\n      add\n      swap2\n    tag_119:\n      pop\n      pop\n      pop\n      pop\n      pop\n      dup2\n      mstore\n      pop\n      pop\n      swap1\n      pop\n        /* \"SimpleExchangeImpl_flattened.sol\":24517:24522  offer */\n      dup1\n        /* \"SimpleExchangeImpl_flattened.sol\":24517:24534  offer.tokenToSell */\n      0x20\n      add\n      mload\n        /* \"SimpleExchangeImpl_flattened.sol\":24517:24544  offer.tokenToSell.balanceOf */\n      0xffffffffffffffffffffffffffffffffffffffff\n      and\n      0x70a08231\n        /* \"SimpleExchangeImpl_flattened.sol\":24545:24555  msg.sender */\n      caller\n        /* \"SimpleExchangeImpl_flattened.sol\":24517:24556  offer.tokenToSell.balanceOf(msg.sender) */\n      mload(0x40)\n      dup3\n      0xffffffff\n      and\n      0xe0\n      shl\n      dup2\n      mstore\n      0x04\n      add\n      tag_122\n      swap2\n      swap1\n      tag_69\n      jump\t// in\n    tag_122:\n      0x20\n      mload(0x40)\n      dup1\n      dup4\n      sub\n      dup2\n      dup7\n      gas\n      staticcall\n      iszero\n      dup1\n      iszero\n      tag_124\n      jumpi\n      returndatasize\n      0x00\n      dup1\n      returndatacopy\n      revert(0x00, returndatasize)\n    tag_124:\n      pop\n      pop\n      pop\n      pop\n      mload(0x40)\n      returndatasize\n      not(0x1f)\n      0x1f\n      dup3\n      add\n      and\n      dup3\n      add\n      dup1\n      0x40\n      mstore\n      pop\n      dup2\n      add\n      swap1\n      tag_125\n      swap2\n      swap1\n      tag_73\n      jump\t// in\n    tag_125:\n        /* \"SimpleExchangeImpl_flattened.sol\":24510:24556  return offer.tokenToSell.balanceOf(msg.sender) */\n      swap2\n      pop\n      pop\n        /* \"SimpleExchangeImpl_flattened.sol\":24386:24563  function balanceOffTokenToSell(uint index) view public returns (uint) {... */\n      swap2\n      swap1\n      pop\n      jump\t// out\n        /* \"SimpleExchangeImpl_flattened.sol\":24132:24380  function cancelOffer(uint index) public override {... */\n    tag_43:\n        /* \"SimpleExchangeImpl_flattened.sol\":24191:24209  Offer memory offer */\n      0x00\n        /* \"SimpleExchangeImpl_flattened.sol\":24212:24218  offers */\n      dup1\n        /* \"SimpleExchangeImpl_flattened.sol\":24219:24224  index */\n      dup3\n        /* \"SimpleExchangeImpl_flattened.sol\":24212:24225  offers[index] */\n      dup2\n      sload\n      dup2\n      lt\n      tag_127\n      jumpi\n      tag_128\n      tag_60\n      jump\t// in\n    tag_128:\n    tag_127:\n      swap1\n      0x00\n      mstore\n      keccak256(0x00, 0x20)\n      swap1\n      0x06\n      mul\n      add\n        /* \"SimpleExchangeImpl_flattened.sol\":24191:24225  Offer memory offer = offers[index] */\n      mload(0x40)\n      dup1\n      0xc0\n      add\n      0x40\n      mstore\n      swap1\n      dup2\n      0x00\n      dup3\n      add\n      sload\n      dup2\n      mstore\n      0x20\n      add\n      0x01\n      dup3\n      add\n      0x00\n      swap1\n      sload\n      swap1\n      0x0100\n      exp\n      swap1\n      div\n      0xffffffffffffffffffffffffffffffffffffffff\n      and\n      0xffffffffffffffffffffffffffffffffffffffff\n      and\n      0xffffffffffffffffffffffffffffffffffffffff\n      and\n      dup2\n      mstore\n      0x20\n      add\n      0x02\n      dup3\n      add\n      0x00\n      swap1\n      sload\n      swap1\n      0x0100\n      exp\n      swap1\n      div\n      0xffffffffffffffffffffffffffffffffffffffff\n      and\n      0xffffffffffffffffffffffffffffffffffffffff\n      and\n      0xffffffffffffffffffffffffffffffffffffffff\n      and\n      dup2\n      mstore\n      0x20\n      add\n      0x03\n      dup3\n      add\n      sload\n      dup2\n      mstore\n      0x20\n      add\n      0x04\n      dup3\n      add\n      0x00\n      swap1\n      sload\n      swap1\n      0x0100\n      exp\n      swap1\n      div\n      0xffffffffffffffffffffffffffffffffffffffff\n      and\n      0xffffffffffffffffffffffffffffffffffffffff\n      and\n      0xffffffffffffffffffffffffffffffffffffffff\n      and\n      dup2\n      mstore\n      0x20\n      add\n      0x05\n      dup3\n      add\n      dup1\n      sload\n      tag_130\n      swap1\n      tag_63\n      jump\t// in\n    tag_130:\n      dup1\n      0x1f\n      add\n      0x20\n      dup1\n      swap2\n      div\n      mul\n      0x20\n      add\n      mload(0x40)\n      swap1\n      dup2\n      add\n      0x40\n      mstore\n      dup1\n      swap3\n      swap2\n      swap1\n      dup2\n      dup2\n      mstore\n      0x20\n      add\n      dup3\n      dup1\n      sload\n      tag_131\n      swap1\n      tag_63\n      jump\t// in\n    tag_131:\n      dup1\n      iszero\n      tag_132\n      jumpi\n      dup1\n      0x1f\n      lt\n      tag_133\n      jumpi\n      0x0100\n      dup1\n      dup4\n      sload\n      div\n      mul\n      dup4\n      mstore\n      swap2\n      0x20\n      add\n      swap2\n      jump(tag_132)\n    tag_133:\n      dup3\n      add\n      swap2\n      swap1\n      0x00\n      mstore\n      keccak256(0x00, 0x20)\n      swap1\n    tag_134:\n      dup2\n      sload\n      dup2\n      mstore\n      swap1\n      0x01\n      add\n      swap1\n      0x20\n      add\n      dup1\n      dup4\n      gt\n      tag_134\n      jumpi\n      dup3\n      swap1\n      sub\n      0x1f\n      and\n      dup3\n      add\n      swap2\n    tag_132:\n      pop\n      pop\n      pop\n      pop\n      pop\n      dup2\n      mstore\n      pop\n      pop\n      swap1\n      pop\n        /* \"SimpleExchangeImpl_flattened.sol\":24243:24275  compare(offer.status, \"PENDING\") */\n      tag_135\n        /* \"SimpleExchangeImpl_flattened.sol\":24251:24256  offer */\n      dup2\n        /* \"SimpleExchangeImpl_flattened.sol\":24251:24263  offer.status */\n      0xa0\n      add\n      mload\n        /* \"SimpleExchangeImpl_flattened.sol\":24243:24275  compare(offer.status, \"PENDING\") */\n      mload(0x40)\n      dup1\n      0x40\n      add\n      0x40\n      mstore\n      dup1\n      0x07\n      dup2\n      mstore\n      0x20\n      add\n      0x50454e44494e4700000000000000000000000000000000000000000000000000\n      dup2\n      mstore\n      pop\n        /* \"SimpleExchangeImpl_flattened.sol\":24243:24250  compare */\n      tag_92\n        /* \"SimpleExchangeImpl_flattened.sol\":24243:24275  compare(offer.status, \"PENDING\") */\n      jump\t// in\n    tag_135:\n        /* \"SimpleExchangeImpl_flattened.sol\":24235:24307  require(compare(offer.status, \"PENDING\"), \"Oferta deve estar pendente.\") */\n      tag_136\n      jumpi\n      mload(0x40)\n      0x08c379a000000000000000000000000000000000000000000000000000000000\n      dup2\n      mstore\n      0x04\n      add\n      tag_137\n      swap1\n      tag_95\n      jump\t// in\n    tag_137:\n      mload(0x40)\n      dup1\n      swap2\n      sub\n      swap1\n      revert\n    tag_136:\n        /* \"SimpleExchangeImpl_flattened.sol\":24317:24342  offer.status = \"CANCELED\" */\n      mload(0x40)\n      dup1\n      0x40\n      add\n      0x40\n      mstore\n      dup1\n      0x08\n      dup2\n      mstore\n      0x20\n      add\n      0x43414e43454c4544000000000000000000000000000000000000000000000000\n      dup2\n      mstore\n      pop\n        /* \"SimpleExchangeImpl_flattened.sol\":24317:24322  offer */\n      dup2\n        /* \"SimpleExchangeImpl_flattened.sol\":24317:24329  offer.status */\n      0xa0\n      add\n        /* \"SimpleExchangeImpl_flattened.sol\":24317:24342  offer.status = \"CANCELED\" */\n      dup2\n      swap1\n      mstore\n      pop\n        /* \"SimpleExchangeImpl_flattened.sol\":24368:24373  offer */\n      dup1\n        /* \"SimpleExchangeImpl_flattened.sol\":24352:24358  offers */\n      0x00\n        /* \"SimpleExchangeImpl_flattened.sol\":24359:24364  index */\n      dup4\n        /* \"SimpleExchangeImpl_flattened.sol\":24352:24365  offers[index] */\n      dup2\n      sload\n      dup2\n      lt\n      tag_138\n      jumpi\n      tag_139\n      tag_60\n      jump\t// in\n    tag_139:\n    tag_138:\n      swap1\n      0x00\n      mstore\n      keccak256(0x00, 0x20)\n      swap1\n      0x06\n      mul\n      add\n        /* \"SimpleExchangeImpl_flattened.sol\":24352:24373  offers[index] = offer */\n      0x00\n      dup3\n      add\n      mload\n      dup2\n      0x00\n      add\n      sstore\n      0x20\n      dup3\n      add\n      mload\n      dup2\n      0x01\n      add\n      exp(0x0100, 0x00)\n      dup2\n      sload\n      dup2\n      0xffffffffffffffffffffffffffffffffffffffff\n      mul\n      not\n      and\n      swap1\n      dup4\n      0xffffffffffffffffffffffffffffffffffffffff\n      and\n      mul\n      or\n      swap1\n      sstore\n      pop\n      0x40\n      dup3\n      add\n      mload\n      dup2\n      0x02\n      add\n      exp(0x0100, 0x00)\n      dup2\n      sload\n      dup2\n      0xffffffffffffffffffffffffffffffffffffffff\n      mul\n      not\n      and\n      swap1\n      dup4\n      0xffffffffffffffffffffffffffffffffffffffff\n      and\n      mul\n      or\n      swap1\n      sstore\n      pop\n      0x60\n      dup3\n      add\n      mload\n      dup2\n      0x03\n      add\n      sstore\n      0x80\n      dup3\n      add\n      mload\n      dup2\n      0x04\n      add\n      exp(0x0100, 0x00)\n      dup2\n      sload\n      dup2\n      0xffffffffffffffffffffffffffffffffffffffff\n      mul\n      not\n      and\n      swap1\n      dup4\n      0xffffffffffffffffffffffffffffffffffffffff\n      and\n      mul\n      or\n      swap1\n      sstore\n      pop\n      0xa0\n      dup3\n      add\n      mload\n      dup2\n      0x05\n      add\n      swap1\n      dup2\n      tag_141\n      swap2\n      swap1\n      tag_50\n      jump\t// in\n    tag_141:\n      pop\n      swap1\n      pop\n      pop\n        /* \"SimpleExchangeImpl_flattened.sol\":24181:24380  {... */\n      pop\n        /* \"SimpleExchangeImpl_flattened.sol\":24132:24380  function cancelOffer(uint index) public override {... */\n      pop\n      jump\t// out\n        /* \"SimpleExchangeImpl_flattened.sol\":24886:25039  function compare(string memory text1, string memory text2) private pure returns (bool){... */\n    tag_92:\n        /* \"SimpleExchangeImpl_flattened.sol\":24967:24971  bool */\n      0x00\n        /* \"SimpleExchangeImpl_flattened.sol\":25013:25032  stringToByte(text2) */\n      tag_143\n        /* \"SimpleExchangeImpl_flattened.sol\":25026:25031  text2 */\n      dup3\n        /* \"SimpleExchangeImpl_flattened.sol\":25013:25025  stringToByte */\n      tag_144\n        /* \"SimpleExchangeImpl_flattened.sol\":25013:25032  stringToByte(text2) */\n      jump\t// in\n    tag_143:\n        /* \"SimpleExchangeImpl_flattened.sol\":24990:25009  stringToByte(text1) */\n      tag_145\n        /* \"SimpleExchangeImpl_flattened.sol\":25003:25008  text1 */\n      dup5\n        /* \"SimpleExchangeImpl_flattened.sol\":24990:25002  stringToByte */\n      tag_144\n        /* \"SimpleExchangeImpl_flattened.sol\":24990:25009  stringToByte(text1) */\n      jump\t// in\n    tag_145:\n        /* \"SimpleExchangeImpl_flattened.sol\":24990:25032  stringToByte(text1) == stringToByte(text2) */\n      eq\n        /* \"SimpleExchangeImpl_flattened.sol\":24983:25032  return stringToByte(text1) == stringToByte(text2) */\n      swap1\n      pop\n        /* \"SimpleExchangeImpl_flattened.sol\":24886:25039  function compare(string memory text1, string memory text2) private pure returns (bool){... */\n      swap3\n      swap2\n      pop\n      pop\n      jump\t// out\n        /* \"SimpleExchangeImpl_flattened.sol\":24750:24880  function stringToByte(string memory text) private pure  returns (bytes32){... */\n    tag_144:\n        /* \"SimpleExchangeImpl_flattened.sol\":24815:24822  bytes32 */\n      0x00\n        /* \"SimpleExchangeImpl_flattened.sol\":24867:24871  text */\n      dup2\n        /* \"SimpleExchangeImpl_flattened.sol\":24850:24872  abi.encodePacked(text) */\n      add(0x20, mload(0x40))\n      tag_147\n      swap2\n      swap1\n      tag_148\n      jump\t// in\n    tag_147:\n      mload(0x40)\n      0x20\n      dup2\n      dup4\n      sub\n      sub\n      dup2\n      mstore\n      swap1\n      0x40\n      mstore\n        /* \"SimpleExchangeImpl_flattened.sol\":24840:24873  keccak256(abi.encodePacked(text)) */\n      dup1\n      mload\n      swap1\n      0x20\n      add\n      keccak256\n        /* \"SimpleExchangeImpl_flattened.sol\":24833:24873  return keccak256(abi.encodePacked(text)) */\n      swap1\n      pop\n        /* \"SimpleExchangeImpl_flattened.sol\":24750:24880  function stringToByte(string memory text) private pure  returns (bytes32){... */\n      swap2\n      swap1\n      pop\n      jump\t// out\n        /* \"#utility.yul\":88:205   */\n    tag_150:\n        /* \"#utility.yul\":197:198   */\n      0x00\n        /* \"#utility.yul\":194:195   */\n      dup1\n        /* \"#utility.yul\":187:199   */\n      revert\n        /* \"#utility.yul\":334:411   */\n    tag_152:\n        /* \"#utility.yul\":371:378   */\n      0x00\n        /* \"#utility.yul\":400:405   */\n      dup2\n        /* \"#utility.yul\":389:405   */\n      swap1\n      pop\n        /* \"#utility.yul\":334:411   */\n      swap2\n      swap1\n      pop\n      jump\t// out\n        /* \"#utility.yul\":417:539   */\n    tag_153:\n        /* \"#utility.yul\":490:514   */\n      tag_204\n        /* \"#utility.yul\":508:513   */\n      dup2\n        /* \"#utility.yul\":490:514   */\n      tag_152\n      jump\t// in\n    tag_204:\n        /* \"#utility.yul\":483:488   */\n      dup2\n        /* \"#utility.yul\":480:515   */\n      eq\n        /* \"#utility.yul\":470:533   */\n      tag_205\n      jumpi\n        /* \"#utility.yul\":529:530   */\n      0x00\n        /* \"#utility.yul\":526:527   */\n      dup1\n        /* \"#utility.yul\":519:531   */\n      revert\n        /* \"#utility.yul\":470:533   */\n    tag_205:\n        /* \"#utility.yul\":417:539   */\n      pop\n      jump\t// out\n        /* \"#utility.yul\":545:684   */\n    tag_154:\n        /* \"#utility.yul\":591:596   */\n      0x00\n        /* \"#utility.yul\":629:635   */\n      dup2\n        /* \"#utility.yul\":616:636   */\n      calldataload\n        /* \"#utility.yul\":607:636   */\n      swap1\n      pop\n        /* \"#utility.yul\":645:678   */\n      tag_207\n        /* \"#utility.yul\":672:677   */\n      dup2\n        /* \"#utility.yul\":645:678   */\n      tag_153\n      jump\t// in\n    tag_207:\n        /* \"#utility.yul\":545:684   */\n      swap3\n      swap2\n      pop\n      pop\n      jump\t// out\n        /* \"#utility.yul\":690:816   */\n    tag_155:\n        /* \"#utility.yul\":727:734   */\n      0x00\n        /* \"#utility.yul\":767:809   */\n      0xffffffffffffffffffffffffffffffffffffffff\n        /* \"#utility.yul\":760:765   */\n      dup3\n        /* \"#utility.yul\":756:810   */\n      and\n        /* \"#utility.yul\":745:810   */\n      swap1\n      pop\n        /* \"#utility.yul\":690:816   */\n      swap2\n      swap1\n      pop\n      jump\t// out\n        /* \"#utility.yul\":822:918   */\n    tag_156:\n        /* \"#utility.yul\":859:866   */\n      0x00\n        /* \"#utility.yul\":888:912   */\n      tag_210\n        /* \"#utility.yul\":906:911   */\n      dup3\n        /* \"#utility.yul\":888:912   */\n      tag_155\n      jump\t// in\n    tag_210:\n        /* \"#utility.yul\":877:912   */\n      swap1\n      pop\n        /* \"#utility.yul\":822:918   */\n      swap2\n      swap1\n      pop\n      jump\t// out\n        /* \"#utility.yul\":924:1034   */\n    tag_157:\n        /* \"#utility.yul\":975:982   */\n      0x00\n        /* \"#utility.yul\":1004:1028   */\n      tag_212\n        /* \"#utility.yul\":1022:1027   */\n      dup3\n        /* \"#utility.yul\":1004:1028   */\n      tag_156\n      jump\t// in\n    tag_212:\n        /* \"#utility.yul\":993:1028   */\n      swap1\n      pop\n        /* \"#utility.yul\":924:1034   */\n      swap2\n      swap1\n      pop\n      jump\t// out\n        /* \"#utility.yul\":1040:1190   */\n    tag_158:\n        /* \"#utility.yul\":1127:1165   */\n      tag_214\n        /* \"#utility.yul\":1159:1164   */\n      dup2\n        /* \"#utility.yul\":1127:1165   */\n      tag_157\n      jump\t// in\n    tag_214:\n        /* \"#utility.yul\":1120:1125   */\n      dup2\n        /* \"#utility.yul\":1117:1166   */\n      eq\n        /* \"#utility.yul\":1107:1184   */\n      tag_215\n      jumpi\n        /* \"#utility.yul\":1180:1181   */\n      0x00\n        /* \"#utility.yul\":1177:1178   */\n      dup1\n        /* \"#utility.yul\":1170:1182   */\n      revert\n        /* \"#utility.yul\":1107:1184   */\n    tag_215:\n        /* \"#utility.yul\":1040:1190   */\n      pop\n      jump\t// out\n        /* \"#utility.yul\":1196:1363   */\n    tag_159:\n        /* \"#utility.yul\":1256:1261   */\n      0x00\n        /* \"#utility.yul\":1294:1300   */\n      dup2\n        /* \"#utility.yul\":1281:1301   */\n      calldataload\n        /* \"#utility.yul\":1272:1301   */\n      swap1\n      pop\n        /* \"#utility.yul\":1310:1357   */\n      tag_217\n        /* \"#utility.yul\":1351:1356   */\n      dup2\n        /* \"#utility.yul\":1310:1357   */\n      tag_158\n      jump\t// in\n    tag_217:\n        /* \"#utility.yul\":1196:1363   */\n      swap3\n      swap2\n      pop\n      pop\n      jump\t// out\n        /* \"#utility.yul\":1369:2190   */\n    tag_13:\n        /* \"#utility.yul\":1483:1489   */\n      0x00\n        /* \"#utility.yul\":1491:1497   */\n      dup1\n        /* \"#utility.yul\":1499:1505   */\n      0x00\n        /* \"#utility.yul\":1507:1513   */\n      dup1\n        /* \"#utility.yul\":1556:1559   */\n      0x80\n        /* \"#utility.yul\":1544:1553   */\n      dup6\n        /* \"#utility.yul\":1535:1542   */\n      dup8\n        /* \"#utility.yul\":1531:1554   */\n      sub\n        /* \"#utility.yul\":1527:1560   */\n      slt\n        /* \"#utility.yul\":1524:1644   */\n      iszero\n      tag_219\n      jumpi\n        /* \"#utility.yul\":1563:1642   */\n      tag_220\n      tag_150\n      jump\t// in\n    tag_220:\n        /* \"#utility.yul\":1524:1644   */\n    tag_219:\n        /* \"#utility.yul\":1683:1684   */\n      0x00\n        /* \"#utility.yul\":1708:1761   */\n      tag_221\n        /* \"#utility.yul\":1753:1760   */\n      dup8\n        /* \"#utility.yul\":1744:1750   */\n      dup3\n        /* \"#utility.yul\":1733:1742   */\n      dup9\n        /* \"#utility.yul\":1729:1751   */\n      add\n        /* \"#utility.yul\":1708:1761   */\n      tag_154\n      jump\t// in\n    tag_221:\n        /* \"#utility.yul\":1698:1761   */\n      swap5\n      pop\n        /* \"#utility.yul\":1654:1771   */\n      pop\n        /* \"#utility.yul\":1810:1812   */\n      0x20\n        /* \"#utility.yul\":1836:1903   */\n      tag_222\n        /* \"#utility.yul\":1895:1902   */\n      dup8\n        /* \"#utility.yul\":1886:1892   */\n      dup3\n        /* \"#utility.yul\":1875:1884   */\n      dup9\n        /* \"#utility.yul\":1871:1893   */\n      add\n        /* \"#utility.yul\":1836:1903   */\n      tag_159\n      jump\t// in\n    tag_222:\n        /* \"#utility.yul\":1826:1903   */\n      swap4\n      pop\n        /* \"#utility.yul\":1781:1913   */\n      pop\n        /* \"#utility.yul\":1952:1954   */\n      0x40\n        /* \"#utility.yul\":1978:2031   */\n      tag_223\n        /* \"#utility.yul\":2023:2030   */\n      dup8\n        /* \"#utility.yul\":2014:2020   */\n      dup3\n        /* \"#utility.yul\":2003:2012   */\n      dup9\n        /* \"#utility.yul\":1999:2021   */\n      add\n        /* \"#utility.yul\":1978:2031   */\n      tag_154\n      jump\t// in\n    tag_223:\n        /* \"#utility.yul\":1968:2031   */\n      swap3\n      pop\n        /* \"#utility.yul\":1923:2041   */\n      pop\n        /* \"#utility.yul\":2080:2082   */\n      0x60\n        /* \"#utility.yul\":2106:2173   */\n      tag_224\n        /* \"#utility.yul\":2165:2172   */\n      dup8\n        /* \"#utility.yul\":2156:2162   */\n      dup3\n        /* \"#utility.yul\":2145:2154   */\n      dup9\n        /* \"#utility.yul\":2141:2163   */\n      add\n        /* \"#utility.yul\":2106:2173   */\n      tag_159\n      jump\t// in\n    tag_224:\n        /* \"#utility.yul\":2096:2173   */\n      swap2\n      pop\n        /* \"#utility.yul\":2051:2183   */\n      pop\n        /* \"#utility.yul\":1369:2190   */\n      swap3\n      swap6\n      swap2\n      swap5\n      pop\n      swap3\n      pop\n      jump\t// out\n        /* \"#utility.yul\":2196:2525   */\n    tag_18:\n        /* \"#utility.yul\":2255:2261   */\n      0x00\n        /* \"#utility.yul\":2304:2306   */\n      0x20\n        /* \"#utility.yul\":2292:2301   */\n      dup3\n        /* \"#utility.yul\":2283:2290   */\n      dup5\n        /* \"#utility.yul\":2279:2302   */\n      sub\n        /* \"#utility.yul\":2275:2307   */\n      slt\n        /* \"#utility.yul\":2272:2391   */\n      iszero\n      tag_226\n      jumpi\n        /* \"#utility.yul\":2310:2389   */\n      tag_227\n      tag_150\n      jump\t// in\n    tag_227:\n        /* \"#utility.yul\":2272:2391   */\n    tag_226:\n        /* \"#utility.yul\":2430:2431   */\n      0x00\n        /* \"#utility.yul\":2455:2508   */\n      tag_228\n        /* \"#utility.yul\":2500:2507   */\n      dup5\n        /* \"#utility.yul\":2491:2497   */\n      dup3\n        /* \"#utility.yul\":2480:2489   */\n      dup6\n        /* \"#utility.yul\":2476:2498   */\n      add\n        /* \"#utility.yul\":2455:2508   */\n      tag_154\n      jump\t// in\n    tag_228:\n        /* \"#utility.yul\":2445:2508   */\n      swap2\n      pop\n        /* \"#utility.yul\":2401:2518   */\n      pop\n        /* \"#utility.yul\":2196:2525   */\n      swap3\n      swap2\n      pop\n      pop\n      jump\t// out\n        /* \"#utility.yul\":2531:2649   */\n    tag_160:\n        /* \"#utility.yul\":2618:2642   */\n      tag_230\n        /* \"#utility.yul\":2636:2641   */\n      dup2\n        /* \"#utility.yul\":2618:2642   */\n      tag_152\n      jump\t// in\n    tag_230:\n        /* \"#utility.yul\":2613:2616   */\n      dup3\n        /* \"#utility.yul\":2606:2643   */\n      mstore\n        /* \"#utility.yul\":2531:2649   */\n      pop\n      pop\n      jump\t// out\n        /* \"#utility.yul\":2655:2877   */\n    tag_21:\n        /* \"#utility.yul\":2748:2752   */\n      0x00\n        /* \"#utility.yul\":2786:2788   */\n      0x20\n        /* \"#utility.yul\":2775:2784   */\n      dup3\n        /* \"#utility.yul\":2771:2789   */\n      add\n        /* \"#utility.yul\":2763:2789   */\n      swap1\n      pop\n        /* \"#utility.yul\":2799:2870   */\n      tag_232\n        /* \"#utility.yul\":2867:2868   */\n      0x00\n        /* \"#utility.yul\":2856:2865   */\n      dup4\n        /* \"#utility.yul\":2852:2869   */\n      add\n        /* \"#utility.yul\":2843:2849   */\n      dup5\n        /* \"#utility.yul\":2799:2870   */\n      tag_160\n      jump\t// in\n    tag_232:\n        /* \"#utility.yul\":2655:2877   */\n      swap3\n      swap2\n      pop\n      pop\n      jump\t// out\n        /* \"#utility.yul\":2883:2943   */\n    tag_161:\n        /* \"#utility.yul\":2911:2914   */\n      0x00\n        /* \"#utility.yul\":2932:2937   */\n      dup2\n        /* \"#utility.yul\":2925:2937   */\n      swap1\n      pop\n        /* \"#utility.yul\":2883:2943   */\n      swap2\n      swap1\n      pop\n      jump\t// out\n        /* \"#utility.yul\":2949:3091   */\n    tag_162:\n        /* \"#utility.yul\":2999:3008   */\n      0x00\n        /* \"#utility.yul\":3032:3085   */\n      tag_235\n        /* \"#utility.yul\":3050:3084   */\n      tag_236\n        /* \"#utility.yul\":3059:3083   */\n      tag_237\n        /* \"#utility.yul\":3077:3082   */\n      dup5\n        /* \"#utility.yul\":3059:3083   */\n      tag_155\n      jump\t// in\n    tag_237:\n        /* \"#utility.yul\":3050:3084   */\n      tag_161\n      jump\t// in\n    tag_236:\n        /* \"#utility.yul\":3032:3085   */\n      tag_155\n      jump\t// in\n    tag_235:\n        /* \"#utility.yul\":3019:3085   */\n      swap1\n      pop\n        /* \"#utility.yul\":2949:3091   */\n      swap2\n      swap1\n      pop\n      jump\t// out\n        /* \"#utility.yul\":3097:3223   */\n    tag_163:\n        /* \"#utility.yul\":3147:3156   */\n      0x00\n        /* \"#utility.yul\":3180:3217   */\n      tag_239\n        /* \"#utility.yul\":3211:3216   */\n      dup3\n        /* \"#utility.yul\":3180:3217   */\n      tag_162\n      jump\t// in\n    tag_239:\n        /* \"#utility.yul\":3167:3217   */\n      swap1\n      pop\n        /* \"#utility.yul\":3097:3223   */\n      swap2\n      swap1\n      pop\n      jump\t// out\n        /* \"#utility.yul\":3229:3369   */\n    tag_164:\n        /* \"#utility.yul\":3293:3302   */\n      0x00\n        /* \"#utility.yul\":3326:3363   */\n      tag_241\n        /* \"#utility.yul\":3357:3362   */\n      dup3\n        /* \"#utility.yul\":3326:3363   */\n      tag_163\n      jump\t// in\n    tag_241:\n        /* \"#utility.yul\":3313:3363   */\n      swap1\n      pop\n        /* \"#utility.yul\":3229:3369   */\n      swap2\n      swap1\n      pop\n      jump\t// out\n        /* \"#utility.yul\":3375:3534   */\n    tag_165:\n        /* \"#utility.yul\":3476:3527   */\n      tag_243\n        /* \"#utility.yul\":3521:3526   */\n      dup2\n        /* \"#utility.yul\":3476:3527   */\n      tag_164\n      jump\t// in\n    tag_243:\n        /* \"#utility.yul\":3471:3474   */\n      dup3\n        /* \"#utility.yul\":3464:3528   */\n      mstore\n        /* \"#utility.yul\":3375:3534   */\n      pop\n      pop\n      jump\t// out\n        /* \"#utility.yul\":3540:3658   */\n    tag_166:\n        /* \"#utility.yul\":3627:3651   */\n      tag_245\n        /* \"#utility.yul\":3645:3650   */\n      dup2\n        /* \"#utility.yul\":3627:3651   */\n      tag_156\n      jump\t// in\n    tag_245:\n        /* \"#utility.yul\":3622:3625   */\n      dup3\n        /* \"#utility.yul\":3615:3652   */\n      mstore\n        /* \"#utility.yul\":3540:3658   */\n      pop\n      pop\n      jump\t// out\n        /* \"#utility.yul\":3664:3763   */\n    tag_167:\n        /* \"#utility.yul\":3716:3722   */\n      0x00\n        /* \"#utility.yul\":3750:3755   */\n      dup2\n        /* \"#utility.yul\":3744:3756   */\n      mload\n        /* \"#utility.yul\":3734:3756   */\n      swap1\n      pop\n        /* \"#utility.yul\":3664:3763   */\n      swap2\n      swap1\n      pop\n      jump\t// out\n        /* \"#utility.yul\":3769:3938   */\n    tag_168:\n        /* \"#utility.yul\":3853:3864   */\n      0x00\n        /* \"#utility.yul\":3887:3893   */\n      dup3\n        /* \"#utility.yul\":3882:3885   */\n      dup3\n        /* \"#utility.yul\":3875:3894   */\n      mstore\n        /* \"#utility.yul\":3927:3931   */\n      0x20\n        /* \"#utility.yul\":3922:3925   */\n      dup3\n        /* \"#utility.yul\":3918:3932   */\n      add\n        /* \"#utility.yul\":3903:3932   */\n      swap1\n      pop\n        /* \"#utility.yul\":3769:3938   */\n      swap3\n      swap2\n      pop\n      pop\n      jump\t// out\n        /* \"#utility.yul\":3944:4190   */\n    tag_169:\n        /* \"#utility.yul\":4025:4026   */\n      0x00\n        /* \"#utility.yul\":4035:4148   */\n    tag_249:\n        /* \"#utility.yul\":4049:4055   */\n      dup4\n        /* \"#utility.yul\":4046:4047   */\n      dup2\n        /* \"#utility.yul\":4043:4056   */\n      lt\n        /* \"#utility.yul\":4035:4148   */\n      iszero\n      tag_251\n      jumpi\n        /* \"#utility.yul\":4134:4135   */\n      dup1\n        /* \"#utility.yul\":4129:4132   */\n      dup3\n        /* \"#utility.yul\":4125:4136   */\n      add\n        /* \"#utility.yul\":4119:4137   */\n      mload\n        /* \"#utility.yul\":4115:4116   */\n      dup2\n        /* \"#utility.yul\":4110:4113   */\n      dup5\n        /* \"#utility.yul\":4106:4117   */\n      add\n        /* \"#utility.yul\":4099:4138   */\n      mstore\n        /* \"#utility.yul\":4071:4073   */\n      0x20\n        /* \"#utility.yul\":4068:4069   */\n      dup2\n        /* \"#utility.yul\":4064:4074   */\n      add\n        /* \"#utility.yul\":4059:4074   */\n      swap1\n      pop\n        /* \"#utility.yul\":4035:4148   */\n      jump(tag_249)\n    tag_251:\n        /* \"#utility.yul\":4182:4183   */\n      0x00\n        /* \"#utility.yul\":4173:4179   */\n      dup5\n        /* \"#utility.yul\":4168:4171   */\n      dup5\n        /* \"#utility.yul\":4164:4180   */\n      add\n        /* \"#utility.yul\":4157:4184   */\n      mstore\n        /* \"#utility.yul\":4006:4190   */\n      pop\n        /* \"#utility.yul\":3944:4190   */\n      pop\n      pop\n      pop\n      jump\t// out\n        /* \"#utility.yul\":4196:4298   */\n    tag_170:\n        /* \"#utility.yul\":4237:4243   */\n      0x00\n        /* \"#utility.yul\":4288:4290   */\n      0x1f\n        /* \"#utility.yul\":4284:4291   */\n      not\n        /* \"#utility.yul\":4279:4281   */\n      0x1f\n        /* \"#utility.yul\":4272:4277   */\n      dup4\n        /* \"#utility.yul\":4268:4282   */\n      add\n        /* \"#utility.yul\":4264:4292   */\n      and\n        /* \"#utility.yul\":4254:4292   */\n      swap1\n      pop\n        /* \"#utility.yul\":4196:4298   */\n      swap2\n      swap1\n      pop\n      jump\t// out\n        /* \"#utility.yul\":4304:4681   */\n    tag_171:\n        /* \"#utility.yul\":4392:4395   */\n      0x00\n        /* \"#utility.yul\":4420:4459   */\n      tag_254\n        /* \"#utility.yul\":4453:4458   */\n      dup3\n        /* \"#utility.yul\":4420:4459   */\n      tag_167\n      jump\t// in\n    tag_254:\n        /* \"#utility.yul\":4475:4546   */\n      tag_255\n        /* \"#utility.yul\":4539:4545   */\n      dup2\n        /* \"#utility.yul\":4534:4537   */\n      dup6\n        /* \"#utility.yul\":4475:4546   */\n      tag_168\n      jump\t// in\n    tag_255:\n        /* \"#utility.yul\":4468:4546   */\n      swap4\n      pop\n        /* \"#utility.yul\":4555:4620   */\n      tag_256\n        /* \"#utility.yul\":4613:4619   */\n      dup2\n        /* \"#utility.yul\":4608:4611   */\n      dup6\n        /* \"#utility.yul\":4601:4605   */\n      0x20\n        /* \"#utility.yul\":4594:4599   */\n      dup7\n        /* \"#utility.yul\":4590:4606   */\n      add\n        /* \"#utility.yul\":4555:4620   */\n      tag_169\n      jump\t// in\n    tag_256:\n        /* \"#utility.yul\":4645:4674   */\n      tag_257\n        /* \"#utility.yul\":4667:4673   */\n      dup2\n        /* \"#utility.yul\":4645:4674   */\n      tag_170\n      jump\t// in\n    tag_257:\n        /* \"#utility.yul\":4640:4643   */\n      dup5\n        /* \"#utility.yul\":4636:4675   */\n      add\n        /* \"#utility.yul\":4629:4675   */\n      swap2\n      pop\n        /* \"#utility.yul\":4396:4681   */\n      pop\n        /* \"#utility.yul\":4304:4681   */\n      swap3\n      swap2\n      pop\n      pop\n      jump\t// out\n        /* \"#utility.yul\":4687:5609   */\n    tag_31:\n        /* \"#utility.yul\":4968:4972   */\n      0x00\n        /* \"#utility.yul\":5006:5009   */\n      0xc0\n        /* \"#utility.yul\":4995:5004   */\n      dup3\n        /* \"#utility.yul\":4991:5010   */\n      add\n        /* \"#utility.yul\":4983:5010   */\n      swap1\n      pop\n        /* \"#utility.yul\":5020:5091   */\n      tag_259\n        /* \"#utility.yul\":5088:5089   */\n      0x00\n        /* \"#utility.yul\":5077:5086   */\n      dup4\n        /* \"#utility.yul\":5073:5090   */\n      add\n        /* \"#utility.yul\":5064:5070   */\n      dup10\n        /* \"#utility.yul\":5020:5091   */\n      tag_160\n      jump\t// in\n    tag_259:\n        /* \"#utility.yul\":5101:5187   */\n      tag_260\n        /* \"#utility.yul\":5183:5185   */\n      0x20\n        /* \"#utility.yul\":5172:5181   */\n      dup4\n        /* \"#utility.yul\":5168:5186   */\n      add\n        /* \"#utility.yul\":5159:5165   */\n      dup9\n        /* \"#utility.yul\":5101:5187   */\n      tag_165\n      jump\t// in\n    tag_260:\n        /* \"#utility.yul\":5197:5269   */\n      tag_261\n        /* \"#utility.yul\":5265:5267   */\n      0x40\n        /* \"#utility.yul\":5254:5263   */\n      dup4\n        /* \"#utility.yul\":5250:5268   */\n      add\n        /* \"#utility.yul\":5241:5247   */\n      dup8\n        /* \"#utility.yul\":5197:5269   */\n      tag_166\n      jump\t// in\n    tag_261:\n        /* \"#utility.yul\":5279:5351   */\n      tag_262\n        /* \"#utility.yul\":5347:5349   */\n      0x60\n        /* \"#utility.yul\":5336:5345   */\n      dup4\n        /* \"#utility.yul\":5332:5350   */\n      add\n        /* \"#utility.yul\":5323:5329   */\n      dup7\n        /* \"#utility.yul\":5279:5351   */\n      tag_160\n      jump\t// in\n    tag_262:\n        /* \"#utility.yul\":5361:5448   */\n      tag_263\n        /* \"#utility.yul\":5443:5446   */\n      0x80\n        /* \"#utility.yul\":5432:5441   */\n      dup4\n        /* \"#utility.yul\":5428:5447   */\n      add\n        /* \"#utility.yul\":5419:5425   */\n      dup6\n        /* \"#utility.yul\":5361:5448   */\n      tag_165\n      jump\t// in\n    tag_263:\n        /* \"#utility.yul\":5496:5505   */\n      dup2\n        /* \"#utility.yul\":5490:5494   */\n      dup2\n        /* \"#utility.yul\":5486:5506   */\n      sub\n        /* \"#utility.yul\":5480:5483   */\n      0xa0\n        /* \"#utility.yul\":5469:5478   */\n      dup4\n        /* \"#utility.yul\":5465:5484   */\n      add\n        /* \"#utility.yul\":5458:5507   */\n      mstore\n        /* \"#utility.yul\":5524:5602   */\n      tag_264\n        /* \"#utility.yul\":5597:5601   */\n      dup2\n        /* \"#utility.yul\":5588:5594   */\n      dup5\n        /* \"#utility.yul\":5524:5602   */\n      tag_171\n      jump\t// in\n    tag_264:\n        /* \"#utility.yul\":5516:5602   */\n      swap1\n      pop\n        /* \"#utility.yul\":4687:5609   */\n      swap8\n      swap7\n      pop\n      pop\n      pop\n      pop\n      pop\n      pop\n      pop\n      jump\t// out\n        /* \"#utility.yul\":5615:5829   */\n    tag_172:\n        /* \"#utility.yul\":5755:5821   */\n      0x4ec3a36f20706f646520736572207a65726f0000000000000000000000000000\n        /* \"#utility.yul\":5751:5752   */\n      0x00\n        /* \"#utility.yul\":5743:5749   */\n      dup3\n        /* \"#utility.yul\":5739:5753   */\n      add\n        /* \"#utility.yul\":5732:5822   */\n      mstore\n        /* \"#utility.yul\":5615:5829   */\n      pop\n      jump\t// out\n        /* \"#utility.yul\":5835:6201   */\n    tag_173:\n        /* \"#utility.yul\":5977:5980   */\n      0x00\n        /* \"#utility.yul\":5998:6065   */\n      tag_267\n        /* \"#utility.yul\":6062:6064   */\n      0x12\n        /* \"#utility.yul\":6057:6060   */\n      dup4\n        /* \"#utility.yul\":5998:6065   */\n      tag_168\n      jump\t// in\n    tag_267:\n        /* \"#utility.yul\":5991:6065   */\n      swap2\n      pop\n        /* \"#utility.yul\":6074:6167   */\n      tag_268\n        /* \"#utility.yul\":6163:6166   */\n      dup3\n        /* \"#utility.yul\":6074:6167   */\n      tag_172\n      jump\t// in\n    tag_268:\n        /* \"#utility.yul\":6192:6194   */\n      0x20\n        /* \"#utility.yul\":6187:6190   */\n      dup3\n        /* \"#utility.yul\":6183:6195   */\n      add\n        /* \"#utility.yul\":6176:6195   */\n      swap1\n      pop\n        /* \"#utility.yul\":5835:6201   */\n      swap2\n      swap1\n      pop\n      jump\t// out\n        /* \"#utility.yul\":6207:6626   */\n    tag_47:\n        /* \"#utility.yul\":6373:6377   */\n      0x00\n        /* \"#utility.yul\":6411:6413   */\n      0x20\n        /* \"#utility.yul\":6400:6409   */\n      dup3\n        /* \"#utility.yul\":6396:6414   */\n      add\n        /* \"#utility.yul\":6388:6414   */\n      swap1\n      pop\n        /* \"#utility.yul\":6460:6469   */\n      dup2\n        /* \"#utility.yul\":6454:6458   */\n      dup2\n        /* \"#utility.yul\":6450:6470   */\n      sub\n        /* \"#utility.yul\":6446:6447   */\n      0x00\n        /* \"#utility.yul\":6435:6444   */\n      dup4\n        /* \"#utility.yul\":6431:6448   */\n      add\n        /* \"#utility.yul\":6424:6471   */\n      mstore\n        /* \"#utility.yul\":6488:6619   */\n      tag_270\n        /* \"#utility.yul\":6614:6618   */\n      dup2\n        /* \"#utility.yul\":6488:6619   */\n      tag_173\n      jump\t// in\n    tag_270:\n        /* \"#utility.yul\":6480:6619   */\n      swap1\n      pop\n        /* \"#utility.yul\":6207:6626   */\n      swap2\n      swap1\n      pop\n      jump\t// out\n        /* \"#utility.yul\":6632:6812   */\n    tag_174:\n        /* \"#utility.yul\":6680:6757   */\n      0x4e487b7100000000000000000000000000000000000000000000000000000000\n        /* \"#utility.yul\":6677:6678   */\n      0x00\n        /* \"#utility.yul\":6670:6758   */\n      mstore\n        /* \"#utility.yul\":6777:6781   */\n      0x41\n        /* \"#utility.yul\":6774:6775   */\n      0x04\n        /* \"#utility.yul\":6767:6782   */\n      mstore\n        /* \"#utility.yul\":6801:6805   */\n      0x24\n        /* \"#utility.yul\":6798:6799   */\n      0x00\n        /* \"#utility.yul\":6791:6806   */\n      revert\n        /* \"#utility.yul\":6818:6998   */\n    tag_175:\n        /* \"#utility.yul\":6866:6943   */\n      0x4e487b7100000000000000000000000000000000000000000000000000000000\n        /* \"#utility.yul\":6863:6864   */\n      0x00\n        /* \"#utility.yul\":6856:6944   */\n      mstore\n        /* \"#utility.yul\":6963:6967   */\n      0x22\n        /* \"#utility.yul\":6960:6961   */\n      0x04\n        /* \"#utility.yul\":6953:6968   */\n      mstore\n        /* \"#utility.yul\":6987:6991   */\n      0x24\n        /* \"#utility.yul\":6984:6985   */\n      0x00\n        /* \"#utility.yul\":6977:6992   */\n      revert\n        /* \"#utility.yul\":7004:7324   */\n    tag_63:\n        /* \"#utility.yul\":7048:7054   */\n      0x00\n        /* \"#utility.yul\":7085:7086   */\n      0x02\n        /* \"#utility.yul\":7079:7083   */\n      dup3\n        /* \"#utility.yul\":7075:7087   */\n      div\n        /* \"#utility.yul\":7065:7087   */\n      swap1\n      pop\n        /* \"#utility.yul\":7132:7133   */\n      0x01\n        /* \"#utility.yul\":7126:7130   */\n      dup3\n        /* \"#utility.yul\":7122:7134   */\n      and\n        /* \"#utility.yul\":7153:7171   */\n      dup1\n        /* \"#utility.yul\":7143:7224   */\n      tag_274\n      jumpi\n        /* \"#utility.yul\":7209:7213   */\n      0x7f\n        /* \"#utility.yul\":7201:7207   */\n      dup3\n        /* \"#utility.yul\":7197:7214   */\n      and\n        /* \"#utility.yul\":7187:7214   */\n      swap2\n      pop\n        /* \"#utility.yul\":7143:7224   */\n    tag_274:\n        /* \"#utility.yul\":7271:7273   */\n      0x20\n        /* \"#utility.yul\":7263:7269   */\n      dup3\n        /* \"#utility.yul\":7260:7274   */\n      lt\n        /* \"#utility.yul\":7240:7258   */\n      dup2\n        /* \"#utility.yul\":7237:7275   */\n      sub\n        /* \"#utility.yul\":7234:7318   */\n      tag_275\n      jumpi\n        /* \"#utility.yul\":7290:7308   */\n      tag_276\n      tag_175\n      jump\t// in\n    tag_276:\n        /* \"#utility.yul\":7234:7318   */\n    tag_275:\n        /* \"#utility.yul\":7055:7324   */\n      pop\n        /* \"#utility.yul\":7004:7324   */\n      swap2\n      swap1\n      pop\n      jump\t// out\n        /* \"#utility.yul\":7330:7471   */\n    tag_176:\n        /* \"#utility.yul\":7379:7383   */\n      0x00\n        /* \"#utility.yul\":7402:7405   */\n      dup2\n        /* \"#utility.yul\":7394:7405   */\n      swap1\n      pop\n        /* \"#utility.yul\":7425:7428   */\n      dup2\n        /* \"#utility.yul\":7422:7423   */\n      0x00\n        /* \"#utility.yul\":7415:7429   */\n      mstore\n        /* \"#utility.yul\":7459:7463   */\n      0x20\n        /* \"#utility.yul\":7456:7457   */\n      0x00\n        /* \"#utility.yul\":7446:7464   */\n      keccak256\n        /* \"#utility.yul\":7438:7464   */\n      swap1\n      pop\n        /* \"#utility.yul\":7330:7471   */\n      swap2\n      swap1\n      pop\n      jump\t// out\n        /* \"#utility.yul\":7477:7570   */\n    tag_177:\n        /* \"#utility.yul\":7514:7520   */\n      0x00\n        /* \"#utility.yul\":7561:7563   */\n      0x20\n        /* \"#utility.yul\":7556:7558   */\n      0x1f\n        /* \"#utility.yul\":7549:7554   */\n      dup4\n        /* \"#utility.yul\":7545:7559   */\n      add\n        /* \"#utility.yul\":7541:7564   */\n      div\n        /* \"#utility.yul\":7531:7564   */\n      swap1\n      pop\n        /* \"#utility.yul\":7477:7570   */\n      swap2\n      swap1\n      pop\n      jump\t// out\n        /* \"#utility.yul\":7576:7683   */\n    tag_178:\n        /* \"#utility.yul\":7620:7628   */\n      0x00\n        /* \"#utility.yul\":7670:7675   */\n      dup3\n        /* \"#utility.yul\":7664:7668   */\n      dup3\n        /* \"#utility.yul\":7660:7676   */\n      shl\n        /* \"#utility.yul\":7639:7676   */\n      swap1\n      pop\n        /* \"#utility.yul\":7576:7683   */\n      swap3\n      swap2\n      pop\n      pop\n      jump\t// out\n        /* \"#utility.yul\":7689:8082   */\n    tag_179:\n        /* \"#utility.yul\":7758:7764   */\n      0x00\n        /* \"#utility.yul\":7808:7809   */\n      0x08\n        /* \"#utility.yul\":7796:7806   */\n      dup4\n        /* \"#utility.yul\":7792:7810   */\n      mul\n        /* \"#utility.yul\":7831:7928   */\n      tag_281\n        /* \"#utility.yul\":7861:7927   */\n      0xffffffffffffffffffffffffffffffffffffffffffffffffffffffffffffffff\n        /* \"#utility.yul\":7850:7859   */\n      dup3\n        /* \"#utility.yul\":7831:7928   */\n      tag_178\n      jump\t// in\n    tag_281:\n        /* \"#utility.yul\":7949:7988   */\n      tag_282\n        /* \"#utility.yul\":7979:7987   */\n      dup7\n        /* \"#utility.yul\":7968:7977   */\n      dup4\n        /* \"#utility.yul\":7949:7988   */\n      tag_178\n      jump\t// in\n    tag_282:\n        /* \"#utility.yul\":7937:7988   */\n      swap6\n      pop\n        /* \"#utility.yul\":8021:8025   */\n      dup1\n        /* \"#utility.yul\":8017:8026   */\n      not\n        /* \"#utility.yul\":8010:8015   */\n      dup5\n        /* \"#utility.yul\":8006:8027   */\n      and\n        /* \"#utility.yul\":7997:8027   */\n      swap4\n      pop\n        /* \"#utility.yul\":8070:8074   */\n      dup1\n        /* \"#utility.yul\":8060:8068   */\n      dup7\n        /* \"#utility.yul\":8056:8075   */\n      and\n        /* \"#utility.yul\":8049:8054   */\n      dup5\n        /* \"#utility.yul\":8046:8076   */\n      or\n        /* \"#utility.yul\":8036:8076   */\n      swap3\n      pop\n        /* \"#utility.yul\":7765:8082   */\n      pop\n      pop\n        /* \"#utility.yul\":7689:8082   */\n      swap4\n      swap3\n      pop\n      pop\n      pop\n      jump\t// out\n        /* \"#utility.yul\":8088:8230   */\n    tag_180:\n        /* \"#utility.yul\":8138:8147   */\n      0x00\n        /* \"#utility.yul\":8171:8224   */\n      tag_284\n        /* \"#utility.yul\":8189:8223   */\n      tag_285\n        /* \"#utility.yul\":8198:8222   */\n      tag_286\n        /* \"#utility.yul\":8216:8221   */\n      dup5\n        /* \"#utility.yul\":8198:8222   */\n      tag_152\n      jump\t// in\n    tag_286:\n        /* \"#utility.yul\":8189:8223   */\n      tag_161\n      jump\t// in\n    tag_285:\n        /* \"#utility.yul\":8171:8224   */\n      tag_152\n      jump\t// in\n    tag_284:\n        /* \"#utility.yul\":8158:8224   */\n      swap1\n      pop\n        /* \"#utility.yul\":8088:8230   */\n      swap2\n      swap1\n      pop\n      jump\t// out\n        /* \"#utility.yul\":8236:8311   */\n    tag_181:\n        /* \"#utility.yul\":8279:8282   */\n      0x00\n        /* \"#utility.yul\":8300:8305   */\n      dup2\n        /* \"#utility.yul\":8293:8305   */\n      swap1\n      pop\n        /* \"#utility.yul\":8236:8311   */\n      swap2\n      swap1\n      pop\n      jump\t// out\n        /* \"#utility.yul\":8317:8586   */\n    tag_182:\n        /* \"#utility.yul\":8427:8466   */\n      tag_289\n        /* \"#utility.yul\":8458:8465   */\n      dup4\n        /* \"#utility.yul\":8427:8466   */\n      tag_180\n      jump\t// in\n    tag_289:\n        /* \"#utility.yul\":8488:8579   */\n      tag_290\n        /* \"#utility.yul\":8537:8578   */\n      tag_291\n        /* \"#utility.yul\":8561:8577   */\n      dup3\n        /* \"#utility.yul\":8537:8578   */\n      tag_181\n      jump\t// in\n    tag_291:\n        /* \"#utility.yul\":8529:8535   */\n      dup5\n        /* \"#utility.yul\":8522:8526   */\n      dup5\n        /* \"#utility.yul\":8516:8527   */\n      sload\n        /* \"#utility.yul\":8488:8579   */\n      tag_179\n      jump\t// in\n    tag_290:\n        /* \"#utility.yul\":8482:8486   */\n      dup3\n        /* \"#utility.yul\":8475:8580   */\n      sstore\n        /* \"#utility.yul\":8393:8586   */\n      pop\n        /* \"#utility.yul\":8317:8586   */\n      pop\n      pop\n      pop\n      jump\t// out\n        /* \"#utility.yul\":8592:8665   */\n    tag_183:\n        /* \"#utility.yul\":8637:8640   */\n      0x00\n        /* \"#utility.yul\":8592:8665   */\n      swap1\n      jump\t// out\n        /* \"#utility.yul\":8671:8860   */\n    tag_184:\n        /* \"#utility.yul\":8748:8780   */\n      tag_294\n      tag_183\n      jump\t// in\n    tag_294:\n        /* \"#utility.yul\":8789:8854   */\n      tag_295\n        /* \"#utility.yul\":8847:8853   */\n      dup2\n        /* \"#utility.yul\":8839:8845   */\n      dup5\n        /* \"#utility.yul\":8833:8837   */\n      dup5\n        /* \"#utility.yul\":8789:8854   */\n      tag_182\n      jump\t// in\n    tag_295:\n        /* \"#utility.yul\":8724:8860   */\n      pop\n        /* \"#utility.yul\":8671:8860   */\n      pop\n      pop\n      jump\t// out\n        /* \"#utility.yul\":8866:9052   */\n    tag_185:\n        /* \"#utility.yul\":8926:9046   */\n    tag_297:\n        /* \"#utility.yul\":8943:8946   */\n      dup2\n        /* \"#utility.yul\":8936:8941   */\n      dup2\n        /* \"#utility.yul\":8933:8947   */\n      lt\n        /* \"#utility.yul\":8926:9046   */\n      iszero\n      tag_299\n      jumpi\n        /* \"#utility.yul\":8997:9036   */\n      tag_300\n        /* \"#utility.yul\":9034:9035   */\n      0x00\n        /* \"#utility.yul\":9027:9032   */\n      dup3\n        /* \"#utility.yul\":8997:9036   */\n      tag_184\n      jump\t// in\n    tag_300:\n        /* \"#utility.yul\":8970:8971   */\n      0x01\n        /* \"#utility.yul\":8963:8968   */\n      dup2\n        /* \"#utility.yul\":8959:8972   */\n      add\n        /* \"#utility.yul\":8950:8972   */\n      swap1\n      pop\n        /* \"#utility.yul\":8926:9046   */\n      jump(tag_297)\n    tag_299:\n        /* \"#utility.yul\":8866:9052   */\n      pop\n      pop\n      jump\t// out\n        /* \"#utility.yul\":9058:9601   */\n    tag_186:\n        /* \"#utility.yul\":9159:9161   */\n      0x1f\n        /* \"#utility.yul\":9154:9157   */\n      dup3\n        /* \"#utility.yul\":9151:9162   */\n      gt\n        /* \"#utility.yul\":9148:9594   */\n      iszero\n      tag_302\n      jumpi\n        /* \"#utility.yul\":9193:9231   */\n      tag_303\n        /* \"#utility.yul\":9225:9230   */\n      dup2\n        /* \"#utility.yul\":9193:9231   */\n      tag_176\n      jump\t// in\n    tag_303:\n        /* \"#utility.yul\":9277:9306   */\n      tag_304\n        /* \"#utility.yul\":9295:9305   */\n      dup5\n        /* \"#utility.yul\":9277:9306   */\n      tag_177\n      jump\t// in\n    tag_304:\n        /* \"#utility.yul\":9267:9275   */\n      dup2\n        /* \"#utility.yul\":9263:9307   */\n      add\n        /* \"#utility.yul\":9460:9462   */\n      0x20\n        /* \"#utility.yul\":9448:9458   */\n      dup6\n        /* \"#utility.yul\":9445:9463   */\n      lt\n        /* \"#utility.yul\":9442:9491   */\n      iszero\n      tag_305\n      jumpi\n        /* \"#utility.yul\":9481:9489   */\n      dup2\n        /* \"#utility.yul\":9466:9489   */\n      swap1\n      pop\n        /* \"#utility.yul\":9442:9491   */\n    tag_305:\n        /* \"#utility.yul\":9504:9584   */\n      tag_306\n        /* \"#utility.yul\":9560:9582   */\n      tag_307\n        /* \"#utility.yul\":9578:9581   */\n      dup6\n        /* \"#utility.yul\":9560:9582   */\n      tag_177\n      jump\t// in\n    tag_307:\n        /* \"#utility.yul\":9550:9558   */\n      dup4\n        /* \"#utility.yul\":9546:9583   */\n      add\n        /* \"#utility.yul\":9533:9544   */\n      dup3\n        /* \"#utility.yul\":9504:9584   */\n      tag_185\n      jump\t// in\n    tag_306:\n        /* \"#utility.yul\":9163:9594   */\n      pop\n      pop\n        /* \"#utility.yul\":9148:9594   */\n    tag_302:\n        /* \"#utility.yul\":9058:9601   */\n      pop\n      pop\n      pop\n      jump\t// out\n        /* \"#utility.yul\":9607:9724   */\n    tag_187:\n        /* \"#utility.yul\":9661:9669   */\n      0x00\n        /* \"#utility.yul\":9711:9716   */\n      dup3\n        /* \"#utility.yul\":9705:9709   */\n      dup3\n        /* \"#utility.yul\":9701:9717   */\n      shr\n        /* \"#utility.yul\":9680:9717   */\n      swap1\n      pop\n        /* \"#utility.yul\":9607:9724   */\n      swap3\n      swap2\n      pop\n      pop\n      jump\t// out\n        /* \"#utility.yul\":9730:9899   */\n    tag_188:\n        /* \"#utility.yul\":9774:9780   */\n      0x00\n        /* \"#utility.yul\":9807:9858   */\n      tag_310\n        /* \"#utility.yul\":9855:9856   */\n      0x00\n        /* \"#utility.yul\":9851:9857   */\n      not\n        /* \"#utility.yul\":9843:9848   */\n      dup5\n        /* \"#utility.yul\":9840:9841   */\n      0x08\n        /* \"#utility.yul\":9836:9849   */\n      mul\n        /* \"#utility.yul\":9807:9858   */\n      tag_187\n      jump\t// in\n    tag_310:\n        /* \"#utility.yul\":9803:9859   */\n      not\n        /* \"#utility.yul\":9888:9892   */\n      dup1\n        /* \"#utility.yul\":9882:9886   */\n      dup4\n        /* \"#utility.yul\":9878:9893   */\n      and\n        /* \"#utility.yul\":9868:9893   */\n      swap2\n      pop\n        /* \"#utility.yul\":9781:9899   */\n      pop\n        /* \"#utility.yul\":9730:9899   */\n      swap3\n      swap2\n      pop\n      pop\n      jump\t// out\n        /* \"#utility.yul\":9904:10199   */\n    tag_189:\n        /* \"#utility.yul\":9980:9984   */\n      0x00\n        /* \"#utility.yul\":10126:10155   */\n      tag_312\n        /* \"#utility.yul\":10151:10154   */\n      dup4\n        /* \"#utility.yul\":10145:10149   */\n      dup4\n        /* \"#utility.yul\":10126:10155   */\n      tag_188\n      jump\t// in\n    tag_312:\n        /* \"#utility.yul\":10118:10155   */\n      swap2\n      pop\n        /* \"#utility.yul\":10188:10191   */\n      dup3\n        /* \"#utility.yul\":10185:10186   */\n      0x02\n        /* \"#utility.yul\":10181:10192   */\n      mul\n        /* \"#utility.yul\":10175:10179   */\n      dup3\n        /* \"#utility.yul\":10172:10193   */\n      or\n        /* \"#utility.yul\":10164:10193   */\n      swap1\n      pop\n        /* \"#utility.yul\":9904:10199   */\n      swap3\n      swap2\n      pop\n      pop\n      jump\t// out\n        /* \"#utility.yul\":10204:11599   */\n    tag_50:\n        /* \"#utility.yul\":10321:10358   */\n      tag_314\n        /* \"#utility.yul\":10354:10357   */\n      dup3\n        /* \"#utility.yul\":10321:10358   */\n      tag_167\n      jump\t// in\n    tag_314:\n        /* \"#utility.yul\":10423:10441   */\n      0xffffffffffffffff\n        /* \"#utility.yul\":10415:10421   */\n      dup2\n        /* \"#utility.yul\":10412:10442   */\n      gt\n        /* \"#utility.yul\":10409:10465   */\n      iszero\n      tag_315\n      jumpi\n        /* \"#utility.yul\":10445:10463   */\n      tag_316\n      tag_174\n      jump\t// in\n    tag_316:\n        /* \"#utility.yul\":10409:10465   */\n    tag_315:\n        /* \"#utility.yul\":10489:10527   */\n      tag_317\n        /* \"#utility.yul\":10521:10525   */\n      dup3\n        /* \"#utility.yul\":10515:10526   */\n      sload\n        /* \"#utility.yul\":10489:10527   */\n      tag_63\n      jump\t// in\n    tag_317:\n        /* \"#utility.yul\":10574:10641   */\n      tag_318\n        /* \"#utility.yul\":10634:10640   */\n      dup3\n        /* \"#utility.yul\":10626:10632   */\n      dup3\n        /* \"#utility.yul\":10620:10624   */\n      dup6\n        /* \"#utility.yul\":10574:10641   */\n      tag_186\n      jump\t// in\n    tag_318:\n        /* \"#utility.yul\":10668:10669   */\n      0x00\n        /* \"#utility.yul\":10692:10696   */\n      0x20\n        /* \"#utility.yul\":10679:10696   */\n      swap1\n      pop\n        /* \"#utility.yul\":10724:10726   */\n      0x1f\n        /* \"#utility.yul\":10716:10722   */\n      dup4\n        /* \"#utility.yul\":10713:10727   */\n      gt\n        /* \"#utility.yul\":10741:10742   */\n      0x01\n        /* \"#utility.yul\":10736:11354   */\n      dup2\n      eq\n      tag_320\n      jumpi\n        /* \"#utility.yul\":11398:11399   */\n      0x00\n        /* \"#utility.yul\":11415:11421   */\n      dup5\n        /* \"#utility.yul\":11412:11489   */\n      iszero\n      tag_321\n      jumpi\n        /* \"#utility.yul\":11464:11473   */\n      dup3\n        /* \"#utility.yul\":11459:11462   */\n      dup8\n        /* \"#utility.yul\":11455:11474   */\n      add\n        /* \"#utility.yul\":11449:11475   */\n      mload\n        /* \"#utility.yul\":11440:11475   */\n      swap1\n      pop\n        /* \"#utility.yul\":11412:11489   */\n    tag_321:\n        /* \"#utility.yul\":11515:11582   */\n      tag_322\n        /* \"#utility.yul\":11575:11581   */\n      dup6\n        /* \"#utility.yul\":11568:11573   */\n      dup3\n        /* \"#utility.yul\":11515:11582   */\n      tag_189\n      jump\t// in\n    tag_322:\n        /* \"#utility.yul\":11509:11513   */\n      dup7\n        /* \"#utility.yul\":11502:11583   */\n      sstore\n        /* \"#utility.yul\":11371:11593   */\n      pop\n        /* \"#utility.yul\":10706:11593   */\n      jump(tag_319)\n        /* \"#utility.yul\":10736:11354   */\n    tag_320:\n        /* \"#utility.yul\":10788:10792   */\n      0x1f\n        /* \"#utility.yul\":10784:10793   */\n      not\n        /* \"#utility.yul\":10776:10782   */\n      dup5\n        /* \"#utility.yul\":10772:10794   */\n      and\n        /* \"#utility.yul\":10822:10859   */\n      tag_323\n        /* \"#utility.yul\":10854:10858   */\n      dup7\n        /* \"#utility.yul\":10822:10859   */\n      tag_176\n      jump\t// in\n    tag_323:\n        /* \"#utility.yul\":10881:10882   */\n      0x00\n        /* \"#utility.yul\":10895:11103   */\n    tag_324:\n        /* \"#utility.yul\":10909:10916   */\n      dup3\n        /* \"#utility.yul\":10906:10907   */\n      dup2\n        /* \"#utility.yul\":10903:10917   */\n      lt\n        /* \"#utility.yul\":10895:11103   */\n      iszero\n      tag_326\n      jumpi\n        /* \"#utility.yul\":10988:10997   */\n      dup5\n        /* \"#utility.yul\":10983:10986   */\n      dup10\n        /* \"#utility.yul\":10979:10998   */\n      add\n        /* \"#utility.yul\":10973:10999   */\n      mload\n        /* \"#utility.yul\":10965:10971   */\n      dup3\n        /* \"#utility.yul\":10958:11000   */\n      sstore\n        /* \"#utility.yul\":11039:11040   */\n      0x01\n        /* \"#utility.yul\":11031:11037   */\n      dup3\n        /* \"#utility.yul\":11027:11041   */\n      add\n        /* \"#utility.yul\":11017:11041   */\n      swap2\n      pop\n        /* \"#utility.yul\":11086:11088   */\n      0x20\n        /* \"#utility.yul\":11075:11084   */\n      dup6\n        /* \"#utility.yul\":11071:11089   */\n      add\n        /* \"#utility.yul\":11058:11089   */\n      swap5\n      pop\n        /* \"#utility.yul\":10932:10936   */\n      0x20\n        /* \"#utility.yul\":10929:10930   */\n      dup2\n        /* \"#utility.yul\":10925:10937   */\n      add\n        /* \"#utility.yul\":10920:10937   */\n      swap1\n      pop\n        /* \"#utility.yul\":10895:11103   */\n      jump(tag_324)\n    tag_326:\n        /* \"#utility.yul\":11131:11137   */\n      dup7\n        /* \"#utility.yul\":11122:11129   */\n      dup4\n        /* \"#utility.yul\":11119:11138   */\n      lt\n        /* \"#utility.yul\":11116:11295   */\n      iszero\n      tag_327\n      jumpi\n        /* \"#utility.yul\":11189:11198   */\n      dup5\n        /* \"#utility.yul\":11184:11187   */\n      dup10\n        /* \"#utility.yul\":11180:11199   */\n      add\n        /* \"#utility.yul\":11174:11200   */\n      mload\n        /* \"#utility.yul\":11232:11280   */\n      tag_328\n        /* \"#utility.yul\":11274:11278   */\n      0x1f\n        /* \"#utility.yul\":11266:11272   */\n      dup10\n        /* \"#utility.yul\":11262:11279   */\n      and\n        /* \"#utility.yul\":11251:11260   */\n      dup3\n        /* \"#utility.yul\":11232:11280   */\n      tag_188\n      jump\t// in\n    tag_328:\n        /* \"#utility.yul\":11224:11230   */\n      dup4\n        /* \"#utility.yul\":11217:11281   */\n      sstore\n        /* \"#utility.yul\":11139:11295   */\n      pop\n        /* \"#utility.yul\":11116:11295   */\n    tag_327:\n        /* \"#utility.yul\":11341:11342   */\n      0x01\n        /* \"#utility.yul\":11337:11338   */\n      0x02\n        /* \"#utility.yul\":11329:11335   */\n      dup9\n        /* \"#utility.yul\":11325:11339   */\n      mul\n        /* \"#utility.yul\":11321:11343   */\n      add\n        /* \"#utility.yul\":11315:11319   */\n      dup9\n        /* \"#utility.yul\":11308:11344   */\n      sstore\n        /* \"#utility.yul\":10743:11354   */\n      pop\n      pop\n      pop\n        /* \"#utility.yul\":10706:11593   */\n    tag_319:\n      pop\n        /* \"#utility.yul\":10296:11599   */\n      pop\n      pop\n      pop\n        /* \"#utility.yul\":10204:11599   */\n      pop\n      pop\n      jump\t// out\n        /* \"#utility.yul\":11605:12047   */\n    tag_52:\n        /* \"#utility.yul\":11754:11758   */\n      0x00\n        /* \"#utility.yul\":11792:11794   */\n      0x60\n        /* \"#utility.yul\":11781:11790   */\n      dup3\n        /* \"#utility.yul\":11777:11795   */\n      add\n        /* \"#utility.yul\":11769:11795   */\n      swap1\n      pop\n        /* \"#utility.yul\":11805:11876   */\n      tag_330\n        /* \"#utility.yul\":11873:11874   */\n      0x00\n        /* \"#utility.yul\":11862:11871   */\n      dup4\n        /* \"#utility.yul\":11858:11875   */\n      add\n        /* \"#utility.yul\":11849:11855   */\n      dup7\n        /* \"#utility.yul\":11805:11876   */\n      tag_166\n      jump\t// in\n    tag_330:\n        /* \"#utility.yul\":11886:11958   */\n      tag_331\n        /* \"#utility.yul\":11954:11956   */\n      0x20\n        /* \"#utility.yul\":11943:11952   */\n      dup4\n        /* \"#utility.yul\":11939:11957   */\n      add\n        /* \"#utility.yul\":11930:11936   */\n      dup6\n        /* \"#utility.yul\":11886:11958   */\n      tag_166\n      jump\t// in\n    tag_331:\n        /* \"#utility.yul\":11968:12040   */\n      tag_332\n        /* \"#utility.yul\":12036:12038   */\n      0x40\n        /* \"#utility.yul\":12025:12034   */\n      dup4\n        /* \"#utility.yul\":12021:12039   */\n      add\n        /* \"#utility.yul\":12012:12018   */\n      dup5\n        /* \"#utility.yul\":11968:12040   */\n      tag_160\n      jump\t// in\n    tag_332:\n        /* \"#utility.yul\":11605:12047   */\n      swap5\n      swap4\n      pop\n      pop\n      pop\n      pop\n      jump\t// out\n        /* \"#utility.yul\":12053:12143   */\n    tag_190:\n        /* \"#utility.yul\":12087:12094   */\n      0x00\n        /* \"#utility.yul\":12130:12135   */\n      dup2\n        /* \"#utility.yul\":12123:12136   */\n      iszero\n        /* \"#utility.yul\":12116:12137   */\n      iszero\n        /* \"#utility.yul\":12105:12137   */\n      swap1\n      pop\n        /* \"#utility.yul\":12053:12143   */\n      swap2\n      swap1\n      pop\n      jump\t// out\n        /* \"#utility.yul\":12149:12265   */\n    tag_191:\n        /* \"#utility.yul\":12219:12240   */\n      tag_335\n        /* \"#utility.yul\":12234:12239   */\n      dup2\n        /* \"#utility.yul\":12219:12240   */\n      tag_190\n      jump\t// in\n    tag_335:\n        /* \"#utility.yul\":12212:12217   */\n      dup2\n        /* \"#utility.yul\":12209:12241   */\n      eq\n        /* \"#utility.yul\":12199:12259   */\n      tag_336\n      jumpi\n        /* \"#utility.yul\":12255:12256   */\n      0x00\n        /* \"#utility.yul\":12252:12253   */\n      dup1\n        /* \"#utility.yul\":12245:12257   */\n      revert\n        /* \"#utility.yul\":12199:12259   */\n    tag_336:\n        /* \"#utility.yul\":12149:12265   */\n      pop\n      jump\t// out\n        /* \"#utility.yul\":12271:12408   */\n    tag_192:\n        /* \"#utility.yul\":12325:12330   */\n      0x00\n        /* \"#utility.yul\":12356:12362   */\n      dup2\n        /* \"#utility.yul\":12350:12363   */\n      mload\n        /* \"#utility.yul\":12341:12363   */\n      swap1\n      pop\n        /* \"#utility.yul\":12372:12402   */\n      tag_338\n        /* \"#utility.yul\":12396:12401   */\n      dup2\n        /* \"#utility.yul\":12372:12402   */\n      tag_191\n      jump\t// in\n    tag_338:\n        /* \"#utility.yul\":12271:12408   */\n      swap3\n      swap2\n      pop\n      pop\n      jump\t// out\n        /* \"#utility.yul\":12414:12759   */\n    tag_56:\n        /* \"#utility.yul\":12481:12487   */\n      0x00\n        /* \"#utility.yul\":12530:12532   */\n      0x20\n        /* \"#utility.yul\":12518:12527   */\n      dup3\n        /* \"#utility.yul\":12509:12516   */\n      dup5\n        /* \"#utility.yul\":12505:12528   */\n      sub\n        /* \"#utility.yul\":12501:12533   */\n      slt\n        /* \"#utility.yul\":12498:12617   */\n      iszero\n      tag_340\n      jumpi\n        /* \"#utility.yul\":12536:12615   */\n      tag_341\n      tag_150\n      jump\t// in\n    tag_341:\n        /* \"#utility.yul\":12498:12617   */\n    tag_340:\n        /* \"#utility.yul\":12656:12657   */\n      0x00\n        /* \"#utility.yul\":12681:12742   */\n      tag_342\n        /* \"#utility.yul\":12734:12741   */\n      dup5\n        /* \"#utility.yul\":12725:12731   */\n      dup3\n        /* \"#utility.yul\":12714:12723   */\n      dup6\n        /* \"#utility.yul\":12710:12732   */\n      add\n        /* \"#utility.yul\":12681:12742   */\n      tag_192\n      jump\t// in\n    tag_342:\n        /* \"#utility.yul\":12671:12742   */\n      swap2\n      pop\n        /* \"#utility.yul\":12627:12752   */\n      pop\n        /* \"#utility.yul\":12414:12759   */\n      swap3\n      swap2\n      pop\n      pop\n      jump\t// out\n        /* \"#utility.yul\":12765:12945   */\n    tag_60:\n        /* \"#utility.yul\":12813:12890   */\n      0x4e487b7100000000000000000000000000000000000000000000000000000000\n        /* \"#utility.yul\":12810:12811   */\n      0x00\n        /* \"#utility.yul\":12803:12891   */\n      mstore\n        /* \"#utility.yul\":12910:12914   */\n      0x32\n        /* \"#utility.yul\":12907:12908   */\n      0x04\n        /* \"#utility.yul\":12900:12915   */\n      mstore\n        /* \"#utility.yul\":12934:12938   */\n      0x24\n        /* \"#utility.yul\":12931:12932   */\n      0x00\n        /* \"#utility.yul\":12924:12939   */\n      revert\n        /* \"#utility.yul\":12951:13173   */\n    tag_69:\n        /* \"#utility.yul\":13044:13048   */\n      0x00\n        /* \"#utility.yul\":13082:13084   */\n      0x20\n        /* \"#utility.yul\":13071:13080   */\n      dup3\n        /* \"#utility.yul\":13067:13085   */\n      add\n        /* \"#utility.yul\":13059:13085   */\n      swap1\n      pop\n        /* \"#utility.yul\":13095:13166   */\n      tag_345\n        /* \"#utility.yul\":13163:13164   */\n      0x00\n        /* \"#utility.yul\":13152:13161   */\n      dup4\n        /* \"#utility.yul\":13148:13165   */\n      add\n        /* \"#utility.yul\":13139:13145   */\n      dup5\n        /* \"#utility.yul\":13095:13166   */\n      tag_166\n      jump\t// in\n    tag_345:\n        /* \"#utility.yul\":12951:13173   */\n      swap3\n      swap2\n      pop\n      pop\n      jump\t// out\n        /* \"#utility.yul\":13179:13322   */\n    tag_193:\n        /* \"#utility.yul\":13236:13241   */\n      0x00\n        /* \"#utility.yul\":13267:13273   */\n      dup2\n        /* \"#utility.yul\":13261:13274   */\n      mload\n        /* \"#utility.yul\":13252:13274   */\n      swap1\n      pop\n        /* \"#utility.yul\":13283:13316   */\n      tag_347\n        /* \"#utility.yul\":13310:13315   */\n      dup2\n        /* \"#utility.yul\":13283:13316   */\n      tag_153\n      jump\t// in\n    tag_347:\n        /* \"#utility.yul\":13179:13322   */\n      swap3\n      swap2\n      pop\n      pop\n      jump\t// out\n        /* \"#utility.yul\":13328:13679   */\n    tag_73:\n        /* \"#utility.yul\":13398:13404   */\n      0x00\n        /* \"#utility.yul\":13447:13449   */\n      0x20\n        /* \"#utility.yul\":13435:13444   */\n      dup3\n        /* \"#utility.yul\":13426:13433   */\n      dup5\n        /* \"#utility.yul\":13422:13445   */\n      sub\n        /* \"#utility.yul\":13418:13450   */\n      slt\n        /* \"#utility.yul\":13415:13534   */\n      iszero\n      tag_349\n      jumpi\n        /* \"#utility.yul\":13453:13532   */\n      tag_350\n      tag_150\n      jump\t// in\n    tag_350:\n        /* \"#utility.yul\":13415:13534   */\n    tag_349:\n        /* \"#utility.yul\":13573:13574   */\n      0x00\n        /* \"#utility.yul\":13598:13662   */\n      tag_351\n        /* \"#utility.yul\":13654:13661   */\n      dup5\n        /* \"#utility.yul\":13645:13651   */\n      dup3\n        /* \"#utility.yul\":13634:13643   */\n      dup6\n        /* \"#utility.yul\":13630:13652   */\n      add\n        /* \"#utility.yul\":13598:13662   */\n      tag_193\n      jump\t// in\n    tag_351:\n        /* \"#utility.yul\":13588:13662   */\n      swap2\n      pop\n        /* \"#utility.yul\":13544:13672   */\n      pop\n        /* \"#utility.yul\":13328:13679   */\n      swap3\n      swap2\n      pop\n      pop\n      jump\t// out\n        /* \"#utility.yul\":13685:13862   */\n    tag_194:\n        /* \"#utility.yul\":13825:13854   */\n      0x4f666572746120646576652065737461722070656e64656e74652e0000000000\n        /* \"#utility.yul\":13821:13822   */\n      0x00\n        /* \"#utility.yul\":13813:13819   */\n      dup3\n        /* \"#utility.yul\":13809:13823   */\n      add\n        /* \"#utility.yul\":13802:13855   */\n      mstore\n        /* \"#utility.yul\":13685:13862   */\n      pop\n      jump\t// out\n        /* \"#utility.yul\":13868:14234   */\n    tag_195:\n        /* \"#utility.yul\":14010:14013   */\n      0x00\n        /* \"#utility.yul\":14031:14098   */\n      tag_354\n        /* \"#utility.yul\":14095:14097   */\n      0x1b\n        /* \"#utility.yul\":14090:14093   */\n      dup4\n        /* \"#utility.yul\":14031:14098   */\n      tag_168\n      jump\t// in\n    tag_354:\n        /* \"#utility.yul\":14024:14098   */\n      swap2\n      pop\n        /* \"#utility.yul\":14107:14200   */\n      tag_355\n        /* \"#utility.yul\":14196:14199   */\n      dup3\n        /* \"#utility.yul\":14107:14200   */\n      tag_194\n      jump\t// in\n    tag_355:\n        /* \"#utility.yul\":14225:14227   */\n      0x20\n        /* \"#utility.yul\":14220:14223   */\n      dup3\n        /* \"#utility.yul\":14216:14228   */\n      add\n        /* \"#utility.yul\":14209:14228   */\n      swap1\n      pop\n        /* \"#utility.yul\":13868:14234   */\n      swap2\n      swap1\n      pop\n      jump\t// out\n        /* \"#utility.yul\":14240:14659   */\n    tag_95:\n        /* \"#utility.yul\":14406:14410   */\n      0x00\n        /* \"#utility.yul\":14444:14446   */\n      0x20\n        /* \"#utility.yul\":14433:14442   */\n      dup3\n        /* \"#utility.yul\":14429:14447   */\n      add\n        /* \"#utility.yul\":14421:14447   */\n      swap1\n      pop\n        /* \"#utility.yul\":14493:14502   */\n      dup2\n        /* \"#utility.yul\":14487:14491   */\n      dup2\n        /* \"#utility.yul\":14483:14503   */\n      sub\n        /* \"#utility.yul\":14479:14480   */\n      0x00\n        /* \"#utility.yul\":14468:14477   */\n      dup4\n        /* \"#utility.yul\":14464:14481   */\n      add\n        /* \"#utility.yul\":14457:14504   */\n      mstore\n        /* \"#utility.yul\":14521:14652   */\n      tag_357\n        /* \"#utility.yul\":14647:14651   */\n      dup2\n        /* \"#utility.yul\":14521:14652   */\n      tag_195\n      jump\t// in\n    tag_357:\n        /* \"#utility.yul\":14513:14652   */\n      swap1\n      pop\n        /* \"#utility.yul\":14240:14659   */\n      swap2\n      swap1\n      pop\n      jump\t// out\n        /* \"#utility.yul\":14665:14997   */\n    tag_101:\n        /* \"#utility.yul\":14786:14790   */\n      0x00\n        /* \"#utility.yul\":14824:14826   */\n      0x40\n        /* \"#utility.yul\":14813:14822   */\n      dup3\n        /* \"#utility.yul\":14809:14827   */\n      add\n        /* \"#utility.yul\":14801:14827   */\n      swap1\n      pop\n        /* \"#utility.yul\":14837:14908   */\n      tag_359\n        /* \"#utility.yul\":14905:14906   */\n      0x00\n        /* \"#utility.yul\":14894:14903   */\n      dup4\n        /* \"#utility.yul\":14890:14907   */\n      add\n        /* \"#utility.yul\":14881:14887   */\n      dup6\n        /* \"#utility.yul\":14837:14908   */\n      tag_166\n      jump\t// in\n    tag_359:\n        /* \"#utility.yul\":14918:14990   */\n      tag_360\n        /* \"#utility.yul\":14986:14988   */\n      0x20\n        /* \"#utility.yul\":14975:14984   */\n      dup4\n        /* \"#utility.yul\":14971:14989   */\n      add\n        /* \"#utility.yul\":14962:14968   */\n      dup5\n        /* \"#utility.yul\":14918:14990   */\n      tag_160\n      jump\t// in\n    tag_360:\n        /* \"#utility.yul\":14665:14997   */\n      swap4\n      swap3\n      pop\n      pop\n      pop\n      jump\t// out\n        /* \"#utility.yul\":15003:15151   */\n    tag_196:\n        /* \"#utility.yul\":15105:15116   */\n      0x00\n        /* \"#utility.yul\":15142:15145   */\n      dup2\n        /* \"#utility.yul\":15127:15145   */\n      swap1\n      pop\n        /* \"#utility.yul\":15003:15151   */\n      swap3\n      swap2\n      pop\n      pop\n      jump\t// out\n        /* \"#utility.yul\":15157:15547   */\n    tag_197:\n        /* \"#utility.yul\":15263:15266   */\n      0x00\n        /* \"#utility.yul\":15291:15330   */\n      tag_363\n        /* \"#utility.yul\":15324:15329   */\n      dup3\n        /* \"#utility.yul\":15291:15330   */\n      tag_167\n      jump\t// in\n    tag_363:\n        /* \"#utility.yul\":15346:15435   */\n      tag_364\n        /* \"#utility.yul\":15428:15434   */\n      dup2\n        /* \"#utility.yul\":15423:15426   */\n      dup6\n        /* \"#utility.yul\":15346:15435   */\n      tag_196\n      jump\t// in\n    tag_364:\n        /* \"#utility.yul\":15339:15435   */\n      swap4\n      pop\n        /* \"#utility.yul\":15444:15509   */\n      tag_365\n        /* \"#utility.yul\":15502:15508   */\n      dup2\n        /* \"#utility.yul\":15497:15500   */\n      dup6\n        /* \"#utility.yul\":15490:15494   */\n      0x20\n        /* \"#utility.yul\":15483:15488   */\n      dup7\n        /* \"#utility.yul\":15479:15495   */\n      add\n        /* \"#utility.yul\":15444:15509   */\n      tag_169\n      jump\t// in\n    tag_365:\n        /* \"#utility.yul\":15534:15540   */\n      dup1\n        /* \"#utility.yul\":15529:15532   */\n      dup5\n        /* \"#utility.yul\":15525:15541   */\n      add\n        /* \"#utility.yul\":15518:15541   */\n      swap2\n      pop\n        /* \"#utility.yul\":15267:15547   */\n      pop\n        /* \"#utility.yul\":15157:15547   */\n      swap3\n      swap2\n      pop\n      pop\n      jump\t// out\n        /* \"#utility.yul\":15553:15828   */\n    tag_148:\n        /* \"#utility.yul\":15685:15688   */\n      0x00\n        /* \"#utility.yul\":15707:15802   */\n      tag_367\n        /* \"#utility.yul\":15798:15801   */\n      dup3\n        /* \"#utility.yul\":15789:15795   */\n      dup5\n        /* \"#utility.yul\":15707:15802   */\n      tag_197\n      jump\t// in\n    tag_367:\n        /* \"#utility.yul\":15700:15802   */\n      swap2\n      pop\n        /* \"#utility.yul\":15819:15822   */\n      dup2\n        /* \"#utility.yul\":15812:15822   */\n      swap1\n      pop\n        /* \"#utility.yul\":15553:15828   */\n      swap3\n      swap2\n      pop\n      pop\n      jump\t// out\n\n    auxdata: 0xa2646970667358221220712be36f37f181ac35c4bc896cd206ce11d8e141132afef65163a8690a6a6e8864736f6c63430008160033\n}\n",
				"bytecode": {
					"linkReferences": {},
					"object": "608060405234801561000f575f80fd5b50611ba48061001d5f395ff3fe60806040526004361061006f575f3560e01c80638a72ea6a1161004d5780638a72ea6a14610101578063c815729d14610142578063e324869b1461015e578063ef706adf1461019a5761006f565b806319b8f993146100735780631f6bb8e01461009b57806373c2dc12146100d7575b5f80fd5b34801561007e575f80fd5b506100996004803603810190610094919061140f565b6101c2565b005b3480156100a6575f80fd5b506100c160048036038101906100bc9190611473565b61044f565b6040516100ce91906114ad565b60405180910390f35b3480156100e2575f80fd5b506100eb6106a3565b6040516100f891906114ad565b60405180910390f35b34801561010c575f80fd5b5061012760048036038101906101229190611473565b6106ae565b604051610139969594939291906115ba565b60405180910390f35b61015c60048036038101906101579190611473565b6107d7565b005b348015610169575f80fd5b50610184600480360381019061017f9190611473565b610d1e565b60405161019191906114ad565b60405180910390f35b3480156101a5575f80fd5b506101c060048036038101906101bb9190611473565b610f72565b005b5f8403610204576040517f08c379a00000000000000000000000000000000000000000000000000000000081526004016101fb9061166a565b60405180910390fd5b5f6040518060c001604052808681526020018573ffffffffffffffffffffffffffffffffffffffff1681526020013373ffffffffffffffffffffffffffffffffffffffff1681526020018481526020018373ffffffffffffffffffffffffffffffffffffffff1681526020016040518060400160405280600781526020017f50454e44494e4700000000000000000000000000000000000000000000000000815250815250908060018154018082558091505060019003905f5260205f2090600602015f909190919091505f820151815f01556020820151816001015f6101000a81548173ffffffffffffffffffffffffffffffffffffffff021916908373ffffffffffffffffffffffffffffffffffffffff1602179055506040820151816002015f6101000a81548173ffffffffffffffffffffffffffffffffffffffff021916908373ffffffffffffffffffffffffffffffffffffffff160217905550606082015181600301556080820151816004015f6101000a81548173ffffffffffffffffffffffffffffffffffffffff021916908373ffffffffffffffffffffffffffffffffffffffff16021790555060a08201518160050190816103c891906118a6565b5050508273ffffffffffffffffffffffffffffffffffffffff166323b872dd3330876040518463ffffffff1660e01b815260040161040893929190611975565b6020604051808303815f875af1158015610424573d5f803e3d5ffd5b505050506040513d601f19601f8201168201806040525081019061044891906119df565b5050505050565b5f805f838154811061046457610463611a0a565b5b905f5260205f2090600602016040518060c00160405290815f8201548152602001600182015f9054906101000a900473ffffffffffffffffffffffffffffffffffffffff1673ffffffffffffffffffffffffffffffffffffffff1673ffffffffffffffffffffffffffffffffffffffff168152602001600282015f9054906101000a900473ffffffffffffffffffffffffffffffffffffffff1673ffffffffffffffffffffffffffffffffffffffff1673ffffffffffffffffffffffffffffffffffffffff16815260200160038201548152602001600482015f9054906101000a900473ffffffffffffffffffffffffffffffffffffffff1673ffffffffffffffffffffffffffffffffffffffff1673ffffffffffffffffffffffffffffffffffffffff16815260200160058201805461059d906116e2565b80601f01602080910402602001604051908101604052809291908181526020018280546105c9906116e2565b80156106145780601f106105eb57610100808354040283529160200191610614565b820191905f5260205f20905b8154815290600101906020018083116105f757829003601f168201915b5050505050815250509050806080015173ffffffffffffffffffffffffffffffffffffffff166370a08231336040518263ffffffff1660e01b815260040161065c9190611a37565b602060405180830381865afa158015610677573d5f803e3d5ffd5b505050506040513d601f19601f8201168201806040525081019061069b9190611a64565b915050919050565b5f8080549050905090565b5f81815481106106bc575f80fd5b905f5260205f2090600602015f91509050805f015490806001015f9054906101000a900473ffffffffffffffffffffffffffffffffffffffff1690806002015f9054906101000a900473ffffffffffffffffffffffffffffffffffffffff1690806003015490806004015f9054906101000a900473ffffffffffffffffffffffffffffffffffffffff1690806005018054610756906116e2565b80601f0160208091040260200160405190810160405280929190818152602001828054610782906116e2565b80156107cd5780601f106107a4576101008083540402835291602001916107cd565b820191905f5260205f20905b8154815290600101906020018083116107b057829003601f168201915b5050505050905086565b5f8082815481106107eb576107ea611a0a565b5b905f5260205f2090600602016040518060c00160405290815f8201548152602001600182015f9054906101000a900473ffffffffffffffffffffffffffffffffffffffff1673ffffffffffffffffffffffffffffffffffffffff1673ffffffffffffffffffffffffffffffffffffffff168152602001600282015f9054906101000a900473ffffffffffffffffffffffffffffffffffffffff1673ffffffffffffffffffffffffffffffffffffffff1673ffffffffffffffffffffffffffffffffffffffff16815260200160038201548152602001600482015f9054906101000a900473ffffffffffffffffffffffffffffffffffffffff1673ffffffffffffffffffffffffffffffffffffffff1673ffffffffffffffffffffffffffffffffffffffff168152602001600582018054610924906116e2565b80601f0160208091040260200160405190810160405280929190818152602001828054610950906116e2565b801561099b5780601f106109725761010080835404028352916020019161099b565b820191905f5260205f20905b81548152906001019060200180831161097e57829003601f168201915b50505050508152505090506109e98160a001516040518060400160405280600781526020017f50454e44494e4700000000000000000000000000000000000000000000000000815250611322565b610a28576040517f08c379a0000000000000000000000000000000000000000000000000000000008152600401610a1f90611ad9565b60405180910390fd5b6040518060400160405280600881526020017f41434345505445440000000000000000000000000000000000000000000000008152508160a001819052505f816020015190505f826080015190508073ffffffffffffffffffffffffffffffffffffffff166323b872dd333086606001516040518463ffffffff1660e01b8152600401610ab793929190611975565b6020604051808303815f875af1158015610ad3573d5f803e3d5ffd5b505050506040513d601f19601f82011682018060405250810190610af791906119df565b508173ffffffffffffffffffffffffffffffffffffffff1663a9059cbb33855f01516040518363ffffffff1660e01b8152600401610b36929190611af7565b6020604051808303815f875af1158015610b52573d5f803e3d5ffd5b505050506040513d601f19601f82011682018060405250810190610b7691906119df565b508073ffffffffffffffffffffffffffffffffffffffff1663a9059cbb846040015185606001516040518363ffffffff1660e01b8152600401610bba929190611af7565b6020604051808303815f875af1158015610bd6573d5f803e3d5ffd5b505050506040513d601f19601f82011682018060405250810190610bfa91906119df565b50825f8581548110610c0f57610c0e611a0a565b5b905f5260205f2090600602015f820151815f01556020820151816001015f6101000a81548173ffffffffffffffffffffffffffffffffffffffff021916908373ffffffffffffffffffffffffffffffffffffffff1602179055506040820151816002015f6101000a81548173ffffffffffffffffffffffffffffffffffffffff021916908373ffffffffffffffffffffffffffffffffffffffff160217905550606082015181600301556080820151816004015f6101000a81548173ffffffffffffffffffffffffffffffffffffffff021916908373ffffffffffffffffffffffffffffffffffffffff16021790555060a0820151816005019081610d1491906118a6565b5090505050505050565b5f805f8381548110610d3357610d32611a0a565b5b905f5260205f2090600602016040518060c00160405290815f8201548152602001600182015f9054906101000a900473ffffffffffffffffffffffffffffffffffffffff1673ffffffffffffffffffffffffffffffffffffffff1673ffffffffffffffffffffffffffffffffffffffff168152602001600282015f9054906101000a900473ffffffffffffffffffffffffffffffffffffffff1673ffffffffffffffffffffffffffffffffffffffff1673ffffffffffffffffffffffffffffffffffffffff16815260200160038201548152602001600482015f9054906101000a900473ffffffffffffffffffffffffffffffffffffffff1673ffffffffffffffffffffffffffffffffffffffff1673ffffffffffffffffffffffffffffffffffffffff168152602001600582018054610e6c906116e2565b80601f0160208091040260200160405190810160405280929190818152602001828054610e98906116e2565b8015610ee35780601f10610eba57610100808354040283529160200191610ee3565b820191905f5260205f20905b815481529060010190602001808311610ec657829003601f168201915b5050505050815250509050806020015173ffffffffffffffffffffffffffffffffffffffff166370a08231336040518263ffffffff1660e01b8152600401610f2b9190611a37565b602060405180830381865afa158015610f46573d5f803e3d5ffd5b505050506040513d601f19601f82011682018060405250810190610f6a9190611a64565b915050919050565b5f808281548110610f8657610f85611a0a565b5b905f5260205f2090600602016040518060c00160405290815f8201548152602001600182015f9054906101000a900473ffffffffffffffffffffffffffffffffffffffff1673ffffffffffffffffffffffffffffffffffffffff1673ffffffffffffffffffffffffffffffffffffffff168152602001600282015f9054906101000a900473ffffffffffffffffffffffffffffffffffffffff1673ffffffffffffffffffffffffffffffffffffffff1673ffffffffffffffffffffffffffffffffffffffff16815260200160038201548152602001600482015f9054906101000a900473ffffffffffffffffffffffffffffffffffffffff1673ffffffffffffffffffffffffffffffffffffffff1673ffffffffffffffffffffffffffffffffffffffff1681526020016005820180546110bf906116e2565b80601f01602080910402602001604051908101604052809291908181526020018280546110eb906116e2565b80156111365780601f1061110d57610100808354040283529160200191611136565b820191905f5260205f20905b81548152906001019060200180831161111957829003601f168201915b50505050508152505090506111848160a001516040518060400160405280600781526020017f50454e44494e4700000000000000000000000000000000000000000000000000815250611322565b6111c3576040517f08c379a00000000000000000000000000000000000000000000000000000000081526004016111ba90611ad9565b60405180910390fd5b6040518060400160405280600881526020017f43414e43454c45440000000000000000000000000000000000000000000000008152508160a00181905250805f838154811061121557611214611a0a565b5b905f5260205f2090600602015f820151815f01556020820151816001015f6101000a81548173ffffffffffffffffffffffffffffffffffffffff021916908373ffffffffffffffffffffffffffffffffffffffff1602179055506040820151816002015f6101000a81548173ffffffffffffffffffffffffffffffffffffffff021916908373ffffffffffffffffffffffffffffffffffffffff160217905550606082015181600301556080820151816004015f6101000a81548173ffffffffffffffffffffffffffffffffffffffff021916908373ffffffffffffffffffffffffffffffffffffffff16021790555060a082015181600501908161131a91906118a6565b509050505050565b5f61132c8261133e565b6113358461133e565b14905092915050565b5f816040516020016113509190611b58565b604051602081830303815290604052805190602001209050919050565b5f80fd5b5f819050919050565b61138381611371565b811461138d575f80fd5b50565b5f8135905061139e8161137a565b92915050565b5f73ffffffffffffffffffffffffffffffffffffffff82169050919050565b5f6113cd826113a4565b9050919050565b5f6113de826113c3565b9050919050565b6113ee816113d4565b81146113f8575f80fd5b50565b5f81359050611409816113e5565b92915050565b5f805f80608085870312156114275761142661136d565b5b5f61143487828801611390565b9450506020611445878288016113fb565b935050604061145687828801611390565b9250506060611467878288016113fb565b91505092959194509250565b5f602082840312156114885761148761136d565b5b5f61149584828501611390565b91505092915050565b6114a781611371565b82525050565b5f6020820190506114c05f83018461149e565b92915050565b5f819050919050565b5f6114e96114e46114df846113a4565b6114c6565b6113a4565b9050919050565b5f6114fa826114cf565b9050919050565b5f61150b826114f0565b9050919050565b61151b81611501565b82525050565b61152a816113c3565b82525050565b5f81519050919050565b5f82825260208201905092915050565b5f5b8381101561156757808201518184015260208101905061154c565b5f8484015250505050565b5f601f19601f8301169050919050565b5f61158c82611530565b611596818561153a565b93506115a681856020860161154a565b6115af81611572565b840191505092915050565b5f60c0820190506115cd5f83018961149e565b6115da6020830188611512565b6115e76040830187611521565b6115f4606083018661149e565b6116016080830185611512565b81810360a08301526116138184611582565b9050979650505050505050565b7f4ec3a36f20706f646520736572207a65726f00000000000000000000000000005f82015250565b5f61165460128361153a565b915061165f82611620565b602082019050919050565b5f6020820190508181035f83015261168181611648565b9050919050565b7f4e487b71000000000000000000000000000000000000000000000000000000005f52604160045260245ffd5b7f4e487b71000000000000000000000000000000000000000000000000000000005f52602260045260245ffd5b5f60028204905060018216806116f957607f821691505b60208210810361170c5761170b6116b5565b5b50919050565b5f819050815f5260205f209050919050565b5f6020601f8301049050919050565b5f82821b905092915050565b5f6008830261176e7fffffffffffffffffffffffffffffffffffffffffffffffffffffffffffffffff82611733565b6117788683611733565b95508019841693508086168417925050509392505050565b5f6117aa6117a56117a084611371565b6114c6565b611371565b9050919050565b5f819050919050565b6117c383611790565b6117d76117cf826117b1565b84845461173f565b825550505050565b5f90565b6117eb6117df565b6117f68184846117ba565b505050565b5b818110156118195761180e5f826117e3565b6001810190506117fc565b5050565b601f82111561185e5761182f81611712565b61183884611724565b81016020851015611847578190505b61185b61185385611724565b8301826117fb565b50505b505050565b5f82821c905092915050565b5f61187e5f1984600802611863565b1980831691505092915050565b5f611896838361186f565b9150826002028217905092915050565b6118af82611530565b67ffffffffffffffff8111156118c8576118c7611688565b5b6118d282546116e2565b6118dd82828561181d565b5f60209050601f83116001811461190e575f84156118fc578287015190505b611906858261188b565b86555061196d565b601f19841661191c86611712565b5f5b828110156119435784890151825560018201915060208501945060208101905061191e565b86831015611960578489015161195c601f89168261186f565b8355505b6001600288020188555050505b505050505050565b5f6060820190506119885f830186611521565b6119956020830185611521565b6119a2604083018461149e565b949350505050565b5f8115159050919050565b6119be816119aa565b81146119c8575f80fd5b50565b5f815190506119d9816119b5565b92915050565b5f602082840312156119f4576119f361136d565b5b5f611a01848285016119cb565b91505092915050565b7f4e487b71000000000000000000000000000000000000000000000000000000005f52603260045260245ffd5b5f602082019050611a4a5f830184611521565b92915050565b5f81519050611a5e8161137a565b92915050565b5f60208284031215611a7957611a7861136d565b5b5f611a8684828501611a50565b91505092915050565b7f4f666572746120646576652065737461722070656e64656e74652e00000000005f82015250565b5f611ac3601b8361153a565b9150611ace82611a8f565b602082019050919050565b5f6020820190508181035f830152611af081611ab7565b9050919050565b5f604082019050611b0a5f830185611521565b611b17602083018461149e565b9392505050565b5f81905092915050565b5f611b3282611530565b611b3c8185611b1e565b9350611b4c81856020860161154a565b80840191505092915050565b5f611b638284611b28565b91508190509291505056fea2646970667358221220712be36f37f181ac35c4bc896cd206ce11d8e141132afef65163a8690a6a6e8864736f6c63430008160033",
					"opcodes": "PUSH1 0x80 PUSH1 0x40 MSTORE CALLVALUE DUP1 ISZERO PUSH2 0xF JUMPI PUSH0 DUP1 REVERT JUMPDEST POP PUSH2 0x1BA4 DUP1 PUSH2 0x1D PUSH0 CODECOPY PUSH0 RETURN INVALID PUSH1 0x80 PUSH1 0x40 MSTORE PUSH1 0x4 CALLDATASIZE LT PUSH2 0x6F JUMPI PUSH0 CALLDATALOAD PUSH1 0xE0 SHR DUP1 PUSH4 0x8A72EA6A GT PUSH2 0x4D JUMPI DUP1 PUSH4 0x8A72EA6A EQ PUSH2 0x101 JUMPI DUP1 PUSH4 0xC815729D EQ PUSH2 0x142 JUMPI DUP1 PUSH4 0xE324869B EQ PUSH2 0x15E JUMPI DUP1 PUSH4 0xEF706ADF EQ PUSH2 0x19A JUMPI PUSH2 0x6F JUMP JUMPDEST DUP1 PUSH4 0x19B8F993 EQ PUSH2 0x73 JUMPI DUP1 PUSH4 0x1F6BB8E0 EQ PUSH2 0x9B JUMPI DUP1 PUSH4 0x73C2DC12 EQ PUSH2 0xD7 JUMPI JUMPDEST PUSH0 DUP1 REVERT JUMPDEST CALLVALUE DUP1 ISZERO PUSH2 0x7E JUMPI PUSH0 DUP1 REVERT JUMPDEST POP PUSH2 0x99 PUSH1 0x4 DUP1 CALLDATASIZE SUB DUP2 ADD SWAP1 PUSH2 0x94 SWAP2 SWAP1 PUSH2 0x140F JUMP JUMPDEST PUSH2 0x1C2 JUMP JUMPDEST STOP JUMPDEST CALLVALUE DUP1 ISZERO PUSH2 0xA6 JUMPI PUSH0 DUP1 REVERT JUMPDEST POP PUSH2 0xC1 PUSH1 0x4 DUP1 CALLDATASIZE SUB DUP2 ADD SWAP1 PUSH2 0xBC SWAP2 SWAP1 PUSH2 0x1473 JUMP JUMPDEST PUSH2 0x44F JUMP JUMPDEST PUSH1 0x40 MLOAD PUSH2 0xCE SWAP2 SWAP1 PUSH2 0x14AD JUMP JUMPDEST PUSH1 0x40 MLOAD DUP1 SWAP2 SUB SWAP1 RETURN JUMPDEST CALLVALUE DUP1 ISZERO PUSH2 0xE2 JUMPI PUSH0 DUP1 REVERT JUMPDEST POP PUSH2 0xEB PUSH2 0x6A3 JUMP JUMPDEST PUSH1 0x40 MLOAD PUSH2 0xF8 SWAP2 SWAP1 PUSH2 0x14AD JUMP JUMPDEST PUSH1 0x40 MLOAD DUP1 SWAP2 SUB SWAP1 RETURN JUMPDEST CALLVALUE DUP1 ISZERO PUSH2 0x10C JUMPI PUSH0 DUP1 REVERT JUMPDEST POP PUSH2 0x127 PUSH1 0x4 DUP1 CALLDATASIZE SUB DUP2 ADD SWAP1 PUSH2 0x122 SWAP2 SWAP1 PUSH2 0x1473 JUMP JUMPDEST PUSH2 0x6AE JUMP JUMPDEST PUSH1 0x40 MLOAD PUSH2 0x139 SWAP7 SWAP6 SWAP5 SWAP4 SWAP3 SWAP2 SWAP1 PUSH2 0x15BA JUMP JUMPDEST PUSH1 0x40 MLOAD DUP1 SWAP2 SUB SWAP1 RETURN JUMPDEST PUSH2 0x15C PUSH1 0x4 DUP1 CALLDATASIZE SUB DUP2 ADD SWAP1 PUSH2 0x157 SWAP2 SWAP1 PUSH2 0x1473 JUMP JUMPDEST PUSH2 0x7D7 JUMP JUMPDEST STOP JUMPDEST CALLVALUE DUP1 ISZERO PUSH2 0x169 JUMPI PUSH0 DUP1 REVERT JUMPDEST POP PUSH2 0x184 PUSH1 0x4 DUP1 CALLDATASIZE SUB DUP2 ADD SWAP1 PUSH2 0x17F SWAP2 SWAP1 PUSH2 0x1473 JUMP JUMPDEST PUSH2 0xD1E JUMP JUMPDEST PUSH1 0x40 MLOAD PUSH2 0x191 SWAP2 SWAP1 PUSH2 0x14AD JUMP JUMPDEST PUSH1 0x40 MLOAD DUP1 SWAP2 SUB SWAP1 RETURN JUMPDEST CALLVALUE DUP1 ISZERO PUSH2 0x1A5 JUMPI PUSH0 DUP1 REVERT JUMPDEST POP PUSH2 0x1C0 PUSH1 0x4 DUP1 CALLDATASIZE SUB DUP2 ADD SWAP1 PUSH2 0x1BB SWAP2 SWAP1 PUSH2 0x1473 JUMP JUMPDEST PUSH2 0xF72 JUMP JUMPDEST STOP JUMPDEST PUSH0 DUP5 SUB PUSH2 0x204 JUMPI PUSH1 0x40 MLOAD PUSH32 0x8C379A000000000000000000000000000000000000000000000000000000000 DUP2 MSTORE PUSH1 0x4 ADD PUSH2 0x1FB SWAP1 PUSH2 0x166A JUMP JUMPDEST PUSH1 0x40 MLOAD DUP1 SWAP2 SUB SWAP1 REVERT JUMPDEST PUSH0 PUSH1 0x40 MLOAD DUP1 PUSH1 0xC0 ADD PUSH1 0x40 MSTORE DUP1 DUP7 DUP2 MSTORE PUSH1 0x20 ADD DUP6 PUSH20 0xFFFFFFFFFFFFFFFFFFFFFFFFFFFFFFFFFFFFFFFF AND DUP2 MSTORE PUSH1 0x20 ADD CALLER PUSH20 0xFFFFFFFFFFFFFFFFFFFFFFFFFFFFFFFFFFFFFFFF AND DUP2 MSTORE PUSH1 0x20 ADD DUP5 DUP2 MSTORE PUSH1 0x20 ADD DUP4 PUSH20 0xFFFFFFFFFFFFFFFFFFFFFFFFFFFFFFFFFFFFFFFF AND DUP2 MSTORE PUSH1 0x20 ADD PUSH1 0x40 MLOAD DUP1 PUSH1 0x40 ADD PUSH1 0x40 MSTORE DUP1 PUSH1 0x7 DUP2 MSTORE PUSH1 0x20 ADD PUSH32 0x50454E44494E4700000000000000000000000000000000000000000000000000 DUP2 MSTORE POP DUP2 MSTORE POP SWAP1 DUP1 PUSH1 0x1 DUP2 SLOAD ADD DUP1 DUP3 SSTORE DUP1 SWAP2 POP POP PUSH1 0x1 SWAP1 SUB SWAP1 PUSH0 MSTORE PUSH1 0x20 PUSH0 KECCAK256 SWAP1 PUSH1 0x6 MUL ADD PUSH0 SWAP1 SWAP2 SWAP1 SWAP2 SWAP1 SWAP2 POP PUSH0 DUP3 ADD MLOAD DUP2 PUSH0 ADD SSTORE PUSH1 0x20 DUP3 ADD MLOAD DUP2 PUSH1 0x1 ADD PUSH0 PUSH2 0x100 EXP DUP2 SLOAD DUP2 PUSH20 0xFFFFFFFFFFFFFFFFFFFFFFFFFFFFFFFFFFFFFFFF MUL NOT AND SWAP1 DUP4 PUSH20 0xFFFFFFFFFFFFFFFFFFFFFFFFFFFFFFFFFFFFFFFF AND MUL OR SWAP1 SSTORE POP PUSH1 0x40 DUP3 ADD MLOAD DUP2 PUSH1 0x2 ADD PUSH0 PUSH2 0x100 EXP DUP2 SLOAD DUP2 PUSH20 0xFFFFFFFFFFFFFFFFFFFFFFFFFFFFFFFFFFFFFFFF MUL NOT AND SWAP1 DUP4 PUSH20 0xFFFFFFFFFFFFFFFFFFFFFFFFFFFFFFFFFFFFFFFF AND MUL OR SWAP1 SSTORE POP PUSH1 0x60 DUP3 ADD MLOAD DUP2 PUSH1 0x3 ADD SSTORE PUSH1 0x80 DUP3 ADD MLOAD DUP2 PUSH1 0x4 ADD PUSH0 PUSH2 0x100 EXP DUP2 SLOAD DUP2 PUSH20 0xFFFFFFFFFFFFFFFFFFFFFFFFFFFFFFFFFFFFFFFF MUL NOT AND SWAP1 DUP4 PUSH20 0xFFFFFFFFFFFFFFFFFFFFFFFFFFFFFFFFFFFFFFFF AND MUL OR SWAP1 SSTORE POP PUSH1 0xA0 DUP3 ADD MLOAD DUP2 PUSH1 0x5 ADD SWAP1 DUP2 PUSH2 0x3C8 SWAP2 SWAP1 PUSH2 0x18A6 JUMP JUMPDEST POP POP POP DUP3 PUSH20 0xFFFFFFFFFFFFFFFFFFFFFFFFFFFFFFFFFFFFFFFF AND PUSH4 0x23B872DD CALLER ADDRESS DUP8 PUSH1 0x40 MLOAD DUP5 PUSH4 0xFFFFFFFF AND PUSH1 0xE0 SHL DUP2 MSTORE PUSH1 0x4 ADD PUSH2 0x408 SWAP4 SWAP3 SWAP2 SWAP1 PUSH2 0x1975 JUMP JUMPDEST PUSH1 0x20 PUSH1 0x40 MLOAD DUP1 DUP4 SUB DUP2 PUSH0 DUP8 GAS CALL ISZERO DUP1 ISZERO PUSH2 0x424 JUMPI RETURNDATASIZE PUSH0 DUP1 RETURNDATACOPY RETURNDATASIZE PUSH0 REVERT JUMPDEST POP POP POP POP PUSH1 0x40 MLOAD RETURNDATASIZE PUSH1 0x1F NOT PUSH1 0x1F DUP3 ADD AND DUP3 ADD DUP1 PUSH1 0x40 MSTORE POP DUP2 ADD SWAP1 PUSH2 0x448 SWAP2 SWAP1 PUSH2 0x19DF JUMP JUMPDEST POP POP POP POP POP JUMP JUMPDEST PUSH0 DUP1 PUSH0 DUP4 DUP2 SLOAD DUP2 LT PUSH2 0x464 JUMPI PUSH2 0x463 PUSH2 0x1A0A JUMP JUMPDEST JUMPDEST SWAP1 PUSH0 MSTORE PUSH1 0x20 PUSH0 KECCAK256 SWAP1 PUSH1 0x6 MUL ADD PUSH1 0x40 MLOAD DUP1 PUSH1 0xC0 ADD PUSH1 0x40 MSTORE SWAP1 DUP2 PUSH0 DUP3 ADD SLOAD DUP2 MSTORE PUSH1 0x20 ADD PUSH1 0x1 DUP3 ADD PUSH0 SWAP1 SLOAD SWAP1 PUSH2 0x100 EXP SWAP1 DIV PUSH20 0xFFFFFFFFFFFFFFFFFFFFFFFFFFFFFFFFFFFFFFFF AND PUSH20 0xFFFFFFFFFFFFFFFFFFFFFFFFFFFFFFFFFFFFFFFF AND PUSH20 0xFFFFFFFFFFFFFFFFFFFFFFFFFFFFFFFFFFFFFFFF AND DUP2 MSTORE PUSH1 0x20 ADD PUSH1 0x2 DUP3 ADD PUSH0 SWAP1 SLOAD SWAP1 PUSH2 0x100 EXP SWAP1 DIV PUSH20 0xFFFFFFFFFFFFFFFFFFFFFFFFFFFFFFFFFFFFFFFF AND PUSH20 0xFFFFFFFFFFFFFFFFFFFFFFFFFFFFFFFFFFFFFFFF AND PUSH20 0xFFFFFFFFFFFFFFFFFFFFFFFFFFFFFFFFFFFFFFFF AND DUP2 MSTORE PUSH1 0x20 ADD PUSH1 0x3 DUP3 ADD SLOAD DUP2 MSTORE PUSH1 0x20 ADD PUSH1 0x4 DUP3 ADD PUSH0 SWAP1 SLOAD SWAP1 PUSH2 0x100 EXP SWAP1 DIV PUSH20 0xFFFFFFFFFFFFFFFFFFFFFFFFFFFFFFFFFFFFFFFF AND PUSH20 0xFFFFFFFFFFFFFFFFFFFFFFFFFFFFFFFFFFFFFFFF AND PUSH20 0xFFFFFFFFFFFFFFFFFFFFFFFFFFFFFFFFFFFFFFFF AND DUP2 MSTORE PUSH1 0x20 ADD PUSH1 0x5 DUP3 ADD DUP1 SLOAD PUSH2 0x59D SWAP1 PUSH2 0x16E2 JUMP JUMPDEST DUP1 PUSH1 0x1F ADD PUSH1 0x20 DUP1 SWAP2 DIV MUL PUSH1 0x20 ADD PUSH1 0x40 MLOAD SWAP1 DUP2 ADD PUSH1 0x40 MSTORE DUP1 SWAP3 SWAP2 SWAP1 DUP2 DUP2 MSTORE PUSH1 0x20 ADD DUP3 DUP1 SLOAD PUSH2 0x5C9 SWAP1 PUSH2 0x16E2 JUMP JUMPDEST DUP1 ISZERO PUSH2 0x614 JUMPI DUP1 PUSH1 0x1F LT PUSH2 0x5EB JUMPI PUSH2 0x100 DUP1 DUP4 SLOAD DIV MUL DUP4 MSTORE SWAP2 PUSH1 0x20 ADD SWAP2 PUSH2 0x614 JUMP JUMPDEST DUP3 ADD SWAP2 SWAP1 PUSH0 MSTORE PUSH1 0x20 PUSH0 KECCAK256 SWAP1 JUMPDEST DUP2 SLOAD DUP2 MSTORE SWAP1 PUSH1 0x1 ADD SWAP1 PUSH1 0x20 ADD DUP1 DUP4 GT PUSH2 0x5F7 JUMPI DUP3 SWAP1 SUB PUSH1 0x1F AND DUP3 ADD SWAP2 JUMPDEST POP POP POP POP POP DUP2 MSTORE POP POP SWAP1 POP DUP1 PUSH1 0x80 ADD MLOAD PUSH20 0xFFFFFFFFFFFFFFFFFFFFFFFFFFFFFFFFFFFFFFFF AND PUSH4 0x70A08231 CALLER PUSH1 0x40 MLOAD DUP3 PUSH4 0xFFFFFFFF AND PUSH1 0xE0 SHL DUP2 MSTORE PUSH1 0x4 ADD PUSH2 0x65C SWAP2 SWAP1 PUSH2 0x1A37 JUMP JUMPDEST PUSH1 0x20 PUSH1 0x40 MLOAD DUP1 DUP4 SUB DUP2 DUP7 GAS STATICCALL ISZERO DUP1 ISZERO PUSH2 0x677 JUMPI RETURNDATASIZE PUSH0 DUP1 RETURNDATACOPY RETURNDATASIZE PUSH0 REVERT JUMPDEST POP POP POP POP PUSH1 0x40 MLOAD RETURNDATASIZE PUSH1 0x1F NOT PUSH1 0x1F DUP3 ADD AND DUP3 ADD DUP1 PUSH1 0x40 MSTORE POP DUP2 ADD SWAP1 PUSH2 0x69B SWAP2 SWAP1 PUSH2 0x1A64 JUMP JUMPDEST SWAP2 POP POP SWAP2 SWAP1 POP JUMP JUMPDEST PUSH0 DUP1 DUP1 SLOAD SWAP1 POP SWAP1 POP SWAP1 JUMP JUMPDEST PUSH0 DUP2 DUP2 SLOAD DUP2 LT PUSH2 0x6BC JUMPI PUSH0 DUP1 REVERT JUMPDEST SWAP1 PUSH0 MSTORE PUSH1 0x20 PUSH0 KECCAK256 SWAP1 PUSH1 0x6 MUL ADD PUSH0 SWAP2 POP SWAP1 POP DUP1 PUSH0 ADD SLOAD SWAP1 DUP1 PUSH1 0x1 ADD PUSH0 SWAP1 SLOAD SWAP1 PUSH2 0x100 EXP SWAP1 DIV PUSH20 0xFFFFFFFFFFFFFFFFFFFFFFFFFFFFFFFFFFFFFFFF AND SWAP1 DUP1 PUSH1 0x2 ADD PUSH0 SWAP1 SLOAD SWAP1 PUSH2 0x100 EXP SWAP1 DIV PUSH20 0xFFFFFFFFFFFFFFFFFFFFFFFFFFFFFFFFFFFFFFFF AND SWAP1 DUP1 PUSH1 0x3 ADD SLOAD SWAP1 DUP1 PUSH1 0x4 ADD PUSH0 SWAP1 SLOAD SWAP1 PUSH2 0x100 EXP SWAP1 DIV PUSH20 0xFFFFFFFFFFFFFFFFFFFFFFFFFFFFFFFFFFFFFFFF AND SWAP1 DUP1 PUSH1 0x5 ADD DUP1 SLOAD PUSH2 0x756 SWAP1 PUSH2 0x16E2 JUMP JUMPDEST DUP1 PUSH1 0x1F ADD PUSH1 0x20 DUP1 SWAP2 DIV MUL PUSH1 0x20 ADD PUSH1 0x40 MLOAD SWAP1 DUP2 ADD PUSH1 0x40 MSTORE DUP1 SWAP3 SWAP2 SWAP1 DUP2 DUP2 MSTORE PUSH1 0x20 ADD DUP3 DUP1 SLOAD PUSH2 0x782 SWAP1 PUSH2 0x16E2 JUMP JUMPDEST DUP1 ISZERO PUSH2 0x7CD JUMPI DUP1 PUSH1 0x1F LT PUSH2 0x7A4 JUMPI PUSH2 0x100 DUP1 DUP4 SLOAD DIV MUL DUP4 MSTORE SWAP2 PUSH1 0x20 ADD SWAP2 PUSH2 0x7CD JUMP JUMPDEST DUP3 ADD SWAP2 SWAP1 PUSH0 MSTORE PUSH1 0x20 PUSH0 KECCAK256 SWAP1 JUMPDEST DUP2 SLOAD DUP2 MSTORE SWAP1 PUSH1 0x1 ADD SWAP1 PUSH1 0x20 ADD DUP1 DUP4 GT PUSH2 0x7B0 JUMPI DUP3 SWAP1 SUB PUSH1 0x1F AND DUP3 ADD SWAP2 JUMPDEST POP POP POP POP POP SWAP1 POP DUP7 JUMP JUMPDEST PUSH0 DUP1 DUP3 DUP2 SLOAD DUP2 LT PUSH2 0x7EB JUMPI PUSH2 0x7EA PUSH2 0x1A0A JUMP JUMPDEST JUMPDEST SWAP1 PUSH0 MSTORE PUSH1 0x20 PUSH0 KECCAK256 SWAP1 PUSH1 0x6 MUL ADD PUSH1 0x40 MLOAD DUP1 PUSH1 0xC0 ADD PUSH1 0x40 MSTORE SWAP1 DUP2 PUSH0 DUP3 ADD SLOAD DUP2 MSTORE PUSH1 0x20 ADD PUSH1 0x1 DUP3 ADD PUSH0 SWAP1 SLOAD SWAP1 PUSH2 0x100 EXP SWAP1 DIV PUSH20 0xFFFFFFFFFFFFFFFFFFFFFFFFFFFFFFFFFFFFFFFF AND PUSH20 0xFFFFFFFFFFFFFFFFFFFFFFFFFFFFFFFFFFFFFFFF AND PUSH20 0xFFFFFFFFFFFFFFFFFFFFFFFFFFFFFFFFFFFFFFFF AND DUP2 MSTORE PUSH1 0x20 ADD PUSH1 0x2 DUP3 ADD PUSH0 SWAP1 SLOAD SWAP1 PUSH2 0x100 EXP SWAP1 DIV PUSH20 0xFFFFFFFFFFFFFFFFFFFFFFFFFFFFFFFFFFFFFFFF AND PUSH20 0xFFFFFFFFFFFFFFFFFFFFFFFFFFFFFFFFFFFFFFFF AND PUSH20 0xFFFFFFFFFFFFFFFFFFFFFFFFFFFFFFFFFFFFFFFF AND DUP2 MSTORE PUSH1 0x20 ADD PUSH1 0x3 DUP3 ADD SLOAD DUP2 MSTORE PUSH1 0x20 ADD PUSH1 0x4 DUP3 ADD PUSH0 SWAP1 SLOAD SWAP1 PUSH2 0x100 EXP SWAP1 DIV PUSH20 0xFFFFFFFFFFFFFFFFFFFFFFFFFFFFFFFFFFFFFFFF AND PUSH20 0xFFFFFFFFFFFFFFFFFFFFFFFFFFFFFFFFFFFFFFFF AND PUSH20 0xFFFFFFFFFFFFFFFFFFFFFFFFFFFFFFFFFFFFFFFF AND DUP2 MSTORE PUSH1 0x20 ADD PUSH1 0x5 DUP3 ADD DUP1 SLOAD PUSH2 0x924 SWAP1 PUSH2 0x16E2 JUMP JUMPDEST DUP1 PUSH1 0x1F ADD PUSH1 0x20 DUP1 SWAP2 DIV MUL PUSH1 0x20 ADD PUSH1 0x40 MLOAD SWAP1 DUP2 ADD PUSH1 0x40 MSTORE DUP1 SWAP3 SWAP2 SWAP1 DUP2 DUP2 MSTORE PUSH1 0x20 ADD DUP3 DUP1 SLOAD PUSH2 0x950 SWAP1 PUSH2 0x16E2 JUMP JUMPDEST DUP1 ISZERO PUSH2 0x99B JUMPI DUP1 PUSH1 0x1F LT PUSH2 0x972 JUMPI PUSH2 0x100 DUP1 DUP4 SLOAD DIV MUL DUP4 MSTORE SWAP2 PUSH1 0x20 ADD SWAP2 PUSH2 0x99B JUMP JUMPDEST DUP3 ADD SWAP2 SWAP1 PUSH0 MSTORE PUSH1 0x20 PUSH0 KECCAK256 SWAP1 JUMPDEST DUP2 SLOAD DUP2 MSTORE SWAP1 PUSH1 0x1 ADD SWAP1 PUSH1 0x20 ADD DUP1 DUP4 GT PUSH2 0x97E JUMPI DUP3 SWAP1 SUB PUSH1 0x1F AND DUP3 ADD SWAP2 JUMPDEST POP POP POP POP POP DUP2 MSTORE POP POP SWAP1 POP PUSH2 0x9E9 DUP2 PUSH1 0xA0 ADD MLOAD PUSH1 0x40 MLOAD DUP1 PUSH1 0x40 ADD PUSH1 0x40 MSTORE DUP1 PUSH1 0x7 DUP2 MSTORE PUSH1 0x20 ADD PUSH32 0x50454E44494E4700000000000000000000000000000000000000000000000000 DUP2 MSTORE POP PUSH2 0x1322 JUMP JUMPDEST PUSH2 0xA28 JUMPI PUSH1 0x40 MLOAD PUSH32 0x8C379A000000000000000000000000000000000000000000000000000000000 DUP2 MSTORE PUSH1 0x4 ADD PUSH2 0xA1F SWAP1 PUSH2 0x1AD9 JUMP JUMPDEST PUSH1 0x40 MLOAD DUP1 SWAP2 SUB SWAP1 REVERT JUMPDEST PUSH1 0x40 MLOAD DUP1 PUSH1 0x40 ADD PUSH1 0x40 MSTORE DUP1 PUSH1 0x8 DUP2 MSTORE PUSH1 0x20 ADD PUSH32 0x4143434550544544000000000000000000000000000000000000000000000000 DUP2 MSTORE POP DUP2 PUSH1 0xA0 ADD DUP2 SWAP1 MSTORE POP PUSH0 DUP2 PUSH1 0x20 ADD MLOAD SWAP1 POP PUSH0 DUP3 PUSH1 0x80 ADD MLOAD SWAP1 POP DUP1 PUSH20 0xFFFFFFFFFFFFFFFFFFFFFFFFFFFFFFFFFFFFFFFF AND PUSH4 0x23B872DD CALLER ADDRESS DUP7 PUSH1 0x60 ADD MLOAD PUSH1 0x40 MLOAD DUP5 PUSH4 0xFFFFFFFF AND PUSH1 0xE0 SHL DUP2 MSTORE PUSH1 0x4 ADD PUSH2 0xAB7 SWAP4 SWAP3 SWAP2 SWAP1 PUSH2 0x1975 JUMP JUMPDEST PUSH1 0x20 PUSH1 0x40 MLOAD DUP1 DUP4 SUB DUP2 PUSH0 DUP8 GAS CALL ISZERO DUP1 ISZERO PUSH2 0xAD3 JUMPI RETURNDATASIZE PUSH0 DUP1 RETURNDATACOPY RETURNDATASIZE PUSH0 REVERT JUMPDEST POP POP POP POP PUSH1 0x40 MLOAD RETURNDATASIZE PUSH1 0x1F NOT PUSH1 0x1F DUP3 ADD AND DUP3 ADD DUP1 PUSH1 0x40 MSTORE POP DUP2 ADD SWAP1 PUSH2 0xAF7 SWAP2 SWAP1 PUSH2 0x19DF JUMP JUMPDEST POP DUP2 PUSH20 0xFFFFFFFFFFFFFFFFFFFFFFFFFFFFFFFFFFFFFFFF AND PUSH4 0xA9059CBB CALLER DUP6 PUSH0 ADD MLOAD PUSH1 0x40 MLOAD DUP4 PUSH4 0xFFFFFFFF AND PUSH1 0xE0 SHL DUP2 MSTORE PUSH1 0x4 ADD PUSH2 0xB36 SWAP3 SWAP2 SWAP1 PUSH2 0x1AF7 JUMP JUMPDEST PUSH1 0x20 PUSH1 0x40 MLOAD DUP1 DUP4 SUB DUP2 PUSH0 DUP8 GAS CALL ISZERO DUP1 ISZERO PUSH2 0xB52 JUMPI RETURNDATASIZE PUSH0 DUP1 RETURNDATACOPY RETURNDATASIZE PUSH0 REVERT JUMPDEST POP POP POP POP PUSH1 0x40 MLOAD RETURNDATASIZE PUSH1 0x1F NOT PUSH1 0x1F DUP3 ADD AND DUP3 ADD DUP1 PUSH1 0x40 MSTORE POP DUP2 ADD SWAP1 PUSH2 0xB76 SWAP2 SWAP1 PUSH2 0x19DF JUMP JUMPDEST POP DUP1 PUSH20 0xFFFFFFFFFFFFFFFFFFFFFFFFFFFFFFFFFFFFFFFF AND PUSH4 0xA9059CBB DUP5 PUSH1 0x40 ADD MLOAD DUP6 PUSH1 0x60 ADD MLOAD PUSH1 0x40 MLOAD DUP4 PUSH4 0xFFFFFFFF AND PUSH1 0xE0 SHL DUP2 MSTORE PUSH1 0x4 ADD PUSH2 0xBBA SWAP3 SWAP2 SWAP1 PUSH2 0x1AF7 JUMP JUMPDEST PUSH1 0x20 PUSH1 0x40 MLOAD DUP1 DUP4 SUB DUP2 PUSH0 DUP8 GAS CALL ISZERO DUP1 ISZERO PUSH2 0xBD6 JUMPI RETURNDATASIZE PUSH0 DUP1 RETURNDATACOPY RETURNDATASIZE PUSH0 REVERT JUMPDEST POP POP POP POP PUSH1 0x40 MLOAD RETURNDATASIZE PUSH1 0x1F NOT PUSH1 0x1F DUP3 ADD AND DUP3 ADD DUP1 PUSH1 0x40 MSTORE POP DUP2 ADD SWAP1 PUSH2 0xBFA SWAP2 SWAP1 PUSH2 0x19DF JUMP JUMPDEST POP DUP3 PUSH0 DUP6 DUP2 SLOAD DUP2 LT PUSH2 0xC0F JUMPI PUSH2 0xC0E PUSH2 0x1A0A JUMP JUMPDEST JUMPDEST SWAP1 PUSH0 MSTORE PUSH1 0x20 PUSH0 KECCAK256 SWAP1 PUSH1 0x6 MUL ADD PUSH0 DUP3 ADD MLOAD DUP2 PUSH0 ADD SSTORE PUSH1 0x20 DUP3 ADD MLOAD DUP2 PUSH1 0x1 ADD PUSH0 PUSH2 0x100 EXP DUP2 SLOAD DUP2 PUSH20 0xFFFFFFFFFFFFFFFFFFFFFFFFFFFFFFFFFFFFFFFF MUL NOT AND SWAP1 DUP4 PUSH20 0xFFFFFFFFFFFFFFFFFFFFFFFFFFFFFFFFFFFFFFFF AND MUL OR SWAP1 SSTORE POP PUSH1 0x40 DUP3 ADD MLOAD DUP2 PUSH1 0x2 ADD PUSH0 PUSH2 0x100 EXP DUP2 SLOAD DUP2 PUSH20 0xFFFFFFFFFFFFFFFFFFFFFFFFFFFFFFFFFFFFFFFF MUL NOT AND SWAP1 DUP4 PUSH20 0xFFFFFFFFFFFFFFFFFFFFFFFFFFFFFFFFFFFFFFFF AND MUL OR SWAP1 SSTORE POP PUSH1 0x60 DUP3 ADD MLOAD DUP2 PUSH1 0x3 ADD SSTORE PUSH1 0x80 DUP3 ADD MLOAD DUP2 PUSH1 0x4 ADD PUSH0 PUSH2 0x100 EXP DUP2 SLOAD DUP2 PUSH20 0xFFFFFFFFFFFFFFFFFFFFFFFFFFFFFFFFFFFFFFFF MUL NOT AND SWAP1 DUP4 PUSH20 0xFFFFFFFFFFFFFFFFFFFFFFFFFFFFFFFFFFFFFFFF AND MUL OR SWAP1 SSTORE POP PUSH1 0xA0 DUP3 ADD MLOAD DUP2 PUSH1 0x5 ADD SWAP1 DUP2 PUSH2 0xD14 SWAP2 SWAP1 PUSH2 0x18A6 JUMP JUMPDEST POP SWAP1 POP POP POP POP POP POP JUMP JUMPDEST PUSH0 DUP1 PUSH0 DUP4 DUP2 SLOAD DUP2 LT PUSH2 0xD33 JUMPI PUSH2 0xD32 PUSH2 0x1A0A JUMP JUMPDEST JUMPDEST SWAP1 PUSH0 MSTORE PUSH1 0x20 PUSH0 KECCAK256 SWAP1 PUSH1 0x6 MUL ADD PUSH1 0x40 MLOAD DUP1 PUSH1 0xC0 ADD PUSH1 0x40 MSTORE SWAP1 DUP2 PUSH0 DUP3 ADD SLOAD DUP2 MSTORE PUSH1 0x20 ADD PUSH1 0x1 DUP3 ADD PUSH0 SWAP1 SLOAD SWAP1 PUSH2 0x100 EXP SWAP1 DIV PUSH20 0xFFFFFFFFFFFFFFFFFFFFFFFFFFFFFFFFFFFFFFFF AND PUSH20 0xFFFFFFFFFFFFFFFFFFFFFFFFFFFFFFFFFFFFFFFF AND PUSH20 0xFFFFFFFFFFFFFFFFFFFFFFFFFFFFFFFFFFFFFFFF AND DUP2 MSTORE PUSH1 0x20 ADD PUSH1 0x2 DUP3 ADD PUSH0 SWAP1 SLOAD SWAP1 PUSH2 0x100 EXP SWAP1 DIV PUSH20 0xFFFFFFFFFFFFFFFFFFFFFFFFFFFFFFFFFFFFFFFF AND PUSH20 0xFFFFFFFFFFFFFFFFFFFFFFFFFFFFFFFFFFFFFFFF AND PUSH20 0xFFFFFFFFFFFFFFFFFFFFFFFFFFFFFFFFFFFFFFFF AND DUP2 MSTORE PUSH1 0x20 ADD PUSH1 0x3 DUP3 ADD SLOAD DUP2 MSTORE PUSH1 0x20 ADD PUSH1 0x4 DUP3 ADD PUSH0 SWAP1 SLOAD SWAP1 PUSH2 0x100 EXP SWAP1 DIV PUSH20 0xFFFFFFFFFFFFFFFFFFFFFFFFFFFFFFFFFFFFFFFF AND PUSH20 0xFFFFFFFFFFFFFFFFFFFFFFFFFFFFFFFFFFFFFFFF AND PUSH20 0xFFFFFFFFFFFFFFFFFFFFFFFFFFFFFFFFFFFFFFFF AND DUP2 MSTORE PUSH1 0x20 ADD PUSH1 0x5 DUP3 ADD DUP1 SLOAD PUSH2 0xE6C SWAP1 PUSH2 0x16E2 JUMP JUMPDEST DUP1 PUSH1 0x1F ADD PUSH1 0x20 DUP1 SWAP2 DIV MUL PUSH1 0x20 ADD PUSH1 0x40 MLOAD SWAP1 DUP2 ADD PUSH1 0x40 MSTORE DUP1 SWAP3 SWAP2 SWAP1 DUP2 DUP2 MSTORE PUSH1 0x20 ADD DUP3 DUP1 SLOAD PUSH2 0xE98 SWAP1 PUSH2 0x16E2 JUMP JUMPDEST DUP1 ISZERO PUSH2 0xEE3 JUMPI DUP1 PUSH1 0x1F LT PUSH2 0xEBA JUMPI PUSH2 0x100 DUP1 DUP4 SLOAD DIV MUL DUP4 MSTORE SWAP2 PUSH1 0x20 ADD SWAP2 PUSH2 0xEE3 JUMP JUMPDEST DUP3 ADD SWAP2 SWAP1 PUSH0 MSTORE PUSH1 0x20 PUSH0 KECCAK256 SWAP1 JUMPDEST DUP2 SLOAD DUP2 MSTORE SWAP1 PUSH1 0x1 ADD SWAP1 PUSH1 0x20 ADD DUP1 DUP4 GT PUSH2 0xEC6 JUMPI DUP3 SWAP1 SUB PUSH1 0x1F AND DUP3 ADD SWAP2 JUMPDEST POP POP POP POP POP DUP2 MSTORE POP POP SWAP1 POP DUP1 PUSH1 0x20 ADD MLOAD PUSH20 0xFFFFFFFFFFFFFFFFFFFFFFFFFFFFFFFFFFFFFFFF AND PUSH4 0x70A08231 CALLER PUSH1 0x40 MLOAD DUP3 PUSH4 0xFFFFFFFF AND PUSH1 0xE0 SHL DUP2 MSTORE PUSH1 0x4 ADD PUSH2 0xF2B SWAP2 SWAP1 PUSH2 0x1A37 JUMP JUMPDEST PUSH1 0x20 PUSH1 0x40 MLOAD DUP1 DUP4 SUB DUP2 DUP7 GAS STATICCALL ISZERO DUP1 ISZERO PUSH2 0xF46 JUMPI RETURNDATASIZE PUSH0 DUP1 RETURNDATACOPY RETURNDATASIZE PUSH0 REVERT JUMPDEST POP POP POP POP PUSH1 0x40 MLOAD RETURNDATASIZE PUSH1 0x1F NOT PUSH1 0x1F DUP3 ADD AND DUP3 ADD DUP1 PUSH1 0x40 MSTORE POP DUP2 ADD SWAP1 PUSH2 0xF6A SWAP2 SWAP1 PUSH2 0x1A64 JUMP JUMPDEST SWAP2 POP POP SWAP2 SWAP1 POP JUMP JUMPDEST PUSH0 DUP1 DUP3 DUP2 SLOAD DUP2 LT PUSH2 0xF86 JUMPI PUSH2 0xF85 PUSH2 0x1A0A JUMP JUMPDEST JUMPDEST SWAP1 PUSH0 MSTORE PUSH1 0x20 PUSH0 KECCAK256 SWAP1 PUSH1 0x6 MUL ADD PUSH1 0x40 MLOAD DUP1 PUSH1 0xC0 ADD PUSH1 0x40 MSTORE SWAP1 DUP2 PUSH0 DUP3 ADD SLOAD DUP2 MSTORE PUSH1 0x20 ADD PUSH1 0x1 DUP3 ADD PUSH0 SWAP1 SLOAD SWAP1 PUSH2 0x100 EXP SWAP1 DIV PUSH20 0xFFFFFFFFFFFFFFFFFFFFFFFFFFFFFFFFFFFFFFFF AND PUSH20 0xFFFFFFFFFFFFFFFFFFFFFFFFFFFFFFFFFFFFFFFF AND PUSH20 0xFFFFFFFFFFFFFFFFFFFFFFFFFFFFFFFFFFFFFFFF AND DUP2 MSTORE PUSH1 0x20 ADD PUSH1 0x2 DUP3 ADD PUSH0 SWAP1 SLOAD SWAP1 PUSH2 0x100 EXP SWAP1 DIV PUSH20 0xFFFFFFFFFFFFFFFFFFFFFFFFFFFFFFFFFFFFFFFF AND PUSH20 0xFFFFFFFFFFFFFFFFFFFFFFFFFFFFFFFFFFFFFFFF AND PUSH20 0xFFFFFFFFFFFFFFFFFFFFFFFFFFFFFFFFFFFFFFFF AND DUP2 MSTORE PUSH1 0x20 ADD PUSH1 0x3 DUP3 ADD SLOAD DUP2 MSTORE PUSH1 0x20 ADD PUSH1 0x4 DUP3 ADD PUSH0 SWAP1 SLOAD SWAP1 PUSH2 0x100 EXP SWAP1 DIV PUSH20 0xFFFFFFFFFFFFFFFFFFFFFFFFFFFFFFFFFFFFFFFF AND PUSH20 0xFFFFFFFFFFFFFFFFFFFFFFFFFFFFFFFFFFFFFFFF AND PUSH20 0xFFFFFFFFFFFFFFFFFFFFFFFFFFFFFFFFFFFFFFFF AND DUP2 MSTORE PUSH1 0x20 ADD PUSH1 0x5 DUP3 ADD DUP1 SLOAD PUSH2 0x10BF SWAP1 PUSH2 0x16E2 JUMP JUMPDEST DUP1 PUSH1 0x1F ADD PUSH1 0x20 DUP1 SWAP2 DIV MUL PUSH1 0x20 ADD PUSH1 0x40 MLOAD SWAP1 DUP2 ADD PUSH1 0x40 MSTORE DUP1 SWAP3 SWAP2 SWAP1 DUP2 DUP2 MSTORE PUSH1 0x20 ADD DUP3 DUP1 SLOAD PUSH2 0x10EB SWAP1 PUSH2 0x16E2 JUMP JUMPDEST DUP1 ISZERO PUSH2 0x1136 JUMPI DUP1 PUSH1 0x1F LT PUSH2 0x110D JUMPI PUSH2 0x100 DUP1 DUP4 SLOAD DIV MUL DUP4 MSTORE SWAP2 PUSH1 0x20 ADD SWAP2 PUSH2 0x1136 JUMP JUMPDEST DUP3 ADD SWAP2 SWAP1 PUSH0 MSTORE PUSH1 0x20 PUSH0 KECCAK256 SWAP1 JUMPDEST DUP2 SLOAD DUP2 MSTORE SWAP1 PUSH1 0x1 ADD SWAP1 PUSH1 0x20 ADD DUP1 DUP4 GT PUSH2 0x1119 JUMPI DUP3 SWAP1 SUB PUSH1 0x1F AND DUP3 ADD SWAP2 JUMPDEST POP POP POP POP POP DUP2 MSTORE POP POP SWAP1 POP PUSH2 0x1184 DUP2 PUSH1 0xA0 ADD MLOAD PUSH1 0x40 MLOAD DUP1 PUSH1 0x40 ADD PUSH1 0x40 MSTORE DUP1 PUSH1 0x7 DUP2 MSTORE PUSH1 0x20 ADD PUSH32 0x50454E44494E4700000000000000000000000000000000000000000000000000 DUP2 MSTORE POP PUSH2 0x1322 JUMP JUMPDEST PUSH2 0x11C3 JUMPI PUSH1 0x40 MLOAD PUSH32 0x8C379A000000000000000000000000000000000000000000000000000000000 DUP2 MSTORE PUSH1 0x4 ADD PUSH2 0x11BA SWAP1 PUSH2 0x1AD9 JUMP JUMPDEST PUSH1 0x40 MLOAD DUP1 SWAP2 SUB SWAP1 REVERT JUMPDEST PUSH1 0x40 MLOAD DUP1 PUSH1 0x40 ADD PUSH1 0x40 MSTORE DUP1 PUSH1 0x8 DUP2 MSTORE PUSH1 0x20 ADD PUSH32 0x43414E43454C4544000000000000000000000000000000000000000000000000 DUP2 MSTORE POP DUP2 PUSH1 0xA0 ADD DUP2 SWAP1 MSTORE POP DUP1 PUSH0 DUP4 DUP2 SLOAD DUP2 LT PUSH2 0x1215 JUMPI PUSH2 0x1214 PUSH2 0x1A0A JUMP JUMPDEST JUMPDEST SWAP1 PUSH0 MSTORE PUSH1 0x20 PUSH0 KECCAK256 SWAP1 PUSH1 0x6 MUL ADD PUSH0 DUP3 ADD MLOAD DUP2 PUSH0 ADD SSTORE PUSH1 0x20 DUP3 ADD MLOAD DUP2 PUSH1 0x1 ADD PUSH0 PUSH2 0x100 EXP DUP2 SLOAD DUP2 PUSH20 0xFFFFFFFFFFFFFFFFFFFFFFFFFFFFFFFFFFFFFFFF MUL NOT AND SWAP1 DUP4 PUSH20 0xFFFFFFFFFFFFFFFFFFFFFFFFFFFFFFFFFFFFFFFF AND MUL OR SWAP1 SSTORE POP PUSH1 0x40 DUP3 ADD MLOAD DUP2 PUSH1 0x2 ADD PUSH0 PUSH2 0x100 EXP DUP2 SLOAD DUP2 PUSH20 0xFFFFFFFFFFFFFFFFFFFFFFFFFFFFFFFFFFFFFFFF MUL NOT AND SWAP1 DUP4 PUSH20 0xFFFFFFFFFFFFFFFFFFFFFFFFFFFFFFFFFFFFFFFF AND MUL OR SWAP1 SSTORE POP PUSH1 0x60 DUP3 ADD MLOAD DUP2 PUSH1 0x3 ADD SSTORE PUSH1 0x80 DUP3 ADD MLOAD DUP2 PUSH1 0x4 ADD PUSH0 PUSH2 0x100 EXP DUP2 SLOAD DUP2 PUSH20 0xFFFFFFFFFFFFFFFFFFFFFFFFFFFFFFFFFFFFFFFF MUL NOT AND SWAP1 DUP4 PUSH20 0xFFFFFFFFFFFFFFFFFFFFFFFFFFFFFFFFFFFFFFFF AND MUL OR SWAP1 SSTORE POP PUSH1 0xA0 DUP3 ADD MLOAD DUP2 PUSH1 0x5 ADD SWAP1 DUP2 PUSH2 0x131A SWAP2 SWAP1 PUSH2 0x18A6 JUMP JUMPDEST POP SWAP1 POP POP POP POP JUMP JUMPDEST PUSH0 PUSH2 0x132C DUP3 PUSH2 0x133E JUMP JUMPDEST PUSH2 0x1335 DUP5 PUSH2 0x133E JUMP JUMPDEST EQ SWAP1 POP SWAP3 SWAP2 POP POP JUMP JUMPDEST PUSH0 DUP2 PUSH1 0x40 MLOAD PUSH1 0x20 ADD PUSH2 0x1350 SWAP2 SWAP1 PUSH2 0x1B58 JUMP JUMPDEST PUSH1 0x40 MLOAD PUSH1 0x20 DUP2 DUP4 SUB SUB DUP2 MSTORE SWAP1 PUSH1 0x40 MSTORE DUP1 MLOAD SWAP1 PUSH1 0x20 ADD KECCAK256 SWAP1 POP SWAP2 SWAP1 POP JUMP JUMPDEST PUSH0 DUP1 REVERT JUMPDEST PUSH0 DUP2 SWAP1 POP SWAP2 SWAP1 POP JUMP JUMPDEST PUSH2 0x1383 DUP2 PUSH2 0x1371 JUMP JUMPDEST DUP2 EQ PUSH2 0x138D JUMPI PUSH0 DUP1 REVERT JUMPDEST POP JUMP JUMPDEST PUSH0 DUP2 CALLDATALOAD SWAP1 POP PUSH2 0x139E DUP2 PUSH2 0x137A JUMP JUMPDEST SWAP3 SWAP2 POP POP JUMP JUMPDEST PUSH0 PUSH20 0xFFFFFFFFFFFFFFFFFFFFFFFFFFFFFFFFFFFFFFFF DUP3 AND SWAP1 POP SWAP2 SWAP1 POP JUMP JUMPDEST PUSH0 PUSH2 0x13CD DUP3 PUSH2 0x13A4 JUMP JUMPDEST SWAP1 POP SWAP2 SWAP1 POP JUMP JUMPDEST PUSH0 PUSH2 0x13DE DUP3 PUSH2 0x13C3 JUMP JUMPDEST SWAP1 POP SWAP2 SWAP1 POP JUMP JUMPDEST PUSH2 0x13EE DUP2 PUSH2 0x13D4 JUMP JUMPDEST DUP2 EQ PUSH2 0x13F8 JUMPI PUSH0 DUP1 REVERT JUMPDEST POP JUMP JUMPDEST PUSH0 DUP2 CALLDATALOAD SWAP1 POP PUSH2 0x1409 DUP2 PUSH2 0x13E5 JUMP JUMPDEST SWAP3 SWAP2 POP POP JUMP JUMPDEST PUSH0 DUP1 PUSH0 DUP1 PUSH1 0x80 DUP6 DUP8 SUB SLT ISZERO PUSH2 0x1427 JUMPI PUSH2 0x1426 PUSH2 0x136D JUMP JUMPDEST JUMPDEST PUSH0 PUSH2 0x1434 DUP8 DUP3 DUP9 ADD PUSH2 0x1390 JUMP JUMPDEST SWAP5 POP POP PUSH1 0x20 PUSH2 0x1445 DUP8 DUP3 DUP9 ADD PUSH2 0x13FB JUMP JUMPDEST SWAP4 POP POP PUSH1 0x40 PUSH2 0x1456 DUP8 DUP3 DUP9 ADD PUSH2 0x1390 JUMP JUMPDEST SWAP3 POP POP PUSH1 0x60 PUSH2 0x1467 DUP8 DUP3 DUP9 ADD PUSH2 0x13FB JUMP JUMPDEST SWAP2 POP POP SWAP3 SWAP6 SWAP2 SWAP5 POP SWAP3 POP JUMP JUMPDEST PUSH0 PUSH1 0x20 DUP3 DUP5 SUB SLT ISZERO PUSH2 0x1488 JUMPI PUSH2 0x1487 PUSH2 0x136D JUMP JUMPDEST JUMPDEST PUSH0 PUSH2 0x1495 DUP5 DUP3 DUP6 ADD PUSH2 0x1390 JUMP JUMPDEST SWAP2 POP POP SWAP3 SWAP2 POP POP JUMP JUMPDEST PUSH2 0x14A7 DUP2 PUSH2 0x1371 JUMP JUMPDEST DUP3 MSTORE POP POP JUMP JUMPDEST PUSH0 PUSH1 0x20 DUP3 ADD SWAP1 POP PUSH2 0x14C0 PUSH0 DUP4 ADD DUP5 PUSH2 0x149E JUMP JUMPDEST SWAP3 SWAP2 POP POP JUMP JUMPDEST PUSH0 DUP2 SWAP1 POP SWAP2 SWAP1 POP JUMP JUMPDEST PUSH0 PUSH2 0x14E9 PUSH2 0x14E4 PUSH2 0x14DF DUP5 PUSH2 0x13A4 JUMP JUMPDEST PUSH2 0x14C6 JUMP JUMPDEST PUSH2 0x13A4 JUMP JUMPDEST SWAP1 POP SWAP2 SWAP1 POP JUMP JUMPDEST PUSH0 PUSH2 0x14FA DUP3 PUSH2 0x14CF JUMP JUMPDEST SWAP1 POP SWAP2 SWAP1 POP JUMP JUMPDEST PUSH0 PUSH2 0x150B DUP3 PUSH2 0x14F0 JUMP JUMPDEST SWAP1 POP SWAP2 SWAP1 POP JUMP JUMPDEST PUSH2 0x151B DUP2 PUSH2 0x1501 JUMP JUMPDEST DUP3 MSTORE POP POP JUMP JUMPDEST PUSH2 0x152A DUP2 PUSH2 0x13C3 JUMP JUMPDEST DUP3 MSTORE POP POP JUMP JUMPDEST PUSH0 DUP2 MLOAD SWAP1 POP SWAP2 SWAP1 POP JUMP JUMPDEST PUSH0 DUP3 DUP3 MSTORE PUSH1 0x20 DUP3 ADD SWAP1 POP SWAP3 SWAP2 POP POP JUMP JUMPDEST PUSH0 JUMPDEST DUP4 DUP2 LT ISZERO PUSH2 0x1567 JUMPI DUP1 DUP3 ADD MLOAD DUP2 DUP5 ADD MSTORE PUSH1 0x20 DUP2 ADD SWAP1 POP PUSH2 0x154C JUMP JUMPDEST PUSH0 DUP5 DUP5 ADD MSTORE POP POP POP POP JUMP JUMPDEST PUSH0 PUSH1 0x1F NOT PUSH1 0x1F DUP4 ADD AND SWAP1 POP SWAP2 SWAP1 POP JUMP JUMPDEST PUSH0 PUSH2 0x158C DUP3 PUSH2 0x1530 JUMP JUMPDEST PUSH2 0x1596 DUP2 DUP6 PUSH2 0x153A JUMP JUMPDEST SWAP4 POP PUSH2 0x15A6 DUP2 DUP6 PUSH1 0x20 DUP7 ADD PUSH2 0x154A JUMP JUMPDEST PUSH2 0x15AF DUP2 PUSH2 0x1572 JUMP JUMPDEST DUP5 ADD SWAP2 POP POP SWAP3 SWAP2 POP POP JUMP JUMPDEST PUSH0 PUSH1 0xC0 DUP3 ADD SWAP1 POP PUSH2 0x15CD PUSH0 DUP4 ADD DUP10 PUSH2 0x149E JUMP JUMPDEST PUSH2 0x15DA PUSH1 0x20 DUP4 ADD DUP9 PUSH2 0x1512 JUMP JUMPDEST PUSH2 0x15E7 PUSH1 0x40 DUP4 ADD DUP8 PUSH2 0x1521 JUMP JUMPDEST PUSH2 0x15F4 PUSH1 0x60 DUP4 ADD DUP7 PUSH2 0x149E JUMP JUMPDEST PUSH2 0x1601 PUSH1 0x80 DUP4 ADD DUP6 PUSH2 0x1512 JUMP JUMPDEST DUP2 DUP2 SUB PUSH1 0xA0 DUP4 ADD MSTORE PUSH2 0x1613 DUP2 DUP5 PUSH2 0x1582 JUMP JUMPDEST SWAP1 POP SWAP8 SWAP7 POP POP POP POP POP POP POP JUMP JUMPDEST PUSH32 0x4EC3A36F20706F646520736572207A65726F0000000000000000000000000000 PUSH0 DUP3 ADD MSTORE POP JUMP JUMPDEST PUSH0 PUSH2 0x1654 PUSH1 0x12 DUP4 PUSH2 0x153A JUMP JUMPDEST SWAP2 POP PUSH2 0x165F DUP3 PUSH2 0x1620 JUMP JUMPDEST PUSH1 0x20 DUP3 ADD SWAP1 POP SWAP2 SWAP1 POP JUMP JUMPDEST PUSH0 PUSH1 0x20 DUP3 ADD SWAP1 POP DUP2 DUP2 SUB PUSH0 DUP4 ADD MSTORE PUSH2 0x1681 DUP2 PUSH2 0x1648 JUMP JUMPDEST SWAP1 POP SWAP2 SWAP1 POP JUMP JUMPDEST PUSH32 0x4E487B7100000000000000000000000000000000000000000000000000000000 PUSH0 MSTORE PUSH1 0x41 PUSH1 0x4 MSTORE PUSH1 0x24 PUSH0 REVERT JUMPDEST PUSH32 0x4E487B7100000000000000000000000000000000000000000000000000000000 PUSH0 MSTORE PUSH1 0x22 PUSH1 0x4 MSTORE PUSH1 0x24 PUSH0 REVERT JUMPDEST PUSH0 PUSH1 0x2 DUP3 DIV SWAP1 POP PUSH1 0x1 DUP3 AND DUP1 PUSH2 0x16F9 JUMPI PUSH1 0x7F DUP3 AND SWAP2 POP JUMPDEST PUSH1 0x20 DUP3 LT DUP2 SUB PUSH2 0x170C JUMPI PUSH2 0x170B PUSH2 0x16B5 JUMP JUMPDEST JUMPDEST POP SWAP2 SWAP1 POP JUMP JUMPDEST PUSH0 DUP2 SWAP1 POP DUP2 PUSH0 MSTORE PUSH1 0x20 PUSH0 KECCAK256 SWAP1 POP SWAP2 SWAP1 POP JUMP JUMPDEST PUSH0 PUSH1 0x20 PUSH1 0x1F DUP4 ADD DIV SWAP1 POP SWAP2 SWAP1 POP JUMP JUMPDEST PUSH0 DUP3 DUP3 SHL SWAP1 POP SWAP3 SWAP2 POP POP JUMP JUMPDEST PUSH0 PUSH1 0x8 DUP4 MUL PUSH2 0x176E PUSH32 0xFFFFFFFFFFFFFFFFFFFFFFFFFFFFFFFFFFFFFFFFFFFFFFFFFFFFFFFFFFFFFFFF DUP3 PUSH2 0x1733 JUMP JUMPDEST PUSH2 0x1778 DUP7 DUP4 PUSH2 0x1733 JUMP JUMPDEST SWAP6 POP DUP1 NOT DUP5 AND SWAP4 POP DUP1 DUP7 AND DUP5 OR SWAP3 POP POP POP SWAP4 SWAP3 POP POP POP JUMP JUMPDEST PUSH0 PUSH2 0x17AA PUSH2 0x17A5 PUSH2 0x17A0 DUP5 PUSH2 0x1371 JUMP JUMPDEST PUSH2 0x14C6 JUMP JUMPDEST PUSH2 0x1371 JUMP JUMPDEST SWAP1 POP SWAP2 SWAP1 POP JUMP JUMPDEST PUSH0 DUP2 SWAP1 POP SWAP2 SWAP1 POP JUMP JUMPDEST PUSH2 0x17C3 DUP4 PUSH2 0x1790 JUMP JUMPDEST PUSH2 0x17D7 PUSH2 0x17CF DUP3 PUSH2 0x17B1 JUMP JUMPDEST DUP5 DUP5 SLOAD PUSH2 0x173F JUMP JUMPDEST DUP3 SSTORE POP POP POP POP JUMP JUMPDEST PUSH0 SWAP1 JUMP JUMPDEST PUSH2 0x17EB PUSH2 0x17DF JUMP JUMPDEST PUSH2 0x17F6 DUP2 DUP5 DUP5 PUSH2 0x17BA JUMP JUMPDEST POP POP POP JUMP JUMPDEST JUMPDEST DUP2 DUP2 LT ISZERO PUSH2 0x1819 JUMPI PUSH2 0x180E PUSH0 DUP3 PUSH2 0x17E3 JUMP JUMPDEST PUSH1 0x1 DUP2 ADD SWAP1 POP PUSH2 0x17FC JUMP JUMPDEST POP POP JUMP JUMPDEST PUSH1 0x1F DUP3 GT ISZERO PUSH2 0x185E JUMPI PUSH2 0x182F DUP2 PUSH2 0x1712 JUMP JUMPDEST PUSH2 0x1838 DUP5 PUSH2 0x1724 JUMP JUMPDEST DUP2 ADD PUSH1 0x20 DUP6 LT ISZERO PUSH2 0x1847 JUMPI DUP2 SWAP1 POP JUMPDEST PUSH2 0x185B PUSH2 0x1853 DUP6 PUSH2 0x1724 JUMP JUMPDEST DUP4 ADD DUP3 PUSH2 0x17FB JUMP JUMPDEST POP POP JUMPDEST POP POP POP JUMP JUMPDEST PUSH0 DUP3 DUP3 SHR SWAP1 POP SWAP3 SWAP2 POP POP JUMP JUMPDEST PUSH0 PUSH2 0x187E PUSH0 NOT DUP5 PUSH1 0x8 MUL PUSH2 0x1863 JUMP JUMPDEST NOT DUP1 DUP4 AND SWAP2 POP POP SWAP3 SWAP2 POP POP JUMP JUMPDEST PUSH0 PUSH2 0x1896 DUP4 DUP4 PUSH2 0x186F JUMP JUMPDEST SWAP2 POP DUP3 PUSH1 0x2 MUL DUP3 OR SWAP1 POP SWAP3 SWAP2 POP POP JUMP JUMPDEST PUSH2 0x18AF DUP3 PUSH2 0x1530 JUMP JUMPDEST PUSH8 0xFFFFFFFFFFFFFFFF DUP2 GT ISZERO PUSH2 0x18C8 JUMPI PUSH2 0x18C7 PUSH2 0x1688 JUMP JUMPDEST JUMPDEST PUSH2 0x18D2 DUP3 SLOAD PUSH2 0x16E2 JUMP JUMPDEST PUSH2 0x18DD DUP3 DUP3 DUP6 PUSH2 0x181D JUMP JUMPDEST PUSH0 PUSH1 0x20 SWAP1 POP PUSH1 0x1F DUP4 GT PUSH1 0x1 DUP2 EQ PUSH2 0x190E JUMPI PUSH0 DUP5 ISZERO PUSH2 0x18FC JUMPI DUP3 DUP8 ADD MLOAD SWAP1 POP JUMPDEST PUSH2 0x1906 DUP6 DUP3 PUSH2 0x188B JUMP JUMPDEST DUP7 SSTORE POP PUSH2 0x196D JUMP JUMPDEST PUSH1 0x1F NOT DUP5 AND PUSH2 0x191C DUP7 PUSH2 0x1712 JUMP JUMPDEST PUSH0 JUMPDEST DUP3 DUP2 LT ISZERO PUSH2 0x1943 JUMPI DUP5 DUP10 ADD MLOAD DUP3 SSTORE PUSH1 0x1 DUP3 ADD SWAP2 POP PUSH1 0x20 DUP6 ADD SWAP5 POP PUSH1 0x20 DUP2 ADD SWAP1 POP PUSH2 0x191E JUMP JUMPDEST DUP7 DUP4 LT ISZERO PUSH2 0x1960 JUMPI DUP5 DUP10 ADD MLOAD PUSH2 0x195C PUSH1 0x1F DUP10 AND DUP3 PUSH2 0x186F JUMP JUMPDEST DUP4 SSTORE POP JUMPDEST PUSH1 0x1 PUSH1 0x2 DUP9 MUL ADD DUP9 SSTORE POP POP POP JUMPDEST POP POP POP POP POP POP JUMP JUMPDEST PUSH0 PUSH1 0x60 DUP3 ADD SWAP1 POP PUSH2 0x1988 PUSH0 DUP4 ADD DUP7 PUSH2 0x1521 JUMP JUMPDEST PUSH2 0x1995 PUSH1 0x20 DUP4 ADD DUP6 PUSH2 0x1521 JUMP JUMPDEST PUSH2 0x19A2 PUSH1 0x40 DUP4 ADD DUP5 PUSH2 0x149E JUMP JUMPDEST SWAP5 SWAP4 POP POP POP POP JUMP JUMPDEST PUSH0 DUP2 ISZERO ISZERO SWAP1 POP SWAP2 SWAP1 POP JUMP JUMPDEST PUSH2 0x19BE DUP2 PUSH2 0x19AA JUMP JUMPDEST DUP2 EQ PUSH2 0x19C8 JUMPI PUSH0 DUP1 REVERT JUMPDEST POP JUMP JUMPDEST PUSH0 DUP2 MLOAD SWAP1 POP PUSH2 0x19D9 DUP2 PUSH2 0x19B5 JUMP JUMPDEST SWAP3 SWAP2 POP POP JUMP JUMPDEST PUSH0 PUSH1 0x20 DUP3 DUP5 SUB SLT ISZERO PUSH2 0x19F4 JUMPI PUSH2 0x19F3 PUSH2 0x136D JUMP JUMPDEST JUMPDEST PUSH0 PUSH2 0x1A01 DUP5 DUP3 DUP6 ADD PUSH2 0x19CB JUMP JUMPDEST SWAP2 POP POP SWAP3 SWAP2 POP POP JUMP JUMPDEST PUSH32 0x4E487B7100000000000000000000000000000000000000000000000000000000 PUSH0 MSTORE PUSH1 0x32 PUSH1 0x4 MSTORE PUSH1 0x24 PUSH0 REVERT JUMPDEST PUSH0 PUSH1 0x20 DUP3 ADD SWAP1 POP PUSH2 0x1A4A PUSH0 DUP4 ADD DUP5 PUSH2 0x1521 JUMP JUMPDEST SWAP3 SWAP2 POP POP JUMP JUMPDEST PUSH0 DUP2 MLOAD SWAP1 POP PUSH2 0x1A5E DUP2 PUSH2 0x137A JUMP JUMPDEST SWAP3 SWAP2 POP POP JUMP JUMPDEST PUSH0 PUSH1 0x20 DUP3 DUP5 SUB SLT ISZERO PUSH2 0x1A79 JUMPI PUSH2 0x1A78 PUSH2 0x136D JUMP JUMPDEST JUMPDEST PUSH0 PUSH2 0x1A86 DUP5 DUP3 DUP6 ADD PUSH2 0x1A50 JUMP JUMPDEST SWAP2 POP POP SWAP3 SWAP2 POP POP JUMP JUMPDEST PUSH32 0x4F666572746120646576652065737461722070656E64656E74652E0000000000 PUSH0 DUP3 ADD MSTORE POP JUMP JUMPDEST PUSH0 PUSH2 0x1AC3 PUSH1 0x1B DUP4 PUSH2 0x153A JUMP JUMPDEST SWAP2 POP PUSH2 0x1ACE DUP3 PUSH2 0x1A8F JUMP JUMPDEST PUSH1 0x20 DUP3 ADD SWAP1 POP SWAP2 SWAP1 POP JUMP JUMPDEST PUSH0 PUSH1 0x20 DUP3 ADD SWAP1 POP DUP2 DUP2 SUB PUSH0 DUP4 ADD MSTORE PUSH2 0x1AF0 DUP2 PUSH2 0x1AB7 JUMP JUMPDEST SWAP1 POP SWAP2 SWAP1 POP JUMP JUMPDEST PUSH0 PUSH1 0x40 DUP3 ADD SWAP1 POP PUSH2 0x1B0A PUSH0 DUP4 ADD DUP6 PUSH2 0x1521 JUMP JUMPDEST PUSH2 0x1B17 PUSH1 0x20 DUP4 ADD DUP5 PUSH2 0x149E JUMP JUMPDEST SWAP4 SWAP3 POP POP POP JUMP JUMPDEST PUSH0 DUP2 SWAP1 POP SWAP3 SWAP2 POP POP JUMP JUMPDEST PUSH0 PUSH2 0x1B32 DUP3 PUSH2 0x1530 JUMP JUMPDEST PUSH2 0x1B3C DUP2 DUP6 PUSH2 0x1B1E JUMP JUMPDEST SWAP4 POP PUSH2 0x1B4C DUP2 DUP6 PUSH1 0x20 DUP7 ADD PUSH2 0x154A JUMP JUMPDEST DUP1 DUP5 ADD SWAP2 POP POP SWAP3 SWAP2 POP POP JUMP JUMPDEST PUSH0 PUSH2 0x1B63 DUP3 DUP5 PUSH2 0x1B28 JUMP JUMPDEST SWAP2 POP DUP2 SWAP1 POP SWAP3 SWAP2 POP POP JUMP INVALID LOG2 PUSH5 0x6970667358 0x22 SLT KECCAK256 PUSH18 0x2BE36F37F181AC35C4BC896CD206CE11D8E1 COINBASE SGT 0x2A INVALID 0xF6 MLOAD PUSH4 0xA8690A6A PUSH15 0x8864736F6C63430008160033000000 "
				},
				"gasEstimates": {
					"creation": {
						"codeDepositCost": "1415200",
						"executionCost": "1477",
						"totalCost": "1416677"
					},
					"external": {
						"acceptOffer(uint256)": "infinite",
						"balanceOffTokenToBuy(uint256)": "infinite",
						"balanceOffTokenToSell(uint256)": "infinite",
						"cancelOffer(uint256)": "infinite",
						"getOffersLength()": "2485",
						"offers(uint256)": "infinite",
						"putOffer(uint256,address,uint256,address)": "infinite"
					},
					"internal": {
						"compare(string memory,string memory)": "infinite",
						"stringToByte(string memory)": "infinite"
					}
				},
				"methodIdentifiers": {
					"acceptOffer(uint256)": "c815729d",
					"balanceOffTokenToBuy(uint256)": "1f6bb8e0",
					"balanceOffTokenToSell(uint256)": "e324869b",
					"cancelOffer(uint256)": "ef706adf",
					"getOffersLength()": "73c2dc12",
					"offers(uint256)": "8a72ea6a",
					"putOffer(uint256,address,uint256,address)": "19b8f993"
				}
			},
			"storageLayout": {
				"storage": [
					{
						"astId": 823,
						"contract": "SimpleExchangeImpl_flattened.sol:ImplementSimpleExchange",
						"label": "offers",
						"offset": 0,
						"slot": "0",
						"type": "t_array(t_struct(Offer)787_storage)dyn_storage"
					}
				],
				"types": {
					"t_address": {
						"encoding": "inplace",
						"label": "address",
						"numberOfBytes": "20"
					},
					"t_array(t_struct(Offer)787_storage)dyn_storage": {
						"base": "t_struct(Offer)787_storage",
						"encoding": "dynamic_array",
						"label": "struct ISimpleExchange.Offer[]",
						"numberOfBytes": "32"
					},
					"t_contract(IERC20)242": {
						"encoding": "inplace",
						"label": "contract IERC20",
						"numberOfBytes": "20"
					},
					"t_string_storage": {
						"encoding": "bytes",
						"label": "string",
						"numberOfBytes": "32"
					},
					"t_struct(Offer)787_storage": {
						"encoding": "inplace",
						"label": "struct ISimpleExchange.Offer",
						"members": [
							{
								"astId": 774,
								"contract": "SimpleExchangeImpl_flattened.sol:ImplementSimpleExchange",
								"label": "amountToSell",
								"offset": 0,
								"slot": "0",
								"type": "t_uint256"
							},
							{
								"astId": 777,
								"contract": "SimpleExchangeImpl_flattened.sol:ImplementSimpleExchange",
								"label": "tokenToSell",
								"offset": 0,
								"slot": "1",
								"type": "t_contract(IERC20)242"
							},
							{
								"astId": 779,
								"contract": "SimpleExchangeImpl_flattened.sol:ImplementSimpleExchange",
								"label": "seller",
								"offset": 0,
								"slot": "2",
								"type": "t_address"
							},
							{
								"astId": 781,
								"contract": "SimpleExchangeImpl_flattened.sol:ImplementSimpleExchange",
								"label": "amountToBuy",
								"offset": 0,
								"slot": "3",
								"type": "t_uint256"
							},
							{
								"astId": 784,
								"contract": "SimpleExchangeImpl_flattened.sol:ImplementSimpleExchange",
								"label": "tokenToBuy",
								"offset": 0,
								"slot": "4",
								"type": "t_contract(IERC20)242"
							},
							{
								"astId": 786,
								"contract": "SimpleExchangeImpl_flattened.sol:ImplementSimpleExchange",
								"label": "status",
								"offset": 0,
								"slot": "5",
								"type": "t_string_storage"
							}
						],
						"numberOfBytes": "192"
					},
					"t_uint256": {
						"encoding": "inplace",
						"label": "uint256",
						"numberOfBytes": "32"
					}
				}
			},
			"userdoc": {
				"kind": "user",
				"methods": {},
				"version": 1
			}
		}
	}
}