{
	"data": {
		"bytecode": {
			"linkReferences": {},
			"object": "608060405234801561000f575f80fd5b50335f806101000a81548173ffffffffffffffffffffffffffffffffffffffff021916908373ffffffffffffffffffffffffffffffffffffffff1602179055506108ad8061005c5f395ff3fe608060405234801561000f575f80fd5b506004361061003f575f3560e01c806350d3b0561461004357806385b324ad146100735780638da5cb5b14610091575b5f80fd5b61005d600480360381019061005891906103de565b6100af565b60405161006a919061049f565b60405180910390f35b61007b6101de565b604051610088919061049f565b60405180910390f35b61009961026e565b6040516100a691906104fe565b60405180910390f35b60605f8054906101000a900473ffffffffffffffffffffffffffffffffffffffff1673ffffffffffffffffffffffffffffffffffffffff163373ffffffffffffffffffffffffffffffffffffffff161461013e576040517f08c379a000000000000000000000000000000000000000000000000000000000815260040161013590610587565b60405180910390fd5b816001908161014d91906107a8565b506001805461015b906105d2565b80601f0160208091040260200160405190810160405280929190818152602001828054610187906105d2565b80156101d25780601f106101a9576101008083540402835291602001916101d2565b820191905f5260205f20905b8154815290600101906020018083116101b557829003601f168201915b50505050509050919050565b6060600180546101ed906105d2565b80601f0160208091040260200160405190810160405280929190818152602001828054610219906105d2565b80156102645780601f1061023b57610100808354040283529160200191610264565b820191905f5260205f20905b81548152906001019060200180831161024757829003601f168201915b5050505050905090565b5f8054906101000a900473ffffffffffffffffffffffffffffffffffffffff1681565b5f604051905090565b5f80fd5b5f80fd5b5f80fd5b5f80fd5b5f601f19601f8301169050919050565b7f4e487b71000000000000000000000000000000000000000000000000000000005f52604160045260245ffd5b6102f0826102aa565b810181811067ffffffffffffffff8211171561030f5761030e6102ba565b5b80604052505050565b5f610321610291565b905061032d82826102e7565b919050565b5f67ffffffffffffffff82111561034c5761034b6102ba565b5b610355826102aa565b9050602081019050919050565b828183375f83830152505050565b5f61038261037d84610332565b610318565b90508281526020810184848401111561039e5761039d6102a6565b5b6103a9848285610362565b509392505050565b5f82601f8301126103c5576103c46102a2565b5b81356103d5848260208601610370565b91505092915050565b5f602082840312156103f3576103f261029a565b5b5f82013567ffffffffffffffff8111156104105761040f61029e565b5b61041c848285016103b1565b91505092915050565b5f81519050919050565b5f82825260208201905092915050565b5f5b8381101561045c578082015181840152602081019050610441565b5f8484015250505050565b5f61047182610425565b61047b818561042f565b935061048b81856020860161043f565b610494816102aa565b840191505092915050565b5f6020820190508181035f8301526104b78184610467565b905092915050565b5f73ffffffffffffffffffffffffffffffffffffffff82169050919050565b5f6104e8826104bf565b9050919050565b6104f8816104de565b82525050565b5f6020820190506105115f8301846104ef565b92915050565b7f446576652073657220646f6e6f2070617261206368616d6172206573736120665f8201527f756ec3a7c3a36f00000000000000000000000000000000000000000000000000602082015250565b5f61057160278361042f565b915061057c82610517565b604082019050919050565b5f6020820190508181035f83015261059e81610565565b9050919050565b7f4e487b71000000000000000000000000000000000000000000000000000000005f52602260045260245ffd5b5f60028204905060018216806105e957607f821691505b6020821081036105fc576105fb6105a5565b5b50919050565b5f819050815f5260205f209050919050565b5f6020601f8301049050919050565b5f82821b905092915050565b5f6008830261065e7fffffffffffffffffffffffffffffffffffffffffffffffffffffffffffffffff82610623565b6106688683610623565b95508019841693508086168417925050509392505050565b5f819050919050565b5f819050919050565b5f6106ac6106a76106a284610680565b610689565b610680565b9050919050565b5f819050919050565b6106c583610692565b6106d96106d1826106b3565b84845461062f565b825550505050565b5f90565b6106ed6106e1565b6106f88184846106bc565b505050565b5b8181101561071b576107105f826106e5565b6001810190506106fe565b5050565b601f8211156107605761073181610602565b61073a84610614565b81016020851015610749578190505b61075d61075585610614565b8301826106fd565b50505b505050565b5f82821c905092915050565b5f6107805f1984600802610765565b1980831691505092915050565b5f6107988383610771565b9150826002028217905092915050565b6107b182610425565b67ffffffffffffffff8111156107ca576107c96102ba565b5b6107d482546105d2565b6107df82828561071f565b5f60209050601f831160018114610810575f84156107fe578287015190505b610808858261078d565b86555061086f565b601f19841661081e86610602565b5f5b8281101561084557848901518255600182019150602085019450602081019050610820565b86831015610862578489015161085e601f891682610771565b8355505b6001600288020188555050505b50505050505056fea26469706673582212203a9742d8a4bb0427ee3d8ac55461d9a6ab40e03d66c6e63ba3c8e6f7d327bac664736f6c63430008160033",
			"opcodes": "PUSH1 0x80 PUSH1 0x40 MSTORE CALLVALUE DUP1 ISZERO PUSH2 0xF JUMPI PUSH0 DUP1 REVERT JUMPDEST POP CALLER PUSH0 DUP1 PUSH2 0x100 EXP DUP2 SLOAD DUP2 PUSH20 0xFFFFFFFFFFFFFFFFFFFFFFFFFFFFFFFFFFFFFFFF MUL NOT AND SWAP1 DUP4 PUSH20 0xFFFFFFFFFFFFFFFFFFFFFFFFFFFFFFFFFFFFFFFF AND MUL OR SWAP1 SSTORE POP PUSH2 0x8AD DUP1 PUSH2 0x5C PUSH0 CODECOPY PUSH0 RETURN INVALID PUSH1 0x80 PUSH1 0x40 MSTORE CALLVALUE DUP1 ISZERO PUSH2 0xF JUMPI PUSH0 DUP1 REVERT JUMPDEST POP PUSH1 0x4 CALLDATASIZE LT PUSH2 0x3F JUMPI PUSH0 CALLDATALOAD PUSH1 0xE0 SHR DUP1 PUSH4 0x50D3B056 EQ PUSH2 0x43 JUMPI DUP1 PUSH4 0x85B324AD EQ PUSH2 0x73 JUMPI DUP1 PUSH4 0x8DA5CB5B EQ PUSH2 0x91 JUMPI JUMPDEST PUSH0 DUP1 REVERT JUMPDEST PUSH2 0x5D PUSH1 0x4 DUP1 CALLDATASIZE SUB DUP2 ADD SWAP1 PUSH2 0x58 SWAP2 SWAP1 PUSH2 0x3DE JUMP JUMPDEST PUSH2 0xAF JUMP JUMPDEST PUSH1 0x40 MLOAD PUSH2 0x6A SWAP2 SWAP1 PUSH2 0x49F JUMP JUMPDEST PUSH1 0x40 MLOAD DUP1 SWAP2 SUB SWAP1 RETURN JUMPDEST PUSH2 0x7B PUSH2 0x1DE JUMP JUMPDEST PUSH1 0x40 MLOAD PUSH2 0x88 SWAP2 SWAP1 PUSH2 0x49F JUMP JUMPDEST PUSH1 0x40 MLOAD DUP1 SWAP2 SUB SWAP1 RETURN JUMPDEST PUSH2 0x99 PUSH2 0x26E JUMP JUMPDEST PUSH1 0x40 MLOAD PUSH2 0xA6 SWAP2 SWAP1 PUSH2 0x4FE JUMP JUMPDEST PUSH1 0x40 MLOAD DUP1 SWAP2 SUB SWAP1 RETURN JUMPDEST PUSH1 0x60 PUSH0 DUP1 SLOAD SWAP1 PUSH2 0x100 EXP SWAP1 DIV PUSH20 0xFFFFFFFFFFFFFFFFFFFFFFFFFFFFFFFFFFFFFFFF AND PUSH20 0xFFFFFFFFFFFFFFFFFFFFFFFFFFFFFFFFFFFFFFFF AND CALLER PUSH20 0xFFFFFFFFFFFFFFFFFFFFFFFFFFFFFFFFFFFFFFFF AND EQ PUSH2 0x13E JUMPI PUSH1 0x40 MLOAD PUSH32 0x8C379A000000000000000000000000000000000000000000000000000000000 DUP2 MSTORE PUSH1 0x4 ADD PUSH2 0x135 SWAP1 PUSH2 0x587 JUMP JUMPDEST PUSH1 0x40 MLOAD DUP1 SWAP2 SUB SWAP1 REVERT JUMPDEST DUP2 PUSH1 0x1 SWAP1 DUP2 PUSH2 0x14D SWAP2 SWAP1 PUSH2 0x7A8 JUMP JUMPDEST POP PUSH1 0x1 DUP1 SLOAD PUSH2 0x15B SWAP1 PUSH2 0x5D2 JUMP JUMPDEST DUP1 PUSH1 0x1F ADD PUSH1 0x20 DUP1 SWAP2 DIV MUL PUSH1 0x20 ADD PUSH1 0x40 MLOAD SWAP1 DUP2 ADD PUSH1 0x40 MSTORE DUP1 SWAP3 SWAP2 SWAP1 DUP2 DUP2 MSTORE PUSH1 0x20 ADD DUP3 DUP1 SLOAD PUSH2 0x187 SWAP1 PUSH2 0x5D2 JUMP JUMPDEST DUP1 ISZERO PUSH2 0x1D2 JUMPI DUP1 PUSH1 0x1F LT PUSH2 0x1A9 JUMPI PUSH2 0x100 DUP1 DUP4 SLOAD DIV MUL DUP4 MSTORE SWAP2 PUSH1 0x20 ADD SWAP2 PUSH2 0x1D2 JUMP JUMPDEST DUP3 ADD SWAP2 SWAP1 PUSH0 MSTORE PUSH1 0x20 PUSH0 KECCAK256 SWAP1 JUMPDEST DUP2 SLOAD DUP2 MSTORE SWAP1 PUSH1 0x1 ADD SWAP1 PUSH1 0x20 ADD DUP1 DUP4 GT PUSH2 0x1B5 JUMPI DUP3 SWAP1 SUB PUSH1 0x1F AND DUP3 ADD SWAP2 JUMPDEST POP POP POP POP POP SWAP1 POP SWAP2 SWAP1 POP JUMP JUMPDEST PUSH1 0x60 PUSH1 0x1 DUP1 SLOAD PUSH2 0x1ED SWAP1 PUSH2 0x5D2 JUMP JUMPDEST DUP1 PUSH1 0x1F ADD PUSH1 0x20 DUP1 SWAP2 DIV MUL PUSH1 0x20 ADD PUSH1 0x40 MLOAD SWAP1 DUP2 ADD PUSH1 0x40 MSTORE DUP1 SWAP3 SWAP2 SWAP1 DUP2 DUP2 MSTORE PUSH1 0x20 ADD DUP3 DUP1 SLOAD PUSH2 0x219 SWAP1 PUSH2 0x5D2 JUMP JUMPDEST DUP1 ISZERO PUSH2 0x264 JUMPI DUP1 PUSH1 0x1F LT PUSH2 0x23B JUMPI PUSH2 0x100 DUP1 DUP4 SLOAD DIV MUL DUP4 MSTORE SWAP2 PUSH1 0x20 ADD SWAP2 PUSH2 0x264 JUMP JUMPDEST DUP3 ADD SWAP2 SWAP1 PUSH0 MSTORE PUSH1 0x20 PUSH0 KECCAK256 SWAP1 JUMPDEST DUP2 SLOAD DUP2 MSTORE SWAP1 PUSH1 0x1 ADD SWAP1 PUSH1 0x20 ADD DUP1 DUP4 GT PUSH2 0x247 JUMPI DUP3 SWAP1 SUB PUSH1 0x1F AND DUP3 ADD SWAP2 JUMPDEST POP POP POP POP POP SWAP1 POP SWAP1 JUMP JUMPDEST PUSH0 DUP1 SLOAD SWAP1 PUSH2 0x100 EXP SWAP1 DIV PUSH20 0xFFFFFFFFFFFFFFFFFFFFFFFFFFFFFFFFFFFFFFFF AND DUP2 JUMP JUMPDEST PUSH0 PUSH1 0x40 MLOAD SWAP1 POP SWAP1 JUMP JUMPDEST PUSH0 DUP1 REVERT JUMPDEST PUSH0 DUP1 REVERT JUMPDEST PUSH0 DUP1 REVERT JUMPDEST PUSH0 DUP1 REVERT JUMPDEST PUSH0 PUSH1 0x1F NOT PUSH1 0x1F DUP4 ADD AND SWAP1 POP SWAP2 SWAP1 POP JUMP JUMPDEST PUSH32 0x4E487B7100000000000000000000000000000000000000000000000000000000 PUSH0 MSTORE PUSH1 0x41 PUSH1 0x4 MSTORE PUSH1 0x24 PUSH0 REVERT JUMPDEST PUSH2 0x2F0 DUP3 PUSH2 0x2AA JUMP JUMPDEST DUP2 ADD DUP2 DUP2 LT PUSH8 0xFFFFFFFFFFFFFFFF DUP3 GT OR ISZERO PUSH2 0x30F JUMPI PUSH2 0x30E PUSH2 0x2BA JUMP JUMPDEST JUMPDEST DUP1 PUSH1 0x40 MSTORE POP POP POP JUMP JUMPDEST PUSH0 PUSH2 0x321 PUSH2 0x291 JUMP JUMPDEST SWAP1 POP PUSH2 0x32D DUP3 DUP3 PUSH2 0x2E7 JUMP JUMPDEST SWAP2 SWAP1 POP JUMP JUMPDEST PUSH0 PUSH8 0xFFFFFFFFFFFFFFFF DUP3 GT ISZERO PUSH2 0x34C JUMPI PUSH2 0x34B PUSH2 0x2BA JUMP JUMPDEST JUMPDEST PUSH2 0x355 DUP3 PUSH2 0x2AA JUMP JUMPDEST SWAP1 POP PUSH1 0x20 DUP2 ADD SWAP1 POP SWAP2 SWAP1 POP JUMP JUMPDEST DUP3 DUP2 DUP4 CALLDATACOPY PUSH0 DUP4 DUP4 ADD MSTORE POP POP POP JUMP JUMPDEST PUSH0 PUSH2 0x382 PUSH2 0x37D DUP5 PUSH2 0x332 JUMP JUMPDEST PUSH2 0x318 JUMP JUMPDEST SWAP1 POP DUP3 DUP2 MSTORE PUSH1 0x20 DUP2 ADD DUP5 DUP5 DUP5 ADD GT ISZERO PUSH2 0x39E JUMPI PUSH2 0x39D PUSH2 0x2A6 JUMP JUMPDEST JUMPDEST PUSH2 0x3A9 DUP5 DUP3 DUP6 PUSH2 0x362 JUMP JUMPDEST POP SWAP4 SWAP3 POP POP POP JUMP JUMPDEST PUSH0 DUP3 PUSH1 0x1F DUP4 ADD SLT PUSH2 0x3C5 JUMPI PUSH2 0x3C4 PUSH2 0x2A2 JUMP JUMPDEST JUMPDEST DUP2 CALLDATALOAD PUSH2 0x3D5 DUP5 DUP3 PUSH1 0x20 DUP7 ADD PUSH2 0x370 JUMP JUMPDEST SWAP2 POP POP SWAP3 SWAP2 POP POP JUMP JUMPDEST PUSH0 PUSH1 0x20 DUP3 DUP5 SUB SLT ISZERO PUSH2 0x3F3 JUMPI PUSH2 0x3F2 PUSH2 0x29A JUMP JUMPDEST JUMPDEST PUSH0 DUP3 ADD CALLDATALOAD PUSH8 0xFFFFFFFFFFFFFFFF DUP2 GT ISZERO PUSH2 0x410 JUMPI PUSH2 0x40F PUSH2 0x29E JUMP JUMPDEST JUMPDEST PUSH2 0x41C DUP5 DUP3 DUP6 ADD PUSH2 0x3B1 JUMP JUMPDEST SWAP2 POP POP SWAP3 SWAP2 POP POP JUMP JUMPDEST PUSH0 DUP2 MLOAD SWAP1 POP SWAP2 SWAP1 POP JUMP JUMPDEST PUSH0 DUP3 DUP3 MSTORE PUSH1 0x20 DUP3 ADD SWAP1 POP SWAP3 SWAP2 POP POP JUMP JUMPDEST PUSH0 JUMPDEST DUP4 DUP2 LT ISZERO PUSH2 0x45C JUMPI DUP1 DUP3 ADD MLOAD DUP2 DUP5 ADD MSTORE PUSH1 0x20 DUP2 ADD SWAP1 POP PUSH2 0x441 JUMP JUMPDEST PUSH0 DUP5 DUP5 ADD MSTORE POP POP POP POP JUMP JUMPDEST PUSH0 PUSH2 0x471 DUP3 PUSH2 0x425 JUMP JUMPDEST PUSH2 0x47B DUP2 DUP6 PUSH2 0x42F JUMP JUMPDEST SWAP4 POP PUSH2 0x48B DUP2 DUP6 PUSH1 0x20 DUP7 ADD PUSH2 0x43F JUMP JUMPDEST PUSH2 0x494 DUP2 PUSH2 0x2AA JUMP JUMPDEST DUP5 ADD SWAP2 POP POP SWAP3 SWAP2 POP POP JUMP JUMPDEST PUSH0 PUSH1 0x20 DUP3 ADD SWAP1 POP DUP2 DUP2 SUB PUSH0 DUP4 ADD MSTORE PUSH2 0x4B7 DUP2 DUP5 PUSH2 0x467 JUMP JUMPDEST SWAP1 POP SWAP3 SWAP2 POP POP JUMP JUMPDEST PUSH0 PUSH20 0xFFFFFFFFFFFFFFFFFFFFFFFFFFFFFFFFFFFFFFFF DUP3 AND SWAP1 POP SWAP2 SWAP1 POP JUMP JUMPDEST PUSH0 PUSH2 0x4E8 DUP3 PUSH2 0x4BF JUMP JUMPDEST SWAP1 POP SWAP2 SWAP1 POP JUMP JUMPDEST PUSH2 0x4F8 DUP2 PUSH2 0x4DE JUMP JUMPDEST DUP3 MSTORE POP POP JUMP JUMPDEST PUSH0 PUSH1 0x20 DUP3 ADD SWAP1 POP PUSH2 0x511 PUSH0 DUP4 ADD DUP5 PUSH2 0x4EF JUMP JUMPDEST SWAP3 SWAP2 POP POP JUMP JUMPDEST PUSH32 0x446576652073657220646F6E6F2070617261206368616D617220657373612066 PUSH0 DUP3 ADD MSTORE PUSH32 0x756EC3A7C3A36F00000000000000000000000000000000000000000000000000 PUSH1 0x20 DUP3 ADD MSTORE POP JUMP JUMPDEST PUSH0 PUSH2 0x571 PUSH1 0x27 DUP4 PUSH2 0x42F JUMP JUMPDEST SWAP2 POP PUSH2 0x57C DUP3 PUSH2 0x517 JUMP JUMPDEST PUSH1 0x40 DUP3 ADD SWAP1 POP SWAP2 SWAP1 POP JUMP JUMPDEST PUSH0 PUSH1 0x20 DUP3 ADD SWAP1 POP DUP2 DUP2 SUB PUSH0 DUP4 ADD MSTORE PUSH2 0x59E DUP2 PUSH2 0x565 JUMP JUMPDEST SWAP1 POP SWAP2 SWAP1 POP JUMP JUMPDEST PUSH32 0x4E487B7100000000000000000000000000000000000000000000000000000000 PUSH0 MSTORE PUSH1 0x22 PUSH1 0x4 MSTORE PUSH1 0x24 PUSH0 REVERT JUMPDEST PUSH0 PUSH1 0x2 DUP3 DIV SWAP1 POP PUSH1 0x1 DUP3 AND DUP1 PUSH2 0x5E9 JUMPI PUSH1 0x7F DUP3 AND SWAP2 POP JUMPDEST PUSH1 0x20 DUP3 LT DUP2 SUB PUSH2 0x5FC JUMPI PUSH2 0x5FB PUSH2 0x5A5 JUMP JUMPDEST JUMPDEST POP SWAP2 SWAP1 POP JUMP JUMPDEST PUSH0 DUP2 SWAP1 POP DUP2 PUSH0 MSTORE PUSH1 0x20 PUSH0 KECCAK256 SWAP1 POP SWAP2 SWAP1 POP JUMP JUMPDEST PUSH0 PUSH1 0x20 PUSH1 0x1F DUP4 ADD DIV SWAP1 POP SWAP2 SWAP1 POP JUMP JUMPDEST PUSH0 DUP3 DUP3 SHL SWAP1 POP SWAP3 SWAP2 POP POP JUMP JUMPDEST PUSH0 PUSH1 0x8 DUP4 MUL PUSH2 0x65E PUSH32 0xFFFFFFFFFFFFFFFFFFFFFFFFFFFFFFFFFFFFFFFFFFFFFFFFFFFFFFFFFFFFFFFF DUP3 PUSH2 0x623 JUMP JUMPDEST PUSH2 0x668 DUP7 DUP4 PUSH2 0x623 JUMP JUMPDEST SWAP6 POP DUP1 NOT DUP5 AND SWAP4 POP DUP1 DUP7 AND DUP5 OR SWAP3 POP POP POP SWAP4 SWAP3 POP POP POP JUMP JUMPDEST PUSH0 DUP2 SWAP1 POP SWAP2 SWAP1 POP JUMP JUMPDEST PUSH0 DUP2 SWAP1 POP SWAP2 SWAP1 POP JUMP JUMPDEST PUSH0 PUSH2 0x6AC PUSH2 0x6A7 PUSH2 0x6A2 DUP5 PUSH2 0x680 JUMP JUMPDEST PUSH2 0x689 JUMP JUMPDEST PUSH2 0x680 JUMP JUMPDEST SWAP1 POP SWAP2 SWAP1 POP JUMP JUMPDEST PUSH0 DUP2 SWAP1 POP SWAP2 SWAP1 POP JUMP JUMPDEST PUSH2 0x6C5 DUP4 PUSH2 0x692 JUMP JUMPDEST PUSH2 0x6D9 PUSH2 0x6D1 DUP3 PUSH2 0x6B3 JUMP JUMPDEST DUP5 DUP5 SLOAD PUSH2 0x62F JUMP JUMPDEST DUP3 SSTORE POP POP POP POP JUMP JUMPDEST PUSH0 SWAP1 JUMP JUMPDEST PUSH2 0x6ED PUSH2 0x6E1 JUMP JUMPDEST PUSH2 0x6F8 DUP2 DUP5 DUP5 PUSH2 0x6BC JUMP JUMPDEST POP POP POP JUMP JUMPDEST JUMPDEST DUP2 DUP2 LT ISZERO PUSH2 0x71B JUMPI PUSH2 0x710 PUSH0 DUP3 PUSH2 0x6E5 JUMP JUMPDEST PUSH1 0x1 DUP2 ADD SWAP1 POP PUSH2 0x6FE JUMP JUMPDEST POP POP JUMP JUMPDEST PUSH1 0x1F DUP3 GT ISZERO PUSH2 0x760 JUMPI PUSH2 0x731 DUP2 PUSH2 0x602 JUMP JUMPDEST PUSH2 0x73A DUP5 PUSH2 0x614 JUMP JUMPDEST DUP2 ADD PUSH1 0x20 DUP6 LT ISZERO PUSH2 0x749 JUMPI DUP2 SWAP1 POP JUMPDEST PUSH2 0x75D PUSH2 0x755 DUP6 PUSH2 0x614 JUMP JUMPDEST DUP4 ADD DUP3 PUSH2 0x6FD JUMP JUMPDEST POP POP JUMPDEST POP POP POP JUMP JUMPDEST PUSH0 DUP3 DUP3 SHR SWAP1 POP SWAP3 SWAP2 POP POP JUMP JUMPDEST PUSH0 PUSH2 0x780 PUSH0 NOT DUP5 PUSH1 0x8 MUL PUSH2 0x765 JUMP JUMPDEST NOT DUP1 DUP4 AND SWAP2 POP POP SWAP3 SWAP2 POP POP JUMP JUMPDEST PUSH0 PUSH2 0x798 DUP4 DUP4 PUSH2 0x771 JUMP JUMPDEST SWAP2 POP DUP3 PUSH1 0x2 MUL DUP3 OR SWAP1 POP SWAP3 SWAP2 POP POP JUMP JUMPDEST PUSH2 0x7B1 DUP3 PUSH2 0x425 JUMP JUMPDEST PUSH8 0xFFFFFFFFFFFFFFFF DUP2 GT ISZERO PUSH2 0x7CA JUMPI PUSH2 0x7C9 PUSH2 0x2BA JUMP JUMPDEST JUMPDEST PUSH2 0x7D4 DUP3 SLOAD PUSH2 0x5D2 JUMP JUMPDEST PUSH2 0x7DF DUP3 DUP3 DUP6 PUSH2 0x71F JUMP JUMPDEST PUSH0 PUSH1 0x20 SWAP1 POP PUSH1 0x1F DUP4 GT PUSH1 0x1 DUP2 EQ PUSH2 0x810 JUMPI PUSH0 DUP5 ISZERO PUSH2 0x7FE JUMPI DUP3 DUP8 ADD MLOAD SWAP1 POP JUMPDEST PUSH2 0x808 DUP6 DUP3 PUSH2 0x78D JUMP JUMPDEST DUP7 SSTORE POP PUSH2 0x86F JUMP JUMPDEST PUSH1 0x1F NOT DUP5 AND PUSH2 0x81E DUP7 PUSH2 0x602 JUMP JUMPDEST PUSH0 JUMPDEST DUP3 DUP2 LT ISZERO PUSH2 0x845 JUMPI DUP5 DUP10 ADD MLOAD DUP3 SSTORE PUSH1 0x1 DUP3 ADD SWAP2 POP PUSH1 0x20 DUP6 ADD SWAP5 POP PUSH1 0x20 DUP2 ADD SWAP1 POP PUSH2 0x820 JUMP JUMPDEST DUP7 DUP4 LT ISZERO PUSH2 0x862 JUMPI DUP5 DUP10 ADD MLOAD PUSH2 0x85E PUSH1 0x1F DUP10 AND DUP3 PUSH2 0x771 JUMP JUMPDEST DUP4 SSTORE POP JUMPDEST PUSH1 0x1 PUSH1 0x2 DUP9 MUL ADD DUP9 SSTORE POP POP POP JUMPDEST POP POP POP POP POP POP JUMP INVALID LOG2 PUSH5 0x6970667358 0x22 SLT KECCAK256 GASPRICE SWAP8 TIMESTAMP 0xD8 LOG4 0xBB DIV 0x27 0xEE RETURNDATASIZE DUP11 0xC5 SLOAD PUSH2 0xD9A6 0xAB BLOCKHASH 0xE0 RETURNDATASIZE PUSH7 0xC6E63BA3C8E6F7 0xD3 0x27 0xBA 0xC6 PUSH5 0x736F6C6343 STOP ADDMOD AND STOP CALLER "
		},
		"gasEstimates": {
			"creation": {
				"codeDepositCost": "444200",
				"executionCost": "24743",
				"totalCost": "468943"
			},
			"external": {
				"guarda(string)": "infinite",
				"owner()": "2527",
				"recupera()": "infinite"
			}
		},
		"methodIdentifiers": {
			"guarda(string)": "50d3b056",
			"owner()": "8da5cb5b",
			"recupera()": "85b324ad"
		}
	},
	"abi": [
		{
			"inputs": [
				{
					"internalType": "string",
					"name": "texto",
					"type": "string"
				}
			],
			"name": "guarda",
			"outputs": [
				{
					"internalType": "string",
					"name": "",
					"type": "string"
				}
			],
			"stateMutability": "nonpayable",
			"type": "function"
		},
		{
			"inputs": [],
			"name": "owner",
			"outputs": [
				{
					"internalType": "address",
					"name": "",
					"type": "address"
				}
			],
			"stateMutability": "view",
			"type": "function"
		},
		{
			"inputs": [],
			"name": "recupera",
			"outputs": [
				{
					"internalType": "string",
					"name": "",
					"type": "string"
				}
			],
			"stateMutability": "view",
			"type": "function"
		}
	]
}